{
  "_format": "hh-sol-artifact-1",
  "contractName": "TestFilledSubtreesFinder",
  "sourceName": "contracts/test/TestFilledSubtreesFinder.sol",
  "abi": [
    {
      "inputs": [
        {
          "internalType": "uint256",
          "name": "elementIndex",
          "type": "uint256"
        },
        {
          "internalType": "uint256",
          "name": "layerIndex",
          "type": "uint256"
        }
      ],
      "name": "getFilledSubtreeIndex",
      "outputs": [
        {
          "internalType": "uint256",
          "name": "filledSubtreeIndex",
          "type": "uint256"
        }
      ],
      "stateMutability": "pure",
      "type": "function"
    },
    {
      "inputs": [
        {
          "internalType": "uint256",
          "name": "elementIndex",
          "type": "uint256"
        },
        {
          "internalType": "uint256",
          "name": "layerIndex",
          "type": "uint256"
        }
      ],
      "name": "getFilledSubtreeIndexGasEstimate",
      "outputs": [
        {
          "internalType": "uint256",
          "name": "filledSubtreeIndex",
          "type": "uint256"
        }
      ],
      "stateMutability": "payable",
      "type": "function"
    }
  ],
  "bytecode": "0x608060405234801561001057600080fd5b50610108806100206000396000f3fe60806040526004361060265760003560e01c80630650380b14602b5780635657394f14604c575b600080fd5b603a60363660046082565b6063565b60405190815260200160405180910390f35b348015605757600080fd5b50603a60363660046082565b600060018083011b8381607657607660a3565b04600202905092915050565b60008060408385031215609457600080fd5b50508035926020909101359150565b7f4e487b7100000000000000000000000000000000000000000000000000000000600052601260045260246000fdfea2646970667358221220d90c54e397b471de95658422e96dbbd10936b20fd94f9ebbacfe2bc43513c39364736f6c63430008180033",
  "linkReferences": {},
  "deployedLinkReferences": {}
}