{
  "contracts/IncrementalMerkleTree.sol": {
    "IncrementalMerkleTree": {
      "abi": [
        {
          "inputs": [
            {
              "internalType": "address",
              "name": "poseidon",
              "type": "address"
            }
          ],
          "stateMutability": "nonpayable",
          "type": "constructor"
        },
        {
          "inputs": [],
          "name": "LEVELS",
          "outputs": [
            {
              "internalType": "uint256",
              "name": "",
              "type": "uint256"
            }
          ],
          "stateMutability": "view",
          "type": "function"
        },
        {
          "inputs": [],
          "name": "ROOTS_CAPACITY",
          "outputs": [
            {
              "internalType": "uint256",
              "name": "",
              "type": "uint256"
            }
          ],
          "stateMutability": "view",
          "type": "function"
        },
        {
          "inputs": [],
          "name": "currentLeafIndex",
          "outputs": [
            {
              "internalType": "uint256",
              "name": "",
              "type": "uint256"
            }
          ],
          "stateMutability": "view",
          "type": "function"
        },
        {
          "inputs": [
            {
              "internalType": "uint256",
              "name": "",
              "type": "uint256"
            }
          ],
          "name": "filledSubtrees",
          "outputs": [
            {
              "internalType": "bytes32",
              "name": "",
              "type": "bytes32"
            }
          ],
          "stateMutability": "view",
          "type": "function"
        },
        {
          "inputs": [],
          "name": "getLatestRoot",
          "outputs": [
            {
              "internalType": "bytes32",
              "name": "",
              "type": "bytes32"
            }
          ],
          "stateMutability": "view",
          "type": "function"
        },
        {
          "inputs": [],
          "name": "hasher",
          "outputs": [
            {
              "internalType": "contract IPoseidon",
              "name": "",
              "type": "address"
            }
          ],
          "stateMutability": "view",
          "type": "function"
        },
        {
          "inputs": [
            {
              "internalType": "bytes32",
              "name": "root",
              "type": "bytes32"
            }
          ],
          "name": "isKnownRoot",
          "outputs": [
            {
              "internalType": "bool",
              "name": "",
              "type": "bool"
            }
          ],
          "stateMutability": "view",
          "type": "function"
        },
        {
          "inputs": [
            {
              "internalType": "uint256",
              "name": "",
              "type": "uint256"
            }
          ],
          "name": "roots",
          "outputs": [
            {
              "internalType": "bytes32",
              "name": "",
              "type": "bytes32"
            }
          ],
          "stateMutability": "view",
          "type": "function"
        }
      ],
      "evm": {
        "bytecode": {
          "linkReferences": {},
          "object": "60a06040526000805534801561001457600080fd5b506040516108c53803806108c5833981016040819052610033916105ca565b6001600160a01b03166080527f0133a292295d50240eb5edfcaa95731512ccdaf79758573a1f627dc47adbde7e7fa6eef7e35abe7026729641147f7915573c7e97b47efa546f5f6e3230263bcb49557f0ba2d612822ad57fd2285564f4bad51f685240488003085993bf5ee8e63c31cb7fcc69885fda6bcc1a4ace058b4a62bf5e179ea78fd58a1ccd71c22cc9b688792f557f27b302c974bf7444cb94f3eeae53d5cb897748679c94958c692567ed97e96c3c7fd9d16d34ffb15ba3a3d852f0d403e2ce1d691fb54de27ac87cd2f993f3ec330f557f1c573635007d49a2e0e4e525a32ca29c3049377182bbb01efeddbcdfe513f82b7f7dfe757ecd65cbd7922a9c0161e935dd7fdbcc0e999689c7d31633896b1fc60b557f2e1bf7a6e73442cdeaec1eb387d34b4a27f6957a2ae407bba844135fca5d8dbc7fedc95719e9a3b28dd8e80877cb5880a9be7de1a13fc8b05e7999683b6b567643557e09199390bdb47d6917f64668754dbeb426b43513fa7b0807d85794bd60270d7fe2689cd4a84e23ad2f564004f1c9013e9589d260bde6380aba3ca7e09e4df40c557f2f7739fa804b1102b2e95582a4cfb3c25d26e1f70133a81e6fed8fedbf7016ef7f8f331abe73332f95a25873e8b430885974c0409691f89d643119a11623a7924a557e371f555c474e2f7846b97c7a90dab5fcc55ac0010c271796ad497f666890337fdc686ec4a0ff239c70e7c7c36e8f853eced3bc8618f48d2b816da2a74311237e557f15b36b0debb62e1b11a9e331644a806960a4df8919180dc0745d17c7a912e9897f4db623e5c4870b62d3fc9b4e8f893a1a77627d75ab45d9ff7e56ba19564af99b557f0fab3738a9ec3b9c6eaa98bf46972ed3cbbae7982f0e69b3c7e9053adf32290d7f74a5fbcb419ab7dbacbb2c92a4e163730f0da5c72b911deecf4f05a6b327d0a4557f16824b083a3f105f6671a504c2379de67cc5154c5b557294e35d27d1d35312257f2a32391a76c35a36352b711f9152c0d0a340cd686850c8ef25fbb11c71b89e7b557f297ecae656a0fe904fe84f8db691c7156a51dd5e228873cf75ced697dd8e5c197ffc80cd5fe514767bc6e66ec558e68a5429ea70b50fa6caa3b53fc9278e918632557f067c35b9ac5cdc355c6f9eaef4721e6d622a4fd32d74d7be3f78b17e5d8597ea7f23bf72df16f8335be9a3eddfb5ef1c739b12847d13a384ec83f578699d38eb89557f2c2633f1ae47ae42e0ce8eadec89c64d44a1fa98f1ee85ad4bf536594af4e27f7f86b3fa87ee245373978e0d2d334dbde866c9b8b039036b87c5eb2fd89bcb6bab557f2d9c6e7eca6e7ba2b8335ae16998576602fe7910fb5ef41ce94d00b1332cf6247f57aaafa65c4e563d39fff90096a5fa76d42117f53d87ef870784e64d63a8a16b557f239f1418b2b0a70f468d0903cc46524d8f7efbdb2dfa561494ca5bffcc7877007f12bd632ff333b55931f9f8bda8b4ed27e86687f88c95871969d72474fb428c14557f0b15e263911ee4d77b6a394b70dc93ad3df6dfdf6a3f7605f9cafb6968d8f1f67f755311b9e2cee471a91b161ccc5deed933d844b5af2b885543cc3c04eb640983557f2c069c957125a3e2cb4e16ca506d5f4f387d11d1aea33b30a8dd4ca3074f4de67fc8d233a0ebef7c9a17d2b0b17eea62cca39002a128ccf419119b4a1a1f1e7428557f0be6d282d26c02019fd66e32c8d85154b77253e7c6016b26a991352e0016d5807f40165e7164257b249280bf839a50283d248062ed7b0e6d8820cb6c506bfcf7d3557f1e29cfb0c1ad522f22a3b3e23c057cbd3c7ab921e742a8dfcbc66dbde917d5b27f41cb80f82badddd72e38fda86a7cbba38fafd9735ef98c7795abbbaf2b149562556000805260026020527f2fb6e40b303cff95dec23c65cbfc0a74e935784e091b5a6cddc02faa6a7177e27fac33ff75c19e70fe83507db0d683fd3465c996598dc972688b7ace676c89077b556105fa565b6000602082840312156105dc57600080fd5b81516001600160a01b03811681146105f357600080fd5b9392505050565b6080516102b0610615600039600061010901526102b06000f3fe608060405234801561001057600080fd5b50600436106100885760003560e01c8063c2b40ae41161005b578063c2b40ae4146100dc578063e2adba8c146100fc578063ed33639f14610104578063f178e47c1461015057600080fd5b806353e553711461008d5780635445b007146100a95780636840fcea146100b15780636d9833e3146100b9575b600080fd5b61009660005481565b6040519081526020015b60405180910390f35b610096610170565b610096601e81565b6100cc6100c7366004610226565b610199565b60405190151581526020016100a0565b6100966100ea366004610226565b60026020526000908152604090205481565b610096601481565b61012b7f000000000000000000000000000000000000000000000000000000000000000081565b60405173ffffffffffffffffffffffffffffffffffffffff90911681526020016100a0565b61009661015e366004610226565b60016020526000908152604090205481565b600060026000601e600054610185919061023f565b815260200190815260200160002054905090565b60008181036101aa57506000919050565b6000601e6000546101bb919061023f565b905060005b60008281526002602052604090205484036101df575060019392505050565b816000036101ec57601e91505b7fffffffffffffffffffffffffffffffffffffffffffffffffffffffffffffffff90910190600101601e81106101c0575060009392505050565b60006020828403121561023857600080fd5b5035919050565b600082610275577f4e487b7100000000000000000000000000000000000000000000000000000000600052601260045260246000fd5b50069056fea2646970667358221220f7de37c78df234860e05c5db56ebb5923e48ee8093b28d49ec432e00238b4d6764736f6c63430008180033",
          "opcodes": "PUSH1 0xA0 PUSH1 0x40 MSTORE PUSH1 0x0 DUP1 SSTORE CALLVALUE DUP1 ISZERO PUSH2 0x14 JUMPI PUSH1 0x0 DUP1 REVERT JUMPDEST POP PUSH1 0x40 MLOAD PUSH2 0x8C5 CODESIZE SUB DUP1 PUSH2 0x8C5 DUP4 CODECOPY DUP2 ADD PUSH1 0x40 DUP2 SWAP1 MSTORE PUSH2 0x33 SWAP2 PUSH2 0x5CA JUMP JUMPDEST PUSH1 0x1 PUSH1 0x1 PUSH1 0xA0 SHL SUB AND PUSH1 0x80 MSTORE PUSH32 0x133A292295D50240EB5EDFCAA95731512CCDAF79758573A1F627DC47ADBDE7E PUSH32 0xA6EEF7E35ABE7026729641147F7915573C7E97B47EFA546F5F6E3230263BCB49 SSTORE PUSH32 0xBA2D612822AD57FD2285564F4BAD51F685240488003085993BF5EE8E63C31CB PUSH32 0xCC69885FDA6BCC1A4ACE058B4A62BF5E179EA78FD58A1CCD71C22CC9B688792F SSTORE PUSH32 0x27B302C974BF7444CB94F3EEAE53D5CB897748679C94958C692567ED97E96C3C PUSH32 0xD9D16D34FFB15BA3A3D852F0D403E2CE1D691FB54DE27AC87CD2F993F3EC330F SSTORE PUSH32 0x1C573635007D49A2E0E4E525A32CA29C3049377182BBB01EFEDDBCDFE513F82B PUSH32 0x7DFE757ECD65CBD7922A9C0161E935DD7FDBCC0E999689C7D31633896B1FC60B SSTORE PUSH32 0x2E1BF7A6E73442CDEAEC1EB387D34B4A27F6957A2AE407BBA844135FCA5D8DBC PUSH32 0xEDC95719E9A3B28DD8E80877CB5880A9BE7DE1A13FC8B05E7999683B6B567643 SSTORE PUSH31 0x9199390BDB47D6917F64668754DBEB426B43513FA7B0807D85794BD60270D PUSH32 0xE2689CD4A84E23AD2F564004F1C9013E9589D260BDE6380ABA3CA7E09E4DF40C SSTORE PUSH32 0x2F7739FA804B1102B2E95582A4CFB3C25D26E1F70133A81E6FED8FEDBF7016EF PUSH32 0x8F331ABE73332F95A25873E8B430885974C0409691F89D643119A11623A7924A SSTORE PUSH31 0x371F555C474E2F7846B97C7A90DAB5FCC55AC0010C271796AD497F66689033 PUSH32 0xDC686EC4A0FF239C70E7C7C36E8F853ECED3BC8618F48D2B816DA2A74311237E SSTORE PUSH32 0x15B36B0DEBB62E1B11A9E331644A806960A4DF8919180DC0745D17C7A912E989 PUSH32 0x4DB623E5C4870B62D3FC9B4E8F893A1A77627D75AB45D9FF7E56BA19564AF99B SSTORE PUSH32 0xFAB3738A9EC3B9C6EAA98BF46972ED3CBBAE7982F0E69B3C7E9053ADF32290D PUSH32 0x74A5FBCB419AB7DBACBB2C92A4E163730F0DA5C72B911DEECF4F05A6B327D0A4 SSTORE PUSH32 0x16824B083A3F105F6671A504C2379DE67CC5154C5B557294E35D27D1D3531225 PUSH32 0x2A32391A76C35A36352B711F9152C0D0A340CD686850C8EF25FBB11C71B89E7B SSTORE PUSH32 0x297ECAE656A0FE904FE84F8DB691C7156A51DD5E228873CF75CED697DD8E5C19 PUSH32 0xFC80CD5FE514767BC6E66EC558E68A5429EA70B50FA6CAA3B53FC9278E918632 SSTORE PUSH32 0x67C35B9AC5CDC355C6F9EAEF4721E6D622A4FD32D74D7BE3F78B17E5D8597EA PUSH32 0x23BF72DF16F8335BE9A3EDDFB5EF1C739B12847D13A384EC83F578699D38EB89 SSTORE PUSH32 0x2C2633F1AE47AE42E0CE8EADEC89C64D44A1FA98F1EE85AD4BF536594AF4E27F PUSH32 0x86B3FA87EE245373978E0D2D334DBDE866C9B8B039036B87C5EB2FD89BCB6BAB SSTORE PUSH32 0x2D9C6E7ECA6E7BA2B8335AE16998576602FE7910FB5EF41CE94D00B1332CF624 PUSH32 0x57AAAFA65C4E563D39FFF90096A5FA76D42117F53D87EF870784E64D63A8A16B SSTORE PUSH32 0x239F1418B2B0A70F468D0903CC46524D8F7EFBDB2DFA561494CA5BFFCC787700 PUSH32 0x12BD632FF333B55931F9F8BDA8B4ED27E86687F88C95871969D72474FB428C14 SSTORE PUSH32 0xB15E263911EE4D77B6A394B70DC93AD3DF6DFDF6A3F7605F9CAFB6968D8F1F6 PUSH32 0x755311B9E2CEE471A91B161CCC5DEED933D844B5AF2B885543CC3C04EB640983 SSTORE PUSH32 0x2C069C957125A3E2CB4E16CA506D5F4F387D11D1AEA33B30A8DD4CA3074F4DE6 PUSH32 0xC8D233A0EBEF7C9A17D2B0B17EEA62CCA39002A128CCF419119B4A1A1F1E7428 SSTORE PUSH32 0xBE6D282D26C02019FD66E32C8D85154B77253E7C6016B26A991352E0016D580 PUSH32 0x40165E7164257B249280BF839A50283D248062ED7B0E6D8820CB6C506BFCF7D3 SSTORE PUSH32 0x1E29CFB0C1AD522F22A3B3E23C057CBD3C7AB921E742A8DFCBC66DBDE917D5B2 PUSH32 0x41CB80F82BADDDD72E38FDA86A7CBBA38FAFD9735EF98C7795ABBBAF2B149562 SSTORE PUSH1 0x0 DUP1 MSTORE PUSH1 0x2 PUSH1 0x20 MSTORE PUSH32 0x2FB6E40B303CFF95DEC23C65CBFC0A74E935784E091B5A6CDDC02FAA6A7177E2 PUSH32 0xAC33FF75C19E70FE83507DB0D683FD3465C996598DC972688B7ACE676C89077B SSTORE PUSH2 0x5FA JUMP JUMPDEST PUSH1 0x0 PUSH1 0x20 DUP3 DUP5 SUB SLT ISZERO PUSH2 0x5DC JUMPI PUSH1 0x0 DUP1 REVERT JUMPDEST DUP2 MLOAD PUSH1 0x1 PUSH1 0x1 PUSH1 0xA0 SHL SUB DUP2 AND DUP2 EQ PUSH2 0x5F3 JUMPI PUSH1 0x0 DUP1 REVERT JUMPDEST SWAP4 SWAP3 POP POP POP JUMP JUMPDEST PUSH1 0x80 MLOAD PUSH2 0x2B0 PUSH2 0x615 PUSH1 0x0 CODECOPY PUSH1 0x0 PUSH2 0x109 ADD MSTORE PUSH2 0x2B0 PUSH1 0x0 RETURN INVALID PUSH1 0x80 PUSH1 0x40 MSTORE CALLVALUE DUP1 ISZERO PUSH2 0x10 JUMPI PUSH1 0x0 DUP1 REVERT JUMPDEST POP PUSH1 0x4 CALLDATASIZE LT PUSH2 0x88 JUMPI PUSH1 0x0 CALLDATALOAD PUSH1 0xE0 SHR DUP1 PUSH4 0xC2B40AE4 GT PUSH2 0x5B JUMPI DUP1 PUSH4 0xC2B40AE4 EQ PUSH2 0xDC JUMPI DUP1 PUSH4 0xE2ADBA8C EQ PUSH2 0xFC JUMPI DUP1 PUSH4 0xED33639F EQ PUSH2 0x104 JUMPI DUP1 PUSH4 0xF178E47C EQ PUSH2 0x150 JUMPI PUSH1 0x0 DUP1 REVERT JUMPDEST DUP1 PUSH4 0x53E55371 EQ PUSH2 0x8D JUMPI DUP1 PUSH4 0x5445B007 EQ PUSH2 0xA9 JUMPI DUP1 PUSH4 0x6840FCEA EQ PUSH2 0xB1 JUMPI DUP1 PUSH4 0x6D9833E3 EQ PUSH2 0xB9 JUMPI JUMPDEST PUSH1 0x0 DUP1 REVERT JUMPDEST PUSH2 0x96 PUSH1 0x0 SLOAD DUP2 JUMP JUMPDEST PUSH1 0x40 MLOAD SWAP1 DUP2 MSTORE PUSH1 0x20 ADD JUMPDEST PUSH1 0x40 MLOAD DUP1 SWAP2 SUB SWAP1 RETURN JUMPDEST PUSH2 0x96 PUSH2 0x170 JUMP JUMPDEST PUSH2 0x96 PUSH1 0x1E DUP2 JUMP JUMPDEST PUSH2 0xCC PUSH2 0xC7 CALLDATASIZE PUSH1 0x4 PUSH2 0x226 JUMP JUMPDEST PUSH2 0x199 JUMP JUMPDEST PUSH1 0x40 MLOAD SWAP1 ISZERO ISZERO DUP2 MSTORE PUSH1 0x20 ADD PUSH2 0xA0 JUMP JUMPDEST PUSH2 0x96 PUSH2 0xEA CALLDATASIZE PUSH1 0x4 PUSH2 0x226 JUMP JUMPDEST PUSH1 0x2 PUSH1 0x20 MSTORE PUSH1 0x0 SWAP1 DUP2 MSTORE PUSH1 0x40 SWAP1 KECCAK256 SLOAD DUP2 JUMP JUMPDEST PUSH2 0x96 PUSH1 0x14 DUP2 JUMP JUMPDEST PUSH2 0x12B PUSH32 0x0 DUP2 JUMP JUMPDEST PUSH1 0x40 MLOAD PUSH20 0xFFFFFFFFFFFFFFFFFFFFFFFFFFFFFFFFFFFFFFFF SWAP1 SWAP2 AND DUP2 MSTORE PUSH1 0x20 ADD PUSH2 0xA0 JUMP JUMPDEST PUSH2 0x96 PUSH2 0x15E CALLDATASIZE PUSH1 0x4 PUSH2 0x226 JUMP JUMPDEST PUSH1 0x1 PUSH1 0x20 MSTORE PUSH1 0x0 SWAP1 DUP2 MSTORE PUSH1 0x40 SWAP1 KECCAK256 SLOAD DUP2 JUMP JUMPDEST PUSH1 0x0 PUSH1 0x2 PUSH1 0x0 PUSH1 0x1E PUSH1 0x0 SLOAD PUSH2 0x185 SWAP2 SWAP1 PUSH2 0x23F JUMP JUMPDEST DUP2 MSTORE PUSH1 0x20 ADD SWAP1 DUP2 MSTORE PUSH1 0x20 ADD PUSH1 0x0 KECCAK256 SLOAD SWAP1 POP SWAP1 JUMP JUMPDEST PUSH1 0x0 DUP2 DUP2 SUB PUSH2 0x1AA JUMPI POP PUSH1 0x0 SWAP2 SWAP1 POP JUMP JUMPDEST PUSH1 0x0 PUSH1 0x1E PUSH1 0x0 SLOAD PUSH2 0x1BB SWAP2 SWAP1 PUSH2 0x23F JUMP JUMPDEST SWAP1 POP PUSH1 0x0 JUMPDEST PUSH1 0x0 DUP3 DUP2 MSTORE PUSH1 0x2 PUSH1 0x20 MSTORE PUSH1 0x40 SWAP1 KECCAK256 SLOAD DUP5 SUB PUSH2 0x1DF JUMPI POP PUSH1 0x1 SWAP4 SWAP3 POP POP POP JUMP JUMPDEST DUP2 PUSH1 0x0 SUB PUSH2 0x1EC JUMPI PUSH1 0x1E SWAP2 POP JUMPDEST PUSH32 0xFFFFFFFFFFFFFFFFFFFFFFFFFFFFFFFFFFFFFFFFFFFFFFFFFFFFFFFFFFFFFFFF SWAP1 SWAP2 ADD SWAP1 PUSH1 0x1 ADD PUSH1 0x1E DUP2 LT PUSH2 0x1C0 JUMPI POP PUSH1 0x0 SWAP4 SWAP3 POP POP POP JUMP JUMPDEST PUSH1 0x0 PUSH1 0x20 DUP3 DUP5 SUB SLT ISZERO PUSH2 0x238 JUMPI PUSH1 0x0 DUP1 REVERT JUMPDEST POP CALLDATALOAD SWAP2 SWAP1 POP JUMP JUMPDEST PUSH1 0x0 DUP3 PUSH2 0x275 JUMPI PUSH32 0x4E487B7100000000000000000000000000000000000000000000000000000000 PUSH1 0x0 MSTORE PUSH1 0x12 PUSH1 0x4 MSTORE PUSH1 0x24 PUSH1 0x0 REVERT JUMPDEST POP MOD SWAP1 JUMP INVALID LOG2 PUSH5 0x6970667358 0x22 SLT KECCAK256 0xF7 0xDE CALLDATACOPY 0xC7 DUP14 CALLCODE CALLVALUE DUP7 0xE SDIV 0xC5 0xDB JUMP 0xEB 0xB5 SWAP3 RETURNDATACOPY BASEFEE 0xEE DUP1 SWAP4 0xB2 DUP14 BLOBHASH 0xEC NUMBER 0x2E STOP 0x23 DUP12 0x4D PUSH8 0x64736F6C63430008 XOR STOP CALLER "
        },
        "methodIdentifiers": {
          "LEVELS()": "e2adba8c",
          "ROOTS_CAPACITY()": "6840fcea",
          "currentLeafIndex()": "53e55371",
          "filledSubtrees(uint256)": "f178e47c",
          "getLatestRoot()": "5445b007",
          "hasher()": "ed33639f",
          "isKnownRoot(bytes32)": "6d9833e3",
          "roots(uint256)": "c2b40ae4"
        }
      }
    }
  }
}