{"contracts/test/TestFilledSubtreesFinder.sol":{"TestFilledSubtreesFinder":{"abi":[{"inputs":[{"internalType":"uint256","name":"elementIndex","type":"uint256"},{"internalType":"uint256","name":"layerIndex","type":"uint256"}],"name":"getFilledSubtreeIndex","outputs":[{"internalType":"uint256","name":"filledSubtreeIndex","type":"uint256"}],"stateMutability":"pure","type":"function"},{"inputs":[{"internalType":"uint256","name":"elementIndex","type":"uint256"},{"internalType":"uint256","name":"layerIndex","type":"uint256"}],"name":"getFilledSubtreeIndexGasEstimate","outputs":[{"internalType":"uint256","name":"filledSubtreeIndex","type":"uint256"}],"stateMutability":"payable","type":"function"}],"evm":{"bytecode":{"linkReferences":{},"object":"608060405234801561001057600080fd5b50610108806100206000396000f3fe60806040526004361060265760003560e01c80630650380b14602b5780635657394f14604c575b600080fd5b603a60363660046082565b6063565b60405190815260200160405180910390f35b348015605757600080fd5b50603a60363660046082565b600060018083011b8381607657607660a3565b04600202905092915050565b60008060408385031215609457600080fd5b50508035926020909101359150565b7f4e487b7100000000000000000000000000000000000000000000000000000000600052601260045260246000fdfea2646970667358221220d90c54e397b471de95658422e96dbbd10936b20fd94f9ebbacfe2bc43513c39364736f6c63430008180033","opcodes":"PUSH1 0x80 PUSH1 0x40 MSTORE CALLVALUE DUP1 ISZERO PUSH2 0x10 JUMPI PUSH1 0x0 DUP1 REVERT JUMPDEST POP PUSH2 0x108 DUP1 PUSH2 0x20 PUSH1 0x0 CODECOPY PUSH1 0x0 RETURN INVALID PUSH1 0x80 PUSH1 0x40 MSTORE PUSH1 0x4 CALLDATASIZE LT PUSH1 0x26 JUMPI PUSH1 0x0 CALLDATALOAD PUSH1 0xE0 SHR DUP1 PUSH4 0x650380B EQ PUSH1 0x2B JUMPI DUP1 PUSH4 0x5657394F EQ PUSH1 0x4C JUMPI JUMPDEST PUSH1 0x0 DUP1 REVERT JUMPDEST PUSH1 0x3A PUSH1 0x36 CALLDATASIZE PUSH1 0x4 PUSH1 0x82 JUMP JUMPDEST PUSH1 0x63 JUMP JUMPDEST PUSH1 0x40 MLOAD SWAP1 DUP2 MSTORE PUSH1 0x20 ADD PUSH1 0x40 MLOAD DUP1 SWAP2 SUB SWAP1 RETURN JUMPDEST CALLVALUE DUP1 ISZERO PUSH1 0x57 JUMPI PUSH1 0x0 DUP1 REVERT JUMPDEST POP PUSH1 0x3A PUSH1 0x36 CALLDATASIZE PUSH1 0x4 PUSH1 0x82 JUMP JUMPDEST PUSH1 0x0 PUSH1 0x1 DUP1 DUP4 ADD SHL DUP4 DUP2 PUSH1 0x76 JUMPI PUSH1 0x76 PUSH1 0xA3 JUMP JUMPDEST DIV PUSH1 0x2 MUL SWAP1 POP SWAP3 SWAP2 POP POP JUMP JUMPDEST PUSH1 0x0 DUP1 PUSH1 0x40 DUP4 DUP6 SUB SLT ISZERO PUSH1 0x94 JUMPI PUSH1 0x0 DUP1 REVERT JUMPDEST POP POP DUP1 CALLDATALOAD SWAP3 PUSH1 0x20 SWAP1 SWAP2 ADD CALLDATALOAD SWAP2 POP JUMP JUMPDEST PUSH32 0x4E487B7100000000000000000000000000000000000000000000000000000000 PUSH1 0x0 MSTORE PUSH1 0x12 PUSH1 0x4 MSTORE PUSH1 0x24 PUSH1 0x0 REVERT INVALID LOG2 PUSH5 0x6970667358 0x22 SLT KECCAK256 0xD9 0xC SLOAD 0xE3 SWAP8 0xB4 PUSH18 0xDE95658422E96DBBD10936B20FD94F9EBBAC INVALID 0x2B 0xC4 CALLDATALOAD SGT 0xC3 SWAP4 PUSH5 0x736F6C6343 STOP ADDMOD XOR STOP CALLER "},"methodIdentifiers":{"getFilledSubtreeIndex(uint256,uint256)":"5657394f","getFilledSubtreeIndexGasEstimate(uint256,uint256)":"0650380b"}}}}}