{"contracts/PrivacyPoolFactory.sol":{"PrivacyPoolFactory":{"abi":[{"inputs":[{"internalType":"address","name":"_poseidon","type":"address"}],"stateMutability":"nonpayable","type":"constructor"},{"inputs":[{"internalType":"address","name":"asset","type":"address"},{"internalType":"uint256","name":"power","type":"uint256"}],"name":"PoolInputNotAllowed","type":"error"},{"inputs":[{"internalType":"address","name":"asset","type":"address"},{"internalType":"uint256","name":"power","type":"uint256"}],"name":"PreviousPoolTreeLimitNotReached","type":"error"},{"inputs":[],"name":"ReentrancyGuardReentrantCall","type":"error"},{"anonymous":false,"inputs":[{"indexed":true,"internalType":"address","name":"privacyPool","type":"address"},{"indexed":true,"internalType":"address","name":"asset","type":"address"},{"indexed":false,"internalType":"uint256","name":"denomination","type":"uint256"}],"name":"PrivacyPoolCreated","type":"event"},{"inputs":[],"name":"MAX_TREE_LIMIT","outputs":[{"internalType":"uint256","name":"","type":"uint256"}],"stateMutability":"view","type":"function"},{"inputs":[],"name":"NATIVE","outputs":[{"internalType":"address","name":"","type":"address"}],"stateMutability":"view","type":"function"},{"inputs":[{"internalType":"address","name":"asset","type":"address"},{"internalType":"uint256","name":"power","type":"uint256"}],"name":"createPool","outputs":[{"internalType":"address","name":"pool","type":"address"}],"stateMutability":"nonpayable","type":"function"},{"inputs":[{"internalType":"address","name":"asset","type":"address"},{"internalType":"uint256","name":"power","type":"uint256"}],"name":"poolGroupByInput","outputs":[{"internalType":"address[]","name":"pools","type":"address[]"}],"stateMutability":"view","type":"function"},{"inputs":[{"internalType":"address","name":"asset","type":"address"},{"internalType":"uint256","name":"power","type":"uint256"}],"name":"poolGroupLength","outputs":[{"internalType":"uint256","name":"length","type":"uint256"}],"stateMutability":"view","type":"function"},{"inputs":[{"internalType":"address","name":"","type":"address"},{"internalType":"uint256","name":"","type":"uint256"},{"internalType":"uint256","name":"","type":"uint256"}],"name":"poolGroups","outputs":[{"internalType":"address","name":"","type":"address"}],"stateMutability":"view","type":"function"},{"inputs":[],"name":"poseidon","outputs":[{"internalType":"address","name":"","type":"address"}],"stateMutability":"view","type":"function"}],"evm":{"bytecode":{"linkReferences":{},"object":"60a060405234801561001057600080fd5b5060405161588d38038061588d83398101604081905261002f91610045565b60016000556001600160a01b0316608052610075565b60006020828403121561005757600080fd5b81516001600160a01b038116811461006e57600080fd5b9392505050565b6080516157ef61009e600039600081816101460152818161035e01526105d101526157ef6000f3fe60806040523480156200001157600080fd5b5060043610620000875760003560e01c80633d6dfaf411620000625780633d6dfaf4146200010d578063a0cf0aea1462000124578063c62b919e1462000140578063ec199466146200016857600080fd5b806312d36171146200008c5780632eaa0edd14620000cd5780633bae2f0f14620000e7575b600080fd5b620000a36200009d36600462000820565b620001ad565b60405173ffffffffffffffffffffffffffffffffffffffff90911681526020015b60405180910390f35b620000d86210000081565b604051908152602001620000c4565b620000fe620000f836600462000820565b620006fa565b604051620000c491906200084d565b620000a36200011e366004620008a9565b62000795565b620000a373eeeeeeeeeeeeeeeeeeeeeeeeeeeeeeeeeeeeeeee81565b620000a37f000000000000000000000000000000000000000000000000000000000000000081565b620000d86200017936600462000820565b73ffffffffffffffffffffffffffffffffffffffff9091166000908152600160209081526040808320938352929052205490565b6000604d8211156200020f576040517f55bb9bc200000000000000000000000000000000000000000000000000000000815273ffffffffffffffffffffffffffffffffffffffff84166004820152602481018390526044015b60405180910390fd5b73ffffffffffffffffffffffffffffffffffffffff831673eeeeeeeeeeeeeeeeeeeeeeeeeeeeeeeeeeeeeeee14801590620002b957508273ffffffffffffffffffffffffffffffffffffffff166318160ddd6040518163ffffffff1660e01b8152600401602060405180830381865afa15801562000291573d6000803e3d6000fd5b505050506040513d601f19601f82011682018060405250810190620002b79190620008df565b155b1562000311576040517f55bb9bc200000000000000000000000000000000000000000000000000000000815273ffffffffffffffffffffffffffffffffffffffff841660048201526024810183905260440162000206565b60006200032083600a62000a63565b73ffffffffffffffffffffffffffffffffffffffff8516600090815260016020908152604080832087845290915281205491925081900362000483577f000000000000000000000000000000000000000000000000000000000000000085836040516200038d90620007e8565b73ffffffffffffffffffffffffffffffffffffffff93841681529290911660208301526040820152606001604051809103906000f080158015620003d5573d6000803e3d6000fd5b5073ffffffffffffffffffffffffffffffffffffffff80871660008181526001602081815260408084208b8552825280842080549384018155845292200180549385167fffffffffffffffffffffffff00000000000000000000000000000000000000009094168417905551929550917f88a6a60b903767ffc90e5218482445ea28b24f0c589f00fae35398b33f55b00690620004759086815260200190565b60405180910390a3620006f2565b73ffffffffffffffffffffffffffffffffffffffff85166000908152600160208181526040808420888552909152822090620004c0908462000a78565b81548110620004d357620004d362000a8e565b9060005260206000200160009054906101000a900473ffffffffffffffffffffffffffffffffffffffff169050621000008173ffffffffffffffffffffffffffffffffffffffff166353e553716040518163ffffffff1660e01b8152600401602060405180830381865afa15801562000550573d6000803e3d6000fd5b505050506040513d601f19601f82011682018060405250810190620005769190620008df565b1015620005cf576040517f05c24a2100000000000000000000000000000000000000000000000000000000815273ffffffffffffffffffffffffffffffffffffffff871660048201526024810186905260440162000206565b7f000000000000000000000000000000000000000000000000000000000000000086846040516200060090620007e8565b73ffffffffffffffffffffffffffffffffffffffff93841681529290911660208301526040820152606001604051809103906000f08015801562000648573d6000803e3d6000fd5b5073ffffffffffffffffffffffffffffffffffffffff80881660008181526001602081815260408084208c8552825280842080549384018155845292200180549385167fffffffffffffffffffffffff00000000000000000000000000000000000000009094168417905551929650917f88a6a60b903767ffc90e5218482445ea28b24f0c589f00fae35398b33f55b00690620006e89087815260200190565b60405180910390a3505b505092915050565b73ffffffffffffffffffffffffffffffffffffffff821660009081526001602090815260408083208484528252918290208054835181840281018401909452808452606093928301828280156200078857602002820191906000526020600020905b815473ffffffffffffffffffffffffffffffffffffffff1681526001909101906020018083116200075c575b5050505050905092915050565b60016020528260005260406000206020528160005260406000208181548110620007be57600080fd5b60009182526020909120015473ffffffffffffffffffffffffffffffffffffffff16925083915050565b614cfc8062000abe83390190565b803573ffffffffffffffffffffffffffffffffffffffff811681146200081b57600080fd5b919050565b600080604083850312156200083457600080fd5b6200083f83620007f6565b946020939093013593505050565b6020808252825182820181905260009190848201906040850190845b818110156200089d57835173ffffffffffffffffffffffffffffffffffffffff168352928401929184019160010162000869565b50909695505050505050565b600080600060608486031215620008bf57600080fd5b620008ca84620007f6565b95602085013595506040909401359392505050565b600060208284031215620008f257600080fd5b5051919050565b7f4e487b7100000000000000000000000000000000000000000000000000000000600052601160045260246000fd5b600181815b808511156200098757817fffffffffffffffffffffffffffffffffffffffffffffffffffffffffffffffff048211156200096b576200096b620008f9565b808516156200097957918102915b93841c93908002906200092d565b509250929050565b600082620009a05750600162000a5d565b81620009af5750600062000a5d565b8160018114620009c85760028114620009d357620009f3565b600191505062000a5d565b60ff841115620009e757620009e7620008f9565b50506001821b62000a5d565b5060208310610133831016604e8410600b841016171562000a18575081810a62000a5d565b62000a24838362000928565b807fffffffffffffffffffffffffffffffffffffffffffffffffffffffffffffffff0482111562000a595762000a59620008f9565b0290505b92915050565b600062000a7183836200098f565b9392505050565b8181038181111562000a5d5762000a5d620008f9565b7f4e487b7100000000000000000000000000000000000000000000000000000000600052603260045260246000fdfe61010060405260006001553480156200001757600080fd5b5060405162004cfc38038062004cfc8339810160408190526200003a91620006ff565b600160009081556001600160a01b03841660808190527f0133a292295d50240eb5edfcaa95731512ccdaf79758573a1f627dc47adbde7e7fac33ff75c19e70fe83507db0d683fd3465c996598dc972688b7ace676c89077b557f0ba2d612822ad57fd2285564f4bad51f685240488003085993bf5ee8e63c31cb7fe90b7bceb6e7df5418fb78d8ee546e97c83a08bbccc01a0644d599ccd2a7c2e0557f27b302c974bf7444cb94f3eeae53d5cb897748679c94958c692567ed97e96c3c7f679795a0195a1b76cdebb7c51d74e058aee92919b8c3389af86ef24535e8a28c557f1c573635007d49a2e0e4e525a32ca29c3049377182bbb01efeddbcdfe513f82b7f88601476d11616a71c5be67555bd1dff4b1cbf21533d2669b768b61518cfe1c3557f2e1bf7a6e73442cdeaec1eb387d34b4a27f6957a2ae407bba844135fca5d8dbc7fee60d0579bcffd98e668647d59fec1ff86a7fb340ce572e844f234ae73a6918f557e09199390bdb47d6917f64668754dbeb426b43513fa7b0807d85794bd60270d7fb98b78633099fa36ed8b8680c4f8092689e1e04080eb9cbb077ca38a14d7e384557f2f7739fa804b1102b2e95582a4cfb3c25d26e1f70133a81e6fed8fedbf7016ef7f59dd4b18488d12f51eda69757a0ed42a2010c14b564330cc74a06895e60c077b557e371f555c474e2f7846b97c7a90dab5fcc55ac0010c271796ad497f666890337facd8ef244210bb6898e73c48bf820ed8ecc857a3bab8d79c10e4fa92b1e9ca65557f15b36b0debb62e1b11a9e331644a806960a4df8919180dc0745d17c7a912e9897f3a5ea591190eeb3f8fcdced843c78df04ec0dfd42f5510375207515664fa0a75557f0fab3738a9ec3b9c6eaa98bf46972ed3cbbae7982f0e69b3c7e9053adf32290d7ff85cc6ffc513dc6cf7d199ef87b7a63cf9defe62251c1c247cd12f1eec7bff29557f16824b083a3f105f6671a504c2379de67cc5154c5b557294e35d27d1d35312257fd3604db978f6137b0d18816b77b2ce810487a3af08a922e0b184963be5f3adfc557f297ecae656a0fe904fe84f8db691c7156a51dd5e228873cf75ced697dd8e5c197fab9952baf6478d8cfb7253ce86a6c53a7b7549582c76210b1581ae682b7e556f557f067c35b9ac5cdc355c6f9eaef4721e6d622a4fd32d74d7be3f78b17e5d8597ea7fbd814762a7e35d5c162a7570d14baa68bd622cabb1ad83d40dd70f8a88aa67c0557f2c2633f1ae47ae42e0ce8eadec89c64d44a1fa98f1ee85ad4bf536594af4e27f7feb5d92aa5b18af35c2d0c0d14a538792cf1a66aa06ab9dae49d32446e9063ca1557f2d9c6e7eca6e7ba2b8335ae16998576602fe7910fb5ef41ce94d00b1332cf6247f20de3dd312970f46a1d560f6c70f0e5bd10e638b9bb3836368f28838c607ea3e557f239f1418b2b0a70f468d0903cc46524d8f7efbdb2dfa561494ca5bffcc7877007f0353061a88c0592f32d7468be32ff6e5e91e49a3ea3ffb3c4fbe417c36501ba2557f0b15e263911ee4d77b6a394b70dc93ad3df6dfdf6a3f7605f9cafb6968d8f1f67f328b8e687a0a963892a735f0237cb763bbbbf8ba0c1dfe2c221debb32c4bbd89557f2c069c957125a3e2cb4e16ca506d5f4f387d11d1aea33b30a8dd4ca3074f4de67fa4e0f4432e44d027a7b3f953940f096bca7a9bd910297cad2ba7c703c2b799d3557f0be6d282d26c02019fd66e32c8d85154b77253e7c6016b26a991352e0016d5807fc0c7c7c9a2a6655862feea3cc7ff13629582293fcfe0e1094efb20897bb02a65557f1e29cfb0c1ad522f22a3b3e23c057cbd3c7ab921e742a8dfcbc66dbde917d5b27f4a5bded210bb862fae2c0d18b9d29bf7f88b08a75dd1594b1369abc7881e3fe15590805260036020527f2fb6e40b303cff95dec23c65cbfc0a74e935784e091b5a6cddc02faa6a7177e27f3617319a054d772f909f7c479a2cebe5066e836a939412e32403c99029b92eff55620005f357604051631d6fe85f60e31b815260040160405180910390fd5b6001600160a01b0382166200061b57604051631d6fe85f60e31b815260040160405180910390fd5b6001600160a01b03821660a05260008190036200064b576040516320c7e40f60e11b815260040160405180910390fd5b60c081905260a05160405162000698916200068291849060200160609290921b6001600160601b0319168252601482015260340190565b60408051601f19818403018152919052620006a5565b60e0525062000763915050565b80516020820120600090620006dc907f30644e72e131a029b85045b68181585d2833e84879b9709143e1f593f00000019062000740565b92915050565b80516001600160a01b0381168114620006fa57600080fd5b919050565b6000806000606084860312156200071557600080fd5b6200072084620006e2565b92506200073060208501620006e2565b9150604084015190509250925092565b6000826200075e57634e487b7160e01b600052601260045260246000fd5b500690565b60805160a05160c05160e05161445c620008a06000396000818161027301528181610c320152610f6f0152600081816102a7015281816107ba0152818161080f015281816108f9015281816109f401528181610b2201528181610bc101528181610d770152610e0301526000818161018a01528181610853015281816109cb01528181610a4401528181610ae201528181610bfc0152610d1d01526000818161036b01528181610c97015281816112b6015281816114100152818161156c015281816116c8015281816118240152818161197f01528181611adb01528181611c3601528181611d9201528181611eee0152818161204a015281816121a6015281816123020152818161245e015281816125ba0152818161271601528181612872015281816129ce01528181612b2a0152612c86015261445c6000f3fe60806040526004361061010e5760003560e01c806388662de9116100a5578063c2b40ae411610074578063e2adba8c11610059578063e2adba8c14610344578063ed33639f14610359578063f178e47c1461038d57600080fd5b8063c2b40ae414610304578063d922b60c1461033157600080fd5b806388662de9146102615780638bca6d1614610295578063a0cf0aea146102c9578063b214faa5146102f157600080fd5b80635445b007116100e15780635445b007146101f55780636840fcea1461020a5780636d9833e31461021f57806371b834fe1461023f57600080fd5b80632997e86b14610113578063339994281461015857806338d52e0f1461017857806353e55371146101d1575b600080fd5b34801561011f57600080fd5b5061014361012e366004613f45565b60046020526000908152604090205460ff1681565b60405190151581526020015b60405180910390f35b61016b610166366004613f5e565b6103ba565b60405161014f9190613fd3565b34801561018457600080fd5b506101ac7f000000000000000000000000000000000000000000000000000000000000000081565b60405173ffffffffffffffffffffffffffffffffffffffff909116815260200161014f565b3480156101dd57600080fd5b506101e760015481565b60405190815260200161014f565b34801561020157600080fd5b506101e761046f565b34801561021657600080fd5b506101e7601e81565b34801561022b57600080fd5b5061014361023a366004613f45565b610498565b34801561024b57600080fd5b5061025f61025a366004614017565b610525565b005b34801561026d57600080fd5b506101e77f000000000000000000000000000000000000000000000000000000000000000081565b3480156102a157600080fd5b506101e77f000000000000000000000000000000000000000000000000000000000000000081565b3480156102d557600080fd5b506101ac73eeeeeeeeeeeeeeeeeeeeeeeeeeeeeeeeeeeeeeee81565b6101e76102ff366004613f45565b610531565b34801561031057600080fd5b506101e761031f366004613f45565b60036020526000908152604090205481565b61025f61033f366004614053565b61055f565b34801561035057600080fd5b506101e7601481565b34801561036557600080fd5b506101ac7f000000000000000000000000000000000000000000000000000000000000000081565b34801561039957600080fd5b506101e76103a8366004613f45565b60026020526000908152604090205481565b60606103c4610a7c565b818067ffffffffffffffff8111156103de576103de61408e565b604051908082528060200260200182016040528015610407578160200160208202803683370190505b509150600061041582610abf565b61043685858381811061042a5761042a6140bd565b90506020020135610c24565b838281518110610448576104486140bd565b60209081029190910101526001018181106104155750506104696001600055565b92915050565b600060036000601e600154610484919061411b565b815260200190815260200160002054905090565b60008181036104a957506000919050565b6000601e6001546104ba919061411b565b905060005b60008281526003602052604090205484036104de575060019392505050565b816000036104eb57601e91505b7fffffffffffffffffffffffffffffffffffffffffffffffffffffffffffffffff90910190600101601e81106104bf575060009392505050565b61052e81610dbd565b50565b600061053b610a7c565b6105456001610abf565b61054e82610c24565b905061055a6001600055565b919050565b610567610a7c565b366105728280614156565b9050600081610240013511801561058d575080610240013542115b156105c4576040517f3634f72900000000000000000000000000000000000000000000000000000000815260040160405180910390fd5b60006105d861022083016102008401614194565b73ffffffffffffffffffffffffffffffffffffffff161415801561062357503361060a61022083016102008401614194565b73ffffffffffffffffffffffffffffffffffffffff1614155b156106905761063a61022082016102008301614194565b6040517f6b6c667500000000000000000000000000000000000000000000000000000000815273ffffffffffffffffffffffffffffffffffffffff90911660048201523360248201526044015b60405180910390fd5b6101a081013560009081526004602052604090205460ff16156106df576040517f683ddeba00000000000000000000000000000000000000000000000000000000815260040160405180910390fd5b6106e881610dbd565b6101a0810135600081815260046020526040902080547fffffffffffffffffffffffffffffffffffffffffffffffffffffffffffffff0016600117905561018082013561073d61022084016102008501614194565b73ffffffffffffffffffffffffffffffffffffffff167f8da3ffb301245e23910ef230e9e780d1aece7d2ec1202aa2e2fbd5c3e94c946a6107866101e086016101c08701614194565b6040805173ffffffffffffffffffffffffffffffffffffffff909216825261022087013560208301520160405180910390a47f000000000000000000000000000000000000000000000000000000000000000060006107eb6040850160208601614194565b73ffffffffffffffffffffffffffffffffffffffff161461083057506102208101357f0000000000000000000000000000000000000000000000000000000000000000035b7fffffffffffffffffffffffff11111111111111111111111111111111111111127f000000000000000000000000000000000000000000000000000000000000000073ffffffffffffffffffffffffffffffffffffffff160161093d5734156108c5576040517f27ce938800000000000000000000000000000000000000000000000000000000815260040160405180910390fd5b6108f7816108db6101e085016101c08601614194565b73ffffffffffffffffffffffffffffffffffffffff1690610fce565b7f0000000000000000000000000000000000000000000000000000000000000000811015610938576109386102208301356108db6040860160208701614194565b610a70565b816101e00135341461097b576040517f27ce938800000000000000000000000000000000000000000000000000000000815260040160405180910390fd5b6101e08201351561099f5761099f6101e083018035906108db906101c08601614194565b6109f26109b46101e084016101c08501614194565b73ffffffffffffffffffffffffffffffffffffffff7f00000000000000000000000000000000000000000000000000000000000000001690836110a9565b7f0000000000000000000000000000000000000000000000000000000000000000811015610a7057610a70610a2d6040850160208601614194565b73ffffffffffffffffffffffffffffffffffffffff7f000000000000000000000000000000000000000000000000000000000000000016906102208501356110a9565b505061052e6001600055565b600260005403610ab8576040517f3ee5aeb500000000000000000000000000000000000000000000000000000000815260040160405180910390fd5b6002600055565b7fffffffffffffffffffffffff11111111111111111111111111111111111111127f000000000000000000000000000000000000000000000000000000000000000073ffffffffffffffffffffffffffffffffffffffff1601610b7e57610b46817f00000000000000000000000000000000000000000000000000000000000000006141ca565b341461052e576040517f27ce938800000000000000000000000000000000000000000000000000000000815260040160405180910390fd5b3415610bb6576040517f27ce938800000000000000000000000000000000000000000000000000000000815260040160405180910390fd5b61052e3330610be5847f00000000000000000000000000000000000000000000000000000000000000006141ca565b73ffffffffffffffffffffffffffffffffffffffff7f00000000000000000000000000000000000000000000000000000000000000001692919061112a565b6040805180820182528281527f0000000000000000000000000000000000000000000000000000000000000000602082015290517f299e5660000000000000000000000000000000000000000000000000000000008152600091829173ffffffffffffffffffffffffffffffffffffffff7f0000000000000000000000000000000000000000000000000000000000000000169163299e566091610ccb9190600401614208565b602060405180830381865afa158015610ce8573d6000803e3d6000fd5b505050506040513d601f19601f82011682018060405250810190610d0c9190614239565b90506000610d1982611176565b90507f000000000000000000000000000000000000000000000000000000000000000073ffffffffffffffffffffffffffffffffffffffff1682857fa82453ca34121b3ecb910d957824e27c5dc6465315949facd15fb728864900587f000000000000000000000000000000000000000000000000000000000000000085604051610dae929190918252602082015260400190565b60405180910390a49392505050565b610dcb816101600135610498565b610e01576040517f15a7f0f700000000000000000000000000000000000000000000000000000000815260040160405180910390fd5b7f00000000000000000000000000000000000000000000000000000000000000008161022001351115610e60576040517f309616a900000000000000000000000000000000000000000000000000000000815260040160405180910390fd5b6000610e746101e083016101c08401614194565b73ffffffffffffffffffffffffffffffffffffffff1603610ec1576040517feb7f42f800000000000000000000000000000000000000000000000000000000815260040160405180910390fd5b6000610f52610ed86101e084016101c08501614194565b6101e0840135610ef061022086016102008701614194565b610220860135610240870135610f096020890189614252565b610f1960408a0160208b01614273565b610f2660408b018b614298565b604051602001610f3e99989796959493929190614313565b604051602081830303815290604052612d22565b9050610f94606083016101608401356101808501356101a08601357f000000000000000000000000000000000000000000000000000000000000000086612d57565b610fca576040517fb3365c0b00000000000000000000000000000000000000000000000000000000815260040160405180910390fd5b5050565b8047101561100a576040517fcd786059000000000000000000000000000000000000000000000000000000008152306004820152602401610687565b60008273ffffffffffffffffffffffffffffffffffffffff168260405160006040518083038185875af1925050503d8060008114611064576040519150601f19603f3d011682016040523d82523d6000602084013e611069565b606091505b50509050806110a4576040517f1425ea4200000000000000000000000000000000000000000000000000000000815260040160405180910390fd5b505050565b60405173ffffffffffffffffffffffffffffffffffffffff8381166024830152604482018390526110a491859182169063a9059cbb906064015b604051602081830303815290604052915060e01b6020820180517bffffffffffffffffffffffffffffffffffffffffffffffffffffffff838183161783525050505061303d565b60405173ffffffffffffffffffffffffffffffffffffffff84811660248301528381166044830152606482018390526111709186918216906323b872dd906084016110e3565b50505050565b6001546000907ffffffffffffffffffffffffffffffffffffffffffffffffffffffffffff0000081016111d5576040517f5717aa3f00000000000000000000000000000000000000000000000000000000815260040160405180910390fd5b6000806001831681036112385750506000805260026020527fac33ff75c19e70fe83507db0d683fd3465c996598dc972688b7ace676c89077b839055827f0133a292295d50240eb5edfcaa95731512ccdaf79758573a1f627dc47adbde7e611267565b50506000805260026020527fac33ff75c19e70fe83507db0d683fd3465c996598dc972688b7ace676c89077b54835b6040805180820182528381526020810183905290517f299e566000000000000000000000000000000000000000000000000000000000815273ffffffffffffffffffffffffffffffffffffffff7f0000000000000000000000000000000000000000000000000000000000000000169163299e5660916112ea9190600401614208565b602060405180830381865afa158015611307573d6000803e3d6000fd5b505050506040513d601f19601f8201168201806040525081019061132b9190614239565b9450600183811c16600003611391575050600160005260026020527fe90b7bceb6e7df5418fb78d8ee546e97c83a08bbccc01a0644d599ccd2a7c2e0839055827f0ba2d612822ad57fd2285564f4bad51f685240488003085993bf5ee8e63c31cb6113c1565b5050600160005260026020527fe90b7bceb6e7df5418fb78d8ee546e97c83a08bbccc01a0644d599ccd2a7c2e054835b6040805180820182528381526020810183905290517f299e566000000000000000000000000000000000000000000000000000000000815273ffffffffffffffffffffffffffffffffffffffff7f0000000000000000000000000000000000000000000000000000000000000000169163299e5660916114449190600401614208565b602060405180830381865afa158015611461573d6000803e3d6000fd5b505050506040513d601f19601f820116820180604052508101906114859190614239565b9450600283901c6001166000036114ed575050600260008190526020527f679795a0195a1b76cdebb7c51d74e058aee92919b8c3389af86ef24535e8a28c839055827f27b302c974bf7444cb94f3eeae53d5cb897748679c94958c692567ed97e96c3c61151d565b5050600260008190526020527f679795a0195a1b76cdebb7c51d74e058aee92919b8c3389af86ef24535e8a28c54835b6040805180820182528381526020810183905290517f299e566000000000000000000000000000000000000000000000000000000000815273ffffffffffffffffffffffffffffffffffffffff7f0000000000000000000000000000000000000000000000000000000000000000169163299e5660916115a09190600401614208565b602060405180830381865afa1580156115bd573d6000803e3d6000fd5b505050506040513d601f19601f820116820180604052508101906115e19190614239565b9450600383901c600116600003611649575050600360005260026020527f88601476d11616a71c5be67555bd1dff4b1cbf21533d2669b768b61518cfe1c3839055827f1c573635007d49a2e0e4e525a32ca29c3049377182bbb01efeddbcdfe513f82b611679565b5050600360005260026020527f88601476d11616a71c5be67555bd1dff4b1cbf21533d2669b768b61518cfe1c354835b6040805180820182528381526020810183905290517f299e566000000000000000000000000000000000000000000000000000000000815273ffffffffffffffffffffffffffffffffffffffff7f0000000000000000000000000000000000000000000000000000000000000000169163299e5660916116fc9190600401614208565b602060405180830381865afa158015611719573d6000803e3d6000fd5b505050506040513d601f19601f8201168201806040525081019061173d9190614239565b9450600483901c6001166000036117a5575050600460005260026020527fee60d0579bcffd98e668647d59fec1ff86a7fb340ce572e844f234ae73a6918f839055827f2e1bf7a6e73442cdeaec1eb387d34b4a27f6957a2ae407bba844135fca5d8dbc6117d5565b5050600460005260026020527fee60d0579bcffd98e668647d59fec1ff86a7fb340ce572e844f234ae73a6918f54835b6040805180820182528381526020810183905290517f299e566000000000000000000000000000000000000000000000000000000000815273ffffffffffffffffffffffffffffffffffffffff7f0000000000000000000000000000000000000000000000000000000000000000169163299e5660916118589190600401614208565b602060405180830381865afa158015611875573d6000803e3d6000fd5b505050506040513d601f19601f820116820180604052508101906118999190614239565b9450600583901c600116600003611900575050600560005260026020527fb98b78633099fa36ed8b8680c4f8092689e1e04080eb9cbb077ca38a14d7e384839055827e09199390bdb47d6917f64668754dbeb426b43513fa7b0807d85794bd60270d611930565b5050600560005260026020527fb98b78633099fa36ed8b8680c4f8092689e1e04080eb9cbb077ca38a14d7e38454835b6040805180820182528381526020810183905290517f299e566000000000000000000000000000000000000000000000000000000000815273ffffffffffffffffffffffffffffffffffffffff7f0000000000000000000000000000000000000000000000000000000000000000169163299e5660916119b39190600401614208565b602060405180830381865afa1580156119d0573d6000803e3d6000fd5b505050506040513d601f19601f820116820180604052508101906119f49190614239565b9450600683901c600116600003611a5c575050600660005260026020527f59dd4b18488d12f51eda69757a0ed42a2010c14b564330cc74a06895e60c077b839055827f2f7739fa804b1102b2e95582a4cfb3c25d26e1f70133a81e6fed8fedbf7016ef611a8c565b5050600660005260026020527f59dd4b18488d12f51eda69757a0ed42a2010c14b564330cc74a06895e60c077b54835b6040805180820182528381526020810183905290517f299e566000000000000000000000000000000000000000000000000000000000815273ffffffffffffffffffffffffffffffffffffffff7f0000000000000000000000000000000000000000000000000000000000000000169163299e566091611b0f9190600401614208565b602060405180830381865afa158015611b2c573d6000803e3d6000fd5b505050506040513d601f19601f82011682018060405250810190611b509190614239565b9450600783901c600116600003611bb7575050600760005260026020527facd8ef244210bb6898e73c48bf820ed8ecc857a3bab8d79c10e4fa92b1e9ca65839055827e371f555c474e2f7846b97c7a90dab5fcc55ac0010c271796ad497f66689033611be7565b5050600760005260026020527facd8ef244210bb6898e73c48bf820ed8ecc857a3bab8d79c10e4fa92b1e9ca6554835b6040805180820182528381526020810183905290517f299e566000000000000000000000000000000000000000000000000000000000815273ffffffffffffffffffffffffffffffffffffffff7f0000000000000000000000000000000000000000000000000000000000000000169163299e566091611c6a9190600401614208565b602060405180830381865afa158015611c87573d6000803e3d6000fd5b505050506040513d601f19601f82011682018060405250810190611cab9190614239565b9450600883901c600116600003611d13575050600860005260026020527f3a5ea591190eeb3f8fcdced843c78df04ec0dfd42f5510375207515664fa0a75839055827f15b36b0debb62e1b11a9e331644a806960a4df8919180dc0745d17c7a912e989611d43565b5050600860005260026020527f3a5ea591190eeb3f8fcdced843c78df04ec0dfd42f5510375207515664fa0a7554835b6040805180820182528381526020810183905290517f299e566000000000000000000000000000000000000000000000000000000000815273ffffffffffffffffffffffffffffffffffffffff7f0000000000000000000000000000000000000000000000000000000000000000169163299e566091611dc69190600401614208565b602060405180830381865afa158015611de3573d6000803e3d6000fd5b505050506040513d601f19601f82011682018060405250810190611e079190614239565b9450600983901c600116600003611e6f575050600960005260026020527ff85cc6ffc513dc6cf7d199ef87b7a63cf9defe62251c1c247cd12f1eec7bff29839055827f0fab3738a9ec3b9c6eaa98bf46972ed3cbbae7982f0e69b3c7e9053adf32290d611e9f565b5050600960005260026020527ff85cc6ffc513dc6cf7d199ef87b7a63cf9defe62251c1c247cd12f1eec7bff2954835b6040805180820182528381526020810183905290517f299e566000000000000000000000000000000000000000000000000000000000815273ffffffffffffffffffffffffffffffffffffffff7f0000000000000000000000000000000000000000000000000000000000000000169163299e566091611f229190600401614208565b602060405180830381865afa158015611f3f573d6000803e3d6000fd5b505050506040513d601f19601f82011682018060405250810190611f639190614239565b9450600a83901c600116600003611fcb575050600a60005260026020527fd3604db978f6137b0d18816b77b2ce810487a3af08a922e0b184963be5f3adfc839055827f16824b083a3f105f6671a504c2379de67cc5154c5b557294e35d27d1d3531225611ffb565b5050600a60005260026020527fd3604db978f6137b0d18816b77b2ce810487a3af08a922e0b184963be5f3adfc54835b6040805180820182528381526020810183905290517f299e566000000000000000000000000000000000000000000000000000000000815273ffffffffffffffffffffffffffffffffffffffff7f0000000000000000000000000000000000000000000000000000000000000000169163299e56609161207e9190600401614208565b602060405180830381865afa15801561209b573d6000803e3d6000fd5b505050506040513d601f19601f820116820180604052508101906120bf9190614239565b9450600b83901c600116600003612127575050600b60005260026020527fab9952baf6478d8cfb7253ce86a6c53a7b7549582c76210b1581ae682b7e556f839055827f297ecae656a0fe904fe84f8db691c7156a51dd5e228873cf75ced697dd8e5c19612157565b5050600b60005260026020527fab9952baf6478d8cfb7253ce86a6c53a7b7549582c76210b1581ae682b7e556f54835b6040805180820182528381526020810183905290517f299e566000000000000000000000000000000000000000000000000000000000815273ffffffffffffffffffffffffffffffffffffffff7f0000000000000000000000000000000000000000000000000000000000000000169163299e5660916121da9190600401614208565b602060405180830381865afa1580156121f7573d6000803e3d6000fd5b505050506040513d601f19601f8201168201806040525081019061221b9190614239565b9450600c83901c600116600003612283575050600c60005260026020527fbd814762a7e35d5c162a7570d14baa68bd622cabb1ad83d40dd70f8a88aa67c0839055827f067c35b9ac5cdc355c6f9eaef4721e6d622a4fd32d74d7be3f78b17e5d8597ea6122b3565b5050600c60005260026020527fbd814762a7e35d5c162a7570d14baa68bd622cabb1ad83d40dd70f8a88aa67c054835b6040805180820182528381526020810183905290517f299e566000000000000000000000000000000000000000000000000000000000815273ffffffffffffffffffffffffffffffffffffffff7f0000000000000000000000000000000000000000000000000000000000000000169163299e5660916123369190600401614208565b602060405180830381865afa158015612353573d6000803e3d6000fd5b505050506040513d601f19601f820116820180604052508101906123779190614239565b9450600d83901c6001166000036123df575050600d60005260026020527feb5d92aa5b18af35c2d0c0d14a538792cf1a66aa06ab9dae49d32446e9063ca1839055827f2c2633f1ae47ae42e0ce8eadec89c64d44a1fa98f1ee85ad4bf536594af4e27f61240f565b5050600d60005260026020527feb5d92aa5b18af35c2d0c0d14a538792cf1a66aa06ab9dae49d32446e9063ca154835b6040805180820182528381526020810183905290517f299e566000000000000000000000000000000000000000000000000000000000815273ffffffffffffffffffffffffffffffffffffffff7f0000000000000000000000000000000000000000000000000000000000000000169163299e5660916124929190600401614208565b602060405180830381865afa1580156124af573d6000803e3d6000fd5b505050506040513d601f19601f820116820180604052508101906124d39190614239565b9450600e83901c60011660000361253b575050600e60005260026020527f20de3dd312970f46a1d560f6c70f0e5bd10e638b9bb3836368f28838c607ea3e839055827f2d9c6e7eca6e7ba2b8335ae16998576602fe7910fb5ef41ce94d00b1332cf62461256b565b5050600e60005260026020527f20de3dd312970f46a1d560f6c70f0e5bd10e638b9bb3836368f28838c607ea3e54835b6040805180820182528381526020810183905290517f299e566000000000000000000000000000000000000000000000000000000000815273ffffffffffffffffffffffffffffffffffffffff7f0000000000000000000000000000000000000000000000000000000000000000169163299e5660916125ee9190600401614208565b602060405180830381865afa15801561260b573d6000803e3d6000fd5b505050506040513d601f19601f8201168201806040525081019061262f9190614239565b9450600f83901c600116600003612697575050600f60005260026020527f0353061a88c0592f32d7468be32ff6e5e91e49a3ea3ffb3c4fbe417c36501ba2839055827f239f1418b2b0a70f468d0903cc46524d8f7efbdb2dfa561494ca5bffcc7877006126c7565b5050600f60005260026020527f0353061a88c0592f32d7468be32ff6e5e91e49a3ea3ffb3c4fbe417c36501ba254835b6040805180820182528381526020810183905290517f299e566000000000000000000000000000000000000000000000000000000000815273ffffffffffffffffffffffffffffffffffffffff7f0000000000000000000000000000000000000000000000000000000000000000169163299e56609161274a9190600401614208565b602060405180830381865afa158015612767573d6000803e3d6000fd5b505050506040513d601f19601f8201168201806040525081019061278b9190614239565b9450601083901c6001166000036127f3575050601060005260026020527f328b8e687a0a963892a735f0237cb763bbbbf8ba0c1dfe2c221debb32c4bbd89839055827f0b15e263911ee4d77b6a394b70dc93ad3df6dfdf6a3f7605f9cafb6968d8f1f6612823565b5050601060005260026020527f328b8e687a0a963892a735f0237cb763bbbbf8ba0c1dfe2c221debb32c4bbd8954835b6040805180820182528381526020810183905290517f299e566000000000000000000000000000000000000000000000000000000000815273ffffffffffffffffffffffffffffffffffffffff7f0000000000000000000000000000000000000000000000000000000000000000169163299e5660916128a69190600401614208565b602060405180830381865afa1580156128c3573d6000803e3d6000fd5b505050506040513d601f19601f820116820180604052508101906128e79190614239565b9450601183901c60011660000361294f575050601160005260026020527fa4e0f4432e44d027a7b3f953940f096bca7a9bd910297cad2ba7c703c2b799d3839055827f2c069c957125a3e2cb4e16ca506d5f4f387d11d1aea33b30a8dd4ca3074f4de661297f565b5050601160005260026020527fa4e0f4432e44d027a7b3f953940f096bca7a9bd910297cad2ba7c703c2b799d354835b6040805180820182528381526020810183905290517f299e566000000000000000000000000000000000000000000000000000000000815273ffffffffffffffffffffffffffffffffffffffff7f0000000000000000000000000000000000000000000000000000000000000000169163299e566091612a029190600401614208565b602060405180830381865afa158015612a1f573d6000803e3d6000fd5b505050506040513d601f19601f82011682018060405250810190612a439190614239565b9450601283901c600116600003612aab575050601260005260026020527fc0c7c7c9a2a6655862feea3cc7ff13629582293fcfe0e1094efb20897bb02a65839055827f0be6d282d26c02019fd66e32c8d85154b77253e7c6016b26a991352e0016d580612adb565b5050601260005260026020527fc0c7c7c9a2a6655862feea3cc7ff13629582293fcfe0e1094efb20897bb02a6554835b6040805180820182528381526020810183905290517f299e566000000000000000000000000000000000000000000000000000000000815273ffffffffffffffffffffffffffffffffffffffff7f0000000000000000000000000000000000000000000000000000000000000000169163299e566091612b5e9190600401614208565b602060405180830381865afa158015612b7b573d6000803e3d6000fd5b505050506040513d601f19601f82011682018060405250810190612b9f9190614239565b9450601383901c600116600003612c07575050601360005260026020527f4a5bded210bb862fae2c0d18b9d29bf7f88b08a75dd1594b1369abc7881e3fe1839055827f1e29cfb0c1ad522f22a3b3e23c057cbd3c7ab921e742a8dfcbc66dbde917d5b2612c37565b5050601360005260026020527f4a5bded210bb862fae2c0d18b9d29bf7f88b08a75dd1594b1369abc7881e3fe154835b6040805180820182528381526020810183905290517f299e566000000000000000000000000000000000000000000000000000000000815273ffffffffffffffffffffffffffffffffffffffff7f0000000000000000000000000000000000000000000000000000000000000000169163299e566091612cba9190600401614208565b602060405180830381865afa158015612cd7573d6000803e3d6000fd5b505050506040513d601f19601f82011682018060405250810190612cfb9190614239565b601e6001858101918206600090815260036020526040902092909255905550909392505050565b80516020820120600090610469907f30644e72e131a029b85045b68181585d2833e84879b9709143e1f593f00000019061411b565b60007f30644e72e131a029b85045b68181585d2833e84879b9709143e1f593f000000186101580612da857507f30644e72e131a029b85045b68181585d2833e84879b9709143e1f593f00000018510155b80612dd357507f30644e72e131a029b85045b68181585d2833e84879b9709143e1f593f00000018410155b80612dfe57507f30644e72e131a029b85045b68181585d2833e84879b9709143e1f593f00000018310155b80612e2957507f30644e72e131a029b85045b68181585d2833e84879b9709143e1f593f00000018210155b15612e60576040517fda62372100000000000000000000000000000000000000000000000000000000815260040160405180910390fd5b612e68613e0b565b604080518082018252893581526020808b0135818301529083528151608080820184528b8401358285019081526060808e013590840152825283518085018552908c0135815260a08c01358184015281830152838201528151808301835260c08b0135815260e08b013591810191909152908201526000612ee76130d3565b9050600060405180604001604052806000815260200160008152509050612f3f612f388a8460800151600181518110612f2257612f226140bd565b602002602001015161364a90919063ffffffff16565b82906136cc565b9050612f5f612f38898460800151600281518110612f2257612f226140bd565b9050612f7f612f38888460800151600381518110612f2257612f226140bd565b9050612f9f612f38878460800151600481518110612f2257612f226140bd565b9050612fbf612f38868460800151600581518110612f2257612f226140bd565b9050612ff28260800151600081518110612fdb57612fdb6140bd565b6020026020010151826136cc90919063ffffffff16565b905061302f836020015183600001518460200151848660400151886040015188606001516130238b60000151613751565b96959493929190613806565b9a9950505050505050505050565b600061305f73ffffffffffffffffffffffffffffffffffffffff841683613991565b9050805160001415801561308457508080602001905181019061308291906143d5565b155b156110a4576040517f5274afe700000000000000000000000000000000000000000000000000000000815273ffffffffffffffffffffffffffffffffffffffff84166004820152602401610687565b6130db613e5c565b6040805180820182527f2d4d9aa7e302d9df41749d5507949d05dbea33fbb16c643b22f599a2be6df2e281527f14bedd503c37ceb061d8ec60209fe345ce89830a19230301f076caff004d19266020808301919091529083528151608080820184527f0967032fcbf776d1afc985f88877f182d38480a653f2decaa9794cbc3bf3060c8285019081527f0e187847ad4c798374d0d6732bf501847dd68bc0e071241e0213bc7fc13db7ab606080850191909152908352845180860186527f304cfbd1e08a704a99f5e847d93f8c3caafddec46b7a0d379da69a4d112346a781527f1739c1b1a457a8c7313123d24d2f9192f896b7c63eea05a9d57f06547ad0cec8818601528385015285840192909252835180820185527f198e9393920d483a7260bfb731fb5d25f1aa493335a9e71297e485b7aef312c28186019081527f1800deef121f1e76426a00665e5c4479674322d4f75edadd46debd5cd992f6ed828501528152845180860186527f090689d0585ff075ec9e99ad690c3395bc4b313370b38ef355acdadcd122975b81527f12c85ea5db8c6deb4aab71808dcb408fe3d1e7690c43d37b4ce6cc0166fa7daa818601528185015285850152835190810184527f2453ce6c2398ec116055114dda132382c62225f2c9745816c1e88c060aa1bd038185019081527f0824ffa78b175583e7ae45ad96ed67b140e6143d52089aa1d23c784df5b86ca1828401528152835180850185527f1708a2deac620bee003aef8f4fadbc7556733783db6a4ccbccc00b619a8b3c5e81527f1f230c8d8ace816796dbb8aa45f445749839a2256fd5ec154cd0e392f757d6668185015281840152908401528151600680825260e08201909352919082015b604080518082019091526000808252602082015281526020019060019003908161335657505060808201908152604080518082019091527f2ef2dbe3c14eb7e21954289e64d9eabbab304aebe2074fe5313a5ce9097e19c881527f2338e7a1d59d44a1e3e3f1ebe2c08ba9d43e915b3f3134fb6b0bcf9a6de73e8f6020820152905180516000906133e9576133e96140bd565b602002602001018190525060405180604001604052807f0132b67297dcfdbf071a2a19b248e164fbca170748b64ece91af0557125a527181526020017f09ed608b463e574b97f0daed8a37a23a347d2fdd473f5ceccc993b9e9ba7ff728152508160800151600181518110613460576134606140bd565b602002602001018190525060405180604001604052807f290961abcdb4c7a8e2532813075ca2ebc08828cf457e5b62b63d25a6c2e36d7c81526020017f12658a124848023e8cadf3ce2b04d268e91b2ed9b1333eee408b359bd814944381525081608001516002815181106134d7576134d76140bd565b602002602001018190525060405180604001604052807f26daa5cba392b1c9ffde30884b26fbadd06c4ab835e67e69aef40248dab299b181526020017f05731cbab4f8fd100c990fe64a20d97b64e2f359221340a4bb1f9f8324791b16815250816080015160038151811061354e5761354e6140bd565b602002602001018190525060405180604001604052807f1bdbb64f2f4c8eb899f0c0f457c74e2a91d6843193ce19aef18379a8642b71ff81526020017f1f0a497afe900d6c38e33b127138019b999105a45cdad60721fd9e71d494d6b981525081608001516004815181106135c5576135c56140bd565b602002602001018190525060405180604001604052807f072358f8b614d9ab54a25e50ce0cfdb9c38433ffe460634c00bd039118b140dc81526020017f02574b68ab1b6e873068161b588984f2826ac7b6743ed5259793358211617cb9815250816080015160058151811061363c5761363c6140bd565b602002602001018190525090565b6040805180820190915260008082526020820152613666613ead565b835181526020808501519082015260408101839052600060608360808460076107d05a03fa9050806136c4576040517f2a5ea20800000000000000000000000000000000000000000000000000000000815260040160405180910390fd5b505092915050565b60408051808201909152600080825260208201526136e8613ecb565b8351815260208085015181830152835160408301528301516060808301919091526000908360c08460066107d05a03fa9050806136c4576040517f084d6a7100000000000000000000000000000000000000000000000000000000815260040160405180910390fd5b6040805180820190915260008082526020820152815115801561377657506020820151155b15613794575050604080518082019091526000808252602082015290565b60007f30644e72e131a029b85045b68181585d97816a916871ca8d3c208c16d87cfd478360200151816137c9576137c96140ec565b6040805180820190915294518552067f30644e72e131a029b85045b68181585d97816a916871ca8d3c208c16d87cfd470360208401525090919050565b60408051600480825260a08201909252600091829190816020015b604080518082019091526000808252602082015281526020019060019003908161382157505060408051600480825260a0820190925291925060009190602082015b61386b613ee9565b8152602001906001900390816138635790505090508a82600081518110613894576138946140bd565b602002602001018190525088826001815181106138b3576138b36140bd565b602002602001018190525086826002815181106138d2576138d26140bd565b602002602001018190525084826003815181106138f1576138f16140bd565b60200260200101819052508981600081518110613910576139106140bd565b6020026020010181905250878160018151811061392f5761392f6140bd565b6020026020010181905250858160028151811061394e5761394e6140bd565b6020026020010181905250838160038151811061396d5761396d6140bd565b602002602001018190525061398282826139a6565b9b9a5050505050505050505050565b606061399f83836000613c77565b9392505050565b815181516000919081146139e6576040517f8a8b6d4e00000000000000000000000000000000000000000000000000000000815260040160405180910390fd5b60006139f38260066141ca565b905060008167ffffffffffffffff811115613a1057613a1061408e565b604051908082528060200260200182016040528015613a39578160200160208202803683370190505b50905060005b83811015613c1257868181518110613a5957613a596140bd565b602002602001015160000151828260060260000181518110613a7d57613a7d6140bd565b602002602001018181525050868181518110613a9b57613a9b6140bd565b602002602001015160200151828260060260010181518110613abf57613abf6140bd565b602002602001018181525050858181518110613add57613add6140bd565b602090810291909101015151518251839060026006850201908110613b0457613b046140bd565b602002602001018181525050858181518110613b2257613b226140bd565b60209081029190910101515160016020020151828260060260030181518110613b4d57613b4d6140bd565b602002602001018181525050858181518110613b6b57613b6b6140bd565b602002602001015160200151600060028110613b8957613b896140bd565b6020020151828260060260040181518110613ba657613ba66140bd565b602002602001018181525050858181518110613bc457613bc46140bd565b602002602001015160200151600160028110613be257613be26140bd565b6020020151828260060260050181518110613bff57613bff6140bd565b6020908102919091010152600101613a3f565b50613c1b613f09565b6000602082602086026020860160086107d05a03fa905080613c69576040517f7d523a3100000000000000000000000000000000000000000000000000000000815260040160405180910390fd5b505115159695505050505050565b606081471015613cb5576040517fcd786059000000000000000000000000000000000000000000000000000000008152306004820152602401610687565b6000808573ffffffffffffffffffffffffffffffffffffffff168486604051613cde91906143f7565b60006040518083038185875af1925050503d8060008114613d1b576040519150601f19603f3d011682016040523d82523d6000602084013e613d20565b606091505b5091509150613d30868383613d3a565b9695505050505050565b606082613d4f57613d4a82613dc9565b61399f565b8151158015613d73575073ffffffffffffffffffffffffffffffffffffffff84163b155b15613dc2576040517f9996b31500000000000000000000000000000000000000000000000000000000815273ffffffffffffffffffffffffffffffffffffffff85166004820152602401610687565b508061399f565b805115613dd95780518082602001fd5b6040517f1425ea4200000000000000000000000000000000000000000000000000000000815260040160405180910390fd5b6040805160a081019091526000606082018181526080830191909152815260208101613e35613ee9565b8152602001613e57604051806040016040528060008152602001600081525090565b905290565b6040805160e08101909152600060a0820181815260c0830191909152815260208101613e86613ee9565b8152602001613e93613ee9565b8152602001613ea0613ee9565b8152602001606081525090565b60405180606001604052806003906020820280368337509192915050565b60405180608001604052806004906020820280368337509192915050565b6040518060400160405280613efc613f27565b8152602001613e57613f27565b60405180602001604052806001906020820280368337509192915050565b60405180604001604052806002906020820280368337509192915050565b600060208284031215613f5757600080fd5b5035919050565b60008060208385031215613f7157600080fd5b823567ffffffffffffffff80821115613f8957600080fd5b818501915085601f830112613f9d57600080fd5b813581811115613fac57600080fd5b8660208260051b8501011115613fc157600080fd5b60209290920196919550909350505050565b6020808252825182820181905260009190848201906040850190845b8181101561400b57835183529284019291840191600101613fef565b50909695505050505050565b60006020828403121561402957600080fd5b813567ffffffffffffffff81111561404057600080fd5b8201610260818503121561399f57600080fd5b60006020828403121561406557600080fd5b813567ffffffffffffffff81111561407c57600080fd5b82016040818503121561399f57600080fd5b7f4e487b7100000000000000000000000000000000000000000000000000000000600052604160045260246000fd5b7f4e487b7100000000000000000000000000000000000000000000000000000000600052603260045260246000fd5b7f4e487b7100000000000000000000000000000000000000000000000000000000600052601260045260246000fd5b600082614151577f4e487b7100000000000000000000000000000000000000000000000000000000600052601260045260246000fd5b500690565b600082357ffffffffffffffffffffffffffffffffffffffffffffffffffffffffffffffda183360301811261418a57600080fd5b9190910192915050565b6000602082840312156141a657600080fd5b813573ffffffffffffffffffffffffffffffffffffffff8116811461399f57600080fd5b8082028115828204841417610469577f4e487b7100000000000000000000000000000000000000000000000000000000600052601160045260246000fd5b60408101818360005b6002811015614230578151835260209283019290910190600101614211565b50505092915050565b60006020828403121561424b57600080fd5b5051919050565b60006020828403121561426457600080fd5b81356002811061399f57600080fd5b60006020828403121561428557600080fd5b813562ffffff8116811461399f57600080fd5b60008083357fffffffffffffffffffffffffffffffffffffffffffffffffffffffffffffffe18436030181126142cd57600080fd5b83018035915067ffffffffffffffff8211156142e857600080fd5b6020019150368190038213156142fd57600080fd5b9250929050565b81818437506000910190815290565b60007fffffffffffffffffffffffffffffffffffffffff000000000000000000000000808c60601b1683528a6014840152808a60601b1660348401525087604883015286606883015260028610614393577f4e487b7100000000000000000000000000000000000000000000000000000000600052602160045260246000fd5b8560f81b60888301527fffffff00000000000000000000000000000000000000000000000000000000008560e81b166089830152613982608c83018486614304565b6000602082840312156143e757600080fd5b8151801515811461399f57600080fd5b6000825160005b8181101561441857602081860181015185830152016143fe565b50600092019182525091905056fea26469706673582212200c349f1e88444749036d54151f3d7165cfd291014f489d49f5b60a50113d90fd64736f6c63430008180033a2646970667358221220a986af3c0c0c2ea84906c290bf8a1b258f520b999790c4cec46a645d4051019a64736f6c63430008180033","opcodes":"PUSH1 0xA0 PUSH1 0x40 MSTORE CALLVALUE DUP1 ISZERO PUSH2 0x10 JUMPI PUSH1 0x0 DUP1 REVERT JUMPDEST POP PUSH1 0x40 MLOAD PUSH2 0x588D CODESIZE SUB DUP1 PUSH2 0x588D DUP4 CODECOPY DUP2 ADD PUSH1 0x40 DUP2 SWAP1 MSTORE PUSH2 0x2F SWAP2 PUSH2 0x45 JUMP JUMPDEST PUSH1 0x1 PUSH1 0x0 SSTORE PUSH1 0x1 PUSH1 0x1 PUSH1 0xA0 SHL SUB AND PUSH1 0x80 MSTORE PUSH2 0x75 JUMP JUMPDEST PUSH1 0x0 PUSH1 0x20 DUP3 DUP5 SUB SLT ISZERO PUSH2 0x57 JUMPI PUSH1 0x0 DUP1 REVERT JUMPDEST DUP2 MLOAD PUSH1 0x1 PUSH1 0x1 PUSH1 0xA0 SHL SUB DUP2 AND DUP2 EQ PUSH2 0x6E JUMPI PUSH1 0x0 DUP1 REVERT JUMPDEST SWAP4 SWAP3 POP POP POP JUMP JUMPDEST PUSH1 0x80 MLOAD PUSH2 0x57EF PUSH2 0x9E PUSH1 0x0 CODECOPY PUSH1 0x0 DUP2 DUP2 PUSH2 0x146 ADD MSTORE DUP2 DUP2 PUSH2 0x35E ADD MSTORE PUSH2 0x5D1 ADD MSTORE PUSH2 0x57EF PUSH1 0x0 RETURN INVALID PUSH1 0x80 PUSH1 0x40 MSTORE CALLVALUE DUP1 ISZERO PUSH3 0x11 JUMPI PUSH1 0x0 DUP1 REVERT JUMPDEST POP PUSH1 0x4 CALLDATASIZE LT PUSH3 0x87 JUMPI PUSH1 0x0 CALLDATALOAD PUSH1 0xE0 SHR DUP1 PUSH4 0x3D6DFAF4 GT PUSH3 0x62 JUMPI DUP1 PUSH4 0x3D6DFAF4 EQ PUSH3 0x10D JUMPI DUP1 PUSH4 0xA0CF0AEA EQ PUSH3 0x124 JUMPI DUP1 PUSH4 0xC62B919E EQ PUSH3 0x140 JUMPI DUP1 PUSH4 0xEC199466 EQ PUSH3 0x168 JUMPI PUSH1 0x0 DUP1 REVERT JUMPDEST DUP1 PUSH4 0x12D36171 EQ PUSH3 0x8C JUMPI DUP1 PUSH4 0x2EAA0EDD EQ PUSH3 0xCD JUMPI DUP1 PUSH4 0x3BAE2F0F EQ PUSH3 0xE7 JUMPI JUMPDEST PUSH1 0x0 DUP1 REVERT JUMPDEST PUSH3 0xA3 PUSH3 0x9D CALLDATASIZE PUSH1 0x4 PUSH3 0x820 JUMP JUMPDEST PUSH3 0x1AD JUMP JUMPDEST PUSH1 0x40 MLOAD PUSH20 0xFFFFFFFFFFFFFFFFFFFFFFFFFFFFFFFFFFFFFFFF SWAP1 SWAP2 AND DUP2 MSTORE PUSH1 0x20 ADD JUMPDEST PUSH1 0x40 MLOAD DUP1 SWAP2 SUB SWAP1 RETURN JUMPDEST PUSH3 0xD8 PUSH3 0x100000 DUP2 JUMP JUMPDEST PUSH1 0x40 MLOAD SWAP1 DUP2 MSTORE PUSH1 0x20 ADD PUSH3 0xC4 JUMP JUMPDEST PUSH3 0xFE PUSH3 0xF8 CALLDATASIZE PUSH1 0x4 PUSH3 0x820 JUMP JUMPDEST PUSH3 0x6FA JUMP JUMPDEST PUSH1 0x40 MLOAD PUSH3 0xC4 SWAP2 SWAP1 PUSH3 0x84D JUMP JUMPDEST PUSH3 0xA3 PUSH3 0x11E CALLDATASIZE PUSH1 0x4 PUSH3 0x8A9 JUMP JUMPDEST PUSH3 0x795 JUMP JUMPDEST PUSH3 0xA3 PUSH20 0xEEEEEEEEEEEEEEEEEEEEEEEEEEEEEEEEEEEEEEEE DUP2 JUMP JUMPDEST PUSH3 0xA3 PUSH32 0x0 DUP2 JUMP JUMPDEST PUSH3 0xD8 PUSH3 0x179 CALLDATASIZE PUSH1 0x4 PUSH3 0x820 JUMP JUMPDEST PUSH20 0xFFFFFFFFFFFFFFFFFFFFFFFFFFFFFFFFFFFFFFFF SWAP1 SWAP2 AND PUSH1 0x0 SWAP1 DUP2 MSTORE PUSH1 0x1 PUSH1 0x20 SWAP1 DUP2 MSTORE PUSH1 0x40 DUP1 DUP4 KECCAK256 SWAP4 DUP4 MSTORE SWAP3 SWAP1 MSTORE KECCAK256 SLOAD SWAP1 JUMP JUMPDEST PUSH1 0x0 PUSH1 0x4D DUP3 GT ISZERO PUSH3 0x20F JUMPI PUSH1 0x40 MLOAD PUSH32 0x55BB9BC200000000000000000000000000000000000000000000000000000000 DUP2 MSTORE PUSH20 0xFFFFFFFFFFFFFFFFFFFFFFFFFFFFFFFFFFFFFFFF DUP5 AND PUSH1 0x4 DUP3 ADD MSTORE PUSH1 0x24 DUP2 ADD DUP4 SWAP1 MSTORE PUSH1 0x44 ADD JUMPDEST PUSH1 0x40 MLOAD DUP1 SWAP2 SUB SWAP1 REVERT JUMPDEST PUSH20 0xFFFFFFFFFFFFFFFFFFFFFFFFFFFFFFFFFFFFFFFF DUP4 AND PUSH20 0xEEEEEEEEEEEEEEEEEEEEEEEEEEEEEEEEEEEEEEEE EQ DUP1 ISZERO SWAP1 PUSH3 0x2B9 JUMPI POP DUP3 PUSH20 0xFFFFFFFFFFFFFFFFFFFFFFFFFFFFFFFFFFFFFFFF AND PUSH4 0x18160DDD PUSH1 0x40 MLOAD DUP2 PUSH4 0xFFFFFFFF AND PUSH1 0xE0 SHL DUP2 MSTORE PUSH1 0x4 ADD PUSH1 0x20 PUSH1 0x40 MLOAD DUP1 DUP4 SUB DUP2 DUP7 GAS STATICCALL ISZERO DUP1 ISZERO PUSH3 0x291 JUMPI RETURNDATASIZE PUSH1 0x0 DUP1 RETURNDATACOPY RETURNDATASIZE PUSH1 0x0 REVERT JUMPDEST POP POP POP POP PUSH1 0x40 MLOAD RETURNDATASIZE PUSH1 0x1F NOT PUSH1 0x1F DUP3 ADD AND DUP3 ADD DUP1 PUSH1 0x40 MSTORE POP DUP2 ADD SWAP1 PUSH3 0x2B7 SWAP2 SWAP1 PUSH3 0x8DF JUMP JUMPDEST ISZERO JUMPDEST ISZERO PUSH3 0x311 JUMPI PUSH1 0x40 MLOAD PUSH32 0x55BB9BC200000000000000000000000000000000000000000000000000000000 DUP2 MSTORE PUSH20 0xFFFFFFFFFFFFFFFFFFFFFFFFFFFFFFFFFFFFFFFF DUP5 AND PUSH1 0x4 DUP3 ADD MSTORE PUSH1 0x24 DUP2 ADD DUP4 SWAP1 MSTORE PUSH1 0x44 ADD PUSH3 0x206 JUMP JUMPDEST PUSH1 0x0 PUSH3 0x320 DUP4 PUSH1 0xA PUSH3 0xA63 JUMP JUMPDEST PUSH20 0xFFFFFFFFFFFFFFFFFFFFFFFFFFFFFFFFFFFFFFFF DUP6 AND PUSH1 0x0 SWAP1 DUP2 MSTORE PUSH1 0x1 PUSH1 0x20 SWAP1 DUP2 MSTORE PUSH1 0x40 DUP1 DUP4 KECCAK256 DUP8 DUP5 MSTORE SWAP1 SWAP2 MSTORE DUP2 KECCAK256 SLOAD SWAP2 SWAP3 POP DUP2 SWAP1 SUB PUSH3 0x483 JUMPI PUSH32 0x0 DUP6 DUP4 PUSH1 0x40 MLOAD PUSH3 0x38D SWAP1 PUSH3 0x7E8 JUMP JUMPDEST PUSH20 0xFFFFFFFFFFFFFFFFFFFFFFFFFFFFFFFFFFFFFFFF SWAP4 DUP5 AND DUP2 MSTORE SWAP3 SWAP1 SWAP2 AND PUSH1 0x20 DUP4 ADD MSTORE PUSH1 0x40 DUP3 ADD MSTORE PUSH1 0x60 ADD PUSH1 0x40 MLOAD DUP1 SWAP2 SUB SWAP1 PUSH1 0x0 CREATE DUP1 ISZERO DUP1 ISZERO PUSH3 0x3D5 JUMPI RETURNDATASIZE PUSH1 0x0 DUP1 RETURNDATACOPY RETURNDATASIZE PUSH1 0x0 REVERT JUMPDEST POP PUSH20 0xFFFFFFFFFFFFFFFFFFFFFFFFFFFFFFFFFFFFFFFF DUP1 DUP8 AND PUSH1 0x0 DUP2 DUP2 MSTORE PUSH1 0x1 PUSH1 0x20 DUP2 DUP2 MSTORE PUSH1 0x40 DUP1 DUP5 KECCAK256 DUP12 DUP6 MSTORE DUP3 MSTORE DUP1 DUP5 KECCAK256 DUP1 SLOAD SWAP4 DUP5 ADD DUP2 SSTORE DUP5 MSTORE SWAP3 KECCAK256 ADD DUP1 SLOAD SWAP4 DUP6 AND PUSH32 0xFFFFFFFFFFFFFFFFFFFFFFFF0000000000000000000000000000000000000000 SWAP1 SWAP5 AND DUP5 OR SWAP1 SSTORE MLOAD SWAP3 SWAP6 POP SWAP2 PUSH32 0x88A6A60B903767FFC90E5218482445EA28B24F0C589F00FAE35398B33F55B006 SWAP1 PUSH3 0x475 SWAP1 DUP7 DUP2 MSTORE PUSH1 0x20 ADD SWAP1 JUMP JUMPDEST PUSH1 0x40 MLOAD DUP1 SWAP2 SUB SWAP1 LOG3 PUSH3 0x6F2 JUMP JUMPDEST PUSH20 0xFFFFFFFFFFFFFFFFFFFFFFFFFFFFFFFFFFFFFFFF DUP6 AND PUSH1 0x0 SWAP1 DUP2 MSTORE PUSH1 0x1 PUSH1 0x20 DUP2 DUP2 MSTORE PUSH1 0x40 DUP1 DUP5 KECCAK256 DUP9 DUP6 MSTORE SWAP1 SWAP2 MSTORE DUP3 KECCAK256 SWAP1 PUSH3 0x4C0 SWAP1 DUP5 PUSH3 0xA78 JUMP JUMPDEST DUP2 SLOAD DUP2 LT PUSH3 0x4D3 JUMPI PUSH3 0x4D3 PUSH3 0xA8E JUMP JUMPDEST SWAP1 PUSH1 0x0 MSTORE PUSH1 0x20 PUSH1 0x0 KECCAK256 ADD PUSH1 0x0 SWAP1 SLOAD SWAP1 PUSH2 0x100 EXP SWAP1 DIV PUSH20 0xFFFFFFFFFFFFFFFFFFFFFFFFFFFFFFFFFFFFFFFF AND SWAP1 POP PUSH3 0x100000 DUP2 PUSH20 0xFFFFFFFFFFFFFFFFFFFFFFFFFFFFFFFFFFFFFFFF AND PUSH4 0x53E55371 PUSH1 0x40 MLOAD DUP2 PUSH4 0xFFFFFFFF AND PUSH1 0xE0 SHL DUP2 MSTORE PUSH1 0x4 ADD PUSH1 0x20 PUSH1 0x40 MLOAD DUP1 DUP4 SUB DUP2 DUP7 GAS STATICCALL ISZERO DUP1 ISZERO PUSH3 0x550 JUMPI RETURNDATASIZE PUSH1 0x0 DUP1 RETURNDATACOPY RETURNDATASIZE PUSH1 0x0 REVERT JUMPDEST POP POP POP POP PUSH1 0x40 MLOAD RETURNDATASIZE PUSH1 0x1F NOT PUSH1 0x1F DUP3 ADD AND DUP3 ADD DUP1 PUSH1 0x40 MSTORE POP DUP2 ADD SWAP1 PUSH3 0x576 SWAP2 SWAP1 PUSH3 0x8DF JUMP JUMPDEST LT ISZERO PUSH3 0x5CF JUMPI PUSH1 0x40 MLOAD PUSH32 0x5C24A2100000000000000000000000000000000000000000000000000000000 DUP2 MSTORE PUSH20 0xFFFFFFFFFFFFFFFFFFFFFFFFFFFFFFFFFFFFFFFF DUP8 AND PUSH1 0x4 DUP3 ADD MSTORE PUSH1 0x24 DUP2 ADD DUP7 SWAP1 MSTORE PUSH1 0x44 ADD PUSH3 0x206 JUMP JUMPDEST PUSH32 0x0 DUP7 DUP5 PUSH1 0x40 MLOAD PUSH3 0x600 SWAP1 PUSH3 0x7E8 JUMP JUMPDEST PUSH20 0xFFFFFFFFFFFFFFFFFFFFFFFFFFFFFFFFFFFFFFFF SWAP4 DUP5 AND DUP2 MSTORE SWAP3 SWAP1 SWAP2 AND PUSH1 0x20 DUP4 ADD MSTORE PUSH1 0x40 DUP3 ADD MSTORE PUSH1 0x60 ADD PUSH1 0x40 MLOAD DUP1 SWAP2 SUB SWAP1 PUSH1 0x0 CREATE DUP1 ISZERO DUP1 ISZERO PUSH3 0x648 JUMPI RETURNDATASIZE PUSH1 0x0 DUP1 RETURNDATACOPY RETURNDATASIZE PUSH1 0x0 REVERT JUMPDEST POP PUSH20 0xFFFFFFFFFFFFFFFFFFFFFFFFFFFFFFFFFFFFFFFF DUP1 DUP9 AND PUSH1 0x0 DUP2 DUP2 MSTORE PUSH1 0x1 PUSH1 0x20 DUP2 DUP2 MSTORE PUSH1 0x40 DUP1 DUP5 KECCAK256 DUP13 DUP6 MSTORE DUP3 MSTORE DUP1 DUP5 KECCAK256 DUP1 SLOAD SWAP4 DUP5 ADD DUP2 SSTORE DUP5 MSTORE SWAP3 KECCAK256 ADD DUP1 SLOAD SWAP4 DUP6 AND PUSH32 0xFFFFFFFFFFFFFFFFFFFFFFFF0000000000000000000000000000000000000000 SWAP1 SWAP5 AND DUP5 OR SWAP1 SSTORE MLOAD SWAP3 SWAP7 POP SWAP2 PUSH32 0x88A6A60B903767FFC90E5218482445EA28B24F0C589F00FAE35398B33F55B006 SWAP1 PUSH3 0x6E8 SWAP1 DUP8 DUP2 MSTORE PUSH1 0x20 ADD SWAP1 JUMP JUMPDEST PUSH1 0x40 MLOAD DUP1 SWAP2 SUB SWAP1 LOG3 POP JUMPDEST POP POP SWAP3 SWAP2 POP POP JUMP JUMPDEST PUSH20 0xFFFFFFFFFFFFFFFFFFFFFFFFFFFFFFFFFFFFFFFF DUP3 AND PUSH1 0x0 SWAP1 DUP2 MSTORE PUSH1 0x1 PUSH1 0x20 SWAP1 DUP2 MSTORE PUSH1 0x40 DUP1 DUP4 KECCAK256 DUP5 DUP5 MSTORE DUP3 MSTORE SWAP2 DUP3 SWAP1 KECCAK256 DUP1 SLOAD DUP4 MLOAD DUP2 DUP5 MUL DUP2 ADD DUP5 ADD SWAP1 SWAP5 MSTORE DUP1 DUP5 MSTORE PUSH1 0x60 SWAP4 SWAP3 DUP4 ADD DUP3 DUP3 DUP1 ISZERO PUSH3 0x788 JUMPI PUSH1 0x20 MUL DUP3 ADD SWAP2 SWAP1 PUSH1 0x0 MSTORE PUSH1 0x20 PUSH1 0x0 KECCAK256 SWAP1 JUMPDEST DUP2 SLOAD PUSH20 0xFFFFFFFFFFFFFFFFFFFFFFFFFFFFFFFFFFFFFFFF AND DUP2 MSTORE PUSH1 0x1 SWAP1 SWAP2 ADD SWAP1 PUSH1 0x20 ADD DUP1 DUP4 GT PUSH3 0x75C JUMPI JUMPDEST POP POP POP POP POP SWAP1 POP SWAP3 SWAP2 POP POP JUMP JUMPDEST PUSH1 0x1 PUSH1 0x20 MSTORE DUP3 PUSH1 0x0 MSTORE PUSH1 0x40 PUSH1 0x0 KECCAK256 PUSH1 0x20 MSTORE DUP2 PUSH1 0x0 MSTORE PUSH1 0x40 PUSH1 0x0 KECCAK256 DUP2 DUP2 SLOAD DUP2 LT PUSH3 0x7BE JUMPI PUSH1 0x0 DUP1 REVERT JUMPDEST PUSH1 0x0 SWAP2 DUP3 MSTORE PUSH1 0x20 SWAP1 SWAP2 KECCAK256 ADD SLOAD PUSH20 0xFFFFFFFFFFFFFFFFFFFFFFFFFFFFFFFFFFFFFFFF AND SWAP3 POP DUP4 SWAP2 POP POP JUMP JUMPDEST PUSH2 0x4CFC DUP1 PUSH3 0xABE DUP4 CODECOPY ADD SWAP1 JUMP JUMPDEST DUP1 CALLDATALOAD PUSH20 0xFFFFFFFFFFFFFFFFFFFFFFFFFFFFFFFFFFFFFFFF DUP2 AND DUP2 EQ PUSH3 0x81B JUMPI PUSH1 0x0 DUP1 REVERT JUMPDEST SWAP2 SWAP1 POP JUMP JUMPDEST PUSH1 0x0 DUP1 PUSH1 0x40 DUP4 DUP6 SUB SLT ISZERO PUSH3 0x834 JUMPI PUSH1 0x0 DUP1 REVERT JUMPDEST PUSH3 0x83F DUP4 PUSH3 0x7F6 JUMP JUMPDEST SWAP5 PUSH1 0x20 SWAP4 SWAP1 SWAP4 ADD CALLDATALOAD SWAP4 POP POP POP JUMP JUMPDEST PUSH1 0x20 DUP1 DUP3 MSTORE DUP3 MLOAD DUP3 DUP3 ADD DUP2 SWAP1 MSTORE PUSH1 0x0 SWAP2 SWAP1 DUP5 DUP3 ADD SWAP1 PUSH1 0x40 DUP6 ADD SWAP1 DUP5 JUMPDEST DUP2 DUP2 LT ISZERO PUSH3 0x89D JUMPI DUP4 MLOAD PUSH20 0xFFFFFFFFFFFFFFFFFFFFFFFFFFFFFFFFFFFFFFFF AND DUP4 MSTORE SWAP3 DUP5 ADD SWAP3 SWAP2 DUP5 ADD SWAP2 PUSH1 0x1 ADD PUSH3 0x869 JUMP JUMPDEST POP SWAP1 SWAP7 SWAP6 POP POP POP POP POP POP JUMP JUMPDEST PUSH1 0x0 DUP1 PUSH1 0x0 PUSH1 0x60 DUP5 DUP7 SUB SLT ISZERO PUSH3 0x8BF JUMPI PUSH1 0x0 DUP1 REVERT JUMPDEST PUSH3 0x8CA DUP5 PUSH3 0x7F6 JUMP JUMPDEST SWAP6 PUSH1 0x20 DUP6 ADD CALLDATALOAD SWAP6 POP PUSH1 0x40 SWAP1 SWAP5 ADD CALLDATALOAD SWAP4 SWAP3 POP POP POP JUMP JUMPDEST PUSH1 0x0 PUSH1 0x20 DUP3 DUP5 SUB SLT ISZERO PUSH3 0x8F2 JUMPI PUSH1 0x0 DUP1 REVERT JUMPDEST POP MLOAD SWAP2 SWAP1 POP JUMP JUMPDEST PUSH32 0x4E487B7100000000000000000000000000000000000000000000000000000000 PUSH1 0x0 MSTORE PUSH1 0x11 PUSH1 0x4 MSTORE PUSH1 0x24 PUSH1 0x0 REVERT JUMPDEST PUSH1 0x1 DUP2 DUP2 JUMPDEST DUP1 DUP6 GT ISZERO PUSH3 0x987 JUMPI DUP2 PUSH32 0xFFFFFFFFFFFFFFFFFFFFFFFFFFFFFFFFFFFFFFFFFFFFFFFFFFFFFFFFFFFFFFFF DIV DUP3 GT ISZERO PUSH3 0x96B JUMPI PUSH3 0x96B PUSH3 0x8F9 JUMP JUMPDEST DUP1 DUP6 AND ISZERO PUSH3 0x979 JUMPI SWAP2 DUP2 MUL SWAP2 JUMPDEST SWAP4 DUP5 SHR SWAP4 SWAP1 DUP1 MUL SWAP1 PUSH3 0x92D JUMP JUMPDEST POP SWAP3 POP SWAP3 SWAP1 POP JUMP JUMPDEST PUSH1 0x0 DUP3 PUSH3 0x9A0 JUMPI POP PUSH1 0x1 PUSH3 0xA5D JUMP JUMPDEST DUP2 PUSH3 0x9AF JUMPI POP PUSH1 0x0 PUSH3 0xA5D JUMP JUMPDEST DUP2 PUSH1 0x1 DUP2 EQ PUSH3 0x9C8 JUMPI PUSH1 0x2 DUP2 EQ PUSH3 0x9D3 JUMPI PUSH3 0x9F3 JUMP JUMPDEST PUSH1 0x1 SWAP2 POP POP PUSH3 0xA5D JUMP JUMPDEST PUSH1 0xFF DUP5 GT ISZERO PUSH3 0x9E7 JUMPI PUSH3 0x9E7 PUSH3 0x8F9 JUMP JUMPDEST POP POP PUSH1 0x1 DUP3 SHL PUSH3 0xA5D JUMP JUMPDEST POP PUSH1 0x20 DUP4 LT PUSH2 0x133 DUP4 LT AND PUSH1 0x4E DUP5 LT PUSH1 0xB DUP5 LT AND OR ISZERO PUSH3 0xA18 JUMPI POP DUP2 DUP2 EXP PUSH3 0xA5D JUMP JUMPDEST PUSH3 0xA24 DUP4 DUP4 PUSH3 0x928 JUMP JUMPDEST DUP1 PUSH32 0xFFFFFFFFFFFFFFFFFFFFFFFFFFFFFFFFFFFFFFFFFFFFFFFFFFFFFFFFFFFFFFFF DIV DUP3 GT ISZERO PUSH3 0xA59 JUMPI PUSH3 0xA59 PUSH3 0x8F9 JUMP JUMPDEST MUL SWAP1 POP JUMPDEST SWAP3 SWAP2 POP POP JUMP JUMPDEST PUSH1 0x0 PUSH3 0xA71 DUP4 DUP4 PUSH3 0x98F JUMP JUMPDEST SWAP4 SWAP3 POP POP POP JUMP JUMPDEST DUP2 DUP2 SUB DUP2 DUP2 GT ISZERO PUSH3 0xA5D JUMPI PUSH3 0xA5D PUSH3 0x8F9 JUMP JUMPDEST PUSH32 0x4E487B7100000000000000000000000000000000000000000000000000000000 PUSH1 0x0 MSTORE PUSH1 0x32 PUSH1 0x4 MSTORE PUSH1 0x24 PUSH1 0x0 REVERT INVALID PUSH2 0x100 PUSH1 0x40 MSTORE PUSH1 0x0 PUSH1 0x1 SSTORE CALLVALUE DUP1 ISZERO PUSH3 0x17 JUMPI PUSH1 0x0 DUP1 REVERT JUMPDEST POP PUSH1 0x40 MLOAD PUSH3 0x4CFC CODESIZE SUB DUP1 PUSH3 0x4CFC DUP4 CODECOPY DUP2 ADD PUSH1 0x40 DUP2 SWAP1 MSTORE PUSH3 0x3A SWAP2 PUSH3 0x6FF JUMP JUMPDEST PUSH1 0x1 PUSH1 0x0 SWAP1 DUP2 SSTORE PUSH1 0x1 PUSH1 0x1 PUSH1 0xA0 SHL SUB DUP5 AND PUSH1 0x80 DUP2 SWAP1 MSTORE PUSH32 0x133A292295D50240EB5EDFCAA95731512CCDAF79758573A1F627DC47ADBDE7E PUSH32 0xAC33FF75C19E70FE83507DB0D683FD3465C996598DC972688B7ACE676C89077B SSTORE PUSH32 0xBA2D612822AD57FD2285564F4BAD51F685240488003085993BF5EE8E63C31CB PUSH32 0xE90B7BCEB6E7DF5418FB78D8EE546E97C83A08BBCCC01A0644D599CCD2A7C2E0 SSTORE PUSH32 0x27B302C974BF7444CB94F3EEAE53D5CB897748679C94958C692567ED97E96C3C PUSH32 0x679795A0195A1B76CDEBB7C51D74E058AEE92919B8C3389AF86EF24535E8A28C SSTORE PUSH32 0x1C573635007D49A2E0E4E525A32CA29C3049377182BBB01EFEDDBCDFE513F82B PUSH32 0x88601476D11616A71C5BE67555BD1DFF4B1CBF21533D2669B768B61518CFE1C3 SSTORE PUSH32 0x2E1BF7A6E73442CDEAEC1EB387D34B4A27F6957A2AE407BBA844135FCA5D8DBC PUSH32 0xEE60D0579BCFFD98E668647D59FEC1FF86A7FB340CE572E844F234AE73A6918F SSTORE PUSH31 0x9199390BDB47D6917F64668754DBEB426B43513FA7B0807D85794BD60270D PUSH32 0xB98B78633099FA36ED8B8680C4F8092689E1E04080EB9CBB077CA38A14D7E384 SSTORE PUSH32 0x2F7739FA804B1102B2E95582A4CFB3C25D26E1F70133A81E6FED8FEDBF7016EF PUSH32 0x59DD4B18488D12F51EDA69757A0ED42A2010C14B564330CC74A06895E60C077B SSTORE PUSH31 0x371F555C474E2F7846B97C7A90DAB5FCC55AC0010C271796AD497F66689033 PUSH32 0xACD8EF244210BB6898E73C48BF820ED8ECC857A3BAB8D79C10E4FA92B1E9CA65 SSTORE PUSH32 0x15B36B0DEBB62E1B11A9E331644A806960A4DF8919180DC0745D17C7A912E989 PUSH32 0x3A5EA591190EEB3F8FCDCED843C78DF04EC0DFD42F5510375207515664FA0A75 SSTORE PUSH32 0xFAB3738A9EC3B9C6EAA98BF46972ED3CBBAE7982F0E69B3C7E9053ADF32290D PUSH32 0xF85CC6FFC513DC6CF7D199EF87B7A63CF9DEFE62251C1C247CD12F1EEC7BFF29 SSTORE PUSH32 0x16824B083A3F105F6671A504C2379DE67CC5154C5B557294E35D27D1D3531225 PUSH32 0xD3604DB978F6137B0D18816B77B2CE810487A3AF08A922E0B184963BE5F3ADFC SSTORE PUSH32 0x297ECAE656A0FE904FE84F8DB691C7156A51DD5E228873CF75CED697DD8E5C19 PUSH32 0xAB9952BAF6478D8CFB7253CE86A6C53A7B7549582C76210B1581AE682B7E556F SSTORE PUSH32 0x67C35B9AC5CDC355C6F9EAEF4721E6D622A4FD32D74D7BE3F78B17E5D8597EA PUSH32 0xBD814762A7E35D5C162A7570D14BAA68BD622CABB1AD83D40DD70F8A88AA67C0 SSTORE PUSH32 0x2C2633F1AE47AE42E0CE8EADEC89C64D44A1FA98F1EE85AD4BF536594AF4E27F PUSH32 0xEB5D92AA5B18AF35C2D0C0D14A538792CF1A66AA06AB9DAE49D32446E9063CA1 SSTORE PUSH32 0x2D9C6E7ECA6E7BA2B8335AE16998576602FE7910FB5EF41CE94D00B1332CF624 PUSH32 0x20DE3DD312970F46A1D560F6C70F0E5BD10E638B9BB3836368F28838C607EA3E SSTORE PUSH32 0x239F1418B2B0A70F468D0903CC46524D8F7EFBDB2DFA561494CA5BFFCC787700 PUSH32 0x353061A88C0592F32D7468BE32FF6E5E91E49A3EA3FFB3C4FBE417C36501BA2 SSTORE PUSH32 0xB15E263911EE4D77B6A394B70DC93AD3DF6DFDF6A3F7605F9CAFB6968D8F1F6 PUSH32 0x328B8E687A0A963892A735F0237CB763BBBBF8BA0C1DFE2C221DEBB32C4BBD89 SSTORE PUSH32 0x2C069C957125A3E2CB4E16CA506D5F4F387D11D1AEA33B30A8DD4CA3074F4DE6 PUSH32 0xA4E0F4432E44D027A7B3F953940F096BCA7A9BD910297CAD2BA7C703C2B799D3 SSTORE PUSH32 0xBE6D282D26C02019FD66E32C8D85154B77253E7C6016B26A991352E0016D580 PUSH32 0xC0C7C7C9A2A6655862FEEA3CC7FF13629582293FCFE0E1094EFB20897BB02A65 SSTORE PUSH32 0x1E29CFB0C1AD522F22A3B3E23C057CBD3C7AB921E742A8DFCBC66DBDE917D5B2 PUSH32 0x4A5BDED210BB862FAE2C0D18B9D29BF7F88B08A75DD1594B1369ABC7881E3FE1 SSTORE SWAP1 DUP1 MSTORE PUSH1 0x3 PUSH1 0x20 MSTORE PUSH32 0x2FB6E40B303CFF95DEC23C65CBFC0A74E935784E091B5A6CDDC02FAA6A7177E2 PUSH32 0x3617319A054D772F909F7C479A2CEBE5066E836A939412E32403C99029B92EFF SSTORE PUSH3 0x5F3 JUMPI PUSH1 0x40 MLOAD PUSH4 0x1D6FE85F PUSH1 0xE3 SHL DUP2 MSTORE PUSH1 0x4 ADD PUSH1 0x40 MLOAD DUP1 SWAP2 SUB SWAP1 REVERT JUMPDEST PUSH1 0x1 PUSH1 0x1 PUSH1 0xA0 SHL SUB DUP3 AND PUSH3 0x61B JUMPI PUSH1 0x40 MLOAD PUSH4 0x1D6FE85F PUSH1 0xE3 SHL DUP2 MSTORE PUSH1 0x4 ADD PUSH1 0x40 MLOAD DUP1 SWAP2 SUB SWAP1 REVERT JUMPDEST PUSH1 0x1 PUSH1 0x1 PUSH1 0xA0 SHL SUB DUP3 AND PUSH1 0xA0 MSTORE PUSH1 0x0 DUP2 SWAP1 SUB PUSH3 0x64B JUMPI PUSH1 0x40 MLOAD PUSH4 0x20C7E40F PUSH1 0xE1 SHL DUP2 MSTORE PUSH1 0x4 ADD PUSH1 0x40 MLOAD DUP1 SWAP2 SUB SWAP1 REVERT JUMPDEST PUSH1 0xC0 DUP2 SWAP1 MSTORE PUSH1 0xA0 MLOAD PUSH1 0x40 MLOAD PUSH3 0x698 SWAP2 PUSH3 0x682 SWAP2 DUP5 SWAP1 PUSH1 0x20 ADD PUSH1 0x60 SWAP3 SWAP1 SWAP3 SHL PUSH1 0x1 PUSH1 0x1 PUSH1 0x60 SHL SUB NOT AND DUP3 MSTORE PUSH1 0x14 DUP3 ADD MSTORE PUSH1 0x34 ADD SWAP1 JUMP JUMPDEST PUSH1 0x40 DUP1 MLOAD PUSH1 0x1F NOT DUP2 DUP5 SUB ADD DUP2 MSTORE SWAP2 SWAP1 MSTORE PUSH3 0x6A5 JUMP JUMPDEST PUSH1 0xE0 MSTORE POP PUSH3 0x763 SWAP2 POP POP JUMP JUMPDEST DUP1 MLOAD PUSH1 0x20 DUP3 ADD KECCAK256 PUSH1 0x0 SWAP1 PUSH3 0x6DC SWAP1 PUSH32 0x30644E72E131A029B85045B68181585D2833E84879B9709143E1F593F0000001 SWAP1 PUSH3 0x740 JUMP JUMPDEST SWAP3 SWAP2 POP POP JUMP JUMPDEST DUP1 MLOAD PUSH1 0x1 PUSH1 0x1 PUSH1 0xA0 SHL SUB DUP2 AND DUP2 EQ PUSH3 0x6FA JUMPI PUSH1 0x0 DUP1 REVERT JUMPDEST SWAP2 SWAP1 POP JUMP JUMPDEST PUSH1 0x0 DUP1 PUSH1 0x0 PUSH1 0x60 DUP5 DUP7 SUB SLT ISZERO PUSH3 0x715 JUMPI PUSH1 0x0 DUP1 REVERT JUMPDEST PUSH3 0x720 DUP5 PUSH3 0x6E2 JUMP JUMPDEST SWAP3 POP PUSH3 0x730 PUSH1 0x20 DUP6 ADD PUSH3 0x6E2 JUMP JUMPDEST SWAP2 POP PUSH1 0x40 DUP5 ADD MLOAD SWAP1 POP SWAP3 POP SWAP3 POP SWAP3 JUMP JUMPDEST PUSH1 0x0 DUP3 PUSH3 0x75E JUMPI PUSH4 0x4E487B71 PUSH1 0xE0 SHL PUSH1 0x0 MSTORE PUSH1 0x12 PUSH1 0x4 MSTORE PUSH1 0x24 PUSH1 0x0 REVERT JUMPDEST POP MOD SWAP1 JUMP JUMPDEST PUSH1 0x80 MLOAD PUSH1 0xA0 MLOAD PUSH1 0xC0 MLOAD PUSH1 0xE0 MLOAD PUSH2 0x445C PUSH3 0x8A0 PUSH1 0x0 CODECOPY PUSH1 0x0 DUP2 DUP2 PUSH2 0x273 ADD MSTORE DUP2 DUP2 PUSH2 0xC32 ADD MSTORE PUSH2 0xF6F ADD MSTORE PUSH1 0x0 DUP2 DUP2 PUSH2 0x2A7 ADD MSTORE DUP2 DUP2 PUSH2 0x7BA ADD MSTORE DUP2 DUP2 PUSH2 0x80F ADD MSTORE DUP2 DUP2 PUSH2 0x8F9 ADD MSTORE DUP2 DUP2 PUSH2 0x9F4 ADD MSTORE DUP2 DUP2 PUSH2 0xB22 ADD MSTORE DUP2 DUP2 PUSH2 0xBC1 ADD MSTORE DUP2 DUP2 PUSH2 0xD77 ADD MSTORE PUSH2 0xE03 ADD MSTORE PUSH1 0x0 DUP2 DUP2 PUSH2 0x18A ADD MSTORE DUP2 DUP2 PUSH2 0x853 ADD MSTORE DUP2 DUP2 PUSH2 0x9CB ADD MSTORE DUP2 DUP2 PUSH2 0xA44 ADD MSTORE DUP2 DUP2 PUSH2 0xAE2 ADD MSTORE DUP2 DUP2 PUSH2 0xBFC ADD MSTORE PUSH2 0xD1D ADD MSTORE PUSH1 0x0 DUP2 DUP2 PUSH2 0x36B ADD MSTORE DUP2 DUP2 PUSH2 0xC97 ADD MSTORE DUP2 DUP2 PUSH2 0x12B6 ADD MSTORE DUP2 DUP2 PUSH2 0x1410 ADD MSTORE DUP2 DUP2 PUSH2 0x156C ADD MSTORE DUP2 DUP2 PUSH2 0x16C8 ADD MSTORE DUP2 DUP2 PUSH2 0x1824 ADD MSTORE DUP2 DUP2 PUSH2 0x197F ADD MSTORE DUP2 DUP2 PUSH2 0x1ADB ADD MSTORE DUP2 DUP2 PUSH2 0x1C36 ADD MSTORE DUP2 DUP2 PUSH2 0x1D92 ADD MSTORE DUP2 DUP2 PUSH2 0x1EEE ADD MSTORE DUP2 DUP2 PUSH2 0x204A ADD MSTORE DUP2 DUP2 PUSH2 0x21A6 ADD MSTORE DUP2 DUP2 PUSH2 0x2302 ADD MSTORE DUP2 DUP2 PUSH2 0x245E ADD MSTORE DUP2 DUP2 PUSH2 0x25BA ADD MSTORE DUP2 DUP2 PUSH2 0x2716 ADD MSTORE DUP2 DUP2 PUSH2 0x2872 ADD MSTORE DUP2 DUP2 PUSH2 0x29CE ADD MSTORE DUP2 DUP2 PUSH2 0x2B2A ADD MSTORE PUSH2 0x2C86 ADD MSTORE PUSH2 0x445C PUSH1 0x0 RETURN INVALID PUSH1 0x80 PUSH1 0x40 MSTORE PUSH1 0x4 CALLDATASIZE LT PUSH2 0x10E JUMPI PUSH1 0x0 CALLDATALOAD PUSH1 0xE0 SHR DUP1 PUSH4 0x88662DE9 GT PUSH2 0xA5 JUMPI DUP1 PUSH4 0xC2B40AE4 GT PUSH2 0x74 JUMPI DUP1 PUSH4 0xE2ADBA8C GT PUSH2 0x59 JUMPI DUP1 PUSH4 0xE2ADBA8C EQ PUSH2 0x344 JUMPI DUP1 PUSH4 0xED33639F EQ PUSH2 0x359 JUMPI DUP1 PUSH4 0xF178E47C EQ PUSH2 0x38D JUMPI PUSH1 0x0 DUP1 REVERT JUMPDEST DUP1 PUSH4 0xC2B40AE4 EQ PUSH2 0x304 JUMPI DUP1 PUSH4 0xD922B60C EQ PUSH2 0x331 JUMPI PUSH1 0x0 DUP1 REVERT JUMPDEST DUP1 PUSH4 0x88662DE9 EQ PUSH2 0x261 JUMPI DUP1 PUSH4 0x8BCA6D16 EQ PUSH2 0x295 JUMPI DUP1 PUSH4 0xA0CF0AEA EQ PUSH2 0x2C9 JUMPI DUP1 PUSH4 0xB214FAA5 EQ PUSH2 0x2F1 JUMPI PUSH1 0x0 DUP1 REVERT JUMPDEST DUP1 PUSH4 0x5445B007 GT PUSH2 0xE1 JUMPI DUP1 PUSH4 0x5445B007 EQ PUSH2 0x1F5 JUMPI DUP1 PUSH4 0x6840FCEA EQ PUSH2 0x20A JUMPI DUP1 PUSH4 0x6D9833E3 EQ PUSH2 0x21F JUMPI DUP1 PUSH4 0x71B834FE EQ PUSH2 0x23F JUMPI PUSH1 0x0 DUP1 REVERT JUMPDEST DUP1 PUSH4 0x2997E86B EQ PUSH2 0x113 JUMPI DUP1 PUSH4 0x33999428 EQ PUSH2 0x158 JUMPI DUP1 PUSH4 0x38D52E0F EQ PUSH2 0x178 JUMPI DUP1 PUSH4 0x53E55371 EQ PUSH2 0x1D1 JUMPI JUMPDEST PUSH1 0x0 DUP1 REVERT JUMPDEST CALLVALUE DUP1 ISZERO PUSH2 0x11F JUMPI PUSH1 0x0 DUP1 REVERT JUMPDEST POP PUSH2 0x143 PUSH2 0x12E CALLDATASIZE PUSH1 0x4 PUSH2 0x3F45 JUMP JUMPDEST PUSH1 0x4 PUSH1 0x20 MSTORE PUSH1 0x0 SWAP1 DUP2 MSTORE PUSH1 0x40 SWAP1 KECCAK256 SLOAD PUSH1 0xFF AND DUP2 JUMP JUMPDEST PUSH1 0x40 MLOAD SWAP1 ISZERO ISZERO DUP2 MSTORE PUSH1 0x20 ADD JUMPDEST PUSH1 0x40 MLOAD DUP1 SWAP2 SUB SWAP1 RETURN JUMPDEST PUSH2 0x16B PUSH2 0x166 CALLDATASIZE PUSH1 0x4 PUSH2 0x3F5E JUMP JUMPDEST PUSH2 0x3BA JUMP JUMPDEST PUSH1 0x40 MLOAD PUSH2 0x14F SWAP2 SWAP1 PUSH2 0x3FD3 JUMP JUMPDEST CALLVALUE DUP1 ISZERO PUSH2 0x184 JUMPI PUSH1 0x0 DUP1 REVERT JUMPDEST POP PUSH2 0x1AC PUSH32 0x0 DUP2 JUMP JUMPDEST PUSH1 0x40 MLOAD PUSH20 0xFFFFFFFFFFFFFFFFFFFFFFFFFFFFFFFFFFFFFFFF SWAP1 SWAP2 AND DUP2 MSTORE PUSH1 0x20 ADD PUSH2 0x14F JUMP JUMPDEST CALLVALUE DUP1 ISZERO PUSH2 0x1DD JUMPI PUSH1 0x0 DUP1 REVERT JUMPDEST POP PUSH2 0x1E7 PUSH1 0x1 SLOAD DUP2 JUMP JUMPDEST PUSH1 0x40 MLOAD SWAP1 DUP2 MSTORE PUSH1 0x20 ADD PUSH2 0x14F JUMP JUMPDEST CALLVALUE DUP1 ISZERO PUSH2 0x201 JUMPI PUSH1 0x0 DUP1 REVERT JUMPDEST POP PUSH2 0x1E7 PUSH2 0x46F JUMP JUMPDEST CALLVALUE DUP1 ISZERO PUSH2 0x216 JUMPI PUSH1 0x0 DUP1 REVERT JUMPDEST POP PUSH2 0x1E7 PUSH1 0x1E DUP2 JUMP JUMPDEST CALLVALUE DUP1 ISZERO PUSH2 0x22B JUMPI PUSH1 0x0 DUP1 REVERT JUMPDEST POP PUSH2 0x143 PUSH2 0x23A CALLDATASIZE PUSH1 0x4 PUSH2 0x3F45 JUMP JUMPDEST PUSH2 0x498 JUMP JUMPDEST CALLVALUE DUP1 ISZERO PUSH2 0x24B JUMPI PUSH1 0x0 DUP1 REVERT JUMPDEST POP PUSH2 0x25F PUSH2 0x25A CALLDATASIZE PUSH1 0x4 PUSH2 0x4017 JUMP JUMPDEST PUSH2 0x525 JUMP JUMPDEST STOP JUMPDEST CALLVALUE DUP1 ISZERO PUSH2 0x26D JUMPI PUSH1 0x0 DUP1 REVERT JUMPDEST POP PUSH2 0x1E7 PUSH32 0x0 DUP2 JUMP JUMPDEST CALLVALUE DUP1 ISZERO PUSH2 0x2A1 JUMPI PUSH1 0x0 DUP1 REVERT JUMPDEST POP PUSH2 0x1E7 PUSH32 0x0 DUP2 JUMP JUMPDEST CALLVALUE DUP1 ISZERO PUSH2 0x2D5 JUMPI PUSH1 0x0 DUP1 REVERT JUMPDEST POP PUSH2 0x1AC PUSH20 0xEEEEEEEEEEEEEEEEEEEEEEEEEEEEEEEEEEEEEEEE DUP2 JUMP JUMPDEST PUSH2 0x1E7 PUSH2 0x2FF CALLDATASIZE PUSH1 0x4 PUSH2 0x3F45 JUMP JUMPDEST PUSH2 0x531 JUMP JUMPDEST CALLVALUE DUP1 ISZERO PUSH2 0x310 JUMPI PUSH1 0x0 DUP1 REVERT JUMPDEST POP PUSH2 0x1E7 PUSH2 0x31F CALLDATASIZE PUSH1 0x4 PUSH2 0x3F45 JUMP JUMPDEST PUSH1 0x3 PUSH1 0x20 MSTORE PUSH1 0x0 SWAP1 DUP2 MSTORE PUSH1 0x40 SWAP1 KECCAK256 SLOAD DUP2 JUMP JUMPDEST PUSH2 0x25F PUSH2 0x33F CALLDATASIZE PUSH1 0x4 PUSH2 0x4053 JUMP JUMPDEST PUSH2 0x55F JUMP JUMPDEST CALLVALUE DUP1 ISZERO PUSH2 0x350 JUMPI PUSH1 0x0 DUP1 REVERT JUMPDEST POP PUSH2 0x1E7 PUSH1 0x14 DUP2 JUMP JUMPDEST CALLVALUE DUP1 ISZERO PUSH2 0x365 JUMPI PUSH1 0x0 DUP1 REVERT JUMPDEST POP PUSH2 0x1AC PUSH32 0x0 DUP2 JUMP JUMPDEST CALLVALUE DUP1 ISZERO PUSH2 0x399 JUMPI PUSH1 0x0 DUP1 REVERT JUMPDEST POP PUSH2 0x1E7 PUSH2 0x3A8 CALLDATASIZE PUSH1 0x4 PUSH2 0x3F45 JUMP JUMPDEST PUSH1 0x2 PUSH1 0x20 MSTORE PUSH1 0x0 SWAP1 DUP2 MSTORE PUSH1 0x40 SWAP1 KECCAK256 SLOAD DUP2 JUMP JUMPDEST PUSH1 0x60 PUSH2 0x3C4 PUSH2 0xA7C JUMP JUMPDEST DUP2 DUP1 PUSH8 0xFFFFFFFFFFFFFFFF DUP2 GT ISZERO PUSH2 0x3DE JUMPI PUSH2 0x3DE PUSH2 0x408E JUMP JUMPDEST PUSH1 0x40 MLOAD SWAP1 DUP1 DUP3 MSTORE DUP1 PUSH1 0x20 MUL PUSH1 0x20 ADD DUP3 ADD PUSH1 0x40 MSTORE DUP1 ISZERO PUSH2 0x407 JUMPI DUP2 PUSH1 0x20 ADD PUSH1 0x20 DUP3 MUL DUP1 CALLDATASIZE DUP4 CALLDATACOPY ADD SWAP1 POP JUMPDEST POP SWAP2 POP PUSH1 0x0 PUSH2 0x415 DUP3 PUSH2 0xABF JUMP JUMPDEST PUSH2 0x436 DUP6 DUP6 DUP4 DUP2 DUP2 LT PUSH2 0x42A JUMPI PUSH2 0x42A PUSH2 0x40BD JUMP JUMPDEST SWAP1 POP PUSH1 0x20 MUL ADD CALLDATALOAD PUSH2 0xC24 JUMP JUMPDEST DUP4 DUP3 DUP2 MLOAD DUP2 LT PUSH2 0x448 JUMPI PUSH2 0x448 PUSH2 0x40BD JUMP JUMPDEST PUSH1 0x20 SWAP1 DUP2 MUL SWAP2 SWAP1 SWAP2 ADD ADD MSTORE PUSH1 0x1 ADD DUP2 DUP2 LT PUSH2 0x415 JUMPI POP POP PUSH2 0x469 PUSH1 0x1 PUSH1 0x0 SSTORE JUMP JUMPDEST SWAP3 SWAP2 POP POP JUMP JUMPDEST PUSH1 0x0 PUSH1 0x3 PUSH1 0x0 PUSH1 0x1E PUSH1 0x1 SLOAD PUSH2 0x484 SWAP2 SWAP1 PUSH2 0x411B JUMP JUMPDEST DUP2 MSTORE PUSH1 0x20 ADD SWAP1 DUP2 MSTORE PUSH1 0x20 ADD PUSH1 0x0 KECCAK256 SLOAD SWAP1 POP SWAP1 JUMP JUMPDEST PUSH1 0x0 DUP2 DUP2 SUB PUSH2 0x4A9 JUMPI POP PUSH1 0x0 SWAP2 SWAP1 POP JUMP JUMPDEST PUSH1 0x0 PUSH1 0x1E PUSH1 0x1 SLOAD PUSH2 0x4BA SWAP2 SWAP1 PUSH2 0x411B JUMP JUMPDEST SWAP1 POP PUSH1 0x0 JUMPDEST PUSH1 0x0 DUP3 DUP2 MSTORE PUSH1 0x3 PUSH1 0x20 MSTORE PUSH1 0x40 SWAP1 KECCAK256 SLOAD DUP5 SUB PUSH2 0x4DE JUMPI POP PUSH1 0x1 SWAP4 SWAP3 POP POP POP JUMP JUMPDEST DUP2 PUSH1 0x0 SUB PUSH2 0x4EB JUMPI PUSH1 0x1E SWAP2 POP JUMPDEST PUSH32 0xFFFFFFFFFFFFFFFFFFFFFFFFFFFFFFFFFFFFFFFFFFFFFFFFFFFFFFFFFFFFFFFF SWAP1 SWAP2 ADD SWAP1 PUSH1 0x1 ADD PUSH1 0x1E DUP2 LT PUSH2 0x4BF JUMPI POP PUSH1 0x0 SWAP4 SWAP3 POP POP POP JUMP JUMPDEST PUSH2 0x52E DUP2 PUSH2 0xDBD JUMP JUMPDEST POP JUMP JUMPDEST PUSH1 0x0 PUSH2 0x53B PUSH2 0xA7C JUMP JUMPDEST PUSH2 0x545 PUSH1 0x1 PUSH2 0xABF JUMP JUMPDEST PUSH2 0x54E DUP3 PUSH2 0xC24 JUMP JUMPDEST SWAP1 POP PUSH2 0x55A PUSH1 0x1 PUSH1 0x0 SSTORE JUMP JUMPDEST SWAP2 SWAP1 POP JUMP JUMPDEST PUSH2 0x567 PUSH2 0xA7C JUMP JUMPDEST CALLDATASIZE PUSH2 0x572 DUP3 DUP1 PUSH2 0x4156 JUMP JUMPDEST SWAP1 POP PUSH1 0x0 DUP2 PUSH2 0x240 ADD CALLDATALOAD GT DUP1 ISZERO PUSH2 0x58D JUMPI POP DUP1 PUSH2 0x240 ADD CALLDATALOAD TIMESTAMP GT JUMPDEST ISZERO PUSH2 0x5C4 JUMPI PUSH1 0x40 MLOAD PUSH32 0x3634F72900000000000000000000000000000000000000000000000000000000 DUP2 MSTORE PUSH1 0x4 ADD PUSH1 0x40 MLOAD DUP1 SWAP2 SUB SWAP1 REVERT JUMPDEST PUSH1 0x0 PUSH2 0x5D8 PUSH2 0x220 DUP4 ADD PUSH2 0x200 DUP5 ADD PUSH2 0x4194 JUMP JUMPDEST PUSH20 0xFFFFFFFFFFFFFFFFFFFFFFFFFFFFFFFFFFFFFFFF AND EQ ISZERO DUP1 ISZERO PUSH2 0x623 JUMPI POP CALLER PUSH2 0x60A PUSH2 0x220 DUP4 ADD PUSH2 0x200 DUP5 ADD PUSH2 0x4194 JUMP JUMPDEST PUSH20 0xFFFFFFFFFFFFFFFFFFFFFFFFFFFFFFFFFFFFFFFF AND EQ ISZERO JUMPDEST ISZERO PUSH2 0x690 JUMPI PUSH2 0x63A PUSH2 0x220 DUP3 ADD PUSH2 0x200 DUP4 ADD PUSH2 0x4194 JUMP JUMPDEST PUSH1 0x40 MLOAD PUSH32 0x6B6C667500000000000000000000000000000000000000000000000000000000 DUP2 MSTORE PUSH20 0xFFFFFFFFFFFFFFFFFFFFFFFFFFFFFFFFFFFFFFFF SWAP1 SWAP2 AND PUSH1 0x4 DUP3 ADD MSTORE CALLER PUSH1 0x24 DUP3 ADD MSTORE PUSH1 0x44 ADD JUMPDEST PUSH1 0x40 MLOAD DUP1 SWAP2 SUB SWAP1 REVERT JUMPDEST PUSH2 0x1A0 DUP2 ADD CALLDATALOAD PUSH1 0x0 SWAP1 DUP2 MSTORE PUSH1 0x4 PUSH1 0x20 MSTORE PUSH1 0x40 SWAP1 KECCAK256 SLOAD PUSH1 0xFF AND ISZERO PUSH2 0x6DF JUMPI PUSH1 0x40 MLOAD PUSH32 0x683DDEBA00000000000000000000000000000000000000000000000000000000 DUP2 MSTORE PUSH1 0x4 ADD PUSH1 0x40 MLOAD DUP1 SWAP2 SUB SWAP1 REVERT JUMPDEST PUSH2 0x6E8 DUP2 PUSH2 0xDBD JUMP JUMPDEST PUSH2 0x1A0 DUP2 ADD CALLDATALOAD PUSH1 0x0 DUP2 DUP2 MSTORE PUSH1 0x4 PUSH1 0x20 MSTORE PUSH1 0x40 SWAP1 KECCAK256 DUP1 SLOAD PUSH32 0xFFFFFFFFFFFFFFFFFFFFFFFFFFFFFFFFFFFFFFFFFFFFFFFFFFFFFFFFFFFFFF00 AND PUSH1 0x1 OR SWAP1 SSTORE PUSH2 0x180 DUP3 ADD CALLDATALOAD PUSH2 0x73D PUSH2 0x220 DUP5 ADD PUSH2 0x200 DUP6 ADD PUSH2 0x4194 JUMP JUMPDEST PUSH20 0xFFFFFFFFFFFFFFFFFFFFFFFFFFFFFFFFFFFFFFFF AND PUSH32 0x8DA3FFB301245E23910EF230E9E780D1AECE7D2EC1202AA2E2FBD5C3E94C946A PUSH2 0x786 PUSH2 0x1E0 DUP7 ADD PUSH2 0x1C0 DUP8 ADD PUSH2 0x4194 JUMP JUMPDEST PUSH1 0x40 DUP1 MLOAD PUSH20 0xFFFFFFFFFFFFFFFFFFFFFFFFFFFFFFFFFFFFFFFF SWAP1 SWAP3 AND DUP3 MSTORE PUSH2 0x220 DUP8 ADD CALLDATALOAD PUSH1 0x20 DUP4 ADD MSTORE ADD PUSH1 0x40 MLOAD DUP1 SWAP2 SUB SWAP1 LOG4 PUSH32 0x0 PUSH1 0x0 PUSH2 0x7EB PUSH1 0x40 DUP6 ADD PUSH1 0x20 DUP7 ADD PUSH2 0x4194 JUMP JUMPDEST PUSH20 0xFFFFFFFFFFFFFFFFFFFFFFFFFFFFFFFFFFFFFFFF AND EQ PUSH2 0x830 JUMPI POP PUSH2 0x220 DUP2 ADD CALLDATALOAD PUSH32 0x0 SUB JUMPDEST PUSH32 0xFFFFFFFFFFFFFFFFFFFFFFFF1111111111111111111111111111111111111112 PUSH32 0x0 PUSH20 0xFFFFFFFFFFFFFFFFFFFFFFFFFFFFFFFFFFFFFFFF AND ADD PUSH2 0x93D JUMPI CALLVALUE ISZERO PUSH2 0x8C5 JUMPI PUSH1 0x40 MLOAD PUSH32 0x27CE938800000000000000000000000000000000000000000000000000000000 DUP2 MSTORE PUSH1 0x4 ADD PUSH1 0x40 MLOAD DUP1 SWAP2 SUB SWAP1 REVERT JUMPDEST PUSH2 0x8F7 DUP2 PUSH2 0x8DB PUSH2 0x1E0 DUP6 ADD PUSH2 0x1C0 DUP7 ADD PUSH2 0x4194 JUMP JUMPDEST PUSH20 0xFFFFFFFFFFFFFFFFFFFFFFFFFFFFFFFFFFFFFFFF AND SWAP1 PUSH2 0xFCE JUMP JUMPDEST PUSH32 0x0 DUP2 LT ISZERO PUSH2 0x938 JUMPI PUSH2 0x938 PUSH2 0x220 DUP4 ADD CALLDATALOAD PUSH2 0x8DB PUSH1 0x40 DUP7 ADD PUSH1 0x20 DUP8 ADD PUSH2 0x4194 JUMP JUMPDEST PUSH2 0xA70 JUMP JUMPDEST DUP2 PUSH2 0x1E0 ADD CALLDATALOAD CALLVALUE EQ PUSH2 0x97B JUMPI PUSH1 0x40 MLOAD PUSH32 0x27CE938800000000000000000000000000000000000000000000000000000000 DUP2 MSTORE PUSH1 0x4 ADD PUSH1 0x40 MLOAD DUP1 SWAP2 SUB SWAP1 REVERT JUMPDEST PUSH2 0x1E0 DUP3 ADD CALLDATALOAD ISZERO PUSH2 0x99F JUMPI PUSH2 0x99F PUSH2 0x1E0 DUP4 ADD DUP1 CALLDATALOAD SWAP1 PUSH2 0x8DB SWAP1 PUSH2 0x1C0 DUP7 ADD PUSH2 0x4194 JUMP JUMPDEST PUSH2 0x9F2 PUSH2 0x9B4 PUSH2 0x1E0 DUP5 ADD PUSH2 0x1C0 DUP6 ADD PUSH2 0x4194 JUMP JUMPDEST PUSH20 0xFFFFFFFFFFFFFFFFFFFFFFFFFFFFFFFFFFFFFFFF PUSH32 0x0 AND SWAP1 DUP4 PUSH2 0x10A9 JUMP JUMPDEST PUSH32 0x0 DUP2 LT ISZERO PUSH2 0xA70 JUMPI PUSH2 0xA70 PUSH2 0xA2D PUSH1 0x40 DUP6 ADD PUSH1 0x20 DUP7 ADD PUSH2 0x4194 JUMP JUMPDEST PUSH20 0xFFFFFFFFFFFFFFFFFFFFFFFFFFFFFFFFFFFFFFFF PUSH32 0x0 AND SWAP1 PUSH2 0x220 DUP6 ADD CALLDATALOAD PUSH2 0x10A9 JUMP JUMPDEST POP POP PUSH2 0x52E PUSH1 0x1 PUSH1 0x0 SSTORE JUMP JUMPDEST PUSH1 0x2 PUSH1 0x0 SLOAD SUB PUSH2 0xAB8 JUMPI PUSH1 0x40 MLOAD PUSH32 0x3EE5AEB500000000000000000000000000000000000000000000000000000000 DUP2 MSTORE PUSH1 0x4 ADD PUSH1 0x40 MLOAD DUP1 SWAP2 SUB SWAP1 REVERT JUMPDEST PUSH1 0x2 PUSH1 0x0 SSTORE JUMP JUMPDEST PUSH32 0xFFFFFFFFFFFFFFFFFFFFFFFF1111111111111111111111111111111111111112 PUSH32 0x0 PUSH20 0xFFFFFFFFFFFFFFFFFFFFFFFFFFFFFFFFFFFFFFFF AND ADD PUSH2 0xB7E JUMPI PUSH2 0xB46 DUP2 PUSH32 0x0 PUSH2 0x41CA JUMP JUMPDEST CALLVALUE EQ PUSH2 0x52E JUMPI PUSH1 0x40 MLOAD PUSH32 0x27CE938800000000000000000000000000000000000000000000000000000000 DUP2 MSTORE PUSH1 0x4 ADD PUSH1 0x40 MLOAD DUP1 SWAP2 SUB SWAP1 REVERT JUMPDEST CALLVALUE ISZERO PUSH2 0xBB6 JUMPI PUSH1 0x40 MLOAD PUSH32 0x27CE938800000000000000000000000000000000000000000000000000000000 DUP2 MSTORE PUSH1 0x4 ADD PUSH1 0x40 MLOAD DUP1 SWAP2 SUB SWAP1 REVERT JUMPDEST PUSH2 0x52E CALLER ADDRESS PUSH2 0xBE5 DUP5 PUSH32 0x0 PUSH2 0x41CA JUMP JUMPDEST PUSH20 0xFFFFFFFFFFFFFFFFFFFFFFFFFFFFFFFFFFFFFFFF PUSH32 0x0 AND SWAP3 SWAP2 SWAP1 PUSH2 0x112A JUMP JUMPDEST PUSH1 0x40 DUP1 MLOAD DUP1 DUP3 ADD DUP3 MSTORE DUP3 DUP2 MSTORE PUSH32 0x0 PUSH1 0x20 DUP3 ADD MSTORE SWAP1 MLOAD PUSH32 0x299E566000000000000000000000000000000000000000000000000000000000 DUP2 MSTORE PUSH1 0x0 SWAP2 DUP3 SWAP2 PUSH20 0xFFFFFFFFFFFFFFFFFFFFFFFFFFFFFFFFFFFFFFFF PUSH32 0x0 AND SWAP2 PUSH4 0x299E5660 SWAP2 PUSH2 0xCCB SWAP2 SWAP1 PUSH1 0x4 ADD PUSH2 0x4208 JUMP JUMPDEST PUSH1 0x20 PUSH1 0x40 MLOAD DUP1 DUP4 SUB DUP2 DUP7 GAS STATICCALL ISZERO DUP1 ISZERO PUSH2 0xCE8 JUMPI RETURNDATASIZE PUSH1 0x0 DUP1 RETURNDATACOPY RETURNDATASIZE PUSH1 0x0 REVERT JUMPDEST POP POP POP POP PUSH1 0x40 MLOAD RETURNDATASIZE PUSH1 0x1F NOT PUSH1 0x1F DUP3 ADD AND DUP3 ADD DUP1 PUSH1 0x40 MSTORE POP DUP2 ADD SWAP1 PUSH2 0xD0C SWAP2 SWAP1 PUSH2 0x4239 JUMP JUMPDEST SWAP1 POP PUSH1 0x0 PUSH2 0xD19 DUP3 PUSH2 0x1176 JUMP JUMPDEST SWAP1 POP PUSH32 0x0 PUSH20 0xFFFFFFFFFFFFFFFFFFFFFFFFFFFFFFFFFFFFFFFF AND DUP3 DUP6 PUSH32 0xA82453CA34121B3ECB910D957824E27C5DC6465315949FACD15FB72886490058 PUSH32 0x0 DUP6 PUSH1 0x40 MLOAD PUSH2 0xDAE SWAP3 SWAP2 SWAP1 SWAP2 DUP3 MSTORE PUSH1 0x20 DUP3 ADD MSTORE PUSH1 0x40 ADD SWAP1 JUMP JUMPDEST PUSH1 0x40 MLOAD DUP1 SWAP2 SUB SWAP1 LOG4 SWAP4 SWAP3 POP POP POP JUMP JUMPDEST PUSH2 0xDCB DUP2 PUSH2 0x160 ADD CALLDATALOAD PUSH2 0x498 JUMP JUMPDEST PUSH2 0xE01 JUMPI PUSH1 0x40 MLOAD PUSH32 0x15A7F0F700000000000000000000000000000000000000000000000000000000 DUP2 MSTORE PUSH1 0x4 ADD PUSH1 0x40 MLOAD DUP1 SWAP2 SUB SWAP1 REVERT JUMPDEST PUSH32 0x0 DUP2 PUSH2 0x220 ADD CALLDATALOAD GT ISZERO PUSH2 0xE60 JUMPI PUSH1 0x40 MLOAD PUSH32 0x309616A900000000000000000000000000000000000000000000000000000000 DUP2 MSTORE PUSH1 0x4 ADD PUSH1 0x40 MLOAD DUP1 SWAP2 SUB SWAP1 REVERT JUMPDEST PUSH1 0x0 PUSH2 0xE74 PUSH2 0x1E0 DUP4 ADD PUSH2 0x1C0 DUP5 ADD PUSH2 0x4194 JUMP JUMPDEST PUSH20 0xFFFFFFFFFFFFFFFFFFFFFFFFFFFFFFFFFFFFFFFF AND SUB PUSH2 0xEC1 JUMPI PUSH1 0x40 MLOAD PUSH32 0xEB7F42F800000000000000000000000000000000000000000000000000000000 DUP2 MSTORE PUSH1 0x4 ADD PUSH1 0x40 MLOAD DUP1 SWAP2 SUB SWAP1 REVERT JUMPDEST PUSH1 0x0 PUSH2 0xF52 PUSH2 0xED8 PUSH2 0x1E0 DUP5 ADD PUSH2 0x1C0 DUP6 ADD PUSH2 0x4194 JUMP JUMPDEST PUSH2 0x1E0 DUP5 ADD CALLDATALOAD PUSH2 0xEF0 PUSH2 0x220 DUP7 ADD PUSH2 0x200 DUP8 ADD PUSH2 0x4194 JUMP JUMPDEST PUSH2 0x220 DUP7 ADD CALLDATALOAD PUSH2 0x240 DUP8 ADD CALLDATALOAD PUSH2 0xF09 PUSH1 0x20 DUP10 ADD DUP10 PUSH2 0x4252 JUMP JUMPDEST PUSH2 0xF19 PUSH1 0x40 DUP11 ADD PUSH1 0x20 DUP12 ADD PUSH2 0x4273 JUMP JUMPDEST PUSH2 0xF26 PUSH1 0x40 DUP12 ADD DUP12 PUSH2 0x4298 JUMP JUMPDEST PUSH1 0x40 MLOAD PUSH1 0x20 ADD PUSH2 0xF3E SWAP10 SWAP9 SWAP8 SWAP7 SWAP6 SWAP5 SWAP4 SWAP3 SWAP2 SWAP1 PUSH2 0x4313 JUMP JUMPDEST PUSH1 0x40 MLOAD PUSH1 0x20 DUP2 DUP4 SUB SUB DUP2 MSTORE SWAP1 PUSH1 0x40 MSTORE PUSH2 0x2D22 JUMP JUMPDEST SWAP1 POP PUSH2 0xF94 PUSH1 0x60 DUP4 ADD PUSH2 0x160 DUP5 ADD CALLDATALOAD PUSH2 0x180 DUP6 ADD CALLDATALOAD PUSH2 0x1A0 DUP7 ADD CALLDATALOAD PUSH32 0x0 DUP7 PUSH2 0x2D57 JUMP JUMPDEST PUSH2 0xFCA JUMPI PUSH1 0x40 MLOAD PUSH32 0xB3365C0B00000000000000000000000000000000000000000000000000000000 DUP2 MSTORE PUSH1 0x4 ADD PUSH1 0x40 MLOAD DUP1 SWAP2 SUB SWAP1 REVERT JUMPDEST POP POP JUMP JUMPDEST DUP1 SELFBALANCE LT ISZERO PUSH2 0x100A JUMPI PUSH1 0x40 MLOAD PUSH32 0xCD78605900000000000000000000000000000000000000000000000000000000 DUP2 MSTORE ADDRESS PUSH1 0x4 DUP3 ADD MSTORE PUSH1 0x24 ADD PUSH2 0x687 JUMP JUMPDEST PUSH1 0x0 DUP3 PUSH20 0xFFFFFFFFFFFFFFFFFFFFFFFFFFFFFFFFFFFFFFFF AND DUP3 PUSH1 0x40 MLOAD PUSH1 0x0 PUSH1 0x40 MLOAD DUP1 DUP4 SUB DUP2 DUP6 DUP8 GAS CALL SWAP3 POP POP POP RETURNDATASIZE DUP1 PUSH1 0x0 DUP2 EQ PUSH2 0x1064 JUMPI PUSH1 0x40 MLOAD SWAP2 POP PUSH1 0x1F NOT PUSH1 0x3F RETURNDATASIZE ADD AND DUP3 ADD PUSH1 0x40 MSTORE RETURNDATASIZE DUP3 MSTORE RETURNDATASIZE PUSH1 0x0 PUSH1 0x20 DUP5 ADD RETURNDATACOPY PUSH2 0x1069 JUMP JUMPDEST PUSH1 0x60 SWAP2 POP JUMPDEST POP POP SWAP1 POP DUP1 PUSH2 0x10A4 JUMPI PUSH1 0x40 MLOAD PUSH32 0x1425EA4200000000000000000000000000000000000000000000000000000000 DUP2 MSTORE PUSH1 0x4 ADD PUSH1 0x40 MLOAD DUP1 SWAP2 SUB SWAP1 REVERT JUMPDEST POP POP POP JUMP JUMPDEST PUSH1 0x40 MLOAD PUSH20 0xFFFFFFFFFFFFFFFFFFFFFFFFFFFFFFFFFFFFFFFF DUP4 DUP2 AND PUSH1 0x24 DUP4 ADD MSTORE PUSH1 0x44 DUP3 ADD DUP4 SWAP1 MSTORE PUSH2 0x10A4 SWAP2 DUP6 SWAP2 DUP3 AND SWAP1 PUSH4 0xA9059CBB SWAP1 PUSH1 0x64 ADD JUMPDEST PUSH1 0x40 MLOAD PUSH1 0x20 DUP2 DUP4 SUB SUB DUP2 MSTORE SWAP1 PUSH1 0x40 MSTORE SWAP2 POP PUSH1 0xE0 SHL PUSH1 0x20 DUP3 ADD DUP1 MLOAD PUSH28 0xFFFFFFFFFFFFFFFFFFFFFFFFFFFFFFFFFFFFFFFFFFFFFFFFFFFFFFFF DUP4 DUP2 DUP4 AND OR DUP4 MSTORE POP POP POP POP PUSH2 0x303D JUMP JUMPDEST PUSH1 0x40 MLOAD PUSH20 0xFFFFFFFFFFFFFFFFFFFFFFFFFFFFFFFFFFFFFFFF DUP5 DUP2 AND PUSH1 0x24 DUP4 ADD MSTORE DUP4 DUP2 AND PUSH1 0x44 DUP4 ADD MSTORE PUSH1 0x64 DUP3 ADD DUP4 SWAP1 MSTORE PUSH2 0x1170 SWAP2 DUP7 SWAP2 DUP3 AND SWAP1 PUSH4 0x23B872DD SWAP1 PUSH1 0x84 ADD PUSH2 0x10E3 JUMP JUMPDEST POP POP POP POP JUMP JUMPDEST PUSH1 0x1 SLOAD PUSH1 0x0 SWAP1 PUSH32 0xFFFFFFFFFFFFFFFFFFFFFFFFFFFFFFFFFFFFFFFFFFFFFFFFFFFFFFFFFFF00000 DUP2 ADD PUSH2 0x11D5 JUMPI PUSH1 0x40 MLOAD PUSH32 0x5717AA3F00000000000000000000000000000000000000000000000000000000 DUP2 MSTORE PUSH1 0x4 ADD PUSH1 0x40 MLOAD DUP1 SWAP2 SUB SWAP1 REVERT JUMPDEST PUSH1 0x0 DUP1 PUSH1 0x1 DUP4 AND DUP2 SUB PUSH2 0x1238 JUMPI POP POP PUSH1 0x0 DUP1 MSTORE PUSH1 0x2 PUSH1 0x20 MSTORE PUSH32 0xAC33FF75C19E70FE83507DB0D683FD3465C996598DC972688B7ACE676C89077B DUP4 SWAP1 SSTORE DUP3 PUSH32 0x133A292295D50240EB5EDFCAA95731512CCDAF79758573A1F627DC47ADBDE7E PUSH2 0x1267 JUMP JUMPDEST POP POP PUSH1 0x0 DUP1 MSTORE PUSH1 0x2 PUSH1 0x20 MSTORE PUSH32 0xAC33FF75C19E70FE83507DB0D683FD3465C996598DC972688B7ACE676C89077B SLOAD DUP4 JUMPDEST PUSH1 0x40 DUP1 MLOAD DUP1 DUP3 ADD DUP3 MSTORE DUP4 DUP2 MSTORE PUSH1 0x20 DUP2 ADD DUP4 SWAP1 MSTORE SWAP1 MLOAD PUSH32 0x299E566000000000000000000000000000000000000000000000000000000000 DUP2 MSTORE PUSH20 0xFFFFFFFFFFFFFFFFFFFFFFFFFFFFFFFFFFFFFFFF PUSH32 0x0 AND SWAP2 PUSH4 0x299E5660 SWAP2 PUSH2 0x12EA SWAP2 SWAP1 PUSH1 0x4 ADD PUSH2 0x4208 JUMP JUMPDEST PUSH1 0x20 PUSH1 0x40 MLOAD DUP1 DUP4 SUB DUP2 DUP7 GAS STATICCALL ISZERO DUP1 ISZERO PUSH2 0x1307 JUMPI RETURNDATASIZE PUSH1 0x0 DUP1 RETURNDATACOPY RETURNDATASIZE PUSH1 0x0 REVERT JUMPDEST POP POP POP POP PUSH1 0x40 MLOAD RETURNDATASIZE PUSH1 0x1F NOT PUSH1 0x1F DUP3 ADD AND DUP3 ADD DUP1 PUSH1 0x40 MSTORE POP DUP2 ADD SWAP1 PUSH2 0x132B SWAP2 SWAP1 PUSH2 0x4239 JUMP JUMPDEST SWAP5 POP PUSH1 0x1 DUP4 DUP2 SHR AND PUSH1 0x0 SUB PUSH2 0x1391 JUMPI POP POP PUSH1 0x1 PUSH1 0x0 MSTORE PUSH1 0x2 PUSH1 0x20 MSTORE PUSH32 0xE90B7BCEB6E7DF5418FB78D8EE546E97C83A08BBCCC01A0644D599CCD2A7C2E0 DUP4 SWAP1 SSTORE DUP3 PUSH32 0xBA2D612822AD57FD2285564F4BAD51F685240488003085993BF5EE8E63C31CB PUSH2 0x13C1 JUMP JUMPDEST POP POP PUSH1 0x1 PUSH1 0x0 MSTORE PUSH1 0x2 PUSH1 0x20 MSTORE PUSH32 0xE90B7BCEB6E7DF5418FB78D8EE546E97C83A08BBCCC01A0644D599CCD2A7C2E0 SLOAD DUP4 JUMPDEST PUSH1 0x40 DUP1 MLOAD DUP1 DUP3 ADD DUP3 MSTORE DUP4 DUP2 MSTORE PUSH1 0x20 DUP2 ADD DUP4 SWAP1 MSTORE SWAP1 MLOAD PUSH32 0x299E566000000000000000000000000000000000000000000000000000000000 DUP2 MSTORE PUSH20 0xFFFFFFFFFFFFFFFFFFFFFFFFFFFFFFFFFFFFFFFF PUSH32 0x0 AND SWAP2 PUSH4 0x299E5660 SWAP2 PUSH2 0x1444 SWAP2 SWAP1 PUSH1 0x4 ADD PUSH2 0x4208 JUMP JUMPDEST PUSH1 0x20 PUSH1 0x40 MLOAD DUP1 DUP4 SUB DUP2 DUP7 GAS STATICCALL ISZERO DUP1 ISZERO PUSH2 0x1461 JUMPI RETURNDATASIZE PUSH1 0x0 DUP1 RETURNDATACOPY RETURNDATASIZE PUSH1 0x0 REVERT JUMPDEST POP POP POP POP PUSH1 0x40 MLOAD RETURNDATASIZE PUSH1 0x1F NOT PUSH1 0x1F DUP3 ADD AND DUP3 ADD DUP1 PUSH1 0x40 MSTORE POP DUP2 ADD SWAP1 PUSH2 0x1485 SWAP2 SWAP1 PUSH2 0x4239 JUMP JUMPDEST SWAP5 POP PUSH1 0x2 DUP4 SWAP1 SHR PUSH1 0x1 AND PUSH1 0x0 SUB PUSH2 0x14ED JUMPI POP POP PUSH1 0x2 PUSH1 0x0 DUP2 SWAP1 MSTORE PUSH1 0x20 MSTORE PUSH32 0x679795A0195A1B76CDEBB7C51D74E058AEE92919B8C3389AF86EF24535E8A28C DUP4 SWAP1 SSTORE DUP3 PUSH32 0x27B302C974BF7444CB94F3EEAE53D5CB897748679C94958C692567ED97E96C3C PUSH2 0x151D JUMP JUMPDEST POP POP PUSH1 0x2 PUSH1 0x0 DUP2 SWAP1 MSTORE PUSH1 0x20 MSTORE PUSH32 0x679795A0195A1B76CDEBB7C51D74E058AEE92919B8C3389AF86EF24535E8A28C SLOAD DUP4 JUMPDEST PUSH1 0x40 DUP1 MLOAD DUP1 DUP3 ADD DUP3 MSTORE DUP4 DUP2 MSTORE PUSH1 0x20 DUP2 ADD DUP4 SWAP1 MSTORE SWAP1 MLOAD PUSH32 0x299E566000000000000000000000000000000000000000000000000000000000 DUP2 MSTORE PUSH20 0xFFFFFFFFFFFFFFFFFFFFFFFFFFFFFFFFFFFFFFFF PUSH32 0x0 AND SWAP2 PUSH4 0x299E5660 SWAP2 PUSH2 0x15A0 SWAP2 SWAP1 PUSH1 0x4 ADD PUSH2 0x4208 JUMP JUMPDEST PUSH1 0x20 PUSH1 0x40 MLOAD DUP1 DUP4 SUB DUP2 DUP7 GAS STATICCALL ISZERO DUP1 ISZERO PUSH2 0x15BD JUMPI RETURNDATASIZE PUSH1 0x0 DUP1 RETURNDATACOPY RETURNDATASIZE PUSH1 0x0 REVERT JUMPDEST POP POP POP POP PUSH1 0x40 MLOAD RETURNDATASIZE PUSH1 0x1F NOT PUSH1 0x1F DUP3 ADD AND DUP3 ADD DUP1 PUSH1 0x40 MSTORE POP DUP2 ADD SWAP1 PUSH2 0x15E1 SWAP2 SWAP1 PUSH2 0x4239 JUMP JUMPDEST SWAP5 POP PUSH1 0x3 DUP4 SWAP1 SHR PUSH1 0x1 AND PUSH1 0x0 SUB PUSH2 0x1649 JUMPI POP POP PUSH1 0x3 PUSH1 0x0 MSTORE PUSH1 0x2 PUSH1 0x20 MSTORE PUSH32 0x88601476D11616A71C5BE67555BD1DFF4B1CBF21533D2669B768B61518CFE1C3 DUP4 SWAP1 SSTORE DUP3 PUSH32 0x1C573635007D49A2E0E4E525A32CA29C3049377182BBB01EFEDDBCDFE513F82B PUSH2 0x1679 JUMP JUMPDEST POP POP PUSH1 0x3 PUSH1 0x0 MSTORE PUSH1 0x2 PUSH1 0x20 MSTORE PUSH32 0x88601476D11616A71C5BE67555BD1DFF4B1CBF21533D2669B768B61518CFE1C3 SLOAD DUP4 JUMPDEST PUSH1 0x40 DUP1 MLOAD DUP1 DUP3 ADD DUP3 MSTORE DUP4 DUP2 MSTORE PUSH1 0x20 DUP2 ADD DUP4 SWAP1 MSTORE SWAP1 MLOAD PUSH32 0x299E566000000000000000000000000000000000000000000000000000000000 DUP2 MSTORE PUSH20 0xFFFFFFFFFFFFFFFFFFFFFFFFFFFFFFFFFFFFFFFF PUSH32 0x0 AND SWAP2 PUSH4 0x299E5660 SWAP2 PUSH2 0x16FC SWAP2 SWAP1 PUSH1 0x4 ADD PUSH2 0x4208 JUMP JUMPDEST PUSH1 0x20 PUSH1 0x40 MLOAD DUP1 DUP4 SUB DUP2 DUP7 GAS STATICCALL ISZERO DUP1 ISZERO PUSH2 0x1719 JUMPI RETURNDATASIZE PUSH1 0x0 DUP1 RETURNDATACOPY RETURNDATASIZE PUSH1 0x0 REVERT JUMPDEST POP POP POP POP PUSH1 0x40 MLOAD RETURNDATASIZE PUSH1 0x1F NOT PUSH1 0x1F DUP3 ADD AND DUP3 ADD DUP1 PUSH1 0x40 MSTORE POP DUP2 ADD SWAP1 PUSH2 0x173D SWAP2 SWAP1 PUSH2 0x4239 JUMP JUMPDEST SWAP5 POP PUSH1 0x4 DUP4 SWAP1 SHR PUSH1 0x1 AND PUSH1 0x0 SUB PUSH2 0x17A5 JUMPI POP POP PUSH1 0x4 PUSH1 0x0 MSTORE PUSH1 0x2 PUSH1 0x20 MSTORE PUSH32 0xEE60D0579BCFFD98E668647D59FEC1FF86A7FB340CE572E844F234AE73A6918F DUP4 SWAP1 SSTORE DUP3 PUSH32 0x2E1BF7A6E73442CDEAEC1EB387D34B4A27F6957A2AE407BBA844135FCA5D8DBC PUSH2 0x17D5 JUMP JUMPDEST POP POP PUSH1 0x4 PUSH1 0x0 MSTORE PUSH1 0x2 PUSH1 0x20 MSTORE PUSH32 0xEE60D0579BCFFD98E668647D59FEC1FF86A7FB340CE572E844F234AE73A6918F SLOAD DUP4 JUMPDEST PUSH1 0x40 DUP1 MLOAD DUP1 DUP3 ADD DUP3 MSTORE DUP4 DUP2 MSTORE PUSH1 0x20 DUP2 ADD DUP4 SWAP1 MSTORE SWAP1 MLOAD PUSH32 0x299E566000000000000000000000000000000000000000000000000000000000 DUP2 MSTORE PUSH20 0xFFFFFFFFFFFFFFFFFFFFFFFFFFFFFFFFFFFFFFFF PUSH32 0x0 AND SWAP2 PUSH4 0x299E5660 SWAP2 PUSH2 0x1858 SWAP2 SWAP1 PUSH1 0x4 ADD PUSH2 0x4208 JUMP JUMPDEST PUSH1 0x20 PUSH1 0x40 MLOAD DUP1 DUP4 SUB DUP2 DUP7 GAS STATICCALL ISZERO DUP1 ISZERO PUSH2 0x1875 JUMPI RETURNDATASIZE PUSH1 0x0 DUP1 RETURNDATACOPY RETURNDATASIZE PUSH1 0x0 REVERT JUMPDEST POP POP POP POP PUSH1 0x40 MLOAD RETURNDATASIZE PUSH1 0x1F NOT PUSH1 0x1F DUP3 ADD AND DUP3 ADD DUP1 PUSH1 0x40 MSTORE POP DUP2 ADD SWAP1 PUSH2 0x1899 SWAP2 SWAP1 PUSH2 0x4239 JUMP JUMPDEST SWAP5 POP PUSH1 0x5 DUP4 SWAP1 SHR PUSH1 0x1 AND PUSH1 0x0 SUB PUSH2 0x1900 JUMPI POP POP PUSH1 0x5 PUSH1 0x0 MSTORE PUSH1 0x2 PUSH1 0x20 MSTORE PUSH32 0xB98B78633099FA36ED8B8680C4F8092689E1E04080EB9CBB077CA38A14D7E384 DUP4 SWAP1 SSTORE DUP3 PUSH31 0x9199390BDB47D6917F64668754DBEB426B43513FA7B0807D85794BD60270D PUSH2 0x1930 JUMP JUMPDEST POP POP PUSH1 0x5 PUSH1 0x0 MSTORE PUSH1 0x2 PUSH1 0x20 MSTORE PUSH32 0xB98B78633099FA36ED8B8680C4F8092689E1E04080EB9CBB077CA38A14D7E384 SLOAD DUP4 JUMPDEST PUSH1 0x40 DUP1 MLOAD DUP1 DUP3 ADD DUP3 MSTORE DUP4 DUP2 MSTORE PUSH1 0x20 DUP2 ADD DUP4 SWAP1 MSTORE SWAP1 MLOAD PUSH32 0x299E566000000000000000000000000000000000000000000000000000000000 DUP2 MSTORE PUSH20 0xFFFFFFFFFFFFFFFFFFFFFFFFFFFFFFFFFFFFFFFF PUSH32 0x0 AND SWAP2 PUSH4 0x299E5660 SWAP2 PUSH2 0x19B3 SWAP2 SWAP1 PUSH1 0x4 ADD PUSH2 0x4208 JUMP JUMPDEST PUSH1 0x20 PUSH1 0x40 MLOAD DUP1 DUP4 SUB DUP2 DUP7 GAS STATICCALL ISZERO DUP1 ISZERO PUSH2 0x19D0 JUMPI RETURNDATASIZE PUSH1 0x0 DUP1 RETURNDATACOPY RETURNDATASIZE PUSH1 0x0 REVERT JUMPDEST POP POP POP POP PUSH1 0x40 MLOAD RETURNDATASIZE PUSH1 0x1F NOT PUSH1 0x1F DUP3 ADD AND DUP3 ADD DUP1 PUSH1 0x40 MSTORE POP DUP2 ADD SWAP1 PUSH2 0x19F4 SWAP2 SWAP1 PUSH2 0x4239 JUMP JUMPDEST SWAP5 POP PUSH1 0x6 DUP4 SWAP1 SHR PUSH1 0x1 AND PUSH1 0x0 SUB PUSH2 0x1A5C JUMPI POP POP PUSH1 0x6 PUSH1 0x0 MSTORE PUSH1 0x2 PUSH1 0x20 MSTORE PUSH32 0x59DD4B18488D12F51EDA69757A0ED42A2010C14B564330CC74A06895E60C077B DUP4 SWAP1 SSTORE DUP3 PUSH32 0x2F7739FA804B1102B2E95582A4CFB3C25D26E1F70133A81E6FED8FEDBF7016EF PUSH2 0x1A8C JUMP JUMPDEST POP POP PUSH1 0x6 PUSH1 0x0 MSTORE PUSH1 0x2 PUSH1 0x20 MSTORE PUSH32 0x59DD4B18488D12F51EDA69757A0ED42A2010C14B564330CC74A06895E60C077B SLOAD DUP4 JUMPDEST PUSH1 0x40 DUP1 MLOAD DUP1 DUP3 ADD DUP3 MSTORE DUP4 DUP2 MSTORE PUSH1 0x20 DUP2 ADD DUP4 SWAP1 MSTORE SWAP1 MLOAD PUSH32 0x299E566000000000000000000000000000000000000000000000000000000000 DUP2 MSTORE PUSH20 0xFFFFFFFFFFFFFFFFFFFFFFFFFFFFFFFFFFFFFFFF PUSH32 0x0 AND SWAP2 PUSH4 0x299E5660 SWAP2 PUSH2 0x1B0F SWAP2 SWAP1 PUSH1 0x4 ADD PUSH2 0x4208 JUMP JUMPDEST PUSH1 0x20 PUSH1 0x40 MLOAD DUP1 DUP4 SUB DUP2 DUP7 GAS STATICCALL ISZERO DUP1 ISZERO PUSH2 0x1B2C JUMPI RETURNDATASIZE PUSH1 0x0 DUP1 RETURNDATACOPY RETURNDATASIZE PUSH1 0x0 REVERT JUMPDEST POP POP POP POP PUSH1 0x40 MLOAD RETURNDATASIZE PUSH1 0x1F NOT PUSH1 0x1F DUP3 ADD AND DUP3 ADD DUP1 PUSH1 0x40 MSTORE POP DUP2 ADD SWAP1 PUSH2 0x1B50 SWAP2 SWAP1 PUSH2 0x4239 JUMP JUMPDEST SWAP5 POP PUSH1 0x7 DUP4 SWAP1 SHR PUSH1 0x1 AND PUSH1 0x0 SUB PUSH2 0x1BB7 JUMPI POP POP PUSH1 0x7 PUSH1 0x0 MSTORE PUSH1 0x2 PUSH1 0x20 MSTORE PUSH32 0xACD8EF244210BB6898E73C48BF820ED8ECC857A3BAB8D79C10E4FA92B1E9CA65 DUP4 SWAP1 SSTORE DUP3 PUSH31 0x371F555C474E2F7846B97C7A90DAB5FCC55AC0010C271796AD497F66689033 PUSH2 0x1BE7 JUMP JUMPDEST POP POP PUSH1 0x7 PUSH1 0x0 MSTORE PUSH1 0x2 PUSH1 0x20 MSTORE PUSH32 0xACD8EF244210BB6898E73C48BF820ED8ECC857A3BAB8D79C10E4FA92B1E9CA65 SLOAD DUP4 JUMPDEST PUSH1 0x40 DUP1 MLOAD DUP1 DUP3 ADD DUP3 MSTORE DUP4 DUP2 MSTORE PUSH1 0x20 DUP2 ADD DUP4 SWAP1 MSTORE SWAP1 MLOAD PUSH32 0x299E566000000000000000000000000000000000000000000000000000000000 DUP2 MSTORE PUSH20 0xFFFFFFFFFFFFFFFFFFFFFFFFFFFFFFFFFFFFFFFF PUSH32 0x0 AND SWAP2 PUSH4 0x299E5660 SWAP2 PUSH2 0x1C6A SWAP2 SWAP1 PUSH1 0x4 ADD PUSH2 0x4208 JUMP JUMPDEST PUSH1 0x20 PUSH1 0x40 MLOAD DUP1 DUP4 SUB DUP2 DUP7 GAS STATICCALL ISZERO DUP1 ISZERO PUSH2 0x1C87 JUMPI RETURNDATASIZE PUSH1 0x0 DUP1 RETURNDATACOPY RETURNDATASIZE PUSH1 0x0 REVERT JUMPDEST POP POP POP POP PUSH1 0x40 MLOAD RETURNDATASIZE PUSH1 0x1F NOT PUSH1 0x1F DUP3 ADD AND DUP3 ADD DUP1 PUSH1 0x40 MSTORE POP DUP2 ADD SWAP1 PUSH2 0x1CAB SWAP2 SWAP1 PUSH2 0x4239 JUMP JUMPDEST SWAP5 POP PUSH1 0x8 DUP4 SWAP1 SHR PUSH1 0x1 AND PUSH1 0x0 SUB PUSH2 0x1D13 JUMPI POP POP PUSH1 0x8 PUSH1 0x0 MSTORE PUSH1 0x2 PUSH1 0x20 MSTORE PUSH32 0x3A5EA591190EEB3F8FCDCED843C78DF04EC0DFD42F5510375207515664FA0A75 DUP4 SWAP1 SSTORE DUP3 PUSH32 0x15B36B0DEBB62E1B11A9E331644A806960A4DF8919180DC0745D17C7A912E989 PUSH2 0x1D43 JUMP JUMPDEST POP POP PUSH1 0x8 PUSH1 0x0 MSTORE PUSH1 0x2 PUSH1 0x20 MSTORE PUSH32 0x3A5EA591190EEB3F8FCDCED843C78DF04EC0DFD42F5510375207515664FA0A75 SLOAD DUP4 JUMPDEST PUSH1 0x40 DUP1 MLOAD DUP1 DUP3 ADD DUP3 MSTORE DUP4 DUP2 MSTORE PUSH1 0x20 DUP2 ADD DUP4 SWAP1 MSTORE SWAP1 MLOAD PUSH32 0x299E566000000000000000000000000000000000000000000000000000000000 DUP2 MSTORE PUSH20 0xFFFFFFFFFFFFFFFFFFFFFFFFFFFFFFFFFFFFFFFF PUSH32 0x0 AND SWAP2 PUSH4 0x299E5660 SWAP2 PUSH2 0x1DC6 SWAP2 SWAP1 PUSH1 0x4 ADD PUSH2 0x4208 JUMP JUMPDEST PUSH1 0x20 PUSH1 0x40 MLOAD DUP1 DUP4 SUB DUP2 DUP7 GAS STATICCALL ISZERO DUP1 ISZERO PUSH2 0x1DE3 JUMPI RETURNDATASIZE PUSH1 0x0 DUP1 RETURNDATACOPY RETURNDATASIZE PUSH1 0x0 REVERT JUMPDEST POP POP POP POP PUSH1 0x40 MLOAD RETURNDATASIZE PUSH1 0x1F NOT PUSH1 0x1F DUP3 ADD AND DUP3 ADD DUP1 PUSH1 0x40 MSTORE POP DUP2 ADD SWAP1 PUSH2 0x1E07 SWAP2 SWAP1 PUSH2 0x4239 JUMP JUMPDEST SWAP5 POP PUSH1 0x9 DUP4 SWAP1 SHR PUSH1 0x1 AND PUSH1 0x0 SUB PUSH2 0x1E6F JUMPI POP POP PUSH1 0x9 PUSH1 0x0 MSTORE PUSH1 0x2 PUSH1 0x20 MSTORE PUSH32 0xF85CC6FFC513DC6CF7D199EF87B7A63CF9DEFE62251C1C247CD12F1EEC7BFF29 DUP4 SWAP1 SSTORE DUP3 PUSH32 0xFAB3738A9EC3B9C6EAA98BF46972ED3CBBAE7982F0E69B3C7E9053ADF32290D PUSH2 0x1E9F JUMP JUMPDEST POP POP PUSH1 0x9 PUSH1 0x0 MSTORE PUSH1 0x2 PUSH1 0x20 MSTORE PUSH32 0xF85CC6FFC513DC6CF7D199EF87B7A63CF9DEFE62251C1C247CD12F1EEC7BFF29 SLOAD DUP4 JUMPDEST PUSH1 0x40 DUP1 MLOAD DUP1 DUP3 ADD DUP3 MSTORE DUP4 DUP2 MSTORE PUSH1 0x20 DUP2 ADD DUP4 SWAP1 MSTORE SWAP1 MLOAD PUSH32 0x299E566000000000000000000000000000000000000000000000000000000000 DUP2 MSTORE PUSH20 0xFFFFFFFFFFFFFFFFFFFFFFFFFFFFFFFFFFFFFFFF PUSH32 0x0 AND SWAP2 PUSH4 0x299E5660 SWAP2 PUSH2 0x1F22 SWAP2 SWAP1 PUSH1 0x4 ADD PUSH2 0x4208 JUMP JUMPDEST PUSH1 0x20 PUSH1 0x40 MLOAD DUP1 DUP4 SUB DUP2 DUP7 GAS STATICCALL ISZERO DUP1 ISZERO PUSH2 0x1F3F JUMPI RETURNDATASIZE PUSH1 0x0 DUP1 RETURNDATACOPY RETURNDATASIZE PUSH1 0x0 REVERT JUMPDEST POP POP POP POP PUSH1 0x40 MLOAD RETURNDATASIZE PUSH1 0x1F NOT PUSH1 0x1F DUP3 ADD AND DUP3 ADD DUP1 PUSH1 0x40 MSTORE POP DUP2 ADD SWAP1 PUSH2 0x1F63 SWAP2 SWAP1 PUSH2 0x4239 JUMP JUMPDEST SWAP5 POP PUSH1 0xA DUP4 SWAP1 SHR PUSH1 0x1 AND PUSH1 0x0 SUB PUSH2 0x1FCB JUMPI POP POP PUSH1 0xA PUSH1 0x0 MSTORE PUSH1 0x2 PUSH1 0x20 MSTORE PUSH32 0xD3604DB978F6137B0D18816B77B2CE810487A3AF08A922E0B184963BE5F3ADFC DUP4 SWAP1 SSTORE DUP3 PUSH32 0x16824B083A3F105F6671A504C2379DE67CC5154C5B557294E35D27D1D3531225 PUSH2 0x1FFB JUMP JUMPDEST POP POP PUSH1 0xA PUSH1 0x0 MSTORE PUSH1 0x2 PUSH1 0x20 MSTORE PUSH32 0xD3604DB978F6137B0D18816B77B2CE810487A3AF08A922E0B184963BE5F3ADFC SLOAD DUP4 JUMPDEST PUSH1 0x40 DUP1 MLOAD DUP1 DUP3 ADD DUP3 MSTORE DUP4 DUP2 MSTORE PUSH1 0x20 DUP2 ADD DUP4 SWAP1 MSTORE SWAP1 MLOAD PUSH32 0x299E566000000000000000000000000000000000000000000000000000000000 DUP2 MSTORE PUSH20 0xFFFFFFFFFFFFFFFFFFFFFFFFFFFFFFFFFFFFFFFF PUSH32 0x0 AND SWAP2 PUSH4 0x299E5660 SWAP2 PUSH2 0x207E SWAP2 SWAP1 PUSH1 0x4 ADD PUSH2 0x4208 JUMP JUMPDEST PUSH1 0x20 PUSH1 0x40 MLOAD DUP1 DUP4 SUB DUP2 DUP7 GAS STATICCALL ISZERO DUP1 ISZERO PUSH2 0x209B JUMPI RETURNDATASIZE PUSH1 0x0 DUP1 RETURNDATACOPY RETURNDATASIZE PUSH1 0x0 REVERT JUMPDEST POP POP POP POP PUSH1 0x40 MLOAD RETURNDATASIZE PUSH1 0x1F NOT PUSH1 0x1F DUP3 ADD AND DUP3 ADD DUP1 PUSH1 0x40 MSTORE POP DUP2 ADD SWAP1 PUSH2 0x20BF SWAP2 SWAP1 PUSH2 0x4239 JUMP JUMPDEST SWAP5 POP PUSH1 0xB DUP4 SWAP1 SHR PUSH1 0x1 AND PUSH1 0x0 SUB PUSH2 0x2127 JUMPI POP POP PUSH1 0xB PUSH1 0x0 MSTORE PUSH1 0x2 PUSH1 0x20 MSTORE PUSH32 0xAB9952BAF6478D8CFB7253CE86A6C53A7B7549582C76210B1581AE682B7E556F DUP4 SWAP1 SSTORE DUP3 PUSH32 0x297ECAE656A0FE904FE84F8DB691C7156A51DD5E228873CF75CED697DD8E5C19 PUSH2 0x2157 JUMP JUMPDEST POP POP PUSH1 0xB PUSH1 0x0 MSTORE PUSH1 0x2 PUSH1 0x20 MSTORE PUSH32 0xAB9952BAF6478D8CFB7253CE86A6C53A7B7549582C76210B1581AE682B7E556F SLOAD DUP4 JUMPDEST PUSH1 0x40 DUP1 MLOAD DUP1 DUP3 ADD DUP3 MSTORE DUP4 DUP2 MSTORE PUSH1 0x20 DUP2 ADD DUP4 SWAP1 MSTORE SWAP1 MLOAD PUSH32 0x299E566000000000000000000000000000000000000000000000000000000000 DUP2 MSTORE PUSH20 0xFFFFFFFFFFFFFFFFFFFFFFFFFFFFFFFFFFFFFFFF PUSH32 0x0 AND SWAP2 PUSH4 0x299E5660 SWAP2 PUSH2 0x21DA SWAP2 SWAP1 PUSH1 0x4 ADD PUSH2 0x4208 JUMP JUMPDEST PUSH1 0x20 PUSH1 0x40 MLOAD DUP1 DUP4 SUB DUP2 DUP7 GAS STATICCALL ISZERO DUP1 ISZERO PUSH2 0x21F7 JUMPI RETURNDATASIZE PUSH1 0x0 DUP1 RETURNDATACOPY RETURNDATASIZE PUSH1 0x0 REVERT JUMPDEST POP POP POP POP PUSH1 0x40 MLOAD RETURNDATASIZE PUSH1 0x1F NOT PUSH1 0x1F DUP3 ADD AND DUP3 ADD DUP1 PUSH1 0x40 MSTORE POP DUP2 ADD SWAP1 PUSH2 0x221B SWAP2 SWAP1 PUSH2 0x4239 JUMP JUMPDEST SWAP5 POP PUSH1 0xC DUP4 SWAP1 SHR PUSH1 0x1 AND PUSH1 0x0 SUB PUSH2 0x2283 JUMPI POP POP PUSH1 0xC PUSH1 0x0 MSTORE PUSH1 0x2 PUSH1 0x20 MSTORE PUSH32 0xBD814762A7E35D5C162A7570D14BAA68BD622CABB1AD83D40DD70F8A88AA67C0 DUP4 SWAP1 SSTORE DUP3 PUSH32 0x67C35B9AC5CDC355C6F9EAEF4721E6D622A4FD32D74D7BE3F78B17E5D8597EA PUSH2 0x22B3 JUMP JUMPDEST POP POP PUSH1 0xC PUSH1 0x0 MSTORE PUSH1 0x2 PUSH1 0x20 MSTORE PUSH32 0xBD814762A7E35D5C162A7570D14BAA68BD622CABB1AD83D40DD70F8A88AA67C0 SLOAD DUP4 JUMPDEST PUSH1 0x40 DUP1 MLOAD DUP1 DUP3 ADD DUP3 MSTORE DUP4 DUP2 MSTORE PUSH1 0x20 DUP2 ADD DUP4 SWAP1 MSTORE SWAP1 MLOAD PUSH32 0x299E566000000000000000000000000000000000000000000000000000000000 DUP2 MSTORE PUSH20 0xFFFFFFFFFFFFFFFFFFFFFFFFFFFFFFFFFFFFFFFF PUSH32 0x0 AND SWAP2 PUSH4 0x299E5660 SWAP2 PUSH2 0x2336 SWAP2 SWAP1 PUSH1 0x4 ADD PUSH2 0x4208 JUMP JUMPDEST PUSH1 0x20 PUSH1 0x40 MLOAD DUP1 DUP4 SUB DUP2 DUP7 GAS STATICCALL ISZERO DUP1 ISZERO PUSH2 0x2353 JUMPI RETURNDATASIZE PUSH1 0x0 DUP1 RETURNDATACOPY RETURNDATASIZE PUSH1 0x0 REVERT JUMPDEST POP POP POP POP PUSH1 0x40 MLOAD RETURNDATASIZE PUSH1 0x1F NOT PUSH1 0x1F DUP3 ADD AND DUP3 ADD DUP1 PUSH1 0x40 MSTORE POP DUP2 ADD SWAP1 PUSH2 0x2377 SWAP2 SWAP1 PUSH2 0x4239 JUMP JUMPDEST SWAP5 POP PUSH1 0xD DUP4 SWAP1 SHR PUSH1 0x1 AND PUSH1 0x0 SUB PUSH2 0x23DF JUMPI POP POP PUSH1 0xD PUSH1 0x0 MSTORE PUSH1 0x2 PUSH1 0x20 MSTORE PUSH32 0xEB5D92AA5B18AF35C2D0C0D14A538792CF1A66AA06AB9DAE49D32446E9063CA1 DUP4 SWAP1 SSTORE DUP3 PUSH32 0x2C2633F1AE47AE42E0CE8EADEC89C64D44A1FA98F1EE85AD4BF536594AF4E27F PUSH2 0x240F JUMP JUMPDEST POP POP PUSH1 0xD PUSH1 0x0 MSTORE PUSH1 0x2 PUSH1 0x20 MSTORE PUSH32 0xEB5D92AA5B18AF35C2D0C0D14A538792CF1A66AA06AB9DAE49D32446E9063CA1 SLOAD DUP4 JUMPDEST PUSH1 0x40 DUP1 MLOAD DUP1 DUP3 ADD DUP3 MSTORE DUP4 DUP2 MSTORE PUSH1 0x20 DUP2 ADD DUP4 SWAP1 MSTORE SWAP1 MLOAD PUSH32 0x299E566000000000000000000000000000000000000000000000000000000000 DUP2 MSTORE PUSH20 0xFFFFFFFFFFFFFFFFFFFFFFFFFFFFFFFFFFFFFFFF PUSH32 0x0 AND SWAP2 PUSH4 0x299E5660 SWAP2 PUSH2 0x2492 SWAP2 SWAP1 PUSH1 0x4 ADD PUSH2 0x4208 JUMP JUMPDEST PUSH1 0x20 PUSH1 0x40 MLOAD DUP1 DUP4 SUB DUP2 DUP7 GAS STATICCALL ISZERO DUP1 ISZERO PUSH2 0x24AF JUMPI RETURNDATASIZE PUSH1 0x0 DUP1 RETURNDATACOPY RETURNDATASIZE PUSH1 0x0 REVERT JUMPDEST POP POP POP POP PUSH1 0x40 MLOAD RETURNDATASIZE PUSH1 0x1F NOT PUSH1 0x1F DUP3 ADD AND DUP3 ADD DUP1 PUSH1 0x40 MSTORE POP DUP2 ADD SWAP1 PUSH2 0x24D3 SWAP2 SWAP1 PUSH2 0x4239 JUMP JUMPDEST SWAP5 POP PUSH1 0xE DUP4 SWAP1 SHR PUSH1 0x1 AND PUSH1 0x0 SUB PUSH2 0x253B JUMPI POP POP PUSH1 0xE PUSH1 0x0 MSTORE PUSH1 0x2 PUSH1 0x20 MSTORE PUSH32 0x20DE3DD312970F46A1D560F6C70F0E5BD10E638B9BB3836368F28838C607EA3E DUP4 SWAP1 SSTORE DUP3 PUSH32 0x2D9C6E7ECA6E7BA2B8335AE16998576602FE7910FB5EF41CE94D00B1332CF624 PUSH2 0x256B JUMP JUMPDEST POP POP PUSH1 0xE PUSH1 0x0 MSTORE PUSH1 0x2 PUSH1 0x20 MSTORE PUSH32 0x20DE3DD312970F46A1D560F6C70F0E5BD10E638B9BB3836368F28838C607EA3E SLOAD DUP4 JUMPDEST PUSH1 0x40 DUP1 MLOAD DUP1 DUP3 ADD DUP3 MSTORE DUP4 DUP2 MSTORE PUSH1 0x20 DUP2 ADD DUP4 SWAP1 MSTORE SWAP1 MLOAD PUSH32 0x299E566000000000000000000000000000000000000000000000000000000000 DUP2 MSTORE PUSH20 0xFFFFFFFFFFFFFFFFFFFFFFFFFFFFFFFFFFFFFFFF PUSH32 0x0 AND SWAP2 PUSH4 0x299E5660 SWAP2 PUSH2 0x25EE SWAP2 SWAP1 PUSH1 0x4 ADD PUSH2 0x4208 JUMP JUMPDEST PUSH1 0x20 PUSH1 0x40 MLOAD DUP1 DUP4 SUB DUP2 DUP7 GAS STATICCALL ISZERO DUP1 ISZERO PUSH2 0x260B JUMPI RETURNDATASIZE PUSH1 0x0 DUP1 RETURNDATACOPY RETURNDATASIZE PUSH1 0x0 REVERT JUMPDEST POP POP POP POP PUSH1 0x40 MLOAD RETURNDATASIZE PUSH1 0x1F NOT PUSH1 0x1F DUP3 ADD AND DUP3 ADD DUP1 PUSH1 0x40 MSTORE POP DUP2 ADD SWAP1 PUSH2 0x262F SWAP2 SWAP1 PUSH2 0x4239 JUMP JUMPDEST SWAP5 POP PUSH1 0xF DUP4 SWAP1 SHR PUSH1 0x1 AND PUSH1 0x0 SUB PUSH2 0x2697 JUMPI POP POP PUSH1 0xF PUSH1 0x0 MSTORE PUSH1 0x2 PUSH1 0x20 MSTORE PUSH32 0x353061A88C0592F32D7468BE32FF6E5E91E49A3EA3FFB3C4FBE417C36501BA2 DUP4 SWAP1 SSTORE DUP3 PUSH32 0x239F1418B2B0A70F468D0903CC46524D8F7EFBDB2DFA561494CA5BFFCC787700 PUSH2 0x26C7 JUMP JUMPDEST POP POP PUSH1 0xF PUSH1 0x0 MSTORE PUSH1 0x2 PUSH1 0x20 MSTORE PUSH32 0x353061A88C0592F32D7468BE32FF6E5E91E49A3EA3FFB3C4FBE417C36501BA2 SLOAD DUP4 JUMPDEST PUSH1 0x40 DUP1 MLOAD DUP1 DUP3 ADD DUP3 MSTORE DUP4 DUP2 MSTORE PUSH1 0x20 DUP2 ADD DUP4 SWAP1 MSTORE SWAP1 MLOAD PUSH32 0x299E566000000000000000000000000000000000000000000000000000000000 DUP2 MSTORE PUSH20 0xFFFFFFFFFFFFFFFFFFFFFFFFFFFFFFFFFFFFFFFF PUSH32 0x0 AND SWAP2 PUSH4 0x299E5660 SWAP2 PUSH2 0x274A SWAP2 SWAP1 PUSH1 0x4 ADD PUSH2 0x4208 JUMP JUMPDEST PUSH1 0x20 PUSH1 0x40 MLOAD DUP1 DUP4 SUB DUP2 DUP7 GAS STATICCALL ISZERO DUP1 ISZERO PUSH2 0x2767 JUMPI RETURNDATASIZE PUSH1 0x0 DUP1 RETURNDATACOPY RETURNDATASIZE PUSH1 0x0 REVERT JUMPDEST POP POP POP POP PUSH1 0x40 MLOAD RETURNDATASIZE PUSH1 0x1F NOT PUSH1 0x1F DUP3 ADD AND DUP3 ADD DUP1 PUSH1 0x40 MSTORE POP DUP2 ADD SWAP1 PUSH2 0x278B SWAP2 SWAP1 PUSH2 0x4239 JUMP JUMPDEST SWAP5 POP PUSH1 0x10 DUP4 SWAP1 SHR PUSH1 0x1 AND PUSH1 0x0 SUB PUSH2 0x27F3 JUMPI POP POP PUSH1 0x10 PUSH1 0x0 MSTORE PUSH1 0x2 PUSH1 0x20 MSTORE PUSH32 0x328B8E687A0A963892A735F0237CB763BBBBF8BA0C1DFE2C221DEBB32C4BBD89 DUP4 SWAP1 SSTORE DUP3 PUSH32 0xB15E263911EE4D77B6A394B70DC93AD3DF6DFDF6A3F7605F9CAFB6968D8F1F6 PUSH2 0x2823 JUMP JUMPDEST POP POP PUSH1 0x10 PUSH1 0x0 MSTORE PUSH1 0x2 PUSH1 0x20 MSTORE PUSH32 0x328B8E687A0A963892A735F0237CB763BBBBF8BA0C1DFE2C221DEBB32C4BBD89 SLOAD DUP4 JUMPDEST PUSH1 0x40 DUP1 MLOAD DUP1 DUP3 ADD DUP3 MSTORE DUP4 DUP2 MSTORE PUSH1 0x20 DUP2 ADD DUP4 SWAP1 MSTORE SWAP1 MLOAD PUSH32 0x299E566000000000000000000000000000000000000000000000000000000000 DUP2 MSTORE PUSH20 0xFFFFFFFFFFFFFFFFFFFFFFFFFFFFFFFFFFFFFFFF PUSH32 0x0 AND SWAP2 PUSH4 0x299E5660 SWAP2 PUSH2 0x28A6 SWAP2 SWAP1 PUSH1 0x4 ADD PUSH2 0x4208 JUMP JUMPDEST PUSH1 0x20 PUSH1 0x40 MLOAD DUP1 DUP4 SUB DUP2 DUP7 GAS STATICCALL ISZERO DUP1 ISZERO PUSH2 0x28C3 JUMPI RETURNDATASIZE PUSH1 0x0 DUP1 RETURNDATACOPY RETURNDATASIZE PUSH1 0x0 REVERT JUMPDEST POP POP POP POP PUSH1 0x40 MLOAD RETURNDATASIZE PUSH1 0x1F NOT PUSH1 0x1F DUP3 ADD AND DUP3 ADD DUP1 PUSH1 0x40 MSTORE POP DUP2 ADD SWAP1 PUSH2 0x28E7 SWAP2 SWAP1 PUSH2 0x4239 JUMP JUMPDEST SWAP5 POP PUSH1 0x11 DUP4 SWAP1 SHR PUSH1 0x1 AND PUSH1 0x0 SUB PUSH2 0x294F JUMPI POP POP PUSH1 0x11 PUSH1 0x0 MSTORE PUSH1 0x2 PUSH1 0x20 MSTORE PUSH32 0xA4E0F4432E44D027A7B3F953940F096BCA7A9BD910297CAD2BA7C703C2B799D3 DUP4 SWAP1 SSTORE DUP3 PUSH32 0x2C069C957125A3E2CB4E16CA506D5F4F387D11D1AEA33B30A8DD4CA3074F4DE6 PUSH2 0x297F JUMP JUMPDEST POP POP PUSH1 0x11 PUSH1 0x0 MSTORE PUSH1 0x2 PUSH1 0x20 MSTORE PUSH32 0xA4E0F4432E44D027A7B3F953940F096BCA7A9BD910297CAD2BA7C703C2B799D3 SLOAD DUP4 JUMPDEST PUSH1 0x40 DUP1 MLOAD DUP1 DUP3 ADD DUP3 MSTORE DUP4 DUP2 MSTORE PUSH1 0x20 DUP2 ADD DUP4 SWAP1 MSTORE SWAP1 MLOAD PUSH32 0x299E566000000000000000000000000000000000000000000000000000000000 DUP2 MSTORE PUSH20 0xFFFFFFFFFFFFFFFFFFFFFFFFFFFFFFFFFFFFFFFF PUSH32 0x0 AND SWAP2 PUSH4 0x299E5660 SWAP2 PUSH2 0x2A02 SWAP2 SWAP1 PUSH1 0x4 ADD PUSH2 0x4208 JUMP JUMPDEST PUSH1 0x20 PUSH1 0x40 MLOAD DUP1 DUP4 SUB DUP2 DUP7 GAS STATICCALL ISZERO DUP1 ISZERO PUSH2 0x2A1F JUMPI RETURNDATASIZE PUSH1 0x0 DUP1 RETURNDATACOPY RETURNDATASIZE PUSH1 0x0 REVERT JUMPDEST POP POP POP POP PUSH1 0x40 MLOAD RETURNDATASIZE PUSH1 0x1F NOT PUSH1 0x1F DUP3 ADD AND DUP3 ADD DUP1 PUSH1 0x40 MSTORE POP DUP2 ADD SWAP1 PUSH2 0x2A43 SWAP2 SWAP1 PUSH2 0x4239 JUMP JUMPDEST SWAP5 POP PUSH1 0x12 DUP4 SWAP1 SHR PUSH1 0x1 AND PUSH1 0x0 SUB PUSH2 0x2AAB JUMPI POP POP PUSH1 0x12 PUSH1 0x0 MSTORE PUSH1 0x2 PUSH1 0x20 MSTORE PUSH32 0xC0C7C7C9A2A6655862FEEA3CC7FF13629582293FCFE0E1094EFB20897BB02A65 DUP4 SWAP1 SSTORE DUP3 PUSH32 0xBE6D282D26C02019FD66E32C8D85154B77253E7C6016B26A991352E0016D580 PUSH2 0x2ADB JUMP JUMPDEST POP POP PUSH1 0x12 PUSH1 0x0 MSTORE PUSH1 0x2 PUSH1 0x20 MSTORE PUSH32 0xC0C7C7C9A2A6655862FEEA3CC7FF13629582293FCFE0E1094EFB20897BB02A65 SLOAD DUP4 JUMPDEST PUSH1 0x40 DUP1 MLOAD DUP1 DUP3 ADD DUP3 MSTORE DUP4 DUP2 MSTORE PUSH1 0x20 DUP2 ADD DUP4 SWAP1 MSTORE SWAP1 MLOAD PUSH32 0x299E566000000000000000000000000000000000000000000000000000000000 DUP2 MSTORE PUSH20 0xFFFFFFFFFFFFFFFFFFFFFFFFFFFFFFFFFFFFFFFF PUSH32 0x0 AND SWAP2 PUSH4 0x299E5660 SWAP2 PUSH2 0x2B5E SWAP2 SWAP1 PUSH1 0x4 ADD PUSH2 0x4208 JUMP JUMPDEST PUSH1 0x20 PUSH1 0x40 MLOAD DUP1 DUP4 SUB DUP2 DUP7 GAS STATICCALL ISZERO DUP1 ISZERO PUSH2 0x2B7B JUMPI RETURNDATASIZE PUSH1 0x0 DUP1 RETURNDATACOPY RETURNDATASIZE PUSH1 0x0 REVERT JUMPDEST POP POP POP POP PUSH1 0x40 MLOAD RETURNDATASIZE PUSH1 0x1F NOT PUSH1 0x1F DUP3 ADD AND DUP3 ADD DUP1 PUSH1 0x40 MSTORE POP DUP2 ADD SWAP1 PUSH2 0x2B9F SWAP2 SWAP1 PUSH2 0x4239 JUMP JUMPDEST SWAP5 POP PUSH1 0x13 DUP4 SWAP1 SHR PUSH1 0x1 AND PUSH1 0x0 SUB PUSH2 0x2C07 JUMPI POP POP PUSH1 0x13 PUSH1 0x0 MSTORE PUSH1 0x2 PUSH1 0x20 MSTORE PUSH32 0x4A5BDED210BB862FAE2C0D18B9D29BF7F88B08A75DD1594B1369ABC7881E3FE1 DUP4 SWAP1 SSTORE DUP3 PUSH32 0x1E29CFB0C1AD522F22A3B3E23C057CBD3C7AB921E742A8DFCBC66DBDE917D5B2 PUSH2 0x2C37 JUMP JUMPDEST POP POP PUSH1 0x13 PUSH1 0x0 MSTORE PUSH1 0x2 PUSH1 0x20 MSTORE PUSH32 0x4A5BDED210BB862FAE2C0D18B9D29BF7F88B08A75DD1594B1369ABC7881E3FE1 SLOAD DUP4 JUMPDEST PUSH1 0x40 DUP1 MLOAD DUP1 DUP3 ADD DUP3 MSTORE DUP4 DUP2 MSTORE PUSH1 0x20 DUP2 ADD DUP4 SWAP1 MSTORE SWAP1 MLOAD PUSH32 0x299E566000000000000000000000000000000000000000000000000000000000 DUP2 MSTORE PUSH20 0xFFFFFFFFFFFFFFFFFFFFFFFFFFFFFFFFFFFFFFFF PUSH32 0x0 AND SWAP2 PUSH4 0x299E5660 SWAP2 PUSH2 0x2CBA SWAP2 SWAP1 PUSH1 0x4 ADD PUSH2 0x4208 JUMP JUMPDEST PUSH1 0x20 PUSH1 0x40 MLOAD DUP1 DUP4 SUB DUP2 DUP7 GAS STATICCALL ISZERO DUP1 ISZERO PUSH2 0x2CD7 JUMPI RETURNDATASIZE PUSH1 0x0 DUP1 RETURNDATACOPY RETURNDATASIZE PUSH1 0x0 REVERT JUMPDEST POP POP POP POP PUSH1 0x40 MLOAD RETURNDATASIZE PUSH1 0x1F NOT PUSH1 0x1F DUP3 ADD AND DUP3 ADD DUP1 PUSH1 0x40 MSTORE POP DUP2 ADD SWAP1 PUSH2 0x2CFB SWAP2 SWAP1 PUSH2 0x4239 JUMP JUMPDEST PUSH1 0x1E PUSH1 0x1 DUP6 DUP2 ADD SWAP2 DUP3 MOD PUSH1 0x0 SWAP1 DUP2 MSTORE PUSH1 0x3 PUSH1 0x20 MSTORE PUSH1 0x40 SWAP1 KECCAK256 SWAP3 SWAP1 SWAP3 SSTORE SWAP1 SSTORE POP SWAP1 SWAP4 SWAP3 POP POP POP JUMP JUMPDEST DUP1 MLOAD PUSH1 0x20 DUP3 ADD KECCAK256 PUSH1 0x0 SWAP1 PUSH2 0x469 SWAP1 PUSH32 0x30644E72E131A029B85045B68181585D2833E84879B9709143E1F593F0000001 SWAP1 PUSH2 0x411B JUMP JUMPDEST PUSH1 0x0 PUSH32 0x30644E72E131A029B85045B68181585D2833E84879B9709143E1F593F0000001 DUP7 LT ISZERO DUP1 PUSH2 0x2DA8 JUMPI POP PUSH32 0x30644E72E131A029B85045B68181585D2833E84879B9709143E1F593F0000001 DUP6 LT ISZERO JUMPDEST DUP1 PUSH2 0x2DD3 JUMPI POP PUSH32 0x30644E72E131A029B85045B68181585D2833E84879B9709143E1F593F0000001 DUP5 LT ISZERO JUMPDEST DUP1 PUSH2 0x2DFE JUMPI POP PUSH32 0x30644E72E131A029B85045B68181585D2833E84879B9709143E1F593F0000001 DUP4 LT ISZERO JUMPDEST DUP1 PUSH2 0x2E29 JUMPI POP PUSH32 0x30644E72E131A029B85045B68181585D2833E84879B9709143E1F593F0000001 DUP3 LT ISZERO JUMPDEST ISZERO PUSH2 0x2E60 JUMPI PUSH1 0x40 MLOAD PUSH32 0xDA62372100000000000000000000000000000000000000000000000000000000 DUP2 MSTORE PUSH1 0x4 ADD PUSH1 0x40 MLOAD DUP1 SWAP2 SUB SWAP1 REVERT JUMPDEST PUSH2 0x2E68 PUSH2 0x3E0B JUMP JUMPDEST PUSH1 0x40 DUP1 MLOAD DUP1 DUP3 ADD DUP3 MSTORE DUP10 CALLDATALOAD DUP2 MSTORE PUSH1 0x20 DUP1 DUP12 ADD CALLDATALOAD DUP2 DUP4 ADD MSTORE SWAP1 DUP4 MSTORE DUP2 MLOAD PUSH1 0x80 DUP1 DUP3 ADD DUP5 MSTORE DUP12 DUP5 ADD CALLDATALOAD DUP3 DUP6 ADD SWAP1 DUP2 MSTORE PUSH1 0x60 DUP1 DUP15 ADD CALLDATALOAD SWAP1 DUP5 ADD MSTORE DUP3 MSTORE DUP4 MLOAD DUP1 DUP6 ADD DUP6 MSTORE SWAP1 DUP13 ADD CALLDATALOAD DUP2 MSTORE PUSH1 0xA0 DUP13 ADD CALLDATALOAD DUP2 DUP5 ADD MSTORE DUP2 DUP4 ADD MSTORE DUP4 DUP3 ADD MSTORE DUP2 MLOAD DUP1 DUP4 ADD DUP4 MSTORE PUSH1 0xC0 DUP12 ADD CALLDATALOAD DUP2 MSTORE PUSH1 0xE0 DUP12 ADD CALLDATALOAD SWAP2 DUP2 ADD SWAP2 SWAP1 SWAP2 MSTORE SWAP1 DUP3 ADD MSTORE PUSH1 0x0 PUSH2 0x2EE7 PUSH2 0x30D3 JUMP JUMPDEST SWAP1 POP PUSH1 0x0 PUSH1 0x40 MLOAD DUP1 PUSH1 0x40 ADD PUSH1 0x40 MSTORE DUP1 PUSH1 0x0 DUP2 MSTORE PUSH1 0x20 ADD PUSH1 0x0 DUP2 MSTORE POP SWAP1 POP PUSH2 0x2F3F PUSH2 0x2F38 DUP11 DUP5 PUSH1 0x80 ADD MLOAD PUSH1 0x1 DUP2 MLOAD DUP2 LT PUSH2 0x2F22 JUMPI PUSH2 0x2F22 PUSH2 0x40BD JUMP JUMPDEST PUSH1 0x20 MUL PUSH1 0x20 ADD ADD MLOAD PUSH2 0x364A SWAP1 SWAP2 SWAP1 PUSH4 0xFFFFFFFF AND JUMP JUMPDEST DUP3 SWAP1 PUSH2 0x36CC JUMP JUMPDEST SWAP1 POP PUSH2 0x2F5F PUSH2 0x2F38 DUP10 DUP5 PUSH1 0x80 ADD MLOAD PUSH1 0x2 DUP2 MLOAD DUP2 LT PUSH2 0x2F22 JUMPI PUSH2 0x2F22 PUSH2 0x40BD JUMP JUMPDEST SWAP1 POP PUSH2 0x2F7F PUSH2 0x2F38 DUP9 DUP5 PUSH1 0x80 ADD MLOAD PUSH1 0x3 DUP2 MLOAD DUP2 LT PUSH2 0x2F22 JUMPI PUSH2 0x2F22 PUSH2 0x40BD JUMP JUMPDEST SWAP1 POP PUSH2 0x2F9F PUSH2 0x2F38 DUP8 DUP5 PUSH1 0x80 ADD MLOAD PUSH1 0x4 DUP2 MLOAD DUP2 LT PUSH2 0x2F22 JUMPI PUSH2 0x2F22 PUSH2 0x40BD JUMP JUMPDEST SWAP1 POP PUSH2 0x2FBF PUSH2 0x2F38 DUP7 DUP5 PUSH1 0x80 ADD MLOAD PUSH1 0x5 DUP2 MLOAD DUP2 LT PUSH2 0x2F22 JUMPI PUSH2 0x2F22 PUSH2 0x40BD JUMP JUMPDEST SWAP1 POP PUSH2 0x2FF2 DUP3 PUSH1 0x80 ADD MLOAD PUSH1 0x0 DUP2 MLOAD DUP2 LT PUSH2 0x2FDB JUMPI PUSH2 0x2FDB PUSH2 0x40BD JUMP JUMPDEST PUSH1 0x20 MUL PUSH1 0x20 ADD ADD MLOAD DUP3 PUSH2 0x36CC SWAP1 SWAP2 SWAP1 PUSH4 0xFFFFFFFF AND JUMP JUMPDEST SWAP1 POP PUSH2 0x302F DUP4 PUSH1 0x20 ADD MLOAD DUP4 PUSH1 0x0 ADD MLOAD DUP5 PUSH1 0x20 ADD MLOAD DUP5 DUP7 PUSH1 0x40 ADD MLOAD DUP9 PUSH1 0x40 ADD MLOAD DUP9 PUSH1 0x60 ADD MLOAD PUSH2 0x3023 DUP12 PUSH1 0x0 ADD MLOAD PUSH2 0x3751 JUMP JUMPDEST SWAP7 SWAP6 SWAP5 SWAP4 SWAP3 SWAP2 SWAP1 PUSH2 0x3806 JUMP JUMPDEST SWAP11 SWAP10 POP POP POP POP POP POP POP POP POP POP JUMP JUMPDEST PUSH1 0x0 PUSH2 0x305F PUSH20 0xFFFFFFFFFFFFFFFFFFFFFFFFFFFFFFFFFFFFFFFF DUP5 AND DUP4 PUSH2 0x3991 JUMP JUMPDEST SWAP1 POP DUP1 MLOAD PUSH1 0x0 EQ ISZERO DUP1 ISZERO PUSH2 0x3084 JUMPI POP DUP1 DUP1 PUSH1 0x20 ADD SWAP1 MLOAD DUP2 ADD SWAP1 PUSH2 0x3082 SWAP2 SWAP1 PUSH2 0x43D5 JUMP JUMPDEST ISZERO JUMPDEST ISZERO PUSH2 0x10A4 JUMPI PUSH1 0x40 MLOAD PUSH32 0x5274AFE700000000000000000000000000000000000000000000000000000000 DUP2 MSTORE PUSH20 0xFFFFFFFFFFFFFFFFFFFFFFFFFFFFFFFFFFFFFFFF DUP5 AND PUSH1 0x4 DUP3 ADD MSTORE PUSH1 0x24 ADD PUSH2 0x687 JUMP JUMPDEST PUSH2 0x30DB PUSH2 0x3E5C JUMP JUMPDEST PUSH1 0x40 DUP1 MLOAD DUP1 DUP3 ADD DUP3 MSTORE PUSH32 0x2D4D9AA7E302D9DF41749D5507949D05DBEA33FBB16C643B22F599A2BE6DF2E2 DUP2 MSTORE PUSH32 0x14BEDD503C37CEB061D8EC60209FE345CE89830A19230301F076CAFF004D1926 PUSH1 0x20 DUP1 DUP4 ADD SWAP2 SWAP1 SWAP2 MSTORE SWAP1 DUP4 MSTORE DUP2 MLOAD PUSH1 0x80 DUP1 DUP3 ADD DUP5 MSTORE PUSH32 0x967032FCBF776D1AFC985F88877F182D38480A653F2DECAA9794CBC3BF3060C DUP3 DUP6 ADD SWAP1 DUP2 MSTORE PUSH32 0xE187847AD4C798374D0D6732BF501847DD68BC0E071241E0213BC7FC13DB7AB PUSH1 0x60 DUP1 DUP6 ADD SWAP2 SWAP1 SWAP2 MSTORE SWAP1 DUP4 MSTORE DUP5 MLOAD DUP1 DUP7 ADD DUP7 MSTORE PUSH32 0x304CFBD1E08A704A99F5E847D93F8C3CAAFDDEC46B7A0D379DA69A4D112346A7 DUP2 MSTORE PUSH32 0x1739C1B1A457A8C7313123D24D2F9192F896B7C63EEA05A9D57F06547AD0CEC8 DUP2 DUP7 ADD MSTORE DUP4 DUP6 ADD MSTORE DUP6 DUP5 ADD SWAP3 SWAP1 SWAP3 MSTORE DUP4 MLOAD DUP1 DUP3 ADD DUP6 MSTORE PUSH32 0x198E9393920D483A7260BFB731FB5D25F1AA493335A9E71297E485B7AEF312C2 DUP2 DUP7 ADD SWAP1 DUP2 MSTORE PUSH32 0x1800DEEF121F1E76426A00665E5C4479674322D4F75EDADD46DEBD5CD992F6ED DUP3 DUP6 ADD MSTORE DUP2 MSTORE DUP5 MLOAD DUP1 DUP7 ADD DUP7 MSTORE PUSH32 0x90689D0585FF075EC9E99AD690C3395BC4B313370B38EF355ACDADCD122975B DUP2 MSTORE PUSH32 0x12C85EA5DB8C6DEB4AAB71808DCB408FE3D1E7690C43D37B4CE6CC0166FA7DAA DUP2 DUP7 ADD MSTORE DUP2 DUP6 ADD MSTORE DUP6 DUP6 ADD MSTORE DUP4 MLOAD SWAP1 DUP2 ADD DUP5 MSTORE PUSH32 0x2453CE6C2398EC116055114DDA132382C62225F2C9745816C1E88C060AA1BD03 DUP2 DUP6 ADD SWAP1 DUP2 MSTORE PUSH32 0x824FFA78B175583E7AE45AD96ED67B140E6143D52089AA1D23C784DF5B86CA1 DUP3 DUP5 ADD MSTORE DUP2 MSTORE DUP4 MLOAD DUP1 DUP6 ADD DUP6 MSTORE PUSH32 0x1708A2DEAC620BEE003AEF8F4FADBC7556733783DB6A4CCBCCC00B619A8B3C5E DUP2 MSTORE PUSH32 0x1F230C8D8ACE816796DBB8AA45F445749839A2256FD5EC154CD0E392F757D666 DUP2 DUP6 ADD MSTORE DUP2 DUP5 ADD MSTORE SWAP1 DUP5 ADD MSTORE DUP2 MLOAD PUSH1 0x6 DUP1 DUP3 MSTORE PUSH1 0xE0 DUP3 ADD SWAP1 SWAP4 MSTORE SWAP2 SWAP1 DUP3 ADD JUMPDEST PUSH1 0x40 DUP1 MLOAD DUP1 DUP3 ADD SWAP1 SWAP2 MSTORE PUSH1 0x0 DUP1 DUP3 MSTORE PUSH1 0x20 DUP3 ADD MSTORE DUP2 MSTORE PUSH1 0x20 ADD SWAP1 PUSH1 0x1 SWAP1 SUB SWAP1 DUP2 PUSH2 0x3356 JUMPI POP POP PUSH1 0x80 DUP3 ADD SWAP1 DUP2 MSTORE PUSH1 0x40 DUP1 MLOAD DUP1 DUP3 ADD SWAP1 SWAP2 MSTORE PUSH32 0x2EF2DBE3C14EB7E21954289E64D9EABBAB304AEBE2074FE5313A5CE9097E19C8 DUP2 MSTORE PUSH32 0x2338E7A1D59D44A1E3E3F1EBE2C08BA9D43E915B3F3134FB6B0BCF9A6DE73E8F PUSH1 0x20 DUP3 ADD MSTORE SWAP1 MLOAD DUP1 MLOAD PUSH1 0x0 SWAP1 PUSH2 0x33E9 JUMPI PUSH2 0x33E9 PUSH2 0x40BD JUMP JUMPDEST PUSH1 0x20 MUL PUSH1 0x20 ADD ADD DUP2 SWAP1 MSTORE POP PUSH1 0x40 MLOAD DUP1 PUSH1 0x40 ADD PUSH1 0x40 MSTORE DUP1 PUSH32 0x132B67297DCFDBF071A2A19B248E164FBCA170748B64ECE91AF0557125A5271 DUP2 MSTORE PUSH1 0x20 ADD PUSH32 0x9ED608B463E574B97F0DAED8A37A23A347D2FDD473F5CECCC993B9E9BA7FF72 DUP2 MSTORE POP DUP2 PUSH1 0x80 ADD MLOAD PUSH1 0x1 DUP2 MLOAD DUP2 LT PUSH2 0x3460 JUMPI PUSH2 0x3460 PUSH2 0x40BD JUMP JUMPDEST PUSH1 0x20 MUL PUSH1 0x20 ADD ADD DUP2 SWAP1 MSTORE POP PUSH1 0x40 MLOAD DUP1 PUSH1 0x40 ADD PUSH1 0x40 MSTORE DUP1 PUSH32 0x290961ABCDB4C7A8E2532813075CA2EBC08828CF457E5B62B63D25A6C2E36D7C DUP2 MSTORE PUSH1 0x20 ADD PUSH32 0x12658A124848023E8CADF3CE2B04D268E91B2ED9B1333EEE408B359BD8149443 DUP2 MSTORE POP DUP2 PUSH1 0x80 ADD MLOAD PUSH1 0x2 DUP2 MLOAD DUP2 LT PUSH2 0x34D7 JUMPI PUSH2 0x34D7 PUSH2 0x40BD JUMP JUMPDEST PUSH1 0x20 MUL PUSH1 0x20 ADD ADD DUP2 SWAP1 MSTORE POP PUSH1 0x40 MLOAD DUP1 PUSH1 0x40 ADD PUSH1 0x40 MSTORE DUP1 PUSH32 0x26DAA5CBA392B1C9FFDE30884B26FBADD06C4AB835E67E69AEF40248DAB299B1 DUP2 MSTORE PUSH1 0x20 ADD PUSH32 0x5731CBAB4F8FD100C990FE64A20D97B64E2F359221340A4BB1F9F8324791B16 DUP2 MSTORE POP DUP2 PUSH1 0x80 ADD MLOAD PUSH1 0x3 DUP2 MLOAD DUP2 LT PUSH2 0x354E JUMPI PUSH2 0x354E PUSH2 0x40BD JUMP JUMPDEST PUSH1 0x20 MUL PUSH1 0x20 ADD ADD DUP2 SWAP1 MSTORE POP PUSH1 0x40 MLOAD DUP1 PUSH1 0x40 ADD PUSH1 0x40 MSTORE DUP1 PUSH32 0x1BDBB64F2F4C8EB899F0C0F457C74E2A91D6843193CE19AEF18379A8642B71FF DUP2 MSTORE PUSH1 0x20 ADD PUSH32 0x1F0A497AFE900D6C38E33B127138019B999105A45CDAD60721FD9E71D494D6B9 DUP2 MSTORE POP DUP2 PUSH1 0x80 ADD MLOAD PUSH1 0x4 DUP2 MLOAD DUP2 LT PUSH2 0x35C5 JUMPI PUSH2 0x35C5 PUSH2 0x40BD JUMP JUMPDEST PUSH1 0x20 MUL PUSH1 0x20 ADD ADD DUP2 SWAP1 MSTORE POP PUSH1 0x40 MLOAD DUP1 PUSH1 0x40 ADD PUSH1 0x40 MSTORE DUP1 PUSH32 0x72358F8B614D9AB54A25E50CE0CFDB9C38433FFE460634C00BD039118B140DC DUP2 MSTORE PUSH1 0x20 ADD PUSH32 0x2574B68AB1B6E873068161B588984F2826AC7B6743ED5259793358211617CB9 DUP2 MSTORE POP DUP2 PUSH1 0x80 ADD MLOAD PUSH1 0x5 DUP2 MLOAD DUP2 LT PUSH2 0x363C JUMPI PUSH2 0x363C PUSH2 0x40BD JUMP JUMPDEST PUSH1 0x20 MUL PUSH1 0x20 ADD ADD DUP2 SWAP1 MSTORE POP SWAP1 JUMP JUMPDEST PUSH1 0x40 DUP1 MLOAD DUP1 DUP3 ADD SWAP1 SWAP2 MSTORE PUSH1 0x0 DUP1 DUP3 MSTORE PUSH1 0x20 DUP3 ADD MSTORE PUSH2 0x3666 PUSH2 0x3EAD JUMP JUMPDEST DUP4 MLOAD DUP2 MSTORE PUSH1 0x20 DUP1 DUP6 ADD MLOAD SWAP1 DUP3 ADD MSTORE PUSH1 0x40 DUP2 ADD DUP4 SWAP1 MSTORE PUSH1 0x0 PUSH1 0x60 DUP4 PUSH1 0x80 DUP5 PUSH1 0x7 PUSH2 0x7D0 GAS SUB STATICCALL SWAP1 POP DUP1 PUSH2 0x36C4 JUMPI PUSH1 0x40 MLOAD PUSH32 0x2A5EA20800000000000000000000000000000000000000000000000000000000 DUP2 MSTORE PUSH1 0x4 ADD PUSH1 0x40 MLOAD DUP1 SWAP2 SUB SWAP1 REVERT JUMPDEST POP POP SWAP3 SWAP2 POP POP JUMP JUMPDEST PUSH1 0x40 DUP1 MLOAD DUP1 DUP3 ADD SWAP1 SWAP2 MSTORE PUSH1 0x0 DUP1 DUP3 MSTORE PUSH1 0x20 DUP3 ADD MSTORE PUSH2 0x36E8 PUSH2 0x3ECB JUMP JUMPDEST DUP4 MLOAD DUP2 MSTORE PUSH1 0x20 DUP1 DUP6 ADD MLOAD DUP2 DUP4 ADD MSTORE DUP4 MLOAD PUSH1 0x40 DUP4 ADD MSTORE DUP4 ADD MLOAD PUSH1 0x60 DUP1 DUP4 ADD SWAP2 SWAP1 SWAP2 MSTORE PUSH1 0x0 SWAP1 DUP4 PUSH1 0xC0 DUP5 PUSH1 0x6 PUSH2 0x7D0 GAS SUB STATICCALL SWAP1 POP DUP1 PUSH2 0x36C4 JUMPI PUSH1 0x40 MLOAD PUSH32 0x84D6A7100000000000000000000000000000000000000000000000000000000 DUP2 MSTORE PUSH1 0x4 ADD PUSH1 0x40 MLOAD DUP1 SWAP2 SUB SWAP1 REVERT JUMPDEST PUSH1 0x40 DUP1 MLOAD DUP1 DUP3 ADD SWAP1 SWAP2 MSTORE PUSH1 0x0 DUP1 DUP3 MSTORE PUSH1 0x20 DUP3 ADD MSTORE DUP2 MLOAD ISZERO DUP1 ISZERO PUSH2 0x3776 JUMPI POP PUSH1 0x20 DUP3 ADD MLOAD ISZERO JUMPDEST ISZERO PUSH2 0x3794 JUMPI POP POP PUSH1 0x40 DUP1 MLOAD DUP1 DUP3 ADD SWAP1 SWAP2 MSTORE PUSH1 0x0 DUP1 DUP3 MSTORE PUSH1 0x20 DUP3 ADD MSTORE SWAP1 JUMP JUMPDEST PUSH1 0x0 PUSH32 0x30644E72E131A029B85045B68181585D97816A916871CA8D3C208C16D87CFD47 DUP4 PUSH1 0x20 ADD MLOAD DUP2 PUSH2 0x37C9 JUMPI PUSH2 0x37C9 PUSH2 0x40EC JUMP JUMPDEST PUSH1 0x40 DUP1 MLOAD DUP1 DUP3 ADD SWAP1 SWAP2 MSTORE SWAP5 MLOAD DUP6 MSTORE MOD PUSH32 0x30644E72E131A029B85045B68181585D97816A916871CA8D3C208C16D87CFD47 SUB PUSH1 0x20 DUP5 ADD MSTORE POP SWAP1 SWAP2 SWAP1 POP JUMP JUMPDEST PUSH1 0x40 DUP1 MLOAD PUSH1 0x4 DUP1 DUP3 MSTORE PUSH1 0xA0 DUP3 ADD SWAP1 SWAP3 MSTORE PUSH1 0x0 SWAP2 DUP3 SWAP2 SWAP1 DUP2 PUSH1 0x20 ADD JUMPDEST PUSH1 0x40 DUP1 MLOAD DUP1 DUP3 ADD SWAP1 SWAP2 MSTORE PUSH1 0x0 DUP1 DUP3 MSTORE PUSH1 0x20 DUP3 ADD MSTORE DUP2 MSTORE PUSH1 0x20 ADD SWAP1 PUSH1 0x1 SWAP1 SUB SWAP1 DUP2 PUSH2 0x3821 JUMPI POP POP PUSH1 0x40 DUP1 MLOAD PUSH1 0x4 DUP1 DUP3 MSTORE PUSH1 0xA0 DUP3 ADD SWAP1 SWAP3 MSTORE SWAP2 SWAP3 POP PUSH1 0x0 SWAP2 SWAP1 PUSH1 0x20 DUP3 ADD JUMPDEST PUSH2 0x386B PUSH2 0x3EE9 JUMP JUMPDEST DUP2 MSTORE PUSH1 0x20 ADD SWAP1 PUSH1 0x1 SWAP1 SUB SWAP1 DUP2 PUSH2 0x3863 JUMPI SWAP1 POP POP SWAP1 POP DUP11 DUP3 PUSH1 0x0 DUP2 MLOAD DUP2 LT PUSH2 0x3894 JUMPI PUSH2 0x3894 PUSH2 0x40BD JUMP JUMPDEST PUSH1 0x20 MUL PUSH1 0x20 ADD ADD DUP2 SWAP1 MSTORE POP DUP9 DUP3 PUSH1 0x1 DUP2 MLOAD DUP2 LT PUSH2 0x38B3 JUMPI PUSH2 0x38B3 PUSH2 0x40BD JUMP JUMPDEST PUSH1 0x20 MUL PUSH1 0x20 ADD ADD DUP2 SWAP1 MSTORE POP DUP7 DUP3 PUSH1 0x2 DUP2 MLOAD DUP2 LT PUSH2 0x38D2 JUMPI PUSH2 0x38D2 PUSH2 0x40BD JUMP JUMPDEST PUSH1 0x20 MUL PUSH1 0x20 ADD ADD DUP2 SWAP1 MSTORE POP DUP5 DUP3 PUSH1 0x3 DUP2 MLOAD DUP2 LT PUSH2 0x38F1 JUMPI PUSH2 0x38F1 PUSH2 0x40BD JUMP JUMPDEST PUSH1 0x20 MUL PUSH1 0x20 ADD ADD DUP2 SWAP1 MSTORE POP DUP10 DUP2 PUSH1 0x0 DUP2 MLOAD DUP2 LT PUSH2 0x3910 JUMPI PUSH2 0x3910 PUSH2 0x40BD JUMP JUMPDEST PUSH1 0x20 MUL PUSH1 0x20 ADD ADD DUP2 SWAP1 MSTORE POP DUP8 DUP2 PUSH1 0x1 DUP2 MLOAD DUP2 LT PUSH2 0x392F JUMPI PUSH2 0x392F PUSH2 0x40BD JUMP JUMPDEST PUSH1 0x20 MUL PUSH1 0x20 ADD ADD DUP2 SWAP1 MSTORE POP DUP6 DUP2 PUSH1 0x2 DUP2 MLOAD DUP2 LT PUSH2 0x394E JUMPI PUSH2 0x394E PUSH2 0x40BD JUMP JUMPDEST PUSH1 0x20 MUL PUSH1 0x20 ADD ADD DUP2 SWAP1 MSTORE POP DUP4 DUP2 PUSH1 0x3 DUP2 MLOAD DUP2 LT PUSH2 0x396D JUMPI PUSH2 0x396D PUSH2 0x40BD JUMP JUMPDEST PUSH1 0x20 MUL PUSH1 0x20 ADD ADD DUP2 SWAP1 MSTORE POP PUSH2 0x3982 DUP3 DUP3 PUSH2 0x39A6 JUMP JUMPDEST SWAP12 SWAP11 POP POP POP POP POP POP POP POP POP POP POP JUMP JUMPDEST PUSH1 0x60 PUSH2 0x399F DUP4 DUP4 PUSH1 0x0 PUSH2 0x3C77 JUMP JUMPDEST SWAP4 SWAP3 POP POP POP JUMP JUMPDEST DUP2 MLOAD DUP2 MLOAD PUSH1 0x0 SWAP2 SWAP1 DUP2 EQ PUSH2 0x39E6 JUMPI PUSH1 0x40 MLOAD PUSH32 0x8A8B6D4E00000000000000000000000000000000000000000000000000000000 DUP2 MSTORE PUSH1 0x4 ADD PUSH1 0x40 MLOAD DUP1 SWAP2 SUB SWAP1 REVERT JUMPDEST PUSH1 0x0 PUSH2 0x39F3 DUP3 PUSH1 0x6 PUSH2 0x41CA JUMP JUMPDEST SWAP1 POP PUSH1 0x0 DUP2 PUSH8 0xFFFFFFFFFFFFFFFF DUP2 GT ISZERO PUSH2 0x3A10 JUMPI PUSH2 0x3A10 PUSH2 0x408E JUMP JUMPDEST PUSH1 0x40 MLOAD SWAP1 DUP1 DUP3 MSTORE DUP1 PUSH1 0x20 MUL PUSH1 0x20 ADD DUP3 ADD PUSH1 0x40 MSTORE DUP1 ISZERO PUSH2 0x3A39 JUMPI DUP2 PUSH1 0x20 ADD PUSH1 0x20 DUP3 MUL DUP1 CALLDATASIZE DUP4 CALLDATACOPY ADD SWAP1 POP JUMPDEST POP SWAP1 POP PUSH1 0x0 JUMPDEST DUP4 DUP2 LT ISZERO PUSH2 0x3C12 JUMPI DUP7 DUP2 DUP2 MLOAD DUP2 LT PUSH2 0x3A59 JUMPI PUSH2 0x3A59 PUSH2 0x40BD JUMP JUMPDEST PUSH1 0x20 MUL PUSH1 0x20 ADD ADD MLOAD PUSH1 0x0 ADD MLOAD DUP3 DUP3 PUSH1 0x6 MUL PUSH1 0x0 ADD DUP2 MLOAD DUP2 LT PUSH2 0x3A7D JUMPI PUSH2 0x3A7D PUSH2 0x40BD JUMP JUMPDEST PUSH1 0x20 MUL PUSH1 0x20 ADD ADD DUP2 DUP2 MSTORE POP POP DUP7 DUP2 DUP2 MLOAD DUP2 LT PUSH2 0x3A9B JUMPI PUSH2 0x3A9B PUSH2 0x40BD JUMP JUMPDEST PUSH1 0x20 MUL PUSH1 0x20 ADD ADD MLOAD PUSH1 0x20 ADD MLOAD DUP3 DUP3 PUSH1 0x6 MUL PUSH1 0x1 ADD DUP2 MLOAD DUP2 LT PUSH2 0x3ABF JUMPI PUSH2 0x3ABF PUSH2 0x40BD JUMP JUMPDEST PUSH1 0x20 MUL PUSH1 0x20 ADD ADD DUP2 DUP2 MSTORE POP POP DUP6 DUP2 DUP2 MLOAD DUP2 LT PUSH2 0x3ADD JUMPI PUSH2 0x3ADD PUSH2 0x40BD JUMP JUMPDEST PUSH1 0x20 SWAP1 DUP2 MUL SWAP2 SWAP1 SWAP2 ADD ADD MLOAD MLOAD MLOAD DUP3 MLOAD DUP4 SWAP1 PUSH1 0x2 PUSH1 0x6 DUP6 MUL ADD SWAP1 DUP2 LT PUSH2 0x3B04 JUMPI PUSH2 0x3B04 PUSH2 0x40BD JUMP JUMPDEST PUSH1 0x20 MUL PUSH1 0x20 ADD ADD DUP2 DUP2 MSTORE POP POP DUP6 DUP2 DUP2 MLOAD DUP2 LT PUSH2 0x3B22 JUMPI PUSH2 0x3B22 PUSH2 0x40BD JUMP JUMPDEST PUSH1 0x20 SWAP1 DUP2 MUL SWAP2 SWAP1 SWAP2 ADD ADD MLOAD MLOAD PUSH1 0x1 PUSH1 0x20 MUL ADD MLOAD DUP3 DUP3 PUSH1 0x6 MUL PUSH1 0x3 ADD DUP2 MLOAD DUP2 LT PUSH2 0x3B4D JUMPI PUSH2 0x3B4D PUSH2 0x40BD JUMP JUMPDEST PUSH1 0x20 MUL PUSH1 0x20 ADD ADD DUP2 DUP2 MSTORE POP POP DUP6 DUP2 DUP2 MLOAD DUP2 LT PUSH2 0x3B6B JUMPI PUSH2 0x3B6B PUSH2 0x40BD JUMP JUMPDEST PUSH1 0x20 MUL PUSH1 0x20 ADD ADD MLOAD PUSH1 0x20 ADD MLOAD PUSH1 0x0 PUSH1 0x2 DUP2 LT PUSH2 0x3B89 JUMPI PUSH2 0x3B89 PUSH2 0x40BD JUMP JUMPDEST PUSH1 0x20 MUL ADD MLOAD DUP3 DUP3 PUSH1 0x6 MUL PUSH1 0x4 ADD DUP2 MLOAD DUP2 LT PUSH2 0x3BA6 JUMPI PUSH2 0x3BA6 PUSH2 0x40BD JUMP JUMPDEST PUSH1 0x20 MUL PUSH1 0x20 ADD ADD DUP2 DUP2 MSTORE POP POP DUP6 DUP2 DUP2 MLOAD DUP2 LT PUSH2 0x3BC4 JUMPI PUSH2 0x3BC4 PUSH2 0x40BD JUMP JUMPDEST PUSH1 0x20 MUL PUSH1 0x20 ADD ADD MLOAD PUSH1 0x20 ADD MLOAD PUSH1 0x1 PUSH1 0x2 DUP2 LT PUSH2 0x3BE2 JUMPI PUSH2 0x3BE2 PUSH2 0x40BD JUMP JUMPDEST PUSH1 0x20 MUL ADD MLOAD DUP3 DUP3 PUSH1 0x6 MUL PUSH1 0x5 ADD DUP2 MLOAD DUP2 LT PUSH2 0x3BFF JUMPI PUSH2 0x3BFF PUSH2 0x40BD JUMP JUMPDEST PUSH1 0x20 SWAP1 DUP2 MUL SWAP2 SWAP1 SWAP2 ADD ADD MSTORE PUSH1 0x1 ADD PUSH2 0x3A3F JUMP JUMPDEST POP PUSH2 0x3C1B PUSH2 0x3F09 JUMP JUMPDEST PUSH1 0x0 PUSH1 0x20 DUP3 PUSH1 0x20 DUP7 MUL PUSH1 0x20 DUP7 ADD PUSH1 0x8 PUSH2 0x7D0 GAS SUB STATICCALL SWAP1 POP DUP1 PUSH2 0x3C69 JUMPI PUSH1 0x40 MLOAD PUSH32 0x7D523A3100000000000000000000000000000000000000000000000000000000 DUP2 MSTORE PUSH1 0x4 ADD PUSH1 0x40 MLOAD DUP1 SWAP2 SUB SWAP1 REVERT JUMPDEST POP MLOAD ISZERO ISZERO SWAP7 SWAP6 POP POP POP POP POP POP JUMP JUMPDEST PUSH1 0x60 DUP2 SELFBALANCE LT ISZERO PUSH2 0x3CB5 JUMPI PUSH1 0x40 MLOAD PUSH32 0xCD78605900000000000000000000000000000000000000000000000000000000 DUP2 MSTORE ADDRESS PUSH1 0x4 DUP3 ADD MSTORE PUSH1 0x24 ADD PUSH2 0x687 JUMP JUMPDEST PUSH1 0x0 DUP1 DUP6 PUSH20 0xFFFFFFFFFFFFFFFFFFFFFFFFFFFFFFFFFFFFFFFF AND DUP5 DUP7 PUSH1 0x40 MLOAD PUSH2 0x3CDE SWAP2 SWAP1 PUSH2 0x43F7 JUMP JUMPDEST PUSH1 0x0 PUSH1 0x40 MLOAD DUP1 DUP4 SUB DUP2 DUP6 DUP8 GAS CALL SWAP3 POP POP POP RETURNDATASIZE DUP1 PUSH1 0x0 DUP2 EQ PUSH2 0x3D1B JUMPI PUSH1 0x40 MLOAD SWAP2 POP PUSH1 0x1F NOT PUSH1 0x3F RETURNDATASIZE ADD AND DUP3 ADD PUSH1 0x40 MSTORE RETURNDATASIZE DUP3 MSTORE RETURNDATASIZE PUSH1 0x0 PUSH1 0x20 DUP5 ADD RETURNDATACOPY PUSH2 0x3D20 JUMP JUMPDEST PUSH1 0x60 SWAP2 POP JUMPDEST POP SWAP2 POP SWAP2 POP PUSH2 0x3D30 DUP7 DUP4 DUP4 PUSH2 0x3D3A JUMP JUMPDEST SWAP7 SWAP6 POP POP POP POP POP POP JUMP JUMPDEST PUSH1 0x60 DUP3 PUSH2 0x3D4F JUMPI PUSH2 0x3D4A DUP3 PUSH2 0x3DC9 JUMP JUMPDEST PUSH2 0x399F JUMP JUMPDEST DUP2 MLOAD ISZERO DUP1 ISZERO PUSH2 0x3D73 JUMPI POP PUSH20 0xFFFFFFFFFFFFFFFFFFFFFFFFFFFFFFFFFFFFFFFF DUP5 AND EXTCODESIZE ISZERO JUMPDEST ISZERO PUSH2 0x3DC2 JUMPI PUSH1 0x40 MLOAD PUSH32 0x9996B31500000000000000000000000000000000000000000000000000000000 DUP2 MSTORE PUSH20 0xFFFFFFFFFFFFFFFFFFFFFFFFFFFFFFFFFFFFFFFF DUP6 AND PUSH1 0x4 DUP3 ADD MSTORE PUSH1 0x24 ADD PUSH2 0x687 JUMP JUMPDEST POP DUP1 PUSH2 0x399F JUMP JUMPDEST DUP1 MLOAD ISZERO PUSH2 0x3DD9 JUMPI DUP1 MLOAD DUP1 DUP3 PUSH1 0x20 ADD REVERT JUMPDEST PUSH1 0x40 MLOAD PUSH32 0x1425EA4200000000000000000000000000000000000000000000000000000000 DUP2 MSTORE PUSH1 0x4 ADD PUSH1 0x40 MLOAD DUP1 SWAP2 SUB SWAP1 REVERT JUMPDEST PUSH1 0x40 DUP1 MLOAD PUSH1 0xA0 DUP2 ADD SWAP1 SWAP2 MSTORE PUSH1 0x0 PUSH1 0x60 DUP3 ADD DUP2 DUP2 MSTORE PUSH1 0x80 DUP4 ADD SWAP2 SWAP1 SWAP2 MSTORE DUP2 MSTORE PUSH1 0x20 DUP2 ADD PUSH2 0x3E35 PUSH2 0x3EE9 JUMP JUMPDEST DUP2 MSTORE PUSH1 0x20 ADD PUSH2 0x3E57 PUSH1 0x40 MLOAD DUP1 PUSH1 0x40 ADD PUSH1 0x40 MSTORE DUP1 PUSH1 0x0 DUP2 MSTORE PUSH1 0x20 ADD PUSH1 0x0 DUP2 MSTORE POP SWAP1 JUMP JUMPDEST SWAP1 MSTORE SWAP1 JUMP JUMPDEST PUSH1 0x40 DUP1 MLOAD PUSH1 0xE0 DUP2 ADD SWAP1 SWAP2 MSTORE PUSH1 0x0 PUSH1 0xA0 DUP3 ADD DUP2 DUP2 MSTORE PUSH1 0xC0 DUP4 ADD SWAP2 SWAP1 SWAP2 MSTORE DUP2 MSTORE PUSH1 0x20 DUP2 ADD PUSH2 0x3E86 PUSH2 0x3EE9 JUMP JUMPDEST DUP2 MSTORE PUSH1 0x20 ADD PUSH2 0x3E93 PUSH2 0x3EE9 JUMP JUMPDEST DUP2 MSTORE PUSH1 0x20 ADD PUSH2 0x3EA0 PUSH2 0x3EE9 JUMP JUMPDEST DUP2 MSTORE PUSH1 0x20 ADD PUSH1 0x60 DUP2 MSTORE POP SWAP1 JUMP JUMPDEST PUSH1 0x40 MLOAD DUP1 PUSH1 0x60 ADD PUSH1 0x40 MSTORE DUP1 PUSH1 0x3 SWAP1 PUSH1 0x20 DUP3 MUL DUP1 CALLDATASIZE DUP4 CALLDATACOPY POP SWAP2 SWAP3 SWAP2 POP POP JUMP JUMPDEST PUSH1 0x40 MLOAD DUP1 PUSH1 0x80 ADD PUSH1 0x40 MSTORE DUP1 PUSH1 0x4 SWAP1 PUSH1 0x20 DUP3 MUL DUP1 CALLDATASIZE DUP4 CALLDATACOPY POP SWAP2 SWAP3 SWAP2 POP POP JUMP JUMPDEST PUSH1 0x40 MLOAD DUP1 PUSH1 0x40 ADD PUSH1 0x40 MSTORE DUP1 PUSH2 0x3EFC PUSH2 0x3F27 JUMP JUMPDEST DUP2 MSTORE PUSH1 0x20 ADD PUSH2 0x3E57 PUSH2 0x3F27 JUMP JUMPDEST PUSH1 0x40 MLOAD DUP1 PUSH1 0x20 ADD PUSH1 0x40 MSTORE DUP1 PUSH1 0x1 SWAP1 PUSH1 0x20 DUP3 MUL DUP1 CALLDATASIZE DUP4 CALLDATACOPY POP SWAP2 SWAP3 SWAP2 POP POP JUMP JUMPDEST PUSH1 0x40 MLOAD DUP1 PUSH1 0x40 ADD PUSH1 0x40 MSTORE DUP1 PUSH1 0x2 SWAP1 PUSH1 0x20 DUP3 MUL DUP1 CALLDATASIZE DUP4 CALLDATACOPY POP SWAP2 SWAP3 SWAP2 POP POP JUMP JUMPDEST PUSH1 0x0 PUSH1 0x20 DUP3 DUP5 SUB SLT ISZERO PUSH2 0x3F57 JUMPI PUSH1 0x0 DUP1 REVERT JUMPDEST POP CALLDATALOAD SWAP2 SWAP1 POP JUMP JUMPDEST PUSH1 0x0 DUP1 PUSH1 0x20 DUP4 DUP6 SUB SLT ISZERO PUSH2 0x3F71 JUMPI PUSH1 0x0 DUP1 REVERT JUMPDEST DUP3 CALLDATALOAD PUSH8 0xFFFFFFFFFFFFFFFF DUP1 DUP3 GT ISZERO PUSH2 0x3F89 JUMPI PUSH1 0x0 DUP1 REVERT JUMPDEST DUP2 DUP6 ADD SWAP2 POP DUP6 PUSH1 0x1F DUP4 ADD SLT PUSH2 0x3F9D JUMPI PUSH1 0x0 DUP1 REVERT JUMPDEST DUP2 CALLDATALOAD DUP2 DUP2 GT ISZERO PUSH2 0x3FAC JUMPI PUSH1 0x0 DUP1 REVERT JUMPDEST DUP7 PUSH1 0x20 DUP3 PUSH1 0x5 SHL DUP6 ADD ADD GT ISZERO PUSH2 0x3FC1 JUMPI PUSH1 0x0 DUP1 REVERT JUMPDEST PUSH1 0x20 SWAP3 SWAP1 SWAP3 ADD SWAP7 SWAP2 SWAP6 POP SWAP1 SWAP4 POP POP POP POP JUMP JUMPDEST PUSH1 0x20 DUP1 DUP3 MSTORE DUP3 MLOAD DUP3 DUP3 ADD DUP2 SWAP1 MSTORE PUSH1 0x0 SWAP2 SWAP1 DUP5 DUP3 ADD SWAP1 PUSH1 0x40 DUP6 ADD SWAP1 DUP5 JUMPDEST DUP2 DUP2 LT ISZERO PUSH2 0x400B JUMPI DUP4 MLOAD DUP4 MSTORE SWAP3 DUP5 ADD SWAP3 SWAP2 DUP5 ADD SWAP2 PUSH1 0x1 ADD PUSH2 0x3FEF JUMP JUMPDEST POP SWAP1 SWAP7 SWAP6 POP POP POP POP POP POP JUMP JUMPDEST PUSH1 0x0 PUSH1 0x20 DUP3 DUP5 SUB SLT ISZERO PUSH2 0x4029 JUMPI PUSH1 0x0 DUP1 REVERT JUMPDEST DUP2 CALLDATALOAD PUSH8 0xFFFFFFFFFFFFFFFF DUP2 GT ISZERO PUSH2 0x4040 JUMPI PUSH1 0x0 DUP1 REVERT JUMPDEST DUP3 ADD PUSH2 0x260 DUP2 DUP6 SUB SLT ISZERO PUSH2 0x399F JUMPI PUSH1 0x0 DUP1 REVERT JUMPDEST PUSH1 0x0 PUSH1 0x20 DUP3 DUP5 SUB SLT ISZERO PUSH2 0x4065 JUMPI PUSH1 0x0 DUP1 REVERT JUMPDEST DUP2 CALLDATALOAD PUSH8 0xFFFFFFFFFFFFFFFF DUP2 GT ISZERO PUSH2 0x407C JUMPI PUSH1 0x0 DUP1 REVERT JUMPDEST DUP3 ADD PUSH1 0x40 DUP2 DUP6 SUB SLT ISZERO PUSH2 0x399F JUMPI PUSH1 0x0 DUP1 REVERT JUMPDEST PUSH32 0x4E487B7100000000000000000000000000000000000000000000000000000000 PUSH1 0x0 MSTORE PUSH1 0x41 PUSH1 0x4 MSTORE PUSH1 0x24 PUSH1 0x0 REVERT JUMPDEST PUSH32 0x4E487B7100000000000000000000000000000000000000000000000000000000 PUSH1 0x0 MSTORE PUSH1 0x32 PUSH1 0x4 MSTORE PUSH1 0x24 PUSH1 0x0 REVERT JUMPDEST PUSH32 0x4E487B7100000000000000000000000000000000000000000000000000000000 PUSH1 0x0 MSTORE PUSH1 0x12 PUSH1 0x4 MSTORE PUSH1 0x24 PUSH1 0x0 REVERT JUMPDEST PUSH1 0x0 DUP3 PUSH2 0x4151 JUMPI PUSH32 0x4E487B7100000000000000000000000000000000000000000000000000000000 PUSH1 0x0 MSTORE PUSH1 0x12 PUSH1 0x4 MSTORE PUSH1 0x24 PUSH1 0x0 REVERT JUMPDEST POP MOD SWAP1 JUMP JUMPDEST PUSH1 0x0 DUP3 CALLDATALOAD PUSH32 0xFFFFFFFFFFFFFFFFFFFFFFFFFFFFFFFFFFFFFFFFFFFFFFFFFFFFFFFFFFFFFDA1 DUP4 CALLDATASIZE SUB ADD DUP2 SLT PUSH2 0x418A JUMPI PUSH1 0x0 DUP1 REVERT JUMPDEST SWAP2 SWAP1 SWAP2 ADD SWAP3 SWAP2 POP POP JUMP JUMPDEST PUSH1 0x0 PUSH1 0x20 DUP3 DUP5 SUB SLT ISZERO PUSH2 0x41A6 JUMPI PUSH1 0x0 DUP1 REVERT JUMPDEST DUP2 CALLDATALOAD PUSH20 0xFFFFFFFFFFFFFFFFFFFFFFFFFFFFFFFFFFFFFFFF DUP2 AND DUP2 EQ PUSH2 0x399F JUMPI PUSH1 0x0 DUP1 REVERT JUMPDEST DUP1 DUP3 MUL DUP2 ISZERO DUP3 DUP3 DIV DUP5 EQ OR PUSH2 0x469 JUMPI PUSH32 0x4E487B7100000000000000000000000000000000000000000000000000000000 PUSH1 0x0 MSTORE PUSH1 0x11 PUSH1 0x4 MSTORE PUSH1 0x24 PUSH1 0x0 REVERT JUMPDEST PUSH1 0x40 DUP2 ADD DUP2 DUP4 PUSH1 0x0 JUMPDEST PUSH1 0x2 DUP2 LT ISZERO PUSH2 0x4230 JUMPI DUP2 MLOAD DUP4 MSTORE PUSH1 0x20 SWAP3 DUP4 ADD SWAP3 SWAP1 SWAP2 ADD SWAP1 PUSH1 0x1 ADD PUSH2 0x4211 JUMP JUMPDEST POP POP POP SWAP3 SWAP2 POP POP JUMP JUMPDEST PUSH1 0x0 PUSH1 0x20 DUP3 DUP5 SUB SLT ISZERO PUSH2 0x424B JUMPI PUSH1 0x0 DUP1 REVERT JUMPDEST POP MLOAD SWAP2 SWAP1 POP JUMP JUMPDEST PUSH1 0x0 PUSH1 0x20 DUP3 DUP5 SUB SLT ISZERO PUSH2 0x4264 JUMPI PUSH1 0x0 DUP1 REVERT JUMPDEST DUP2 CALLDATALOAD PUSH1 0x2 DUP2 LT PUSH2 0x399F JUMPI PUSH1 0x0 DUP1 REVERT JUMPDEST PUSH1 0x0 PUSH1 0x20 DUP3 DUP5 SUB SLT ISZERO PUSH2 0x4285 JUMPI PUSH1 0x0 DUP1 REVERT JUMPDEST DUP2 CALLDATALOAD PUSH3 0xFFFFFF DUP2 AND DUP2 EQ PUSH2 0x399F JUMPI PUSH1 0x0 DUP1 REVERT JUMPDEST PUSH1 0x0 DUP1 DUP4 CALLDATALOAD PUSH32 0xFFFFFFFFFFFFFFFFFFFFFFFFFFFFFFFFFFFFFFFFFFFFFFFFFFFFFFFFFFFFFFE1 DUP5 CALLDATASIZE SUB ADD DUP2 SLT PUSH2 0x42CD JUMPI PUSH1 0x0 DUP1 REVERT JUMPDEST DUP4 ADD DUP1 CALLDATALOAD SWAP2 POP PUSH8 0xFFFFFFFFFFFFFFFF DUP3 GT ISZERO PUSH2 0x42E8 JUMPI PUSH1 0x0 DUP1 REVERT JUMPDEST PUSH1 0x20 ADD SWAP2 POP CALLDATASIZE DUP2 SWAP1 SUB DUP3 SGT ISZERO PUSH2 0x42FD JUMPI PUSH1 0x0 DUP1 REVERT JUMPDEST SWAP3 POP SWAP3 SWAP1 POP JUMP JUMPDEST DUP2 DUP2 DUP5 CALLDATACOPY POP PUSH1 0x0 SWAP2 ADD SWAP1 DUP2 MSTORE SWAP1 JUMP JUMPDEST PUSH1 0x0 PUSH32 0xFFFFFFFFFFFFFFFFFFFFFFFFFFFFFFFFFFFFFFFF000000000000000000000000 DUP1 DUP13 PUSH1 0x60 SHL AND DUP4 MSTORE DUP11 PUSH1 0x14 DUP5 ADD MSTORE DUP1 DUP11 PUSH1 0x60 SHL AND PUSH1 0x34 DUP5 ADD MSTORE POP DUP8 PUSH1 0x48 DUP4 ADD MSTORE DUP7 PUSH1 0x68 DUP4 ADD MSTORE PUSH1 0x2 DUP7 LT PUSH2 0x4393 JUMPI PUSH32 0x4E487B7100000000000000000000000000000000000000000000000000000000 PUSH1 0x0 MSTORE PUSH1 0x21 PUSH1 0x4 MSTORE PUSH1 0x24 PUSH1 0x0 REVERT JUMPDEST DUP6 PUSH1 0xF8 SHL PUSH1 0x88 DUP4 ADD MSTORE PUSH32 0xFFFFFF0000000000000000000000000000000000000000000000000000000000 DUP6 PUSH1 0xE8 SHL AND PUSH1 0x89 DUP4 ADD MSTORE PUSH2 0x3982 PUSH1 0x8C DUP4 ADD DUP5 DUP7 PUSH2 0x4304 JUMP JUMPDEST PUSH1 0x0 PUSH1 0x20 DUP3 DUP5 SUB SLT ISZERO PUSH2 0x43E7 JUMPI PUSH1 0x0 DUP1 REVERT JUMPDEST DUP2 MLOAD DUP1 ISZERO ISZERO DUP2 EQ PUSH2 0x399F JUMPI PUSH1 0x0 DUP1 REVERT JUMPDEST PUSH1 0x0 DUP3 MLOAD PUSH1 0x0 JUMPDEST DUP2 DUP2 LT ISZERO PUSH2 0x4418 JUMPI PUSH1 0x20 DUP2 DUP7 ADD DUP2 ADD MLOAD DUP6 DUP4 ADD MSTORE ADD PUSH2 0x43FE JUMP JUMPDEST POP PUSH1 0x0 SWAP3 ADD SWAP2 DUP3 MSTORE POP SWAP2 SWAP1 POP JUMP INVALID LOG2 PUSH5 0x6970667358 0x22 SLT KECCAK256 0xC CALLVALUE SWAP16 0x1E DUP9 PREVRANDAO SELFBALANCE BLOBHASH SUB PUSH14 0x54151F3D7165CFD291014F489D49 CREATE2 0xB6 EXP POP GT RETURNDATASIZE SWAP1 REVERT PUSH5 0x736F6C6343 STOP ADDMOD XOR STOP CALLER LOG2 PUSH5 0x6970667358 0x22 SLT KECCAK256 0xA9 DUP7 0xAF EXTCODECOPY 0xC 0xC 0x2E 0xA8 BLOBHASH MOD 0xC2 SWAP1 0xBF DUP11 SHL 0x25 DUP16 MSTORE SIGNEXTEND SWAP10 SWAP8 SWAP1 0xC4 0xCE 0xC4 PUSH11 0x645D4051019A64736F6C63 NUMBER STOP ADDMOD XOR STOP CALLER "},"methodIdentifiers":{"MAX_TREE_LIMIT()":"2eaa0edd","NATIVE()":"a0cf0aea","createPool(address,uint256)":"12d36171","poolGroupByInput(address,uint256)":"3bae2f0f","poolGroupLength(address,uint256)":"ec199466","poolGroups(address,uint256,uint256)":"3d6dfaf4","poseidon()":"c62b919e"}}}}}