{"contracts/test/TestMerkleTree.sol":{"TestMerkleTree":{"abi":[{"inputs":[{"internalType":"address","name":"poseidon","type":"address"}],"stateMutability":"nonpayable","type":"constructor"},{"inputs":[],"name":"IndexOutOfRange","type":"error"},{"inputs":[],"name":"MerkleTreeCapacity","type":"error"},{"inputs":[],"name":"UnknownRoot","type":"error"},{"inputs":[],"name":"LEVELS","outputs":[{"internalType":"uint256","name":"","type":"uint256"}],"stateMutability":"view","type":"function"},{"inputs":[],"name":"ROOTS_CAPACITY","outputs":[{"internalType":"uint256","name":"","type":"uint256"}],"stateMutability":"view","type":"function"},{"inputs":[],"name":"currentLeafIndex","outputs":[{"internalType":"uint256","name":"","type":"uint256"}],"stateMutability":"view","type":"function"},{"inputs":[],"name":"currentRootIndex","outputs":[{"internalType":"uint256","name":"","type":"uint256"}],"stateMutability":"view","type":"function"},{"inputs":[{"internalType":"uint256","name":"","type":"uint256"}],"name":"filledSubtrees","outputs":[{"internalType":"uint256","name":"","type":"uint256"}],"stateMutability":"view","type":"function"},{"inputs":[],"name":"getLatestRoot","outputs":[{"internalType":"uint256","name":"","type":"uint256"}],"stateMutability":"view","type":"function"},{"inputs":[],"name":"hasher","outputs":[{"internalType":"contract IPoseidon","name":"","type":"address"}],"stateMutability":"view","type":"function"},{"inputs":[{"internalType":"uint256","name":"root","type":"uint256"}],"name":"isKnownRoot","outputs":[{"internalType":"bool","name":"","type":"bool"}],"stateMutability":"view","type":"function"},{"inputs":[{"internalType":"uint256","name":"","type":"uint256"}],"name":"roots","outputs":[{"internalType":"uint256","name":"","type":"uint256"}],"stateMutability":"view","type":"function"},{"inputs":[{"internalType":"uint256","name":"leaf","type":"uint256"}],"name":"testInsert","outputs":[{"internalType":"uint256","name":"","type":"uint256"}],"stateMutability":"nonpayable","type":"function"},{"inputs":[{"internalType":"uint256","name":"leaf","type":"uint256"}],"name":"testInsertLoop","outputs":[{"internalType":"uint256","name":"","type":"uint256"}],"stateMutability":"nonpayable","type":"function"},{"inputs":[{"internalType":"uint256","name":"leaf","type":"uint256"}],"name":"testInsertMod","outputs":[{"internalType":"uint256","name":"","type":"uint256"}],"stateMutability":"nonpayable","type":"function"},{"inputs":[{"internalType":"uint256","name":"leaf","type":"uint256"}],"name":"testInsertStorage","outputs":[{"internalType":"uint256","name":"","type":"uint256"}],"stateMutability":"nonpayable","type":"function"},{"inputs":[{"internalType":"uint256","name":"oldLeaf","type":"uint256"},{"internalType":"uint256","name":"newLeaf","type":"uint256"},{"internalType":"uint256","name":"oldIndex","type":"uint256"},{"internalType":"uint256[]","name":"siblings","type":"uint256[]"}],"name":"testUpdate","outputs":[],"stateMutability":"nonpayable","type":"function"},{"inputs":[{"internalType":"uint256","name":"","type":"uint256"}],"name":"z","outputs":[{"internalType":"uint256","name":"","type":"uint256"}],"stateMutability":"view","type":"function"}],"evm":{"bytecode":{"linkReferences":{},"object":"60806040523480156200001157600080fd5b5060405162004826380380620048268339810160408190526200003491620004b1565b600080546001600160a01b0319166001600160a01b0383161781555b60148110156200007d576200006581620000bc565b60008281526005602052604090205560010162000050565b506200008a6014620000bc565b6000805260046020527f17ef568e3e12ab5b9c7254a8d58478811de00f9e6eb34345acd53bf8fd09d3ec5550620004e3565b600081600003620000ee57507f0133a292295d50240eb5edfcaa95731512ccdaf79758573a1f627dc47adbde7e919050565b816001036200011e57507f0ba2d612822ad57fd2285564f4bad51f685240488003085993bf5ee8e63c31cb919050565b816002036200014e57507f27b302c974bf7444cb94f3eeae53d5cb897748679c94958c692567ed97e96c3c919050565b816003036200017e57507f1c573635007d49a2e0e4e525a32ca29c3049377182bbb01efeddbcdfe513f82b919050565b81600403620001ae57507f2e1bf7a6e73442cdeaec1eb387d34b4a27f6957a2ae407bba844135fca5d8dbc919050565b81600503620001dd57507e09199390bdb47d6917f64668754dbeb426b43513fa7b0807d85794bd60270d919050565b816006036200020d57507f2f7739fa804b1102b2e95582a4cfb3c25d26e1f70133a81e6fed8fedbf7016ef919050565b816007036200023c57507e371f555c474e2f7846b97c7a90dab5fcc55ac0010c271796ad497f66689033919050565b816008036200026c57507f15b36b0debb62e1b11a9e331644a806960a4df8919180dc0745d17c7a912e989919050565b816009036200029c57507f0fab3738a9ec3b9c6eaa98bf46972ed3cbbae7982f0e69b3c7e9053adf32290d919050565b81600a03620002cc57507f16824b083a3f105f6671a504c2379de67cc5154c5b557294e35d27d1d3531225919050565b81600b03620002fc57507f297ecae656a0fe904fe84f8db691c7156a51dd5e228873cf75ced697dd8e5c19919050565b81600c036200032c57507f067c35b9ac5cdc355c6f9eaef4721e6d622a4fd32d74d7be3f78b17e5d8597ea919050565b81600d036200035c57507f2c2633f1ae47ae42e0ce8eadec89c64d44a1fa98f1ee85ad4bf536594af4e27f919050565b81600e036200038c57507f2d9c6e7eca6e7ba2b8335ae16998576602fe7910fb5ef41ce94d00b1332cf624919050565b81600f03620003bc57507f239f1418b2b0a70f468d0903cc46524d8f7efbdb2dfa561494ca5bffcc787700919050565b81601003620003ec57507f0b15e263911ee4d77b6a394b70dc93ad3df6dfdf6a3f7605f9cafb6968d8f1f6919050565b816011036200041c57507f2c069c957125a3e2cb4e16ca506d5f4f387d11d1aea33b30a8dd4ca3074f4de6919050565b816012036200044c57507f0be6d282d26c02019fd66e32c8d85154b77253e7c6016b26a991352e0016d580919050565b816013036200047c57507f1e29cfb0c1ad522f22a3b3e23c057cbd3c7ab921e742a8dfcbc66dbde917d5b2919050565b81601403620004ac57507f2fb6e40b303cff95dec23c65cbfc0a74e935784e091b5a6cddc02faa6a7177e2919050565b919050565b600060208284031215620004c457600080fd5b81516001600160a01b0381168114620004dc57600080fd5b9392505050565b61433380620004f36000396000f3fe608060405234801561001057600080fd5b50600436106100f55760003560e01c806379e2332b11610097578063e2adba8c11610066578063e2adba8c146101ef578063ed33639f146101f7578063f178e47c1461023c578063fa58b9f51461025c57600080fd5b806379e2332b1461019057806390eeb02b146101a3578063a6232a93146101ac578063c2b40ae4146101cf57600080fd5b80635445b007116100d35780635445b0071461013e578063656ef8d9146101555780636840fcea14610175578063752367f01461017d57600080fd5b8063323678d3146100fa57806335fc21ed1461010f57806353e5537114610135575b600080fd5b61010d610108366004614137565b61026f565b005b61012261011d3660046141c7565b610628565b6040519081526020015b60405180910390f35b61012260025481565b600154600090815260046020526040902054610122565b6101226101633660046141c7565b60056020526000908152604090205481565b610122601e81565b61012261018b3660046141c7565b612067565b61012261019e3660046141c7565b6121ff565b61012260015481565b6101bf6101ba3660046141c7565b613b4b565b604051901515815260200161012c565b6101226101dd3660046141c7565b60046020526000908152604090205481565b610122601481565b6000546102179073ffffffffffffffffffffffffffffffffffffffff1681565b60405173ffffffffffffffffffffffffffffffffffffffff909116815260200161012c565b61012261024a3660046141c7565b60036020526000908152604090205481565b61012261026a3660046141c7565b613bcf565b6000600160025461028091906141e0565b9050808411156102bc576040517f1390f2a100000000000000000000000000000000000000000000000000000000815260040160405180910390fd5b60005b60148110156105c457600185821c16600003610460576102df8282613d34565b6102e98683613d34565b036103005760008181526003602052604090208690555b6000546040805180820190915288815273ffffffffffffffffffffffffffffffffffffffff909116906329a5f2f690602081018787868181106103455761034561421a565b905060200201358152506040518263ffffffff1660e01b815260040161036b9190614249565b602060405180830381865afa158015610388573d6000803e3d6000fd5b505050506040513d601f19601f820116820180604052508101906103ac919061427a565b6000546040805180820190915288815291985073ffffffffffffffffffffffffffffffffffffffff16906329a5f2f690602081018787868181106103f2576103f261421a565b905060200201358152506040518263ffffffff1660e01b81526004016104189190614249565b602060405180830381865afa158015610435573d6000803e3d6000fd5b505050506040513d601f19601f82011682018060405250810190610459919061427a565b95506105bc565b6000546040805180820190915273ffffffffffffffffffffffffffffffffffffffff909116906329a5f2f6908087878681811061049f5761049f61421a565b9050602002013581526020018a8152506040518263ffffffff1660e01b81526004016104cb9190614249565b602060405180830381865afa1580156104e8573d6000803e3d6000fd5b505050506040513d601f19601f8201168201806040525081019061050c919061427a565b6000546040805180820190915291985073ffffffffffffffffffffffffffffffffffffffff16906329a5f2f6908087878681811061054c5761054c61421a565b905060200201358152602001898152506040518263ffffffff1660e01b81526004016105789190614249565b602060405180830381865afa158015610595573d6000803e3d6000fd5b505050506040513d601f19601f820116820180604052508101906105b9919061427a565b95505b6001016102bf565b50600154600081815260046020526040902054871461060f576040517f8c52011600000000000000000000000000000000000000000000000000000000815260040160405180910390fd5b6000908152600460205260409020949094555050505050565b6002546000907ffffffffffffffffffffffffffffffffffffffffffffffffffffffffffff000008101610687576040517f6defaa3500000000000000000000000000000000000000000000000000000000815260040160405180910390fd5b6000806106956002846142c2565b6000036106f25750506000805260036020527f3617319a054d772f909f7c479a2cebe5066e836a939412e32403c99029b92eff839055827f0133a292295d50240eb5edfcaa95731512ccdaf79758573a1f627dc47adbde7e610721565b50506000805260036020527f3617319a054d772f909f7c479a2cebe5066e836a939412e32403c99029b92eff54835b6000546040805180820182528481526020810184905290517f29a5f2f600000000000000000000000000000000000000000000000000000000815273ffffffffffffffffffffffffffffffffffffffff909216916329a5f2f69161078791600401614249565b602060405180830381865afa1580156107a4573d6000803e3d6000fd5b505050506040513d601f19601f820116820180604052508101906107c8919061427a565b945060019290921c916107dc6002846142c2565b60000361083a575050600160005260036020527fa15bc60c955c405d20d9149c709e2460f1c2d9a497496a7f46004d1772c3054c839055827f0ba2d612822ad57fd2285564f4bad51f685240488003085993bf5ee8e63c31cb61086a565b5050600160005260036020527fa15bc60c955c405d20d9149c709e2460f1c2d9a497496a7f46004d1772c3054c54835b6000546040805180820182528481526020810184905290517f29a5f2f600000000000000000000000000000000000000000000000000000000815273ffffffffffffffffffffffffffffffffffffffff909216916329a5f2f6916108d091600401614249565b602060405180830381865afa1580156108ed573d6000803e3d6000fd5b505050506040513d601f19601f82011682018060405250810190610911919061427a565b945060019290921c916109256002846142c2565b600003610983575050600260005260036020527fc3a24b0501bd2c13a7e57f2db4369ec4c223447539fc0724a9d55ac4a06ebd4d839055827f27b302c974bf7444cb94f3eeae53d5cb897748679c94958c692567ed97e96c3c6109b3565b5050600260005260036020527fc3a24b0501bd2c13a7e57f2db4369ec4c223447539fc0724a9d55ac4a06ebd4d54835b6000546040805180820182528481526020810184905290517f29a5f2f600000000000000000000000000000000000000000000000000000000815273ffffffffffffffffffffffffffffffffffffffff909216916329a5f2f691610a1991600401614249565b602060405180830381865afa158015610a36573d6000803e3d6000fd5b505050506040513d601f19601f82011682018060405250810190610a5a919061427a565b945060019290921c91610a6e6002846142c2565b600003610acc575050600360008190526020527fcbc4e5fb02c3d1de23a9f1e014b4d2ee5aeaea9505df5e855c9210bf472495af839055827f1c573635007d49a2e0e4e525a32ca29c3049377182bbb01efeddbcdfe513f82b610afc565b5050600360008190526020527fcbc4e5fb02c3d1de23a9f1e014b4d2ee5aeaea9505df5e855c9210bf472495af54835b6000546040805180820182528481526020810184905290517f29a5f2f600000000000000000000000000000000000000000000000000000000815273ffffffffffffffffffffffffffffffffffffffff909216916329a5f2f691610b6291600401614249565b602060405180830381865afa158015610b7f573d6000803e3d6000fd5b505050506040513d601f19601f82011682018060405250810190610ba3919061427a565b945060019290921c91610bb76002846142c2565b600003610c15575050600460005260036020527f83ec6a1f0257b830b5e016457c9cf1435391bf56cc98f369a58a54fe93772465839055827f2e1bf7a6e73442cdeaec1eb387d34b4a27f6957a2ae407bba844135fca5d8dbc610c45565b5050600460005260036020527f83ec6a1f0257b830b5e016457c9cf1435391bf56cc98f369a58a54fe9377246554835b6000546040805180820182528481526020810184905290517f29a5f2f600000000000000000000000000000000000000000000000000000000815273ffffffffffffffffffffffffffffffffffffffff909216916329a5f2f691610cab91600401614249565b602060405180830381865afa158015610cc8573d6000803e3d6000fd5b505050506040513d601f19601f82011682018060405250810190610cec919061427a565b945060019290921c91610d006002846142c2565b600003610d5d575050600560005260036020527f405aad32e1adbac89bb7f176e338b8fc6e994ca210c9bb7bdca249b465942250839055827e09199390bdb47d6917f64668754dbeb426b43513fa7b0807d85794bd60270d610d8d565b5050600560005260036020527f405aad32e1adbac89bb7f176e338b8fc6e994ca210c9bb7bdca249b46594225054835b6000546040805180820182528481526020810184905290517f29a5f2f600000000000000000000000000000000000000000000000000000000815273ffffffffffffffffffffffffffffffffffffffff909216916329a5f2f691610df391600401614249565b602060405180830381865afa158015610e10573d6000803e3d6000fd5b505050506040513d601f19601f82011682018060405250810190610e34919061427a565b945060019290921c91610e486002846142c2565b600003610ea6575050600660005260036020527fc69056f16cbaa3c616b828e333ab7d3a32310765507f8f58359e99ebb7a885f3839055827f2f7739fa804b1102b2e95582a4cfb3c25d26e1f70133a81e6fed8fedbf7016ef610ed6565b5050600660005260036020527fc69056f16cbaa3c616b828e333ab7d3a32310765507f8f58359e99ebb7a885f354835b6000546040805180820182528481526020810184905290517f29a5f2f600000000000000000000000000000000000000000000000000000000815273ffffffffffffffffffffffffffffffffffffffff909216916329a5f2f691610f3c91600401614249565b602060405180830381865afa158015610f59573d6000803e3d6000fd5b505050506040513d601f19601f82011682018060405250810190610f7d919061427a565b945060019290921c91610f916002846142c2565b600003610fee575050600760005260036020527ff2c49132ed1cee2a7e75bde50d332a2f81f1d01e5456d8a19d1df09bd561dbd2839055827e371f555c474e2f7846b97c7a90dab5fcc55ac0010c271796ad497f6668903361101e565b5050600760005260036020527ff2c49132ed1cee2a7e75bde50d332a2f81f1d01e5456d8a19d1df09bd561dbd254835b6000546040805180820182528481526020810184905290517f29a5f2f600000000000000000000000000000000000000000000000000000000815273ffffffffffffffffffffffffffffffffffffffff909216916329a5f2f69161108491600401614249565b602060405180830381865afa1580156110a1573d6000803e3d6000fd5b505050506040513d601f19601f820116820180604052508101906110c5919061427a565b945060019290921c916110d96002846142c2565b600003611137575050600860005260036020527f85aaa47b6dc46495bb8824fad4583769726fea36efd831a35556690b830a8fbe839055827f15b36b0debb62e1b11a9e331644a806960a4df8919180dc0745d17c7a912e989611167565b5050600860005260036020527f85aaa47b6dc46495bb8824fad4583769726fea36efd831a35556690b830a8fbe54835b6000546040805180820182528481526020810184905290517f29a5f2f600000000000000000000000000000000000000000000000000000000815273ffffffffffffffffffffffffffffffffffffffff909216916329a5f2f6916111cd91600401614249565b602060405180830381865afa1580156111ea573d6000803e3d6000fd5b505050506040513d601f19601f8201168201806040525081019061120e919061427a565b945060019290921c916112226002846142c2565b600003611280575050600960005260036020527f8a8dc4e5242ea8b1ab1d60606dae757e6c2cca9f92a2cced9f72c19960bcb458839055827f0fab3738a9ec3b9c6eaa98bf46972ed3cbbae7982f0e69b3c7e9053adf32290d6112b0565b5050600960005260036020527f8a8dc4e5242ea8b1ab1d60606dae757e6c2cca9f92a2cced9f72c19960bcb45854835b6000546040805180820182528481526020810184905290517f29a5f2f600000000000000000000000000000000000000000000000000000000815273ffffffffffffffffffffffffffffffffffffffff909216916329a5f2f69161131691600401614249565b602060405180830381865afa158015611333573d6000803e3d6000fd5b505050506040513d601f19601f82011682018060405250810190611357919061427a565b945060019290921c9161136b6002846142c2565b6000036113c9575050600a60005260036020527f9dcb9783ba5cd0b54745f65f4f918525e461e91888c334e5342cb380ac558d53839055827f16824b083a3f105f6671a504c2379de67cc5154c5b557294e35d27d1d35312256113f9565b5050600a60005260036020527f9dcb9783ba5cd0b54745f65f4f918525e461e91888c334e5342cb380ac558d5354835b6000546040805180820182528481526020810184905290517f29a5f2f600000000000000000000000000000000000000000000000000000000815273ffffffffffffffffffffffffffffffffffffffff909216916329a5f2f69161145f91600401614249565b602060405180830381865afa15801561147c573d6000803e3d6000fd5b505050506040513d601f19601f820116820180604052508101906114a0919061427a565b945060019290921c916114b46002846142c2565b600003611512575050600b60005260036020527f2d72af3c1b2b2956e6f694fb741556d5ca9524373974378cdbec16afa8b84164839055827f297ecae656a0fe904fe84f8db691c7156a51dd5e228873cf75ced697dd8e5c19611542565b5050600b60005260036020527f2d72af3c1b2b2956e6f694fb741556d5ca9524373974378cdbec16afa8b8416454835b6000546040805180820182528481526020810184905290517f29a5f2f600000000000000000000000000000000000000000000000000000000815273ffffffffffffffffffffffffffffffffffffffff909216916329a5f2f6916115a891600401614249565b602060405180830381865afa1580156115c5573d6000803e3d6000fd5b505050506040513d601f19601f820116820180604052508101906115e9919061427a565b945060019290921c916115fd6002846142c2565b60000361165b575050600c60005260036020527fd56a60595ebefebed7f22dcee6c2acc61b06cf8c68e84c88677840365d1ff92b839055827f067c35b9ac5cdc355c6f9eaef4721e6d622a4fd32d74d7be3f78b17e5d8597ea61168b565b5050600c60005260036020527fd56a60595ebefebed7f22dcee6c2acc61b06cf8c68e84c88677840365d1ff92b54835b6000546040805180820182528481526020810184905290517f29a5f2f600000000000000000000000000000000000000000000000000000000815273ffffffffffffffffffffffffffffffffffffffff909216916329a5f2f6916116f191600401614249565b602060405180830381865afa15801561170e573d6000803e3d6000fd5b505050506040513d601f19601f82011682018060405250810190611732919061427a565b945060019290921c916117466002846142c2565b6000036117a4575050600d60005260036020527fa8f2d96126c6d0ad63adabaef7bf5cf47f163fb0c218a473d28f62312d197bcf839055827f2c2633f1ae47ae42e0ce8eadec89c64d44a1fa98f1ee85ad4bf536594af4e27f6117d4565b5050600d60005260036020527fa8f2d96126c6d0ad63adabaef7bf5cf47f163fb0c218a473d28f62312d197bcf54835b6000546040805180820182528481526020810184905290517f29a5f2f600000000000000000000000000000000000000000000000000000000815273ffffffffffffffffffffffffffffffffffffffff909216916329a5f2f69161183a91600401614249565b602060405180830381865afa158015611857573d6000803e3d6000fd5b505050506040513d601f19601f8201168201806040525081019061187b919061427a565b945060019290921c9161188f6002846142c2565b6000036118ed575050600e60005260036020527fd6ebcc64c739277b117ce359e436534b234b76e914c80ad276abf5b562078939839055827f2d9c6e7eca6e7ba2b8335ae16998576602fe7910fb5ef41ce94d00b1332cf62461191d565b5050600e60005260036020527fd6ebcc64c739277b117ce359e436534b234b76e914c80ad276abf5b56207893954835b6000546040805180820182528481526020810184905290517f29a5f2f600000000000000000000000000000000000000000000000000000000815273ffffffffffffffffffffffffffffffffffffffff909216916329a5f2f69161198391600401614249565b602060405180830381865afa1580156119a0573d6000803e3d6000fd5b505050506040513d601f19601f820116820180604052508101906119c4919061427a565b945060019290921c916119d86002846142c2565b600003611a36575050600f60005260036020527ff60b7f6a315ec68a6ac240e69dca53652b38627f709a2caa217d9e18af4d7a60839055827f239f1418b2b0a70f468d0903cc46524d8f7efbdb2dfa561494ca5bffcc787700611a66565b5050600f60005260036020527ff60b7f6a315ec68a6ac240e69dca53652b38627f709a2caa217d9e18af4d7a6054835b6000546040805180820182528481526020810184905290517f29a5f2f600000000000000000000000000000000000000000000000000000000815273ffffffffffffffffffffffffffffffffffffffff909216916329a5f2f691611acc91600401614249565b602060405180830381865afa158015611ae9573d6000803e3d6000fd5b505050506040513d601f19601f82011682018060405250810190611b0d919061427a565b945060019290921c91611b216002846142c2565b600003611b7f575050601060005260036020527f47d4745e02b343689a5e7ac121d2a352b7a15c10328a8759fd7d4cf0999002bb839055827f0b15e263911ee4d77b6a394b70dc93ad3df6dfdf6a3f7605f9cafb6968d8f1f6611baf565b5050601060005260036020527f47d4745e02b343689a5e7ac121d2a352b7a15c10328a8759fd7d4cf0999002bb54835b6000546040805180820182528481526020810184905290517f29a5f2f600000000000000000000000000000000000000000000000000000000815273ffffffffffffffffffffffffffffffffffffffff909216916329a5f2f691611c1591600401614249565b602060405180830381865afa158015611c32573d6000803e3d6000fd5b505050506040513d601f19601f82011682018060405250810190611c56919061427a565b945060019290921c91611c6a6002846142c2565b600003611cc8575050601160005260036020527ffc111d09a6e2f0958402cbe16a5aef32c9d8ddb9a4df7271140de57bfed6525a839055827f2c069c957125a3e2cb4e16ca506d5f4f387d11d1aea33b30a8dd4ca3074f4de6611cf8565b5050601160005260036020527ffc111d09a6e2f0958402cbe16a5aef32c9d8ddb9a4df7271140de57bfed6525a54835b6000546040805180820182528481526020810184905290517f29a5f2f600000000000000000000000000000000000000000000000000000000815273ffffffffffffffffffffffffffffffffffffffff909216916329a5f2f691611d5e91600401614249565b602060405180830381865afa158015611d7b573d6000803e3d6000fd5b505050506040513d601f19601f82011682018060405250810190611d9f919061427a565b945060019290921c91611db36002846142c2565b600003611e11575050601260005260036020527f6a2b6bffaca788160f671fa62d34758b717f75a90ad5a468757c50d61f33c443839055827f0be6d282d26c02019fd66e32c8d85154b77253e7c6016b26a991352e0016d580611e41565b5050601260005260036020527f6a2b6bffaca788160f671fa62d34758b717f75a90ad5a468757c50d61f33c44354835b6000546040805180820182528481526020810184905290517f29a5f2f600000000000000000000000000000000000000000000000000000000815273ffffffffffffffffffffffffffffffffffffffff909216916329a5f2f691611ea791600401614249565b602060405180830381865afa158015611ec4573d6000803e3d6000fd5b505050506040513d601f19601f82011682018060405250810190611ee8919061427a565b945060019290921c91611efc6002846142c2565b600003611f5a575050601360005260036020527f8a8166be5f30abeb6c91ee2f07eeb0b2eb14b4d59534d10a1c143964bd617919839055827f1e29cfb0c1ad522f22a3b3e23c057cbd3c7ab921e742a8dfcbc66dbde917d5b2611f8a565b5050601360005260036020527f8a8166be5f30abeb6c91ee2f07eeb0b2eb14b4d59534d10a1c143964bd61791954835b6000546040805180820182528481526020810184905290517f29a5f2f600000000000000000000000000000000000000000000000000000000815273ffffffffffffffffffffffffffffffffffffffff909216916329a5f2f691611ff091600401614249565b602060405180830381865afa15801561200d573d6000803e3d6000fd5b505050506040513d601f19601f82011682018060405250810190612031919061427a565b94506000601e60018054086001818155600091825260046020526040909120969096555050600280549485019055509192915050565b6002546000907ffffffffffffffffffffffffffffffffffffffffffffffffffffffffffff0000081016120c6576040517f6defaa3500000000000000000000000000000000000000000000000000000000815260040160405180910390fd5b60008060005b60148110156121cf57600184821c16600003612109576000818152600560209081526040808320546003909252909120879055869350915061211e565b60008181526003602052604090205492508591505b6000546040805180820182528581526020810185905290517f29a5f2f600000000000000000000000000000000000000000000000000000000815273ffffffffffffffffffffffffffffffffffffffff909216916329a5f2f69161218491600401614249565b602060405180830381865afa1580156121a1573d6000803e3d6000fd5b505050506040513d601f19601f820116820180604052508101906121c5919061427a565b95506001016120cc565b506000601e5b60018054086001818155600091825260046020526040909120969096555050509182016002555090565b6002546000907ffffffffffffffffffffffffffffffffffffffffffffffffffffffffffff00000810161225e576040517f6defaa3500000000000000000000000000000000000000000000000000000000815260040160405180910390fd5b6000806001831681036122c15750506000805260036020527f3617319a054d772f909f7c479a2cebe5066e836a939412e32403c99029b92eff839055827f0133a292295d50240eb5edfcaa95731512ccdaf79758573a1f627dc47adbde7e6122f0565b50506000805260036020527f3617319a054d772f909f7c479a2cebe5066e836a939412e32403c99029b92eff54835b6000546040805180820182528481526020810184905290517f29a5f2f600000000000000000000000000000000000000000000000000000000815273ffffffffffffffffffffffffffffffffffffffff909216916329a5f2f69161235691600401614249565b602060405180830381865afa158015612373573d6000803e3d6000fd5b505050506040513d601f19601f82011682018060405250810190612397919061427a565b9450600183811c166000036123fd575050600160005260036020527fa15bc60c955c405d20d9149c709e2460f1c2d9a497496a7f46004d1772c3054c839055827f0ba2d612822ad57fd2285564f4bad51f685240488003085993bf5ee8e63c31cb61242d565b5050600160005260036020527fa15bc60c955c405d20d9149c709e2460f1c2d9a497496a7f46004d1772c3054c54835b6000546040805180820182528481526020810184905290517f29a5f2f600000000000000000000000000000000000000000000000000000000815273ffffffffffffffffffffffffffffffffffffffff909216916329a5f2f69161249391600401614249565b602060405180830381865afa1580156124b0573d6000803e3d6000fd5b505050506040513d601f19601f820116820180604052508101906124d4919061427a565b9450600283901c60011660000361253c575050600260005260036020527fc3a24b0501bd2c13a7e57f2db4369ec4c223447539fc0724a9d55ac4a06ebd4d839055827f27b302c974bf7444cb94f3eeae53d5cb897748679c94958c692567ed97e96c3c61256c565b5050600260005260036020527fc3a24b0501bd2c13a7e57f2db4369ec4c223447539fc0724a9d55ac4a06ebd4d54835b6000546040805180820182528481526020810184905290517f29a5f2f600000000000000000000000000000000000000000000000000000000815273ffffffffffffffffffffffffffffffffffffffff909216916329a5f2f6916125d291600401614249565b602060405180830381865afa1580156125ef573d6000803e3d6000fd5b505050506040513d601f19601f82011682018060405250810190612613919061427a565b9450600383901c60011660000361267b575050600360008190526020527fcbc4e5fb02c3d1de23a9f1e014b4d2ee5aeaea9505df5e855c9210bf472495af839055827f1c573635007d49a2e0e4e525a32ca29c3049377182bbb01efeddbcdfe513f82b6126ab565b5050600360008190526020527fcbc4e5fb02c3d1de23a9f1e014b4d2ee5aeaea9505df5e855c9210bf472495af54835b6000546040805180820182528481526020810184905290517f29a5f2f600000000000000000000000000000000000000000000000000000000815273ffffffffffffffffffffffffffffffffffffffff909216916329a5f2f69161271191600401614249565b602060405180830381865afa15801561272e573d6000803e3d6000fd5b505050506040513d601f19601f82011682018060405250810190612752919061427a565b9450600483901c6001166000036127ba575050600460005260036020527f83ec6a1f0257b830b5e016457c9cf1435391bf56cc98f369a58a54fe93772465839055827f2e1bf7a6e73442cdeaec1eb387d34b4a27f6957a2ae407bba844135fca5d8dbc6127ea565b5050600460005260036020527f83ec6a1f0257b830b5e016457c9cf1435391bf56cc98f369a58a54fe9377246554835b6000546040805180820182528481526020810184905290517f29a5f2f600000000000000000000000000000000000000000000000000000000815273ffffffffffffffffffffffffffffffffffffffff909216916329a5f2f69161285091600401614249565b602060405180830381865afa15801561286d573d6000803e3d6000fd5b505050506040513d601f19601f82011682018060405250810190612891919061427a565b9450600583901c6001166000036128f8575050600560005260036020527f405aad32e1adbac89bb7f176e338b8fc6e994ca210c9bb7bdca249b465942250839055827e09199390bdb47d6917f64668754dbeb426b43513fa7b0807d85794bd60270d612928565b5050600560005260036020527f405aad32e1adbac89bb7f176e338b8fc6e994ca210c9bb7bdca249b46594225054835b6000546040805180820182528481526020810184905290517f29a5f2f600000000000000000000000000000000000000000000000000000000815273ffffffffffffffffffffffffffffffffffffffff909216916329a5f2f69161298e91600401614249565b602060405180830381865afa1580156129ab573d6000803e3d6000fd5b505050506040513d601f19601f820116820180604052508101906129cf919061427a565b9450600683901c600116600003612a37575050600660005260036020527fc69056f16cbaa3c616b828e333ab7d3a32310765507f8f58359e99ebb7a885f3839055827f2f7739fa804b1102b2e95582a4cfb3c25d26e1f70133a81e6fed8fedbf7016ef612a67565b5050600660005260036020527fc69056f16cbaa3c616b828e333ab7d3a32310765507f8f58359e99ebb7a885f354835b6000546040805180820182528481526020810184905290517f29a5f2f600000000000000000000000000000000000000000000000000000000815273ffffffffffffffffffffffffffffffffffffffff909216916329a5f2f691612acd91600401614249565b602060405180830381865afa158015612aea573d6000803e3d6000fd5b505050506040513d601f19601f82011682018060405250810190612b0e919061427a565b9450600783901c600116600003612b75575050600760005260036020527ff2c49132ed1cee2a7e75bde50d332a2f81f1d01e5456d8a19d1df09bd561dbd2839055827e371f555c474e2f7846b97c7a90dab5fcc55ac0010c271796ad497f66689033612ba5565b5050600760005260036020527ff2c49132ed1cee2a7e75bde50d332a2f81f1d01e5456d8a19d1df09bd561dbd254835b6000546040805180820182528481526020810184905290517f29a5f2f600000000000000000000000000000000000000000000000000000000815273ffffffffffffffffffffffffffffffffffffffff909216916329a5f2f691612c0b91600401614249565b602060405180830381865afa158015612c28573d6000803e3d6000fd5b505050506040513d601f19601f82011682018060405250810190612c4c919061427a565b9450600883901c600116600003612cb4575050600860005260036020527f85aaa47b6dc46495bb8824fad4583769726fea36efd831a35556690b830a8fbe839055827f15b36b0debb62e1b11a9e331644a806960a4df8919180dc0745d17c7a912e989612ce4565b5050600860005260036020527f85aaa47b6dc46495bb8824fad4583769726fea36efd831a35556690b830a8fbe54835b6000546040805180820182528481526020810184905290517f29a5f2f600000000000000000000000000000000000000000000000000000000815273ffffffffffffffffffffffffffffffffffffffff909216916329a5f2f691612d4a91600401614249565b602060405180830381865afa158015612d67573d6000803e3d6000fd5b505050506040513d601f19601f82011682018060405250810190612d8b919061427a565b9450600983901c600116600003612df3575050600960005260036020527f8a8dc4e5242ea8b1ab1d60606dae757e6c2cca9f92a2cced9f72c19960bcb458839055827f0fab3738a9ec3b9c6eaa98bf46972ed3cbbae7982f0e69b3c7e9053adf32290d612e23565b5050600960005260036020527f8a8dc4e5242ea8b1ab1d60606dae757e6c2cca9f92a2cced9f72c19960bcb45854835b6000546040805180820182528481526020810184905290517f29a5f2f600000000000000000000000000000000000000000000000000000000815273ffffffffffffffffffffffffffffffffffffffff909216916329a5f2f691612e8991600401614249565b602060405180830381865afa158015612ea6573d6000803e3d6000fd5b505050506040513d601f19601f82011682018060405250810190612eca919061427a565b9450600a83901c600116600003612f32575050600a60005260036020527f9dcb9783ba5cd0b54745f65f4f918525e461e91888c334e5342cb380ac558d53839055827f16824b083a3f105f6671a504c2379de67cc5154c5b557294e35d27d1d3531225612f62565b5050600a60005260036020527f9dcb9783ba5cd0b54745f65f4f918525e461e91888c334e5342cb380ac558d5354835b6000546040805180820182528481526020810184905290517f29a5f2f600000000000000000000000000000000000000000000000000000000815273ffffffffffffffffffffffffffffffffffffffff909216916329a5f2f691612fc891600401614249565b602060405180830381865afa158015612fe5573d6000803e3d6000fd5b505050506040513d601f19601f82011682018060405250810190613009919061427a565b9450600b83901c600116600003613071575050600b60005260036020527f2d72af3c1b2b2956e6f694fb741556d5ca9524373974378cdbec16afa8b84164839055827f297ecae656a0fe904fe84f8db691c7156a51dd5e228873cf75ced697dd8e5c196130a1565b5050600b60005260036020527f2d72af3c1b2b2956e6f694fb741556d5ca9524373974378cdbec16afa8b8416454835b6000546040805180820182528481526020810184905290517f29a5f2f600000000000000000000000000000000000000000000000000000000815273ffffffffffffffffffffffffffffffffffffffff909216916329a5f2f69161310791600401614249565b602060405180830381865afa158015613124573d6000803e3d6000fd5b505050506040513d601f19601f82011682018060405250810190613148919061427a565b9450600c83901c6001166000036131b0575050600c60005260036020527fd56a60595ebefebed7f22dcee6c2acc61b06cf8c68e84c88677840365d1ff92b839055827f067c35b9ac5cdc355c6f9eaef4721e6d622a4fd32d74d7be3f78b17e5d8597ea6131e0565b5050600c60005260036020527fd56a60595ebefebed7f22dcee6c2acc61b06cf8c68e84c88677840365d1ff92b54835b6000546040805180820182528481526020810184905290517f29a5f2f600000000000000000000000000000000000000000000000000000000815273ffffffffffffffffffffffffffffffffffffffff909216916329a5f2f69161324691600401614249565b602060405180830381865afa158015613263573d6000803e3d6000fd5b505050506040513d601f19601f82011682018060405250810190613287919061427a565b9450600d83901c6001166000036132ef575050600d60005260036020527fa8f2d96126c6d0ad63adabaef7bf5cf47f163fb0c218a473d28f62312d197bcf839055827f2c2633f1ae47ae42e0ce8eadec89c64d44a1fa98f1ee85ad4bf536594af4e27f61331f565b5050600d60005260036020527fa8f2d96126c6d0ad63adabaef7bf5cf47f163fb0c218a473d28f62312d197bcf54835b6000546040805180820182528481526020810184905290517f29a5f2f600000000000000000000000000000000000000000000000000000000815273ffffffffffffffffffffffffffffffffffffffff909216916329a5f2f69161338591600401614249565b602060405180830381865afa1580156133a2573d6000803e3d6000fd5b505050506040513d601f19601f820116820180604052508101906133c6919061427a565b9450600e83901c60011660000361342e575050600e60005260036020527fd6ebcc64c739277b117ce359e436534b234b76e914c80ad276abf5b562078939839055827f2d9c6e7eca6e7ba2b8335ae16998576602fe7910fb5ef41ce94d00b1332cf62461345e565b5050600e60005260036020527fd6ebcc64c739277b117ce359e436534b234b76e914c80ad276abf5b56207893954835b6000546040805180820182528481526020810184905290517f29a5f2f600000000000000000000000000000000000000000000000000000000815273ffffffffffffffffffffffffffffffffffffffff909216916329a5f2f6916134c491600401614249565b602060405180830381865afa1580156134e1573d6000803e3d6000fd5b505050506040513d601f19601f82011682018060405250810190613505919061427a565b9450600f83901c60011660000361356d575050600f60005260036020527ff60b7f6a315ec68a6ac240e69dca53652b38627f709a2caa217d9e18af4d7a60839055827f239f1418b2b0a70f468d0903cc46524d8f7efbdb2dfa561494ca5bffcc78770061359d565b5050600f60005260036020527ff60b7f6a315ec68a6ac240e69dca53652b38627f709a2caa217d9e18af4d7a6054835b6000546040805180820182528481526020810184905290517f29a5f2f600000000000000000000000000000000000000000000000000000000815273ffffffffffffffffffffffffffffffffffffffff909216916329a5f2f69161360391600401614249565b602060405180830381865afa158015613620573d6000803e3d6000fd5b505050506040513d601f19601f82011682018060405250810190613644919061427a565b9450601083901c6001166000036136ac575050601060005260036020527f47d4745e02b343689a5e7ac121d2a352b7a15c10328a8759fd7d4cf0999002bb839055827f0b15e263911ee4d77b6a394b70dc93ad3df6dfdf6a3f7605f9cafb6968d8f1f66136dc565b5050601060005260036020527f47d4745e02b343689a5e7ac121d2a352b7a15c10328a8759fd7d4cf0999002bb54835b6000546040805180820182528481526020810184905290517f29a5f2f600000000000000000000000000000000000000000000000000000000815273ffffffffffffffffffffffffffffffffffffffff909216916329a5f2f69161374291600401614249565b602060405180830381865afa15801561375f573d6000803e3d6000fd5b505050506040513d601f19601f82011682018060405250810190613783919061427a565b9450601183901c6001166000036137eb575050601160005260036020527ffc111d09a6e2f0958402cbe16a5aef32c9d8ddb9a4df7271140de57bfed6525a839055827f2c069c957125a3e2cb4e16ca506d5f4f387d11d1aea33b30a8dd4ca3074f4de661381b565b5050601160005260036020527ffc111d09a6e2f0958402cbe16a5aef32c9d8ddb9a4df7271140de57bfed6525a54835b6000546040805180820182528481526020810184905290517f29a5f2f600000000000000000000000000000000000000000000000000000000815273ffffffffffffffffffffffffffffffffffffffff909216916329a5f2f69161388191600401614249565b602060405180830381865afa15801561389e573d6000803e3d6000fd5b505050506040513d601f19601f820116820180604052508101906138c2919061427a565b9450601283901c60011660000361392a575050601260005260036020527f6a2b6bffaca788160f671fa62d34758b717f75a90ad5a468757c50d61f33c443839055827f0be6d282d26c02019fd66e32c8d85154b77253e7c6016b26a991352e0016d58061395a565b5050601260005260036020527f6a2b6bffaca788160f671fa62d34758b717f75a90ad5a468757c50d61f33c44354835b6000546040805180820182528481526020810184905290517f29a5f2f600000000000000000000000000000000000000000000000000000000815273ffffffffffffffffffffffffffffffffffffffff909216916329a5f2f6916139c091600401614249565b602060405180830381865afa1580156139dd573d6000803e3d6000fd5b505050506040513d601f19601f82011682018060405250810190613a01919061427a565b9450601383901c600116600003613a69575050601360005260036020527f8a8166be5f30abeb6c91ee2f07eeb0b2eb14b4d59534d10a1c143964bd617919839055827f1e29cfb0c1ad522f22a3b3e23c057cbd3c7ab921e742a8dfcbc66dbde917d5b2613a99565b5050601360005260036020527f8a8166be5f30abeb6c91ee2f07eeb0b2eb14b4d59534d10a1c143964bd61791954835b6000546040805180820182528481526020810184905290517f29a5f2f600000000000000000000000000000000000000000000000000000000815273ffffffffffffffffffffffffffffffffffffffff909216916329a5f2f691613aff91600401614249565b602060405180830381865afa158015613b1c573d6000803e3d6000fd5b505050506040513d601f19601f82011682018060405250810190613b40919061427a565b94506000601e6121d5565b600081600003613b5d57506000919050565b60015460005b601e811015613bc5576000828152600460205260409020548403613b8b575060019392505050565b81600003613b9857601e91505b7fffffffffffffffffffffffffffffffffffffffffffffffffffffffffffffffff90910190600101613b63565b5060009392505050565b6002546000907ffffffffffffffffffffffffffffffffffffffffffffffffffffffffffff000008101613c2e576040517f6defaa3500000000000000000000000000000000000000000000000000000000815260040160405180910390fd5b60008060005b60148110156121cf57600184821c16600003613c6e57859250613c5681613d57565b60008281526003602052604090208790559150613c83565b60008181526003602052604090205492508591505b6000546040805180820182528581526020810185905290517f29a5f2f600000000000000000000000000000000000000000000000000000000815273ffffffffffffffffffffffffffffffffffffffff909216916329a5f2f691613ce991600401614249565b602060405180830381865afa158015613d06573d6000803e3d6000fd5b505050506040513d601f19601f82011682018060405250810190613d2a919061427a565b9550600101613c34565b600060018083011b8381613d4a57613d4a614293565b0460020290505b92915050565b600081600003613d8857507f0133a292295d50240eb5edfcaa95731512ccdaf79758573a1f627dc47adbde7e919050565b81600103613db757507f0ba2d612822ad57fd2285564f4bad51f685240488003085993bf5ee8e63c31cb919050565b81600203613de657507f27b302c974bf7444cb94f3eeae53d5cb897748679c94958c692567ed97e96c3c919050565b81600303613e1557507f1c573635007d49a2e0e4e525a32ca29c3049377182bbb01efeddbcdfe513f82b919050565b81600403613e4457507f2e1bf7a6e73442cdeaec1eb387d34b4a27f6957a2ae407bba844135fca5d8dbc919050565b81600503613e7257507e09199390bdb47d6917f64668754dbeb426b43513fa7b0807d85794bd60270d919050565b81600603613ea157507f2f7739fa804b1102b2e95582a4cfb3c25d26e1f70133a81e6fed8fedbf7016ef919050565b81600703613ecf57507e371f555c474e2f7846b97c7a90dab5fcc55ac0010c271796ad497f66689033919050565b81600803613efe57507f15b36b0debb62e1b11a9e331644a806960a4df8919180dc0745d17c7a912e989919050565b81600903613f2d57507f0fab3738a9ec3b9c6eaa98bf46972ed3cbbae7982f0e69b3c7e9053adf32290d919050565b81600a03613f5c57507f16824b083a3f105f6671a504c2379de67cc5154c5b557294e35d27d1d3531225919050565b81600b03613f8b57507f297ecae656a0fe904fe84f8db691c7156a51dd5e228873cf75ced697dd8e5c19919050565b81600c03613fba57507f067c35b9ac5cdc355c6f9eaef4721e6d622a4fd32d74d7be3f78b17e5d8597ea919050565b81600d03613fe957507f2c2633f1ae47ae42e0ce8eadec89c64d44a1fa98f1ee85ad4bf536594af4e27f919050565b81600e0361401857507f2d9c6e7eca6e7ba2b8335ae16998576602fe7910fb5ef41ce94d00b1332cf624919050565b81600f0361404757507f239f1418b2b0a70f468d0903cc46524d8f7efbdb2dfa561494ca5bffcc787700919050565b8160100361407657507f0b15e263911ee4d77b6a394b70dc93ad3df6dfdf6a3f7605f9cafb6968d8f1f6919050565b816011036140a557507f2c069c957125a3e2cb4e16ca506d5f4f387d11d1aea33b30a8dd4ca3074f4de6919050565b816012036140d457507f0be6d282d26c02019fd66e32c8d85154b77253e7c6016b26a991352e0016d580919050565b8160130361410357507f1e29cfb0c1ad522f22a3b3e23c057cbd3c7ab921e742a8dfcbc66dbde917d5b2919050565b8160140361413257507f2fb6e40b303cff95dec23c65cbfc0a74e935784e091b5a6cddc02faa6a7177e2919050565b919050565b60008060008060006080868803121561414f57600080fd5b853594506020860135935060408601359250606086013567ffffffffffffffff8082111561417c57600080fd5b818801915088601f83011261419057600080fd5b81358181111561419f57600080fd5b8960208260051b85010111156141b457600080fd5b9699959850939650602001949392505050565b6000602082840312156141d957600080fd5b5035919050565b81810381811115613d51577f4e487b7100000000000000000000000000000000000000000000000000000000600052601160045260246000fd5b7f4e487b7100000000000000000000000000000000000000000000000000000000600052603260045260246000fd5b60408101818360005b6002811015614271578151835260209283019290910190600101614252565b50505092915050565b60006020828403121561428c57600080fd5b5051919050565b7f4e487b7100000000000000000000000000000000000000000000000000000000600052601260045260246000fd5b6000826142f8577f4e487b7100000000000000000000000000000000000000000000000000000000600052601260045260246000fd5b50069056fea264697066735822122096a817ecaffd1f51885f8e9a15978d1b3b91f22df42c718e09830ab13a44a61864736f6c63430008180033","opcodes":"PUSH1 0x80 PUSH1 0x40 MSTORE CALLVALUE DUP1 ISZERO PUSH3 0x11 JUMPI PUSH1 0x0 DUP1 REVERT JUMPDEST POP PUSH1 0x40 MLOAD PUSH3 0x4826 CODESIZE SUB DUP1 PUSH3 0x4826 DUP4 CODECOPY DUP2 ADD PUSH1 0x40 DUP2 SWAP1 MSTORE PUSH3 0x34 SWAP2 PUSH3 0x4B1 JUMP JUMPDEST PUSH1 0x0 DUP1 SLOAD PUSH1 0x1 PUSH1 0x1 PUSH1 0xA0 SHL SUB NOT AND PUSH1 0x1 PUSH1 0x1 PUSH1 0xA0 SHL SUB DUP4 AND OR DUP2 SSTORE JUMPDEST PUSH1 0x14 DUP2 LT ISZERO PUSH3 0x7D JUMPI PUSH3 0x65 DUP2 PUSH3 0xBC JUMP JUMPDEST PUSH1 0x0 DUP3 DUP2 MSTORE PUSH1 0x5 PUSH1 0x20 MSTORE PUSH1 0x40 SWAP1 KECCAK256 SSTORE PUSH1 0x1 ADD PUSH3 0x50 JUMP JUMPDEST POP PUSH3 0x8A PUSH1 0x14 PUSH3 0xBC JUMP JUMPDEST PUSH1 0x0 DUP1 MSTORE PUSH1 0x4 PUSH1 0x20 MSTORE PUSH32 0x17EF568E3E12AB5B9C7254A8D58478811DE00F9E6EB34345ACD53BF8FD09D3EC SSTORE POP PUSH3 0x4E3 JUMP JUMPDEST PUSH1 0x0 DUP2 PUSH1 0x0 SUB PUSH3 0xEE JUMPI POP PUSH32 0x133A292295D50240EB5EDFCAA95731512CCDAF79758573A1F627DC47ADBDE7E SWAP2 SWAP1 POP JUMP JUMPDEST DUP2 PUSH1 0x1 SUB PUSH3 0x11E JUMPI POP PUSH32 0xBA2D612822AD57FD2285564F4BAD51F685240488003085993BF5EE8E63C31CB SWAP2 SWAP1 POP JUMP JUMPDEST DUP2 PUSH1 0x2 SUB PUSH3 0x14E JUMPI POP PUSH32 0x27B302C974BF7444CB94F3EEAE53D5CB897748679C94958C692567ED97E96C3C SWAP2 SWAP1 POP JUMP JUMPDEST DUP2 PUSH1 0x3 SUB PUSH3 0x17E JUMPI POP PUSH32 0x1C573635007D49A2E0E4E525A32CA29C3049377182BBB01EFEDDBCDFE513F82B SWAP2 SWAP1 POP JUMP JUMPDEST DUP2 PUSH1 0x4 SUB PUSH3 0x1AE JUMPI POP PUSH32 0x2E1BF7A6E73442CDEAEC1EB387D34B4A27F6957A2AE407BBA844135FCA5D8DBC SWAP2 SWAP1 POP JUMP JUMPDEST DUP2 PUSH1 0x5 SUB PUSH3 0x1DD JUMPI POP PUSH31 0x9199390BDB47D6917F64668754DBEB426B43513FA7B0807D85794BD60270D SWAP2 SWAP1 POP JUMP JUMPDEST DUP2 PUSH1 0x6 SUB PUSH3 0x20D JUMPI POP PUSH32 0x2F7739FA804B1102B2E95582A4CFB3C25D26E1F70133A81E6FED8FEDBF7016EF SWAP2 SWAP1 POP JUMP JUMPDEST DUP2 PUSH1 0x7 SUB PUSH3 0x23C JUMPI POP PUSH31 0x371F555C474E2F7846B97C7A90DAB5FCC55AC0010C271796AD497F66689033 SWAP2 SWAP1 POP JUMP JUMPDEST DUP2 PUSH1 0x8 SUB PUSH3 0x26C JUMPI POP PUSH32 0x15B36B0DEBB62E1B11A9E331644A806960A4DF8919180DC0745D17C7A912E989 SWAP2 SWAP1 POP JUMP JUMPDEST DUP2 PUSH1 0x9 SUB PUSH3 0x29C JUMPI POP PUSH32 0xFAB3738A9EC3B9C6EAA98BF46972ED3CBBAE7982F0E69B3C7E9053ADF32290D SWAP2 SWAP1 POP JUMP JUMPDEST DUP2 PUSH1 0xA SUB PUSH3 0x2CC JUMPI POP PUSH32 0x16824B083A3F105F6671A504C2379DE67CC5154C5B557294E35D27D1D3531225 SWAP2 SWAP1 POP JUMP JUMPDEST DUP2 PUSH1 0xB SUB PUSH3 0x2FC JUMPI POP PUSH32 0x297ECAE656A0FE904FE84F8DB691C7156A51DD5E228873CF75CED697DD8E5C19 SWAP2 SWAP1 POP JUMP JUMPDEST DUP2 PUSH1 0xC SUB PUSH3 0x32C JUMPI POP PUSH32 0x67C35B9AC5CDC355C6F9EAEF4721E6D622A4FD32D74D7BE3F78B17E5D8597EA SWAP2 SWAP1 POP JUMP JUMPDEST DUP2 PUSH1 0xD SUB PUSH3 0x35C JUMPI POP PUSH32 0x2C2633F1AE47AE42E0CE8EADEC89C64D44A1FA98F1EE85AD4BF536594AF4E27F SWAP2 SWAP1 POP JUMP JUMPDEST DUP2 PUSH1 0xE SUB PUSH3 0x38C JUMPI POP PUSH32 0x2D9C6E7ECA6E7BA2B8335AE16998576602FE7910FB5EF41CE94D00B1332CF624 SWAP2 SWAP1 POP JUMP JUMPDEST DUP2 PUSH1 0xF SUB PUSH3 0x3BC JUMPI POP PUSH32 0x239F1418B2B0A70F468D0903CC46524D8F7EFBDB2DFA561494CA5BFFCC787700 SWAP2 SWAP1 POP JUMP JUMPDEST DUP2 PUSH1 0x10 SUB PUSH3 0x3EC JUMPI POP PUSH32 0xB15E263911EE4D77B6A394B70DC93AD3DF6DFDF6A3F7605F9CAFB6968D8F1F6 SWAP2 SWAP1 POP JUMP JUMPDEST DUP2 PUSH1 0x11 SUB PUSH3 0x41C JUMPI POP PUSH32 0x2C069C957125A3E2CB4E16CA506D5F4F387D11D1AEA33B30A8DD4CA3074F4DE6 SWAP2 SWAP1 POP JUMP JUMPDEST DUP2 PUSH1 0x12 SUB PUSH3 0x44C JUMPI POP PUSH32 0xBE6D282D26C02019FD66E32C8D85154B77253E7C6016B26A991352E0016D580 SWAP2 SWAP1 POP JUMP JUMPDEST DUP2 PUSH1 0x13 SUB PUSH3 0x47C JUMPI POP PUSH32 0x1E29CFB0C1AD522F22A3B3E23C057CBD3C7AB921E742A8DFCBC66DBDE917D5B2 SWAP2 SWAP1 POP JUMP JUMPDEST DUP2 PUSH1 0x14 SUB PUSH3 0x4AC JUMPI POP PUSH32 0x2FB6E40B303CFF95DEC23C65CBFC0A74E935784E091B5A6CDDC02FAA6A7177E2 SWAP2 SWAP1 POP JUMP JUMPDEST SWAP2 SWAP1 POP JUMP JUMPDEST PUSH1 0x0 PUSH1 0x20 DUP3 DUP5 SUB SLT ISZERO PUSH3 0x4C4 JUMPI PUSH1 0x0 DUP1 REVERT JUMPDEST DUP2 MLOAD PUSH1 0x1 PUSH1 0x1 PUSH1 0xA0 SHL SUB DUP2 AND DUP2 EQ PUSH3 0x4DC JUMPI PUSH1 0x0 DUP1 REVERT JUMPDEST SWAP4 SWAP3 POP POP POP JUMP JUMPDEST PUSH2 0x4333 DUP1 PUSH3 0x4F3 PUSH1 0x0 CODECOPY PUSH1 0x0 RETURN INVALID PUSH1 0x80 PUSH1 0x40 MSTORE CALLVALUE DUP1 ISZERO PUSH2 0x10 JUMPI PUSH1 0x0 DUP1 REVERT JUMPDEST POP PUSH1 0x4 CALLDATASIZE LT PUSH2 0xF5 JUMPI PUSH1 0x0 CALLDATALOAD PUSH1 0xE0 SHR DUP1 PUSH4 0x79E2332B GT PUSH2 0x97 JUMPI DUP1 PUSH4 0xE2ADBA8C GT PUSH2 0x66 JUMPI DUP1 PUSH4 0xE2ADBA8C EQ PUSH2 0x1EF JUMPI DUP1 PUSH4 0xED33639F EQ PUSH2 0x1F7 JUMPI DUP1 PUSH4 0xF178E47C EQ PUSH2 0x23C JUMPI DUP1 PUSH4 0xFA58B9F5 EQ PUSH2 0x25C JUMPI PUSH1 0x0 DUP1 REVERT JUMPDEST DUP1 PUSH4 0x79E2332B EQ PUSH2 0x190 JUMPI DUP1 PUSH4 0x90EEB02B EQ PUSH2 0x1A3 JUMPI DUP1 PUSH4 0xA6232A93 EQ PUSH2 0x1AC JUMPI DUP1 PUSH4 0xC2B40AE4 EQ PUSH2 0x1CF JUMPI PUSH1 0x0 DUP1 REVERT JUMPDEST DUP1 PUSH4 0x5445B007 GT PUSH2 0xD3 JUMPI DUP1 PUSH4 0x5445B007 EQ PUSH2 0x13E JUMPI DUP1 PUSH4 0x656EF8D9 EQ PUSH2 0x155 JUMPI DUP1 PUSH4 0x6840FCEA EQ PUSH2 0x175 JUMPI DUP1 PUSH4 0x752367F0 EQ PUSH2 0x17D JUMPI PUSH1 0x0 DUP1 REVERT JUMPDEST DUP1 PUSH4 0x323678D3 EQ PUSH2 0xFA JUMPI DUP1 PUSH4 0x35FC21ED EQ PUSH2 0x10F JUMPI DUP1 PUSH4 0x53E55371 EQ PUSH2 0x135 JUMPI JUMPDEST PUSH1 0x0 DUP1 REVERT JUMPDEST PUSH2 0x10D PUSH2 0x108 CALLDATASIZE PUSH1 0x4 PUSH2 0x4137 JUMP JUMPDEST PUSH2 0x26F JUMP JUMPDEST STOP JUMPDEST PUSH2 0x122 PUSH2 0x11D CALLDATASIZE PUSH1 0x4 PUSH2 0x41C7 JUMP JUMPDEST PUSH2 0x628 JUMP JUMPDEST PUSH1 0x40 MLOAD SWAP1 DUP2 MSTORE PUSH1 0x20 ADD JUMPDEST PUSH1 0x40 MLOAD DUP1 SWAP2 SUB SWAP1 RETURN JUMPDEST PUSH2 0x122 PUSH1 0x2 SLOAD DUP2 JUMP JUMPDEST PUSH1 0x1 SLOAD PUSH1 0x0 SWAP1 DUP2 MSTORE PUSH1 0x4 PUSH1 0x20 MSTORE PUSH1 0x40 SWAP1 KECCAK256 SLOAD PUSH2 0x122 JUMP JUMPDEST PUSH2 0x122 PUSH2 0x163 CALLDATASIZE PUSH1 0x4 PUSH2 0x41C7 JUMP JUMPDEST PUSH1 0x5 PUSH1 0x20 MSTORE PUSH1 0x0 SWAP1 DUP2 MSTORE PUSH1 0x40 SWAP1 KECCAK256 SLOAD DUP2 JUMP JUMPDEST PUSH2 0x122 PUSH1 0x1E DUP2 JUMP JUMPDEST PUSH2 0x122 PUSH2 0x18B CALLDATASIZE PUSH1 0x4 PUSH2 0x41C7 JUMP JUMPDEST PUSH2 0x2067 JUMP JUMPDEST PUSH2 0x122 PUSH2 0x19E CALLDATASIZE PUSH1 0x4 PUSH2 0x41C7 JUMP JUMPDEST PUSH2 0x21FF JUMP JUMPDEST PUSH2 0x122 PUSH1 0x1 SLOAD DUP2 JUMP JUMPDEST PUSH2 0x1BF PUSH2 0x1BA CALLDATASIZE PUSH1 0x4 PUSH2 0x41C7 JUMP JUMPDEST PUSH2 0x3B4B JUMP JUMPDEST PUSH1 0x40 MLOAD SWAP1 ISZERO ISZERO DUP2 MSTORE PUSH1 0x20 ADD PUSH2 0x12C JUMP JUMPDEST PUSH2 0x122 PUSH2 0x1DD CALLDATASIZE PUSH1 0x4 PUSH2 0x41C7 JUMP JUMPDEST PUSH1 0x4 PUSH1 0x20 MSTORE PUSH1 0x0 SWAP1 DUP2 MSTORE PUSH1 0x40 SWAP1 KECCAK256 SLOAD DUP2 JUMP JUMPDEST PUSH2 0x122 PUSH1 0x14 DUP2 JUMP JUMPDEST PUSH1 0x0 SLOAD PUSH2 0x217 SWAP1 PUSH20 0xFFFFFFFFFFFFFFFFFFFFFFFFFFFFFFFFFFFFFFFF AND DUP2 JUMP JUMPDEST PUSH1 0x40 MLOAD PUSH20 0xFFFFFFFFFFFFFFFFFFFFFFFFFFFFFFFFFFFFFFFF SWAP1 SWAP2 AND DUP2 MSTORE PUSH1 0x20 ADD PUSH2 0x12C JUMP JUMPDEST PUSH2 0x122 PUSH2 0x24A CALLDATASIZE PUSH1 0x4 PUSH2 0x41C7 JUMP JUMPDEST PUSH1 0x3 PUSH1 0x20 MSTORE PUSH1 0x0 SWAP1 DUP2 MSTORE PUSH1 0x40 SWAP1 KECCAK256 SLOAD DUP2 JUMP JUMPDEST PUSH2 0x122 PUSH2 0x26A CALLDATASIZE PUSH1 0x4 PUSH2 0x41C7 JUMP JUMPDEST PUSH2 0x3BCF JUMP JUMPDEST PUSH1 0x0 PUSH1 0x1 PUSH1 0x2 SLOAD PUSH2 0x280 SWAP2 SWAP1 PUSH2 0x41E0 JUMP JUMPDEST SWAP1 POP DUP1 DUP5 GT ISZERO PUSH2 0x2BC JUMPI PUSH1 0x40 MLOAD PUSH32 0x1390F2A100000000000000000000000000000000000000000000000000000000 DUP2 MSTORE PUSH1 0x4 ADD PUSH1 0x40 MLOAD DUP1 SWAP2 SUB SWAP1 REVERT JUMPDEST PUSH1 0x0 JUMPDEST PUSH1 0x14 DUP2 LT ISZERO PUSH2 0x5C4 JUMPI PUSH1 0x1 DUP6 DUP3 SHR AND PUSH1 0x0 SUB PUSH2 0x460 JUMPI PUSH2 0x2DF DUP3 DUP3 PUSH2 0x3D34 JUMP JUMPDEST PUSH2 0x2E9 DUP7 DUP4 PUSH2 0x3D34 JUMP JUMPDEST SUB PUSH2 0x300 JUMPI PUSH1 0x0 DUP2 DUP2 MSTORE PUSH1 0x3 PUSH1 0x20 MSTORE PUSH1 0x40 SWAP1 KECCAK256 DUP7 SWAP1 SSTORE JUMPDEST PUSH1 0x0 SLOAD PUSH1 0x40 DUP1 MLOAD DUP1 DUP3 ADD SWAP1 SWAP2 MSTORE DUP9 DUP2 MSTORE PUSH20 0xFFFFFFFFFFFFFFFFFFFFFFFFFFFFFFFFFFFFFFFF SWAP1 SWAP2 AND SWAP1 PUSH4 0x29A5F2F6 SWAP1 PUSH1 0x20 DUP2 ADD DUP8 DUP8 DUP7 DUP2 DUP2 LT PUSH2 0x345 JUMPI PUSH2 0x345 PUSH2 0x421A JUMP JUMPDEST SWAP1 POP PUSH1 0x20 MUL ADD CALLDATALOAD DUP2 MSTORE POP PUSH1 0x40 MLOAD DUP3 PUSH4 0xFFFFFFFF AND PUSH1 0xE0 SHL DUP2 MSTORE PUSH1 0x4 ADD PUSH2 0x36B SWAP2 SWAP1 PUSH2 0x4249 JUMP JUMPDEST PUSH1 0x20 PUSH1 0x40 MLOAD DUP1 DUP4 SUB DUP2 DUP7 GAS STATICCALL ISZERO DUP1 ISZERO PUSH2 0x388 JUMPI RETURNDATASIZE PUSH1 0x0 DUP1 RETURNDATACOPY RETURNDATASIZE PUSH1 0x0 REVERT JUMPDEST POP POP POP POP PUSH1 0x40 MLOAD RETURNDATASIZE PUSH1 0x1F NOT PUSH1 0x1F DUP3 ADD AND DUP3 ADD DUP1 PUSH1 0x40 MSTORE POP DUP2 ADD SWAP1 PUSH2 0x3AC SWAP2 SWAP1 PUSH2 0x427A JUMP JUMPDEST PUSH1 0x0 SLOAD PUSH1 0x40 DUP1 MLOAD DUP1 DUP3 ADD SWAP1 SWAP2 MSTORE DUP9 DUP2 MSTORE SWAP2 SWAP9 POP PUSH20 0xFFFFFFFFFFFFFFFFFFFFFFFFFFFFFFFFFFFFFFFF AND SWAP1 PUSH4 0x29A5F2F6 SWAP1 PUSH1 0x20 DUP2 ADD DUP8 DUP8 DUP7 DUP2 DUP2 LT PUSH2 0x3F2 JUMPI PUSH2 0x3F2 PUSH2 0x421A JUMP JUMPDEST SWAP1 POP PUSH1 0x20 MUL ADD CALLDATALOAD DUP2 MSTORE POP PUSH1 0x40 MLOAD DUP3 PUSH4 0xFFFFFFFF AND PUSH1 0xE0 SHL DUP2 MSTORE PUSH1 0x4 ADD PUSH2 0x418 SWAP2 SWAP1 PUSH2 0x4249 JUMP JUMPDEST PUSH1 0x20 PUSH1 0x40 MLOAD DUP1 DUP4 SUB DUP2 DUP7 GAS STATICCALL ISZERO DUP1 ISZERO PUSH2 0x435 JUMPI RETURNDATASIZE PUSH1 0x0 DUP1 RETURNDATACOPY RETURNDATASIZE PUSH1 0x0 REVERT JUMPDEST POP POP POP POP PUSH1 0x40 MLOAD RETURNDATASIZE PUSH1 0x1F NOT PUSH1 0x1F DUP3 ADD AND DUP3 ADD DUP1 PUSH1 0x40 MSTORE POP DUP2 ADD SWAP1 PUSH2 0x459 SWAP2 SWAP1 PUSH2 0x427A JUMP JUMPDEST SWAP6 POP PUSH2 0x5BC JUMP JUMPDEST PUSH1 0x0 SLOAD PUSH1 0x40 DUP1 MLOAD DUP1 DUP3 ADD SWAP1 SWAP2 MSTORE PUSH20 0xFFFFFFFFFFFFFFFFFFFFFFFFFFFFFFFFFFFFFFFF SWAP1 SWAP2 AND SWAP1 PUSH4 0x29A5F2F6 SWAP1 DUP1 DUP8 DUP8 DUP7 DUP2 DUP2 LT PUSH2 0x49F JUMPI PUSH2 0x49F PUSH2 0x421A JUMP JUMPDEST SWAP1 POP PUSH1 0x20 MUL ADD CALLDATALOAD DUP2 MSTORE PUSH1 0x20 ADD DUP11 DUP2 MSTORE POP PUSH1 0x40 MLOAD DUP3 PUSH4 0xFFFFFFFF AND PUSH1 0xE0 SHL DUP2 MSTORE PUSH1 0x4 ADD PUSH2 0x4CB SWAP2 SWAP1 PUSH2 0x4249 JUMP JUMPDEST PUSH1 0x20 PUSH1 0x40 MLOAD DUP1 DUP4 SUB DUP2 DUP7 GAS STATICCALL ISZERO DUP1 ISZERO PUSH2 0x4E8 JUMPI RETURNDATASIZE PUSH1 0x0 DUP1 RETURNDATACOPY RETURNDATASIZE PUSH1 0x0 REVERT JUMPDEST POP POP POP POP PUSH1 0x40 MLOAD RETURNDATASIZE PUSH1 0x1F NOT PUSH1 0x1F DUP3 ADD AND DUP3 ADD DUP1 PUSH1 0x40 MSTORE POP DUP2 ADD SWAP1 PUSH2 0x50C SWAP2 SWAP1 PUSH2 0x427A JUMP JUMPDEST PUSH1 0x0 SLOAD PUSH1 0x40 DUP1 MLOAD DUP1 DUP3 ADD SWAP1 SWAP2 MSTORE SWAP2 SWAP9 POP PUSH20 0xFFFFFFFFFFFFFFFFFFFFFFFFFFFFFFFFFFFFFFFF AND SWAP1 PUSH4 0x29A5F2F6 SWAP1 DUP1 DUP8 DUP8 DUP7 DUP2 DUP2 LT PUSH2 0x54C JUMPI PUSH2 0x54C PUSH2 0x421A JUMP JUMPDEST SWAP1 POP PUSH1 0x20 MUL ADD CALLDATALOAD DUP2 MSTORE PUSH1 0x20 ADD DUP10 DUP2 MSTORE POP PUSH1 0x40 MLOAD DUP3 PUSH4 0xFFFFFFFF AND PUSH1 0xE0 SHL DUP2 MSTORE PUSH1 0x4 ADD PUSH2 0x578 SWAP2 SWAP1 PUSH2 0x4249 JUMP JUMPDEST PUSH1 0x20 PUSH1 0x40 MLOAD DUP1 DUP4 SUB DUP2 DUP7 GAS STATICCALL ISZERO DUP1 ISZERO PUSH2 0x595 JUMPI RETURNDATASIZE PUSH1 0x0 DUP1 RETURNDATACOPY RETURNDATASIZE PUSH1 0x0 REVERT JUMPDEST POP POP POP POP PUSH1 0x40 MLOAD RETURNDATASIZE PUSH1 0x1F NOT PUSH1 0x1F DUP3 ADD AND DUP3 ADD DUP1 PUSH1 0x40 MSTORE POP DUP2 ADD SWAP1 PUSH2 0x5B9 SWAP2 SWAP1 PUSH2 0x427A JUMP JUMPDEST SWAP6 POP JUMPDEST PUSH1 0x1 ADD PUSH2 0x2BF JUMP JUMPDEST POP PUSH1 0x1 SLOAD PUSH1 0x0 DUP2 DUP2 MSTORE PUSH1 0x4 PUSH1 0x20 MSTORE PUSH1 0x40 SWAP1 KECCAK256 SLOAD DUP8 EQ PUSH2 0x60F JUMPI PUSH1 0x40 MLOAD PUSH32 0x8C52011600000000000000000000000000000000000000000000000000000000 DUP2 MSTORE PUSH1 0x4 ADD PUSH1 0x40 MLOAD DUP1 SWAP2 SUB SWAP1 REVERT JUMPDEST PUSH1 0x0 SWAP1 DUP2 MSTORE PUSH1 0x4 PUSH1 0x20 MSTORE PUSH1 0x40 SWAP1 KECCAK256 SWAP5 SWAP1 SWAP5 SSTORE POP POP POP POP POP JUMP JUMPDEST PUSH1 0x2 SLOAD PUSH1 0x0 SWAP1 PUSH32 0xFFFFFFFFFFFFFFFFFFFFFFFFFFFFFFFFFFFFFFFFFFFFFFFFFFFFFFFFFFF00000 DUP2 ADD PUSH2 0x687 JUMPI PUSH1 0x40 MLOAD PUSH32 0x6DEFAA3500000000000000000000000000000000000000000000000000000000 DUP2 MSTORE PUSH1 0x4 ADD PUSH1 0x40 MLOAD DUP1 SWAP2 SUB SWAP1 REVERT JUMPDEST PUSH1 0x0 DUP1 PUSH2 0x695 PUSH1 0x2 DUP5 PUSH2 0x42C2 JUMP JUMPDEST PUSH1 0x0 SUB PUSH2 0x6F2 JUMPI POP POP PUSH1 0x0 DUP1 MSTORE PUSH1 0x3 PUSH1 0x20 MSTORE PUSH32 0x3617319A054D772F909F7C479A2CEBE5066E836A939412E32403C99029B92EFF DUP4 SWAP1 SSTORE DUP3 PUSH32 0x133A292295D50240EB5EDFCAA95731512CCDAF79758573A1F627DC47ADBDE7E PUSH2 0x721 JUMP JUMPDEST POP POP PUSH1 0x0 DUP1 MSTORE PUSH1 0x3 PUSH1 0x20 MSTORE PUSH32 0x3617319A054D772F909F7C479A2CEBE5066E836A939412E32403C99029B92EFF SLOAD DUP4 JUMPDEST PUSH1 0x0 SLOAD PUSH1 0x40 DUP1 MLOAD DUP1 DUP3 ADD DUP3 MSTORE DUP5 DUP2 MSTORE PUSH1 0x20 DUP2 ADD DUP5 SWAP1 MSTORE SWAP1 MLOAD PUSH32 0x29A5F2F600000000000000000000000000000000000000000000000000000000 DUP2 MSTORE PUSH20 0xFFFFFFFFFFFFFFFFFFFFFFFFFFFFFFFFFFFFFFFF SWAP1 SWAP3 AND SWAP2 PUSH4 0x29A5F2F6 SWAP2 PUSH2 0x787 SWAP2 PUSH1 0x4 ADD PUSH2 0x4249 JUMP JUMPDEST PUSH1 0x20 PUSH1 0x40 MLOAD DUP1 DUP4 SUB DUP2 DUP7 GAS STATICCALL ISZERO DUP1 ISZERO PUSH2 0x7A4 JUMPI RETURNDATASIZE PUSH1 0x0 DUP1 RETURNDATACOPY RETURNDATASIZE PUSH1 0x0 REVERT JUMPDEST POP POP POP POP PUSH1 0x40 MLOAD RETURNDATASIZE PUSH1 0x1F NOT PUSH1 0x1F DUP3 ADD AND DUP3 ADD DUP1 PUSH1 0x40 MSTORE POP DUP2 ADD SWAP1 PUSH2 0x7C8 SWAP2 SWAP1 PUSH2 0x427A JUMP JUMPDEST SWAP5 POP PUSH1 0x1 SWAP3 SWAP1 SWAP3 SHR SWAP2 PUSH2 0x7DC PUSH1 0x2 DUP5 PUSH2 0x42C2 JUMP JUMPDEST PUSH1 0x0 SUB PUSH2 0x83A JUMPI POP POP PUSH1 0x1 PUSH1 0x0 MSTORE PUSH1 0x3 PUSH1 0x20 MSTORE PUSH32 0xA15BC60C955C405D20D9149C709E2460F1C2D9A497496A7F46004D1772C3054C DUP4 SWAP1 SSTORE DUP3 PUSH32 0xBA2D612822AD57FD2285564F4BAD51F685240488003085993BF5EE8E63C31CB PUSH2 0x86A JUMP JUMPDEST POP POP PUSH1 0x1 PUSH1 0x0 MSTORE PUSH1 0x3 PUSH1 0x20 MSTORE PUSH32 0xA15BC60C955C405D20D9149C709E2460F1C2D9A497496A7F46004D1772C3054C SLOAD DUP4 JUMPDEST PUSH1 0x0 SLOAD PUSH1 0x40 DUP1 MLOAD DUP1 DUP3 ADD DUP3 MSTORE DUP5 DUP2 MSTORE PUSH1 0x20 DUP2 ADD DUP5 SWAP1 MSTORE SWAP1 MLOAD PUSH32 0x29A5F2F600000000000000000000000000000000000000000000000000000000 DUP2 MSTORE PUSH20 0xFFFFFFFFFFFFFFFFFFFFFFFFFFFFFFFFFFFFFFFF SWAP1 SWAP3 AND SWAP2 PUSH4 0x29A5F2F6 SWAP2 PUSH2 0x8D0 SWAP2 PUSH1 0x4 ADD PUSH2 0x4249 JUMP JUMPDEST PUSH1 0x20 PUSH1 0x40 MLOAD DUP1 DUP4 SUB DUP2 DUP7 GAS STATICCALL ISZERO DUP1 ISZERO PUSH2 0x8ED JUMPI RETURNDATASIZE PUSH1 0x0 DUP1 RETURNDATACOPY RETURNDATASIZE PUSH1 0x0 REVERT JUMPDEST POP POP POP POP PUSH1 0x40 MLOAD RETURNDATASIZE PUSH1 0x1F NOT PUSH1 0x1F DUP3 ADD AND DUP3 ADD DUP1 PUSH1 0x40 MSTORE POP DUP2 ADD SWAP1 PUSH2 0x911 SWAP2 SWAP1 PUSH2 0x427A JUMP JUMPDEST SWAP5 POP PUSH1 0x1 SWAP3 SWAP1 SWAP3 SHR SWAP2 PUSH2 0x925 PUSH1 0x2 DUP5 PUSH2 0x42C2 JUMP JUMPDEST PUSH1 0x0 SUB PUSH2 0x983 JUMPI POP POP PUSH1 0x2 PUSH1 0x0 MSTORE PUSH1 0x3 PUSH1 0x20 MSTORE PUSH32 0xC3A24B0501BD2C13A7E57F2DB4369EC4C223447539FC0724A9D55AC4A06EBD4D DUP4 SWAP1 SSTORE DUP3 PUSH32 0x27B302C974BF7444CB94F3EEAE53D5CB897748679C94958C692567ED97E96C3C PUSH2 0x9B3 JUMP JUMPDEST POP POP PUSH1 0x2 PUSH1 0x0 MSTORE PUSH1 0x3 PUSH1 0x20 MSTORE PUSH32 0xC3A24B0501BD2C13A7E57F2DB4369EC4C223447539FC0724A9D55AC4A06EBD4D SLOAD DUP4 JUMPDEST PUSH1 0x0 SLOAD PUSH1 0x40 DUP1 MLOAD DUP1 DUP3 ADD DUP3 MSTORE DUP5 DUP2 MSTORE PUSH1 0x20 DUP2 ADD DUP5 SWAP1 MSTORE SWAP1 MLOAD PUSH32 0x29A5F2F600000000000000000000000000000000000000000000000000000000 DUP2 MSTORE PUSH20 0xFFFFFFFFFFFFFFFFFFFFFFFFFFFFFFFFFFFFFFFF SWAP1 SWAP3 AND SWAP2 PUSH4 0x29A5F2F6 SWAP2 PUSH2 0xA19 SWAP2 PUSH1 0x4 ADD PUSH2 0x4249 JUMP JUMPDEST PUSH1 0x20 PUSH1 0x40 MLOAD DUP1 DUP4 SUB DUP2 DUP7 GAS STATICCALL ISZERO DUP1 ISZERO PUSH2 0xA36 JUMPI RETURNDATASIZE PUSH1 0x0 DUP1 RETURNDATACOPY RETURNDATASIZE PUSH1 0x0 REVERT JUMPDEST POP POP POP POP PUSH1 0x40 MLOAD RETURNDATASIZE PUSH1 0x1F NOT PUSH1 0x1F DUP3 ADD AND DUP3 ADD DUP1 PUSH1 0x40 MSTORE POP DUP2 ADD SWAP1 PUSH2 0xA5A SWAP2 SWAP1 PUSH2 0x427A JUMP JUMPDEST SWAP5 POP PUSH1 0x1 SWAP3 SWAP1 SWAP3 SHR SWAP2 PUSH2 0xA6E PUSH1 0x2 DUP5 PUSH2 0x42C2 JUMP JUMPDEST PUSH1 0x0 SUB PUSH2 0xACC JUMPI POP POP PUSH1 0x3 PUSH1 0x0 DUP2 SWAP1 MSTORE PUSH1 0x20 MSTORE PUSH32 0xCBC4E5FB02C3D1DE23A9F1E014B4D2EE5AEAEA9505DF5E855C9210BF472495AF DUP4 SWAP1 SSTORE DUP3 PUSH32 0x1C573635007D49A2E0E4E525A32CA29C3049377182BBB01EFEDDBCDFE513F82B PUSH2 0xAFC JUMP JUMPDEST POP POP PUSH1 0x3 PUSH1 0x0 DUP2 SWAP1 MSTORE PUSH1 0x20 MSTORE PUSH32 0xCBC4E5FB02C3D1DE23A9F1E014B4D2EE5AEAEA9505DF5E855C9210BF472495AF SLOAD DUP4 JUMPDEST PUSH1 0x0 SLOAD PUSH1 0x40 DUP1 MLOAD DUP1 DUP3 ADD DUP3 MSTORE DUP5 DUP2 MSTORE PUSH1 0x20 DUP2 ADD DUP5 SWAP1 MSTORE SWAP1 MLOAD PUSH32 0x29A5F2F600000000000000000000000000000000000000000000000000000000 DUP2 MSTORE PUSH20 0xFFFFFFFFFFFFFFFFFFFFFFFFFFFFFFFFFFFFFFFF SWAP1 SWAP3 AND SWAP2 PUSH4 0x29A5F2F6 SWAP2 PUSH2 0xB62 SWAP2 PUSH1 0x4 ADD PUSH2 0x4249 JUMP JUMPDEST PUSH1 0x20 PUSH1 0x40 MLOAD DUP1 DUP4 SUB DUP2 DUP7 GAS STATICCALL ISZERO DUP1 ISZERO PUSH2 0xB7F JUMPI RETURNDATASIZE PUSH1 0x0 DUP1 RETURNDATACOPY RETURNDATASIZE PUSH1 0x0 REVERT JUMPDEST POP POP POP POP PUSH1 0x40 MLOAD RETURNDATASIZE PUSH1 0x1F NOT PUSH1 0x1F DUP3 ADD AND DUP3 ADD DUP1 PUSH1 0x40 MSTORE POP DUP2 ADD SWAP1 PUSH2 0xBA3 SWAP2 SWAP1 PUSH2 0x427A JUMP JUMPDEST SWAP5 POP PUSH1 0x1 SWAP3 SWAP1 SWAP3 SHR SWAP2 PUSH2 0xBB7 PUSH1 0x2 DUP5 PUSH2 0x42C2 JUMP JUMPDEST PUSH1 0x0 SUB PUSH2 0xC15 JUMPI POP POP PUSH1 0x4 PUSH1 0x0 MSTORE PUSH1 0x3 PUSH1 0x20 MSTORE PUSH32 0x83EC6A1F0257B830B5E016457C9CF1435391BF56CC98F369A58A54FE93772465 DUP4 SWAP1 SSTORE DUP3 PUSH32 0x2E1BF7A6E73442CDEAEC1EB387D34B4A27F6957A2AE407BBA844135FCA5D8DBC PUSH2 0xC45 JUMP JUMPDEST POP POP PUSH1 0x4 PUSH1 0x0 MSTORE PUSH1 0x3 PUSH1 0x20 MSTORE PUSH32 0x83EC6A1F0257B830B5E016457C9CF1435391BF56CC98F369A58A54FE93772465 SLOAD DUP4 JUMPDEST PUSH1 0x0 SLOAD PUSH1 0x40 DUP1 MLOAD DUP1 DUP3 ADD DUP3 MSTORE DUP5 DUP2 MSTORE PUSH1 0x20 DUP2 ADD DUP5 SWAP1 MSTORE SWAP1 MLOAD PUSH32 0x29A5F2F600000000000000000000000000000000000000000000000000000000 DUP2 MSTORE PUSH20 0xFFFFFFFFFFFFFFFFFFFFFFFFFFFFFFFFFFFFFFFF SWAP1 SWAP3 AND SWAP2 PUSH4 0x29A5F2F6 SWAP2 PUSH2 0xCAB SWAP2 PUSH1 0x4 ADD PUSH2 0x4249 JUMP JUMPDEST PUSH1 0x20 PUSH1 0x40 MLOAD DUP1 DUP4 SUB DUP2 DUP7 GAS STATICCALL ISZERO DUP1 ISZERO PUSH2 0xCC8 JUMPI RETURNDATASIZE PUSH1 0x0 DUP1 RETURNDATACOPY RETURNDATASIZE PUSH1 0x0 REVERT JUMPDEST POP POP POP POP PUSH1 0x40 MLOAD RETURNDATASIZE PUSH1 0x1F NOT PUSH1 0x1F DUP3 ADD AND DUP3 ADD DUP1 PUSH1 0x40 MSTORE POP DUP2 ADD SWAP1 PUSH2 0xCEC SWAP2 SWAP1 PUSH2 0x427A JUMP JUMPDEST SWAP5 POP PUSH1 0x1 SWAP3 SWAP1 SWAP3 SHR SWAP2 PUSH2 0xD00 PUSH1 0x2 DUP5 PUSH2 0x42C2 JUMP JUMPDEST PUSH1 0x0 SUB PUSH2 0xD5D JUMPI POP POP PUSH1 0x5 PUSH1 0x0 MSTORE PUSH1 0x3 PUSH1 0x20 MSTORE PUSH32 0x405AAD32E1ADBAC89BB7F176E338B8FC6E994CA210C9BB7BDCA249B465942250 DUP4 SWAP1 SSTORE DUP3 PUSH31 0x9199390BDB47D6917F64668754DBEB426B43513FA7B0807D85794BD60270D PUSH2 0xD8D JUMP JUMPDEST POP POP PUSH1 0x5 PUSH1 0x0 MSTORE PUSH1 0x3 PUSH1 0x20 MSTORE PUSH32 0x405AAD32E1ADBAC89BB7F176E338B8FC6E994CA210C9BB7BDCA249B465942250 SLOAD DUP4 JUMPDEST PUSH1 0x0 SLOAD PUSH1 0x40 DUP1 MLOAD DUP1 DUP3 ADD DUP3 MSTORE DUP5 DUP2 MSTORE PUSH1 0x20 DUP2 ADD DUP5 SWAP1 MSTORE SWAP1 MLOAD PUSH32 0x29A5F2F600000000000000000000000000000000000000000000000000000000 DUP2 MSTORE PUSH20 0xFFFFFFFFFFFFFFFFFFFFFFFFFFFFFFFFFFFFFFFF SWAP1 SWAP3 AND SWAP2 PUSH4 0x29A5F2F6 SWAP2 PUSH2 0xDF3 SWAP2 PUSH1 0x4 ADD PUSH2 0x4249 JUMP JUMPDEST PUSH1 0x20 PUSH1 0x40 MLOAD DUP1 DUP4 SUB DUP2 DUP7 GAS STATICCALL ISZERO DUP1 ISZERO PUSH2 0xE10 JUMPI RETURNDATASIZE PUSH1 0x0 DUP1 RETURNDATACOPY RETURNDATASIZE PUSH1 0x0 REVERT JUMPDEST POP POP POP POP PUSH1 0x40 MLOAD RETURNDATASIZE PUSH1 0x1F NOT PUSH1 0x1F DUP3 ADD AND DUP3 ADD DUP1 PUSH1 0x40 MSTORE POP DUP2 ADD SWAP1 PUSH2 0xE34 SWAP2 SWAP1 PUSH2 0x427A JUMP JUMPDEST SWAP5 POP PUSH1 0x1 SWAP3 SWAP1 SWAP3 SHR SWAP2 PUSH2 0xE48 PUSH1 0x2 DUP5 PUSH2 0x42C2 JUMP JUMPDEST PUSH1 0x0 SUB PUSH2 0xEA6 JUMPI POP POP PUSH1 0x6 PUSH1 0x0 MSTORE PUSH1 0x3 PUSH1 0x20 MSTORE PUSH32 0xC69056F16CBAA3C616B828E333AB7D3A32310765507F8F58359E99EBB7A885F3 DUP4 SWAP1 SSTORE DUP3 PUSH32 0x2F7739FA804B1102B2E95582A4CFB3C25D26E1F70133A81E6FED8FEDBF7016EF PUSH2 0xED6 JUMP JUMPDEST POP POP PUSH1 0x6 PUSH1 0x0 MSTORE PUSH1 0x3 PUSH1 0x20 MSTORE PUSH32 0xC69056F16CBAA3C616B828E333AB7D3A32310765507F8F58359E99EBB7A885F3 SLOAD DUP4 JUMPDEST PUSH1 0x0 SLOAD PUSH1 0x40 DUP1 MLOAD DUP1 DUP3 ADD DUP3 MSTORE DUP5 DUP2 MSTORE PUSH1 0x20 DUP2 ADD DUP5 SWAP1 MSTORE SWAP1 MLOAD PUSH32 0x29A5F2F600000000000000000000000000000000000000000000000000000000 DUP2 MSTORE PUSH20 0xFFFFFFFFFFFFFFFFFFFFFFFFFFFFFFFFFFFFFFFF SWAP1 SWAP3 AND SWAP2 PUSH4 0x29A5F2F6 SWAP2 PUSH2 0xF3C SWAP2 PUSH1 0x4 ADD PUSH2 0x4249 JUMP JUMPDEST PUSH1 0x20 PUSH1 0x40 MLOAD DUP1 DUP4 SUB DUP2 DUP7 GAS STATICCALL ISZERO DUP1 ISZERO PUSH2 0xF59 JUMPI RETURNDATASIZE PUSH1 0x0 DUP1 RETURNDATACOPY RETURNDATASIZE PUSH1 0x0 REVERT JUMPDEST POP POP POP POP PUSH1 0x40 MLOAD RETURNDATASIZE PUSH1 0x1F NOT PUSH1 0x1F DUP3 ADD AND DUP3 ADD DUP1 PUSH1 0x40 MSTORE POP DUP2 ADD SWAP1 PUSH2 0xF7D SWAP2 SWAP1 PUSH2 0x427A JUMP JUMPDEST SWAP5 POP PUSH1 0x1 SWAP3 SWAP1 SWAP3 SHR SWAP2 PUSH2 0xF91 PUSH1 0x2 DUP5 PUSH2 0x42C2 JUMP JUMPDEST PUSH1 0x0 SUB PUSH2 0xFEE JUMPI POP POP PUSH1 0x7 PUSH1 0x0 MSTORE PUSH1 0x3 PUSH1 0x20 MSTORE PUSH32 0xF2C49132ED1CEE2A7E75BDE50D332A2F81F1D01E5456D8A19D1DF09BD561DBD2 DUP4 SWAP1 SSTORE DUP3 PUSH31 0x371F555C474E2F7846B97C7A90DAB5FCC55AC0010C271796AD497F66689033 PUSH2 0x101E JUMP JUMPDEST POP POP PUSH1 0x7 PUSH1 0x0 MSTORE PUSH1 0x3 PUSH1 0x20 MSTORE PUSH32 0xF2C49132ED1CEE2A7E75BDE50D332A2F81F1D01E5456D8A19D1DF09BD561DBD2 SLOAD DUP4 JUMPDEST PUSH1 0x0 SLOAD PUSH1 0x40 DUP1 MLOAD DUP1 DUP3 ADD DUP3 MSTORE DUP5 DUP2 MSTORE PUSH1 0x20 DUP2 ADD DUP5 SWAP1 MSTORE SWAP1 MLOAD PUSH32 0x29A5F2F600000000000000000000000000000000000000000000000000000000 DUP2 MSTORE PUSH20 0xFFFFFFFFFFFFFFFFFFFFFFFFFFFFFFFFFFFFFFFF SWAP1 SWAP3 AND SWAP2 PUSH4 0x29A5F2F6 SWAP2 PUSH2 0x1084 SWAP2 PUSH1 0x4 ADD PUSH2 0x4249 JUMP JUMPDEST PUSH1 0x20 PUSH1 0x40 MLOAD DUP1 DUP4 SUB DUP2 DUP7 GAS STATICCALL ISZERO DUP1 ISZERO PUSH2 0x10A1 JUMPI RETURNDATASIZE PUSH1 0x0 DUP1 RETURNDATACOPY RETURNDATASIZE PUSH1 0x0 REVERT JUMPDEST POP POP POP POP PUSH1 0x40 MLOAD RETURNDATASIZE PUSH1 0x1F NOT PUSH1 0x1F DUP3 ADD AND DUP3 ADD DUP1 PUSH1 0x40 MSTORE POP DUP2 ADD SWAP1 PUSH2 0x10C5 SWAP2 SWAP1 PUSH2 0x427A JUMP JUMPDEST SWAP5 POP PUSH1 0x1 SWAP3 SWAP1 SWAP3 SHR SWAP2 PUSH2 0x10D9 PUSH1 0x2 DUP5 PUSH2 0x42C2 JUMP JUMPDEST PUSH1 0x0 SUB PUSH2 0x1137 JUMPI POP POP PUSH1 0x8 PUSH1 0x0 MSTORE PUSH1 0x3 PUSH1 0x20 MSTORE PUSH32 0x85AAA47B6DC46495BB8824FAD4583769726FEA36EFD831A35556690B830A8FBE DUP4 SWAP1 SSTORE DUP3 PUSH32 0x15B36B0DEBB62E1B11A9E331644A806960A4DF8919180DC0745D17C7A912E989 PUSH2 0x1167 JUMP JUMPDEST POP POP PUSH1 0x8 PUSH1 0x0 MSTORE PUSH1 0x3 PUSH1 0x20 MSTORE PUSH32 0x85AAA47B6DC46495BB8824FAD4583769726FEA36EFD831A35556690B830A8FBE SLOAD DUP4 JUMPDEST PUSH1 0x0 SLOAD PUSH1 0x40 DUP1 MLOAD DUP1 DUP3 ADD DUP3 MSTORE DUP5 DUP2 MSTORE PUSH1 0x20 DUP2 ADD DUP5 SWAP1 MSTORE SWAP1 MLOAD PUSH32 0x29A5F2F600000000000000000000000000000000000000000000000000000000 DUP2 MSTORE PUSH20 0xFFFFFFFFFFFFFFFFFFFFFFFFFFFFFFFFFFFFFFFF SWAP1 SWAP3 AND SWAP2 PUSH4 0x29A5F2F6 SWAP2 PUSH2 0x11CD SWAP2 PUSH1 0x4 ADD PUSH2 0x4249 JUMP JUMPDEST PUSH1 0x20 PUSH1 0x40 MLOAD DUP1 DUP4 SUB DUP2 DUP7 GAS STATICCALL ISZERO DUP1 ISZERO PUSH2 0x11EA JUMPI RETURNDATASIZE PUSH1 0x0 DUP1 RETURNDATACOPY RETURNDATASIZE PUSH1 0x0 REVERT JUMPDEST POP POP POP POP PUSH1 0x40 MLOAD RETURNDATASIZE PUSH1 0x1F NOT PUSH1 0x1F DUP3 ADD AND DUP3 ADD DUP1 PUSH1 0x40 MSTORE POP DUP2 ADD SWAP1 PUSH2 0x120E SWAP2 SWAP1 PUSH2 0x427A JUMP JUMPDEST SWAP5 POP PUSH1 0x1 SWAP3 SWAP1 SWAP3 SHR SWAP2 PUSH2 0x1222 PUSH1 0x2 DUP5 PUSH2 0x42C2 JUMP JUMPDEST PUSH1 0x0 SUB PUSH2 0x1280 JUMPI POP POP PUSH1 0x9 PUSH1 0x0 MSTORE PUSH1 0x3 PUSH1 0x20 MSTORE PUSH32 0x8A8DC4E5242EA8B1AB1D60606DAE757E6C2CCA9F92A2CCED9F72C19960BCB458 DUP4 SWAP1 SSTORE DUP3 PUSH32 0xFAB3738A9EC3B9C6EAA98BF46972ED3CBBAE7982F0E69B3C7E9053ADF32290D PUSH2 0x12B0 JUMP JUMPDEST POP POP PUSH1 0x9 PUSH1 0x0 MSTORE PUSH1 0x3 PUSH1 0x20 MSTORE PUSH32 0x8A8DC4E5242EA8B1AB1D60606DAE757E6C2CCA9F92A2CCED9F72C19960BCB458 SLOAD DUP4 JUMPDEST PUSH1 0x0 SLOAD PUSH1 0x40 DUP1 MLOAD DUP1 DUP3 ADD DUP3 MSTORE DUP5 DUP2 MSTORE PUSH1 0x20 DUP2 ADD DUP5 SWAP1 MSTORE SWAP1 MLOAD PUSH32 0x29A5F2F600000000000000000000000000000000000000000000000000000000 DUP2 MSTORE PUSH20 0xFFFFFFFFFFFFFFFFFFFFFFFFFFFFFFFFFFFFFFFF SWAP1 SWAP3 AND SWAP2 PUSH4 0x29A5F2F6 SWAP2 PUSH2 0x1316 SWAP2 PUSH1 0x4 ADD PUSH2 0x4249 JUMP JUMPDEST PUSH1 0x20 PUSH1 0x40 MLOAD DUP1 DUP4 SUB DUP2 DUP7 GAS STATICCALL ISZERO DUP1 ISZERO PUSH2 0x1333 JUMPI RETURNDATASIZE PUSH1 0x0 DUP1 RETURNDATACOPY RETURNDATASIZE PUSH1 0x0 REVERT JUMPDEST POP POP POP POP PUSH1 0x40 MLOAD RETURNDATASIZE PUSH1 0x1F NOT PUSH1 0x1F DUP3 ADD AND DUP3 ADD DUP1 PUSH1 0x40 MSTORE POP DUP2 ADD SWAP1 PUSH2 0x1357 SWAP2 SWAP1 PUSH2 0x427A JUMP JUMPDEST SWAP5 POP PUSH1 0x1 SWAP3 SWAP1 SWAP3 SHR SWAP2 PUSH2 0x136B PUSH1 0x2 DUP5 PUSH2 0x42C2 JUMP JUMPDEST PUSH1 0x0 SUB PUSH2 0x13C9 JUMPI POP POP PUSH1 0xA PUSH1 0x0 MSTORE PUSH1 0x3 PUSH1 0x20 MSTORE PUSH32 0x9DCB9783BA5CD0B54745F65F4F918525E461E91888C334E5342CB380AC558D53 DUP4 SWAP1 SSTORE DUP3 PUSH32 0x16824B083A3F105F6671A504C2379DE67CC5154C5B557294E35D27D1D3531225 PUSH2 0x13F9 JUMP JUMPDEST POP POP PUSH1 0xA PUSH1 0x0 MSTORE PUSH1 0x3 PUSH1 0x20 MSTORE PUSH32 0x9DCB9783BA5CD0B54745F65F4F918525E461E91888C334E5342CB380AC558D53 SLOAD DUP4 JUMPDEST PUSH1 0x0 SLOAD PUSH1 0x40 DUP1 MLOAD DUP1 DUP3 ADD DUP3 MSTORE DUP5 DUP2 MSTORE PUSH1 0x20 DUP2 ADD DUP5 SWAP1 MSTORE SWAP1 MLOAD PUSH32 0x29A5F2F600000000000000000000000000000000000000000000000000000000 DUP2 MSTORE PUSH20 0xFFFFFFFFFFFFFFFFFFFFFFFFFFFFFFFFFFFFFFFF SWAP1 SWAP3 AND SWAP2 PUSH4 0x29A5F2F6 SWAP2 PUSH2 0x145F SWAP2 PUSH1 0x4 ADD PUSH2 0x4249 JUMP JUMPDEST PUSH1 0x20 PUSH1 0x40 MLOAD DUP1 DUP4 SUB DUP2 DUP7 GAS STATICCALL ISZERO DUP1 ISZERO PUSH2 0x147C JUMPI RETURNDATASIZE PUSH1 0x0 DUP1 RETURNDATACOPY RETURNDATASIZE PUSH1 0x0 REVERT JUMPDEST POP POP POP POP PUSH1 0x40 MLOAD RETURNDATASIZE PUSH1 0x1F NOT PUSH1 0x1F DUP3 ADD AND DUP3 ADD DUP1 PUSH1 0x40 MSTORE POP DUP2 ADD SWAP1 PUSH2 0x14A0 SWAP2 SWAP1 PUSH2 0x427A JUMP JUMPDEST SWAP5 POP PUSH1 0x1 SWAP3 SWAP1 SWAP3 SHR SWAP2 PUSH2 0x14B4 PUSH1 0x2 DUP5 PUSH2 0x42C2 JUMP JUMPDEST PUSH1 0x0 SUB PUSH2 0x1512 JUMPI POP POP PUSH1 0xB PUSH1 0x0 MSTORE PUSH1 0x3 PUSH1 0x20 MSTORE PUSH32 0x2D72AF3C1B2B2956E6F694FB741556D5CA9524373974378CDBEC16AFA8B84164 DUP4 SWAP1 SSTORE DUP3 PUSH32 0x297ECAE656A0FE904FE84F8DB691C7156A51DD5E228873CF75CED697DD8E5C19 PUSH2 0x1542 JUMP JUMPDEST POP POP PUSH1 0xB PUSH1 0x0 MSTORE PUSH1 0x3 PUSH1 0x20 MSTORE PUSH32 0x2D72AF3C1B2B2956E6F694FB741556D5CA9524373974378CDBEC16AFA8B84164 SLOAD DUP4 JUMPDEST PUSH1 0x0 SLOAD PUSH1 0x40 DUP1 MLOAD DUP1 DUP3 ADD DUP3 MSTORE DUP5 DUP2 MSTORE PUSH1 0x20 DUP2 ADD DUP5 SWAP1 MSTORE SWAP1 MLOAD PUSH32 0x29A5F2F600000000000000000000000000000000000000000000000000000000 DUP2 MSTORE PUSH20 0xFFFFFFFFFFFFFFFFFFFFFFFFFFFFFFFFFFFFFFFF SWAP1 SWAP3 AND SWAP2 PUSH4 0x29A5F2F6 SWAP2 PUSH2 0x15A8 SWAP2 PUSH1 0x4 ADD PUSH2 0x4249 JUMP JUMPDEST PUSH1 0x20 PUSH1 0x40 MLOAD DUP1 DUP4 SUB DUP2 DUP7 GAS STATICCALL ISZERO DUP1 ISZERO PUSH2 0x15C5 JUMPI RETURNDATASIZE PUSH1 0x0 DUP1 RETURNDATACOPY RETURNDATASIZE PUSH1 0x0 REVERT JUMPDEST POP POP POP POP PUSH1 0x40 MLOAD RETURNDATASIZE PUSH1 0x1F NOT PUSH1 0x1F DUP3 ADD AND DUP3 ADD DUP1 PUSH1 0x40 MSTORE POP DUP2 ADD SWAP1 PUSH2 0x15E9 SWAP2 SWAP1 PUSH2 0x427A JUMP JUMPDEST SWAP5 POP PUSH1 0x1 SWAP3 SWAP1 SWAP3 SHR SWAP2 PUSH2 0x15FD PUSH1 0x2 DUP5 PUSH2 0x42C2 JUMP JUMPDEST PUSH1 0x0 SUB PUSH2 0x165B JUMPI POP POP PUSH1 0xC PUSH1 0x0 MSTORE PUSH1 0x3 PUSH1 0x20 MSTORE PUSH32 0xD56A60595EBEFEBED7F22DCEE6C2ACC61B06CF8C68E84C88677840365D1FF92B DUP4 SWAP1 SSTORE DUP3 PUSH32 0x67C35B9AC5CDC355C6F9EAEF4721E6D622A4FD32D74D7BE3F78B17E5D8597EA PUSH2 0x168B JUMP JUMPDEST POP POP PUSH1 0xC PUSH1 0x0 MSTORE PUSH1 0x3 PUSH1 0x20 MSTORE PUSH32 0xD56A60595EBEFEBED7F22DCEE6C2ACC61B06CF8C68E84C88677840365D1FF92B SLOAD DUP4 JUMPDEST PUSH1 0x0 SLOAD PUSH1 0x40 DUP1 MLOAD DUP1 DUP3 ADD DUP3 MSTORE DUP5 DUP2 MSTORE PUSH1 0x20 DUP2 ADD DUP5 SWAP1 MSTORE SWAP1 MLOAD PUSH32 0x29A5F2F600000000000000000000000000000000000000000000000000000000 DUP2 MSTORE PUSH20 0xFFFFFFFFFFFFFFFFFFFFFFFFFFFFFFFFFFFFFFFF SWAP1 SWAP3 AND SWAP2 PUSH4 0x29A5F2F6 SWAP2 PUSH2 0x16F1 SWAP2 PUSH1 0x4 ADD PUSH2 0x4249 JUMP JUMPDEST PUSH1 0x20 PUSH1 0x40 MLOAD DUP1 DUP4 SUB DUP2 DUP7 GAS STATICCALL ISZERO DUP1 ISZERO PUSH2 0x170E JUMPI RETURNDATASIZE PUSH1 0x0 DUP1 RETURNDATACOPY RETURNDATASIZE PUSH1 0x0 REVERT JUMPDEST POP POP POP POP PUSH1 0x40 MLOAD RETURNDATASIZE PUSH1 0x1F NOT PUSH1 0x1F DUP3 ADD AND DUP3 ADD DUP1 PUSH1 0x40 MSTORE POP DUP2 ADD SWAP1 PUSH2 0x1732 SWAP2 SWAP1 PUSH2 0x427A JUMP JUMPDEST SWAP5 POP PUSH1 0x1 SWAP3 SWAP1 SWAP3 SHR SWAP2 PUSH2 0x1746 PUSH1 0x2 DUP5 PUSH2 0x42C2 JUMP JUMPDEST PUSH1 0x0 SUB PUSH2 0x17A4 JUMPI POP POP PUSH1 0xD PUSH1 0x0 MSTORE PUSH1 0x3 PUSH1 0x20 MSTORE PUSH32 0xA8F2D96126C6D0AD63ADABAEF7BF5CF47F163FB0C218A473D28F62312D197BCF DUP4 SWAP1 SSTORE DUP3 PUSH32 0x2C2633F1AE47AE42E0CE8EADEC89C64D44A1FA98F1EE85AD4BF536594AF4E27F PUSH2 0x17D4 JUMP JUMPDEST POP POP PUSH1 0xD PUSH1 0x0 MSTORE PUSH1 0x3 PUSH1 0x20 MSTORE PUSH32 0xA8F2D96126C6D0AD63ADABAEF7BF5CF47F163FB0C218A473D28F62312D197BCF SLOAD DUP4 JUMPDEST PUSH1 0x0 SLOAD PUSH1 0x40 DUP1 MLOAD DUP1 DUP3 ADD DUP3 MSTORE DUP5 DUP2 MSTORE PUSH1 0x20 DUP2 ADD DUP5 SWAP1 MSTORE SWAP1 MLOAD PUSH32 0x29A5F2F600000000000000000000000000000000000000000000000000000000 DUP2 MSTORE PUSH20 0xFFFFFFFFFFFFFFFFFFFFFFFFFFFFFFFFFFFFFFFF SWAP1 SWAP3 AND SWAP2 PUSH4 0x29A5F2F6 SWAP2 PUSH2 0x183A SWAP2 PUSH1 0x4 ADD PUSH2 0x4249 JUMP JUMPDEST PUSH1 0x20 PUSH1 0x40 MLOAD DUP1 DUP4 SUB DUP2 DUP7 GAS STATICCALL ISZERO DUP1 ISZERO PUSH2 0x1857 JUMPI RETURNDATASIZE PUSH1 0x0 DUP1 RETURNDATACOPY RETURNDATASIZE PUSH1 0x0 REVERT JUMPDEST POP POP POP POP PUSH1 0x40 MLOAD RETURNDATASIZE PUSH1 0x1F NOT PUSH1 0x1F DUP3 ADD AND DUP3 ADD DUP1 PUSH1 0x40 MSTORE POP DUP2 ADD SWAP1 PUSH2 0x187B SWAP2 SWAP1 PUSH2 0x427A JUMP JUMPDEST SWAP5 POP PUSH1 0x1 SWAP3 SWAP1 SWAP3 SHR SWAP2 PUSH2 0x188F PUSH1 0x2 DUP5 PUSH2 0x42C2 JUMP JUMPDEST PUSH1 0x0 SUB PUSH2 0x18ED JUMPI POP POP PUSH1 0xE PUSH1 0x0 MSTORE PUSH1 0x3 PUSH1 0x20 MSTORE PUSH32 0xD6EBCC64C739277B117CE359E436534B234B76E914C80AD276ABF5B562078939 DUP4 SWAP1 SSTORE DUP3 PUSH32 0x2D9C6E7ECA6E7BA2B8335AE16998576602FE7910FB5EF41CE94D00B1332CF624 PUSH2 0x191D JUMP JUMPDEST POP POP PUSH1 0xE PUSH1 0x0 MSTORE PUSH1 0x3 PUSH1 0x20 MSTORE PUSH32 0xD6EBCC64C739277B117CE359E436534B234B76E914C80AD276ABF5B562078939 SLOAD DUP4 JUMPDEST PUSH1 0x0 SLOAD PUSH1 0x40 DUP1 MLOAD DUP1 DUP3 ADD DUP3 MSTORE DUP5 DUP2 MSTORE PUSH1 0x20 DUP2 ADD DUP5 SWAP1 MSTORE SWAP1 MLOAD PUSH32 0x29A5F2F600000000000000000000000000000000000000000000000000000000 DUP2 MSTORE PUSH20 0xFFFFFFFFFFFFFFFFFFFFFFFFFFFFFFFFFFFFFFFF SWAP1 SWAP3 AND SWAP2 PUSH4 0x29A5F2F6 SWAP2 PUSH2 0x1983 SWAP2 PUSH1 0x4 ADD PUSH2 0x4249 JUMP JUMPDEST PUSH1 0x20 PUSH1 0x40 MLOAD DUP1 DUP4 SUB DUP2 DUP7 GAS STATICCALL ISZERO DUP1 ISZERO PUSH2 0x19A0 JUMPI RETURNDATASIZE PUSH1 0x0 DUP1 RETURNDATACOPY RETURNDATASIZE PUSH1 0x0 REVERT JUMPDEST POP POP POP POP PUSH1 0x40 MLOAD RETURNDATASIZE PUSH1 0x1F NOT PUSH1 0x1F DUP3 ADD AND DUP3 ADD DUP1 PUSH1 0x40 MSTORE POP DUP2 ADD SWAP1 PUSH2 0x19C4 SWAP2 SWAP1 PUSH2 0x427A JUMP JUMPDEST SWAP5 POP PUSH1 0x1 SWAP3 SWAP1 SWAP3 SHR SWAP2 PUSH2 0x19D8 PUSH1 0x2 DUP5 PUSH2 0x42C2 JUMP JUMPDEST PUSH1 0x0 SUB PUSH2 0x1A36 JUMPI POP POP PUSH1 0xF PUSH1 0x0 MSTORE PUSH1 0x3 PUSH1 0x20 MSTORE PUSH32 0xF60B7F6A315EC68A6AC240E69DCA53652B38627F709A2CAA217D9E18AF4D7A60 DUP4 SWAP1 SSTORE DUP3 PUSH32 0x239F1418B2B0A70F468D0903CC46524D8F7EFBDB2DFA561494CA5BFFCC787700 PUSH2 0x1A66 JUMP JUMPDEST POP POP PUSH1 0xF PUSH1 0x0 MSTORE PUSH1 0x3 PUSH1 0x20 MSTORE PUSH32 0xF60B7F6A315EC68A6AC240E69DCA53652B38627F709A2CAA217D9E18AF4D7A60 SLOAD DUP4 JUMPDEST PUSH1 0x0 SLOAD PUSH1 0x40 DUP1 MLOAD DUP1 DUP3 ADD DUP3 MSTORE DUP5 DUP2 MSTORE PUSH1 0x20 DUP2 ADD DUP5 SWAP1 MSTORE SWAP1 MLOAD PUSH32 0x29A5F2F600000000000000000000000000000000000000000000000000000000 DUP2 MSTORE PUSH20 0xFFFFFFFFFFFFFFFFFFFFFFFFFFFFFFFFFFFFFFFF SWAP1 SWAP3 AND SWAP2 PUSH4 0x29A5F2F6 SWAP2 PUSH2 0x1ACC SWAP2 PUSH1 0x4 ADD PUSH2 0x4249 JUMP JUMPDEST PUSH1 0x20 PUSH1 0x40 MLOAD DUP1 DUP4 SUB DUP2 DUP7 GAS STATICCALL ISZERO DUP1 ISZERO PUSH2 0x1AE9 JUMPI RETURNDATASIZE PUSH1 0x0 DUP1 RETURNDATACOPY RETURNDATASIZE PUSH1 0x0 REVERT JUMPDEST POP POP POP POP PUSH1 0x40 MLOAD RETURNDATASIZE PUSH1 0x1F NOT PUSH1 0x1F DUP3 ADD AND DUP3 ADD DUP1 PUSH1 0x40 MSTORE POP DUP2 ADD SWAP1 PUSH2 0x1B0D SWAP2 SWAP1 PUSH2 0x427A JUMP JUMPDEST SWAP5 POP PUSH1 0x1 SWAP3 SWAP1 SWAP3 SHR SWAP2 PUSH2 0x1B21 PUSH1 0x2 DUP5 PUSH2 0x42C2 JUMP JUMPDEST PUSH1 0x0 SUB PUSH2 0x1B7F JUMPI POP POP PUSH1 0x10 PUSH1 0x0 MSTORE PUSH1 0x3 PUSH1 0x20 MSTORE PUSH32 0x47D4745E02B343689A5E7AC121D2A352B7A15C10328A8759FD7D4CF0999002BB DUP4 SWAP1 SSTORE DUP3 PUSH32 0xB15E263911EE4D77B6A394B70DC93AD3DF6DFDF6A3F7605F9CAFB6968D8F1F6 PUSH2 0x1BAF JUMP JUMPDEST POP POP PUSH1 0x10 PUSH1 0x0 MSTORE PUSH1 0x3 PUSH1 0x20 MSTORE PUSH32 0x47D4745E02B343689A5E7AC121D2A352B7A15C10328A8759FD7D4CF0999002BB SLOAD DUP4 JUMPDEST PUSH1 0x0 SLOAD PUSH1 0x40 DUP1 MLOAD DUP1 DUP3 ADD DUP3 MSTORE DUP5 DUP2 MSTORE PUSH1 0x20 DUP2 ADD DUP5 SWAP1 MSTORE SWAP1 MLOAD PUSH32 0x29A5F2F600000000000000000000000000000000000000000000000000000000 DUP2 MSTORE PUSH20 0xFFFFFFFFFFFFFFFFFFFFFFFFFFFFFFFFFFFFFFFF SWAP1 SWAP3 AND SWAP2 PUSH4 0x29A5F2F6 SWAP2 PUSH2 0x1C15 SWAP2 PUSH1 0x4 ADD PUSH2 0x4249 JUMP JUMPDEST PUSH1 0x20 PUSH1 0x40 MLOAD DUP1 DUP4 SUB DUP2 DUP7 GAS STATICCALL ISZERO DUP1 ISZERO PUSH2 0x1C32 JUMPI RETURNDATASIZE PUSH1 0x0 DUP1 RETURNDATACOPY RETURNDATASIZE PUSH1 0x0 REVERT JUMPDEST POP POP POP POP PUSH1 0x40 MLOAD RETURNDATASIZE PUSH1 0x1F NOT PUSH1 0x1F DUP3 ADD AND DUP3 ADD DUP1 PUSH1 0x40 MSTORE POP DUP2 ADD SWAP1 PUSH2 0x1C56 SWAP2 SWAP1 PUSH2 0x427A JUMP JUMPDEST SWAP5 POP PUSH1 0x1 SWAP3 SWAP1 SWAP3 SHR SWAP2 PUSH2 0x1C6A PUSH1 0x2 DUP5 PUSH2 0x42C2 JUMP JUMPDEST PUSH1 0x0 SUB PUSH2 0x1CC8 JUMPI POP POP PUSH1 0x11 PUSH1 0x0 MSTORE PUSH1 0x3 PUSH1 0x20 MSTORE PUSH32 0xFC111D09A6E2F0958402CBE16A5AEF32C9D8DDB9A4DF7271140DE57BFED6525A DUP4 SWAP1 SSTORE DUP3 PUSH32 0x2C069C957125A3E2CB4E16CA506D5F4F387D11D1AEA33B30A8DD4CA3074F4DE6 PUSH2 0x1CF8 JUMP JUMPDEST POP POP PUSH1 0x11 PUSH1 0x0 MSTORE PUSH1 0x3 PUSH1 0x20 MSTORE PUSH32 0xFC111D09A6E2F0958402CBE16A5AEF32C9D8DDB9A4DF7271140DE57BFED6525A SLOAD DUP4 JUMPDEST PUSH1 0x0 SLOAD PUSH1 0x40 DUP1 MLOAD DUP1 DUP3 ADD DUP3 MSTORE DUP5 DUP2 MSTORE PUSH1 0x20 DUP2 ADD DUP5 SWAP1 MSTORE SWAP1 MLOAD PUSH32 0x29A5F2F600000000000000000000000000000000000000000000000000000000 DUP2 MSTORE PUSH20 0xFFFFFFFFFFFFFFFFFFFFFFFFFFFFFFFFFFFFFFFF SWAP1 SWAP3 AND SWAP2 PUSH4 0x29A5F2F6 SWAP2 PUSH2 0x1D5E SWAP2 PUSH1 0x4 ADD PUSH2 0x4249 JUMP JUMPDEST PUSH1 0x20 PUSH1 0x40 MLOAD DUP1 DUP4 SUB DUP2 DUP7 GAS STATICCALL ISZERO DUP1 ISZERO PUSH2 0x1D7B JUMPI RETURNDATASIZE PUSH1 0x0 DUP1 RETURNDATACOPY RETURNDATASIZE PUSH1 0x0 REVERT JUMPDEST POP POP POP POP PUSH1 0x40 MLOAD RETURNDATASIZE PUSH1 0x1F NOT PUSH1 0x1F DUP3 ADD AND DUP3 ADD DUP1 PUSH1 0x40 MSTORE POP DUP2 ADD SWAP1 PUSH2 0x1D9F SWAP2 SWAP1 PUSH2 0x427A JUMP JUMPDEST SWAP5 POP PUSH1 0x1 SWAP3 SWAP1 SWAP3 SHR SWAP2 PUSH2 0x1DB3 PUSH1 0x2 DUP5 PUSH2 0x42C2 JUMP JUMPDEST PUSH1 0x0 SUB PUSH2 0x1E11 JUMPI POP POP PUSH1 0x12 PUSH1 0x0 MSTORE PUSH1 0x3 PUSH1 0x20 MSTORE PUSH32 0x6A2B6BFFACA788160F671FA62D34758B717F75A90AD5A468757C50D61F33C443 DUP4 SWAP1 SSTORE DUP3 PUSH32 0xBE6D282D26C02019FD66E32C8D85154B77253E7C6016B26A991352E0016D580 PUSH2 0x1E41 JUMP JUMPDEST POP POP PUSH1 0x12 PUSH1 0x0 MSTORE PUSH1 0x3 PUSH1 0x20 MSTORE PUSH32 0x6A2B6BFFACA788160F671FA62D34758B717F75A90AD5A468757C50D61F33C443 SLOAD DUP4 JUMPDEST PUSH1 0x0 SLOAD PUSH1 0x40 DUP1 MLOAD DUP1 DUP3 ADD DUP3 MSTORE DUP5 DUP2 MSTORE PUSH1 0x20 DUP2 ADD DUP5 SWAP1 MSTORE SWAP1 MLOAD PUSH32 0x29A5F2F600000000000000000000000000000000000000000000000000000000 DUP2 MSTORE PUSH20 0xFFFFFFFFFFFFFFFFFFFFFFFFFFFFFFFFFFFFFFFF SWAP1 SWAP3 AND SWAP2 PUSH4 0x29A5F2F6 SWAP2 PUSH2 0x1EA7 SWAP2 PUSH1 0x4 ADD PUSH2 0x4249 JUMP JUMPDEST PUSH1 0x20 PUSH1 0x40 MLOAD DUP1 DUP4 SUB DUP2 DUP7 GAS STATICCALL ISZERO DUP1 ISZERO PUSH2 0x1EC4 JUMPI RETURNDATASIZE PUSH1 0x0 DUP1 RETURNDATACOPY RETURNDATASIZE PUSH1 0x0 REVERT JUMPDEST POP POP POP POP PUSH1 0x40 MLOAD RETURNDATASIZE PUSH1 0x1F NOT PUSH1 0x1F DUP3 ADD AND DUP3 ADD DUP1 PUSH1 0x40 MSTORE POP DUP2 ADD SWAP1 PUSH2 0x1EE8 SWAP2 SWAP1 PUSH2 0x427A JUMP JUMPDEST SWAP5 POP PUSH1 0x1 SWAP3 SWAP1 SWAP3 SHR SWAP2 PUSH2 0x1EFC PUSH1 0x2 DUP5 PUSH2 0x42C2 JUMP JUMPDEST PUSH1 0x0 SUB PUSH2 0x1F5A JUMPI POP POP PUSH1 0x13 PUSH1 0x0 MSTORE PUSH1 0x3 PUSH1 0x20 MSTORE PUSH32 0x8A8166BE5F30ABEB6C91EE2F07EEB0B2EB14B4D59534D10A1C143964BD617919 DUP4 SWAP1 SSTORE DUP3 PUSH32 0x1E29CFB0C1AD522F22A3B3E23C057CBD3C7AB921E742A8DFCBC66DBDE917D5B2 PUSH2 0x1F8A JUMP JUMPDEST POP POP PUSH1 0x13 PUSH1 0x0 MSTORE PUSH1 0x3 PUSH1 0x20 MSTORE PUSH32 0x8A8166BE5F30ABEB6C91EE2F07EEB0B2EB14B4D59534D10A1C143964BD617919 SLOAD DUP4 JUMPDEST PUSH1 0x0 SLOAD PUSH1 0x40 DUP1 MLOAD DUP1 DUP3 ADD DUP3 MSTORE DUP5 DUP2 MSTORE PUSH1 0x20 DUP2 ADD DUP5 SWAP1 MSTORE SWAP1 MLOAD PUSH32 0x29A5F2F600000000000000000000000000000000000000000000000000000000 DUP2 MSTORE PUSH20 0xFFFFFFFFFFFFFFFFFFFFFFFFFFFFFFFFFFFFFFFF SWAP1 SWAP3 AND SWAP2 PUSH4 0x29A5F2F6 SWAP2 PUSH2 0x1FF0 SWAP2 PUSH1 0x4 ADD PUSH2 0x4249 JUMP JUMPDEST PUSH1 0x20 PUSH1 0x40 MLOAD DUP1 DUP4 SUB DUP2 DUP7 GAS STATICCALL ISZERO DUP1 ISZERO PUSH2 0x200D JUMPI RETURNDATASIZE PUSH1 0x0 DUP1 RETURNDATACOPY RETURNDATASIZE PUSH1 0x0 REVERT JUMPDEST POP POP POP POP PUSH1 0x40 MLOAD RETURNDATASIZE PUSH1 0x1F NOT PUSH1 0x1F DUP3 ADD AND DUP3 ADD DUP1 PUSH1 0x40 MSTORE POP DUP2 ADD SWAP1 PUSH2 0x2031 SWAP2 SWAP1 PUSH2 0x427A JUMP JUMPDEST SWAP5 POP PUSH1 0x0 PUSH1 0x1E PUSH1 0x1 DUP1 SLOAD ADDMOD PUSH1 0x1 DUP2 DUP2 SSTORE PUSH1 0x0 SWAP2 DUP3 MSTORE PUSH1 0x4 PUSH1 0x20 MSTORE PUSH1 0x40 SWAP1 SWAP2 KECCAK256 SWAP7 SWAP1 SWAP7 SSTORE POP POP PUSH1 0x2 DUP1 SLOAD SWAP5 DUP6 ADD SWAP1 SSTORE POP SWAP2 SWAP3 SWAP2 POP POP JUMP JUMPDEST PUSH1 0x2 SLOAD PUSH1 0x0 SWAP1 PUSH32 0xFFFFFFFFFFFFFFFFFFFFFFFFFFFFFFFFFFFFFFFFFFFFFFFFFFFFFFFFFFF00000 DUP2 ADD PUSH2 0x20C6 JUMPI PUSH1 0x40 MLOAD PUSH32 0x6DEFAA3500000000000000000000000000000000000000000000000000000000 DUP2 MSTORE PUSH1 0x4 ADD PUSH1 0x40 MLOAD DUP1 SWAP2 SUB SWAP1 REVERT JUMPDEST PUSH1 0x0 DUP1 PUSH1 0x0 JUMPDEST PUSH1 0x14 DUP2 LT ISZERO PUSH2 0x21CF JUMPI PUSH1 0x1 DUP5 DUP3 SHR AND PUSH1 0x0 SUB PUSH2 0x2109 JUMPI PUSH1 0x0 DUP2 DUP2 MSTORE PUSH1 0x5 PUSH1 0x20 SWAP1 DUP2 MSTORE PUSH1 0x40 DUP1 DUP4 KECCAK256 SLOAD PUSH1 0x3 SWAP1 SWAP3 MSTORE SWAP1 SWAP2 KECCAK256 DUP8 SWAP1 SSTORE DUP7 SWAP4 POP SWAP2 POP PUSH2 0x211E JUMP JUMPDEST PUSH1 0x0 DUP2 DUP2 MSTORE PUSH1 0x3 PUSH1 0x20 MSTORE PUSH1 0x40 SWAP1 KECCAK256 SLOAD SWAP3 POP DUP6 SWAP2 POP JUMPDEST PUSH1 0x0 SLOAD PUSH1 0x40 DUP1 MLOAD DUP1 DUP3 ADD DUP3 MSTORE DUP6 DUP2 MSTORE PUSH1 0x20 DUP2 ADD DUP6 SWAP1 MSTORE SWAP1 MLOAD PUSH32 0x29A5F2F600000000000000000000000000000000000000000000000000000000 DUP2 MSTORE PUSH20 0xFFFFFFFFFFFFFFFFFFFFFFFFFFFFFFFFFFFFFFFF SWAP1 SWAP3 AND SWAP2 PUSH4 0x29A5F2F6 SWAP2 PUSH2 0x2184 SWAP2 PUSH1 0x4 ADD PUSH2 0x4249 JUMP JUMPDEST PUSH1 0x20 PUSH1 0x40 MLOAD DUP1 DUP4 SUB DUP2 DUP7 GAS STATICCALL ISZERO DUP1 ISZERO PUSH2 0x21A1 JUMPI RETURNDATASIZE PUSH1 0x0 DUP1 RETURNDATACOPY RETURNDATASIZE PUSH1 0x0 REVERT JUMPDEST POP POP POP POP PUSH1 0x40 MLOAD RETURNDATASIZE PUSH1 0x1F NOT PUSH1 0x1F DUP3 ADD AND DUP3 ADD DUP1 PUSH1 0x40 MSTORE POP DUP2 ADD SWAP1 PUSH2 0x21C5 SWAP2 SWAP1 PUSH2 0x427A JUMP JUMPDEST SWAP6 POP PUSH1 0x1 ADD PUSH2 0x20CC JUMP JUMPDEST POP PUSH1 0x0 PUSH1 0x1E JUMPDEST PUSH1 0x1 DUP1 SLOAD ADDMOD PUSH1 0x1 DUP2 DUP2 SSTORE PUSH1 0x0 SWAP2 DUP3 MSTORE PUSH1 0x4 PUSH1 0x20 MSTORE PUSH1 0x40 SWAP1 SWAP2 KECCAK256 SWAP7 SWAP1 SWAP7 SSTORE POP POP POP SWAP2 DUP3 ADD PUSH1 0x2 SSTORE POP SWAP1 JUMP JUMPDEST PUSH1 0x2 SLOAD PUSH1 0x0 SWAP1 PUSH32 0xFFFFFFFFFFFFFFFFFFFFFFFFFFFFFFFFFFFFFFFFFFFFFFFFFFFFFFFFFFF00000 DUP2 ADD PUSH2 0x225E JUMPI PUSH1 0x40 MLOAD PUSH32 0x6DEFAA3500000000000000000000000000000000000000000000000000000000 DUP2 MSTORE PUSH1 0x4 ADD PUSH1 0x40 MLOAD DUP1 SWAP2 SUB SWAP1 REVERT JUMPDEST PUSH1 0x0 DUP1 PUSH1 0x1 DUP4 AND DUP2 SUB PUSH2 0x22C1 JUMPI POP POP PUSH1 0x0 DUP1 MSTORE PUSH1 0x3 PUSH1 0x20 MSTORE PUSH32 0x3617319A054D772F909F7C479A2CEBE5066E836A939412E32403C99029B92EFF DUP4 SWAP1 SSTORE DUP3 PUSH32 0x133A292295D50240EB5EDFCAA95731512CCDAF79758573A1F627DC47ADBDE7E PUSH2 0x22F0 JUMP JUMPDEST POP POP PUSH1 0x0 DUP1 MSTORE PUSH1 0x3 PUSH1 0x20 MSTORE PUSH32 0x3617319A054D772F909F7C479A2CEBE5066E836A939412E32403C99029B92EFF SLOAD DUP4 JUMPDEST PUSH1 0x0 SLOAD PUSH1 0x40 DUP1 MLOAD DUP1 DUP3 ADD DUP3 MSTORE DUP5 DUP2 MSTORE PUSH1 0x20 DUP2 ADD DUP5 SWAP1 MSTORE SWAP1 MLOAD PUSH32 0x29A5F2F600000000000000000000000000000000000000000000000000000000 DUP2 MSTORE PUSH20 0xFFFFFFFFFFFFFFFFFFFFFFFFFFFFFFFFFFFFFFFF SWAP1 SWAP3 AND SWAP2 PUSH4 0x29A5F2F6 SWAP2 PUSH2 0x2356 SWAP2 PUSH1 0x4 ADD PUSH2 0x4249 JUMP JUMPDEST PUSH1 0x20 PUSH1 0x40 MLOAD DUP1 DUP4 SUB DUP2 DUP7 GAS STATICCALL ISZERO DUP1 ISZERO PUSH2 0x2373 JUMPI RETURNDATASIZE PUSH1 0x0 DUP1 RETURNDATACOPY RETURNDATASIZE PUSH1 0x0 REVERT JUMPDEST POP POP POP POP PUSH1 0x40 MLOAD RETURNDATASIZE PUSH1 0x1F NOT PUSH1 0x1F DUP3 ADD AND DUP3 ADD DUP1 PUSH1 0x40 MSTORE POP DUP2 ADD SWAP1 PUSH2 0x2397 SWAP2 SWAP1 PUSH2 0x427A JUMP JUMPDEST SWAP5 POP PUSH1 0x1 DUP4 DUP2 SHR AND PUSH1 0x0 SUB PUSH2 0x23FD JUMPI POP POP PUSH1 0x1 PUSH1 0x0 MSTORE PUSH1 0x3 PUSH1 0x20 MSTORE PUSH32 0xA15BC60C955C405D20D9149C709E2460F1C2D9A497496A7F46004D1772C3054C DUP4 SWAP1 SSTORE DUP3 PUSH32 0xBA2D612822AD57FD2285564F4BAD51F685240488003085993BF5EE8E63C31CB PUSH2 0x242D JUMP JUMPDEST POP POP PUSH1 0x1 PUSH1 0x0 MSTORE PUSH1 0x3 PUSH1 0x20 MSTORE PUSH32 0xA15BC60C955C405D20D9149C709E2460F1C2D9A497496A7F46004D1772C3054C SLOAD DUP4 JUMPDEST PUSH1 0x0 SLOAD PUSH1 0x40 DUP1 MLOAD DUP1 DUP3 ADD DUP3 MSTORE DUP5 DUP2 MSTORE PUSH1 0x20 DUP2 ADD DUP5 SWAP1 MSTORE SWAP1 MLOAD PUSH32 0x29A5F2F600000000000000000000000000000000000000000000000000000000 DUP2 MSTORE PUSH20 0xFFFFFFFFFFFFFFFFFFFFFFFFFFFFFFFFFFFFFFFF SWAP1 SWAP3 AND SWAP2 PUSH4 0x29A5F2F6 SWAP2 PUSH2 0x2493 SWAP2 PUSH1 0x4 ADD PUSH2 0x4249 JUMP JUMPDEST PUSH1 0x20 PUSH1 0x40 MLOAD DUP1 DUP4 SUB DUP2 DUP7 GAS STATICCALL ISZERO DUP1 ISZERO PUSH2 0x24B0 JUMPI RETURNDATASIZE PUSH1 0x0 DUP1 RETURNDATACOPY RETURNDATASIZE PUSH1 0x0 REVERT JUMPDEST POP POP POP POP PUSH1 0x40 MLOAD RETURNDATASIZE PUSH1 0x1F NOT PUSH1 0x1F DUP3 ADD AND DUP3 ADD DUP1 PUSH1 0x40 MSTORE POP DUP2 ADD SWAP1 PUSH2 0x24D4 SWAP2 SWAP1 PUSH2 0x427A JUMP JUMPDEST SWAP5 POP PUSH1 0x2 DUP4 SWAP1 SHR PUSH1 0x1 AND PUSH1 0x0 SUB PUSH2 0x253C JUMPI POP POP PUSH1 0x2 PUSH1 0x0 MSTORE PUSH1 0x3 PUSH1 0x20 MSTORE PUSH32 0xC3A24B0501BD2C13A7E57F2DB4369EC4C223447539FC0724A9D55AC4A06EBD4D DUP4 SWAP1 SSTORE DUP3 PUSH32 0x27B302C974BF7444CB94F3EEAE53D5CB897748679C94958C692567ED97E96C3C PUSH2 0x256C JUMP JUMPDEST POP POP PUSH1 0x2 PUSH1 0x0 MSTORE PUSH1 0x3 PUSH1 0x20 MSTORE PUSH32 0xC3A24B0501BD2C13A7E57F2DB4369EC4C223447539FC0724A9D55AC4A06EBD4D SLOAD DUP4 JUMPDEST PUSH1 0x0 SLOAD PUSH1 0x40 DUP1 MLOAD DUP1 DUP3 ADD DUP3 MSTORE DUP5 DUP2 MSTORE PUSH1 0x20 DUP2 ADD DUP5 SWAP1 MSTORE SWAP1 MLOAD PUSH32 0x29A5F2F600000000000000000000000000000000000000000000000000000000 DUP2 MSTORE PUSH20 0xFFFFFFFFFFFFFFFFFFFFFFFFFFFFFFFFFFFFFFFF SWAP1 SWAP3 AND SWAP2 PUSH4 0x29A5F2F6 SWAP2 PUSH2 0x25D2 SWAP2 PUSH1 0x4 ADD PUSH2 0x4249 JUMP JUMPDEST PUSH1 0x20 PUSH1 0x40 MLOAD DUP1 DUP4 SUB DUP2 DUP7 GAS STATICCALL ISZERO DUP1 ISZERO PUSH2 0x25EF JUMPI RETURNDATASIZE PUSH1 0x0 DUP1 RETURNDATACOPY RETURNDATASIZE PUSH1 0x0 REVERT JUMPDEST POP POP POP POP PUSH1 0x40 MLOAD RETURNDATASIZE PUSH1 0x1F NOT PUSH1 0x1F DUP3 ADD AND DUP3 ADD DUP1 PUSH1 0x40 MSTORE POP DUP2 ADD SWAP1 PUSH2 0x2613 SWAP2 SWAP1 PUSH2 0x427A JUMP JUMPDEST SWAP5 POP PUSH1 0x3 DUP4 SWAP1 SHR PUSH1 0x1 AND PUSH1 0x0 SUB PUSH2 0x267B JUMPI POP POP PUSH1 0x3 PUSH1 0x0 DUP2 SWAP1 MSTORE PUSH1 0x20 MSTORE PUSH32 0xCBC4E5FB02C3D1DE23A9F1E014B4D2EE5AEAEA9505DF5E855C9210BF472495AF DUP4 SWAP1 SSTORE DUP3 PUSH32 0x1C573635007D49A2E0E4E525A32CA29C3049377182BBB01EFEDDBCDFE513F82B PUSH2 0x26AB JUMP JUMPDEST POP POP PUSH1 0x3 PUSH1 0x0 DUP2 SWAP1 MSTORE PUSH1 0x20 MSTORE PUSH32 0xCBC4E5FB02C3D1DE23A9F1E014B4D2EE5AEAEA9505DF5E855C9210BF472495AF SLOAD DUP4 JUMPDEST PUSH1 0x0 SLOAD PUSH1 0x40 DUP1 MLOAD DUP1 DUP3 ADD DUP3 MSTORE DUP5 DUP2 MSTORE PUSH1 0x20 DUP2 ADD DUP5 SWAP1 MSTORE SWAP1 MLOAD PUSH32 0x29A5F2F600000000000000000000000000000000000000000000000000000000 DUP2 MSTORE PUSH20 0xFFFFFFFFFFFFFFFFFFFFFFFFFFFFFFFFFFFFFFFF SWAP1 SWAP3 AND SWAP2 PUSH4 0x29A5F2F6 SWAP2 PUSH2 0x2711 SWAP2 PUSH1 0x4 ADD PUSH2 0x4249 JUMP JUMPDEST PUSH1 0x20 PUSH1 0x40 MLOAD DUP1 DUP4 SUB DUP2 DUP7 GAS STATICCALL ISZERO DUP1 ISZERO PUSH2 0x272E JUMPI RETURNDATASIZE PUSH1 0x0 DUP1 RETURNDATACOPY RETURNDATASIZE PUSH1 0x0 REVERT JUMPDEST POP POP POP POP PUSH1 0x40 MLOAD RETURNDATASIZE PUSH1 0x1F NOT PUSH1 0x1F DUP3 ADD AND DUP3 ADD DUP1 PUSH1 0x40 MSTORE POP DUP2 ADD SWAP1 PUSH2 0x2752 SWAP2 SWAP1 PUSH2 0x427A JUMP JUMPDEST SWAP5 POP PUSH1 0x4 DUP4 SWAP1 SHR PUSH1 0x1 AND PUSH1 0x0 SUB PUSH2 0x27BA JUMPI POP POP PUSH1 0x4 PUSH1 0x0 MSTORE PUSH1 0x3 PUSH1 0x20 MSTORE PUSH32 0x83EC6A1F0257B830B5E016457C9CF1435391BF56CC98F369A58A54FE93772465 DUP4 SWAP1 SSTORE DUP3 PUSH32 0x2E1BF7A6E73442CDEAEC1EB387D34B4A27F6957A2AE407BBA844135FCA5D8DBC PUSH2 0x27EA JUMP JUMPDEST POP POP PUSH1 0x4 PUSH1 0x0 MSTORE PUSH1 0x3 PUSH1 0x20 MSTORE PUSH32 0x83EC6A1F0257B830B5E016457C9CF1435391BF56CC98F369A58A54FE93772465 SLOAD DUP4 JUMPDEST PUSH1 0x0 SLOAD PUSH1 0x40 DUP1 MLOAD DUP1 DUP3 ADD DUP3 MSTORE DUP5 DUP2 MSTORE PUSH1 0x20 DUP2 ADD DUP5 SWAP1 MSTORE SWAP1 MLOAD PUSH32 0x29A5F2F600000000000000000000000000000000000000000000000000000000 DUP2 MSTORE PUSH20 0xFFFFFFFFFFFFFFFFFFFFFFFFFFFFFFFFFFFFFFFF SWAP1 SWAP3 AND SWAP2 PUSH4 0x29A5F2F6 SWAP2 PUSH2 0x2850 SWAP2 PUSH1 0x4 ADD PUSH2 0x4249 JUMP JUMPDEST PUSH1 0x20 PUSH1 0x40 MLOAD DUP1 DUP4 SUB DUP2 DUP7 GAS STATICCALL ISZERO DUP1 ISZERO PUSH2 0x286D JUMPI RETURNDATASIZE PUSH1 0x0 DUP1 RETURNDATACOPY RETURNDATASIZE PUSH1 0x0 REVERT JUMPDEST POP POP POP POP PUSH1 0x40 MLOAD RETURNDATASIZE PUSH1 0x1F NOT PUSH1 0x1F DUP3 ADD AND DUP3 ADD DUP1 PUSH1 0x40 MSTORE POP DUP2 ADD SWAP1 PUSH2 0x2891 SWAP2 SWAP1 PUSH2 0x427A JUMP JUMPDEST SWAP5 POP PUSH1 0x5 DUP4 SWAP1 SHR PUSH1 0x1 AND PUSH1 0x0 SUB PUSH2 0x28F8 JUMPI POP POP PUSH1 0x5 PUSH1 0x0 MSTORE PUSH1 0x3 PUSH1 0x20 MSTORE PUSH32 0x405AAD32E1ADBAC89BB7F176E338B8FC6E994CA210C9BB7BDCA249B465942250 DUP4 SWAP1 SSTORE DUP3 PUSH31 0x9199390BDB47D6917F64668754DBEB426B43513FA7B0807D85794BD60270D PUSH2 0x2928 JUMP JUMPDEST POP POP PUSH1 0x5 PUSH1 0x0 MSTORE PUSH1 0x3 PUSH1 0x20 MSTORE PUSH32 0x405AAD32E1ADBAC89BB7F176E338B8FC6E994CA210C9BB7BDCA249B465942250 SLOAD DUP4 JUMPDEST PUSH1 0x0 SLOAD PUSH1 0x40 DUP1 MLOAD DUP1 DUP3 ADD DUP3 MSTORE DUP5 DUP2 MSTORE PUSH1 0x20 DUP2 ADD DUP5 SWAP1 MSTORE SWAP1 MLOAD PUSH32 0x29A5F2F600000000000000000000000000000000000000000000000000000000 DUP2 MSTORE PUSH20 0xFFFFFFFFFFFFFFFFFFFFFFFFFFFFFFFFFFFFFFFF SWAP1 SWAP3 AND SWAP2 PUSH4 0x29A5F2F6 SWAP2 PUSH2 0x298E SWAP2 PUSH1 0x4 ADD PUSH2 0x4249 JUMP JUMPDEST PUSH1 0x20 PUSH1 0x40 MLOAD DUP1 DUP4 SUB DUP2 DUP7 GAS STATICCALL ISZERO DUP1 ISZERO PUSH2 0x29AB JUMPI RETURNDATASIZE PUSH1 0x0 DUP1 RETURNDATACOPY RETURNDATASIZE PUSH1 0x0 REVERT JUMPDEST POP POP POP POP PUSH1 0x40 MLOAD RETURNDATASIZE PUSH1 0x1F NOT PUSH1 0x1F DUP3 ADD AND DUP3 ADD DUP1 PUSH1 0x40 MSTORE POP DUP2 ADD SWAP1 PUSH2 0x29CF SWAP2 SWAP1 PUSH2 0x427A JUMP JUMPDEST SWAP5 POP PUSH1 0x6 DUP4 SWAP1 SHR PUSH1 0x1 AND PUSH1 0x0 SUB PUSH2 0x2A37 JUMPI POP POP PUSH1 0x6 PUSH1 0x0 MSTORE PUSH1 0x3 PUSH1 0x20 MSTORE PUSH32 0xC69056F16CBAA3C616B828E333AB7D3A32310765507F8F58359E99EBB7A885F3 DUP4 SWAP1 SSTORE DUP3 PUSH32 0x2F7739FA804B1102B2E95582A4CFB3C25D26E1F70133A81E6FED8FEDBF7016EF PUSH2 0x2A67 JUMP JUMPDEST POP POP PUSH1 0x6 PUSH1 0x0 MSTORE PUSH1 0x3 PUSH1 0x20 MSTORE PUSH32 0xC69056F16CBAA3C616B828E333AB7D3A32310765507F8F58359E99EBB7A885F3 SLOAD DUP4 JUMPDEST PUSH1 0x0 SLOAD PUSH1 0x40 DUP1 MLOAD DUP1 DUP3 ADD DUP3 MSTORE DUP5 DUP2 MSTORE PUSH1 0x20 DUP2 ADD DUP5 SWAP1 MSTORE SWAP1 MLOAD PUSH32 0x29A5F2F600000000000000000000000000000000000000000000000000000000 DUP2 MSTORE PUSH20 0xFFFFFFFFFFFFFFFFFFFFFFFFFFFFFFFFFFFFFFFF SWAP1 SWAP3 AND SWAP2 PUSH4 0x29A5F2F6 SWAP2 PUSH2 0x2ACD SWAP2 PUSH1 0x4 ADD PUSH2 0x4249 JUMP JUMPDEST PUSH1 0x20 PUSH1 0x40 MLOAD DUP1 DUP4 SUB DUP2 DUP7 GAS STATICCALL ISZERO DUP1 ISZERO PUSH2 0x2AEA JUMPI RETURNDATASIZE PUSH1 0x0 DUP1 RETURNDATACOPY RETURNDATASIZE PUSH1 0x0 REVERT JUMPDEST POP POP POP POP PUSH1 0x40 MLOAD RETURNDATASIZE PUSH1 0x1F NOT PUSH1 0x1F DUP3 ADD AND DUP3 ADD DUP1 PUSH1 0x40 MSTORE POP DUP2 ADD SWAP1 PUSH2 0x2B0E SWAP2 SWAP1 PUSH2 0x427A JUMP JUMPDEST SWAP5 POP PUSH1 0x7 DUP4 SWAP1 SHR PUSH1 0x1 AND PUSH1 0x0 SUB PUSH2 0x2B75 JUMPI POP POP PUSH1 0x7 PUSH1 0x0 MSTORE PUSH1 0x3 PUSH1 0x20 MSTORE PUSH32 0xF2C49132ED1CEE2A7E75BDE50D332A2F81F1D01E5456D8A19D1DF09BD561DBD2 DUP4 SWAP1 SSTORE DUP3 PUSH31 0x371F555C474E2F7846B97C7A90DAB5FCC55AC0010C271796AD497F66689033 PUSH2 0x2BA5 JUMP JUMPDEST POP POP PUSH1 0x7 PUSH1 0x0 MSTORE PUSH1 0x3 PUSH1 0x20 MSTORE PUSH32 0xF2C49132ED1CEE2A7E75BDE50D332A2F81F1D01E5456D8A19D1DF09BD561DBD2 SLOAD DUP4 JUMPDEST PUSH1 0x0 SLOAD PUSH1 0x40 DUP1 MLOAD DUP1 DUP3 ADD DUP3 MSTORE DUP5 DUP2 MSTORE PUSH1 0x20 DUP2 ADD DUP5 SWAP1 MSTORE SWAP1 MLOAD PUSH32 0x29A5F2F600000000000000000000000000000000000000000000000000000000 DUP2 MSTORE PUSH20 0xFFFFFFFFFFFFFFFFFFFFFFFFFFFFFFFFFFFFFFFF SWAP1 SWAP3 AND SWAP2 PUSH4 0x29A5F2F6 SWAP2 PUSH2 0x2C0B SWAP2 PUSH1 0x4 ADD PUSH2 0x4249 JUMP JUMPDEST PUSH1 0x20 PUSH1 0x40 MLOAD DUP1 DUP4 SUB DUP2 DUP7 GAS STATICCALL ISZERO DUP1 ISZERO PUSH2 0x2C28 JUMPI RETURNDATASIZE PUSH1 0x0 DUP1 RETURNDATACOPY RETURNDATASIZE PUSH1 0x0 REVERT JUMPDEST POP POP POP POP PUSH1 0x40 MLOAD RETURNDATASIZE PUSH1 0x1F NOT PUSH1 0x1F DUP3 ADD AND DUP3 ADD DUP1 PUSH1 0x40 MSTORE POP DUP2 ADD SWAP1 PUSH2 0x2C4C SWAP2 SWAP1 PUSH2 0x427A JUMP JUMPDEST SWAP5 POP PUSH1 0x8 DUP4 SWAP1 SHR PUSH1 0x1 AND PUSH1 0x0 SUB PUSH2 0x2CB4 JUMPI POP POP PUSH1 0x8 PUSH1 0x0 MSTORE PUSH1 0x3 PUSH1 0x20 MSTORE PUSH32 0x85AAA47B6DC46495BB8824FAD4583769726FEA36EFD831A35556690B830A8FBE DUP4 SWAP1 SSTORE DUP3 PUSH32 0x15B36B0DEBB62E1B11A9E331644A806960A4DF8919180DC0745D17C7A912E989 PUSH2 0x2CE4 JUMP JUMPDEST POP POP PUSH1 0x8 PUSH1 0x0 MSTORE PUSH1 0x3 PUSH1 0x20 MSTORE PUSH32 0x85AAA47B6DC46495BB8824FAD4583769726FEA36EFD831A35556690B830A8FBE SLOAD DUP4 JUMPDEST PUSH1 0x0 SLOAD PUSH1 0x40 DUP1 MLOAD DUP1 DUP3 ADD DUP3 MSTORE DUP5 DUP2 MSTORE PUSH1 0x20 DUP2 ADD DUP5 SWAP1 MSTORE SWAP1 MLOAD PUSH32 0x29A5F2F600000000000000000000000000000000000000000000000000000000 DUP2 MSTORE PUSH20 0xFFFFFFFFFFFFFFFFFFFFFFFFFFFFFFFFFFFFFFFF SWAP1 SWAP3 AND SWAP2 PUSH4 0x29A5F2F6 SWAP2 PUSH2 0x2D4A SWAP2 PUSH1 0x4 ADD PUSH2 0x4249 JUMP JUMPDEST PUSH1 0x20 PUSH1 0x40 MLOAD DUP1 DUP4 SUB DUP2 DUP7 GAS STATICCALL ISZERO DUP1 ISZERO PUSH2 0x2D67 JUMPI RETURNDATASIZE PUSH1 0x0 DUP1 RETURNDATACOPY RETURNDATASIZE PUSH1 0x0 REVERT JUMPDEST POP POP POP POP PUSH1 0x40 MLOAD RETURNDATASIZE PUSH1 0x1F NOT PUSH1 0x1F DUP3 ADD AND DUP3 ADD DUP1 PUSH1 0x40 MSTORE POP DUP2 ADD SWAP1 PUSH2 0x2D8B SWAP2 SWAP1 PUSH2 0x427A JUMP JUMPDEST SWAP5 POP PUSH1 0x9 DUP4 SWAP1 SHR PUSH1 0x1 AND PUSH1 0x0 SUB PUSH2 0x2DF3 JUMPI POP POP PUSH1 0x9 PUSH1 0x0 MSTORE PUSH1 0x3 PUSH1 0x20 MSTORE PUSH32 0x8A8DC4E5242EA8B1AB1D60606DAE757E6C2CCA9F92A2CCED9F72C19960BCB458 DUP4 SWAP1 SSTORE DUP3 PUSH32 0xFAB3738A9EC3B9C6EAA98BF46972ED3CBBAE7982F0E69B3C7E9053ADF32290D PUSH2 0x2E23 JUMP JUMPDEST POP POP PUSH1 0x9 PUSH1 0x0 MSTORE PUSH1 0x3 PUSH1 0x20 MSTORE PUSH32 0x8A8DC4E5242EA8B1AB1D60606DAE757E6C2CCA9F92A2CCED9F72C19960BCB458 SLOAD DUP4 JUMPDEST PUSH1 0x0 SLOAD PUSH1 0x40 DUP1 MLOAD DUP1 DUP3 ADD DUP3 MSTORE DUP5 DUP2 MSTORE PUSH1 0x20 DUP2 ADD DUP5 SWAP1 MSTORE SWAP1 MLOAD PUSH32 0x29A5F2F600000000000000000000000000000000000000000000000000000000 DUP2 MSTORE PUSH20 0xFFFFFFFFFFFFFFFFFFFFFFFFFFFFFFFFFFFFFFFF SWAP1 SWAP3 AND SWAP2 PUSH4 0x29A5F2F6 SWAP2 PUSH2 0x2E89 SWAP2 PUSH1 0x4 ADD PUSH2 0x4249 JUMP JUMPDEST PUSH1 0x20 PUSH1 0x40 MLOAD DUP1 DUP4 SUB DUP2 DUP7 GAS STATICCALL ISZERO DUP1 ISZERO PUSH2 0x2EA6 JUMPI RETURNDATASIZE PUSH1 0x0 DUP1 RETURNDATACOPY RETURNDATASIZE PUSH1 0x0 REVERT JUMPDEST POP POP POP POP PUSH1 0x40 MLOAD RETURNDATASIZE PUSH1 0x1F NOT PUSH1 0x1F DUP3 ADD AND DUP3 ADD DUP1 PUSH1 0x40 MSTORE POP DUP2 ADD SWAP1 PUSH2 0x2ECA SWAP2 SWAP1 PUSH2 0x427A JUMP JUMPDEST SWAP5 POP PUSH1 0xA DUP4 SWAP1 SHR PUSH1 0x1 AND PUSH1 0x0 SUB PUSH2 0x2F32 JUMPI POP POP PUSH1 0xA PUSH1 0x0 MSTORE PUSH1 0x3 PUSH1 0x20 MSTORE PUSH32 0x9DCB9783BA5CD0B54745F65F4F918525E461E91888C334E5342CB380AC558D53 DUP4 SWAP1 SSTORE DUP3 PUSH32 0x16824B083A3F105F6671A504C2379DE67CC5154C5B557294E35D27D1D3531225 PUSH2 0x2F62 JUMP JUMPDEST POP POP PUSH1 0xA PUSH1 0x0 MSTORE PUSH1 0x3 PUSH1 0x20 MSTORE PUSH32 0x9DCB9783BA5CD0B54745F65F4F918525E461E91888C334E5342CB380AC558D53 SLOAD DUP4 JUMPDEST PUSH1 0x0 SLOAD PUSH1 0x40 DUP1 MLOAD DUP1 DUP3 ADD DUP3 MSTORE DUP5 DUP2 MSTORE PUSH1 0x20 DUP2 ADD DUP5 SWAP1 MSTORE SWAP1 MLOAD PUSH32 0x29A5F2F600000000000000000000000000000000000000000000000000000000 DUP2 MSTORE PUSH20 0xFFFFFFFFFFFFFFFFFFFFFFFFFFFFFFFFFFFFFFFF SWAP1 SWAP3 AND SWAP2 PUSH4 0x29A5F2F6 SWAP2 PUSH2 0x2FC8 SWAP2 PUSH1 0x4 ADD PUSH2 0x4249 JUMP JUMPDEST PUSH1 0x20 PUSH1 0x40 MLOAD DUP1 DUP4 SUB DUP2 DUP7 GAS STATICCALL ISZERO DUP1 ISZERO PUSH2 0x2FE5 JUMPI RETURNDATASIZE PUSH1 0x0 DUP1 RETURNDATACOPY RETURNDATASIZE PUSH1 0x0 REVERT JUMPDEST POP POP POP POP PUSH1 0x40 MLOAD RETURNDATASIZE PUSH1 0x1F NOT PUSH1 0x1F DUP3 ADD AND DUP3 ADD DUP1 PUSH1 0x40 MSTORE POP DUP2 ADD SWAP1 PUSH2 0x3009 SWAP2 SWAP1 PUSH2 0x427A JUMP JUMPDEST SWAP5 POP PUSH1 0xB DUP4 SWAP1 SHR PUSH1 0x1 AND PUSH1 0x0 SUB PUSH2 0x3071 JUMPI POP POP PUSH1 0xB PUSH1 0x0 MSTORE PUSH1 0x3 PUSH1 0x20 MSTORE PUSH32 0x2D72AF3C1B2B2956E6F694FB741556D5CA9524373974378CDBEC16AFA8B84164 DUP4 SWAP1 SSTORE DUP3 PUSH32 0x297ECAE656A0FE904FE84F8DB691C7156A51DD5E228873CF75CED697DD8E5C19 PUSH2 0x30A1 JUMP JUMPDEST POP POP PUSH1 0xB PUSH1 0x0 MSTORE PUSH1 0x3 PUSH1 0x20 MSTORE PUSH32 0x2D72AF3C1B2B2956E6F694FB741556D5CA9524373974378CDBEC16AFA8B84164 SLOAD DUP4 JUMPDEST PUSH1 0x0 SLOAD PUSH1 0x40 DUP1 MLOAD DUP1 DUP3 ADD DUP3 MSTORE DUP5 DUP2 MSTORE PUSH1 0x20 DUP2 ADD DUP5 SWAP1 MSTORE SWAP1 MLOAD PUSH32 0x29A5F2F600000000000000000000000000000000000000000000000000000000 DUP2 MSTORE PUSH20 0xFFFFFFFFFFFFFFFFFFFFFFFFFFFFFFFFFFFFFFFF SWAP1 SWAP3 AND SWAP2 PUSH4 0x29A5F2F6 SWAP2 PUSH2 0x3107 SWAP2 PUSH1 0x4 ADD PUSH2 0x4249 JUMP JUMPDEST PUSH1 0x20 PUSH1 0x40 MLOAD DUP1 DUP4 SUB DUP2 DUP7 GAS STATICCALL ISZERO DUP1 ISZERO PUSH2 0x3124 JUMPI RETURNDATASIZE PUSH1 0x0 DUP1 RETURNDATACOPY RETURNDATASIZE PUSH1 0x0 REVERT JUMPDEST POP POP POP POP PUSH1 0x40 MLOAD RETURNDATASIZE PUSH1 0x1F NOT PUSH1 0x1F DUP3 ADD AND DUP3 ADD DUP1 PUSH1 0x40 MSTORE POP DUP2 ADD SWAP1 PUSH2 0x3148 SWAP2 SWAP1 PUSH2 0x427A JUMP JUMPDEST SWAP5 POP PUSH1 0xC DUP4 SWAP1 SHR PUSH1 0x1 AND PUSH1 0x0 SUB PUSH2 0x31B0 JUMPI POP POP PUSH1 0xC PUSH1 0x0 MSTORE PUSH1 0x3 PUSH1 0x20 MSTORE PUSH32 0xD56A60595EBEFEBED7F22DCEE6C2ACC61B06CF8C68E84C88677840365D1FF92B DUP4 SWAP1 SSTORE DUP3 PUSH32 0x67C35B9AC5CDC355C6F9EAEF4721E6D622A4FD32D74D7BE3F78B17E5D8597EA PUSH2 0x31E0 JUMP JUMPDEST POP POP PUSH1 0xC PUSH1 0x0 MSTORE PUSH1 0x3 PUSH1 0x20 MSTORE PUSH32 0xD56A60595EBEFEBED7F22DCEE6C2ACC61B06CF8C68E84C88677840365D1FF92B SLOAD DUP4 JUMPDEST PUSH1 0x0 SLOAD PUSH1 0x40 DUP1 MLOAD DUP1 DUP3 ADD DUP3 MSTORE DUP5 DUP2 MSTORE PUSH1 0x20 DUP2 ADD DUP5 SWAP1 MSTORE SWAP1 MLOAD PUSH32 0x29A5F2F600000000000000000000000000000000000000000000000000000000 DUP2 MSTORE PUSH20 0xFFFFFFFFFFFFFFFFFFFFFFFFFFFFFFFFFFFFFFFF SWAP1 SWAP3 AND SWAP2 PUSH4 0x29A5F2F6 SWAP2 PUSH2 0x3246 SWAP2 PUSH1 0x4 ADD PUSH2 0x4249 JUMP JUMPDEST PUSH1 0x20 PUSH1 0x40 MLOAD DUP1 DUP4 SUB DUP2 DUP7 GAS STATICCALL ISZERO DUP1 ISZERO PUSH2 0x3263 JUMPI RETURNDATASIZE PUSH1 0x0 DUP1 RETURNDATACOPY RETURNDATASIZE PUSH1 0x0 REVERT JUMPDEST POP POP POP POP PUSH1 0x40 MLOAD RETURNDATASIZE PUSH1 0x1F NOT PUSH1 0x1F DUP3 ADD AND DUP3 ADD DUP1 PUSH1 0x40 MSTORE POP DUP2 ADD SWAP1 PUSH2 0x3287 SWAP2 SWAP1 PUSH2 0x427A JUMP JUMPDEST SWAP5 POP PUSH1 0xD DUP4 SWAP1 SHR PUSH1 0x1 AND PUSH1 0x0 SUB PUSH2 0x32EF JUMPI POP POP PUSH1 0xD PUSH1 0x0 MSTORE PUSH1 0x3 PUSH1 0x20 MSTORE PUSH32 0xA8F2D96126C6D0AD63ADABAEF7BF5CF47F163FB0C218A473D28F62312D197BCF DUP4 SWAP1 SSTORE DUP3 PUSH32 0x2C2633F1AE47AE42E0CE8EADEC89C64D44A1FA98F1EE85AD4BF536594AF4E27F PUSH2 0x331F JUMP JUMPDEST POP POP PUSH1 0xD PUSH1 0x0 MSTORE PUSH1 0x3 PUSH1 0x20 MSTORE PUSH32 0xA8F2D96126C6D0AD63ADABAEF7BF5CF47F163FB0C218A473D28F62312D197BCF SLOAD DUP4 JUMPDEST PUSH1 0x0 SLOAD PUSH1 0x40 DUP1 MLOAD DUP1 DUP3 ADD DUP3 MSTORE DUP5 DUP2 MSTORE PUSH1 0x20 DUP2 ADD DUP5 SWAP1 MSTORE SWAP1 MLOAD PUSH32 0x29A5F2F600000000000000000000000000000000000000000000000000000000 DUP2 MSTORE PUSH20 0xFFFFFFFFFFFFFFFFFFFFFFFFFFFFFFFFFFFFFFFF SWAP1 SWAP3 AND SWAP2 PUSH4 0x29A5F2F6 SWAP2 PUSH2 0x3385 SWAP2 PUSH1 0x4 ADD PUSH2 0x4249 JUMP JUMPDEST PUSH1 0x20 PUSH1 0x40 MLOAD DUP1 DUP4 SUB DUP2 DUP7 GAS STATICCALL ISZERO DUP1 ISZERO PUSH2 0x33A2 JUMPI RETURNDATASIZE PUSH1 0x0 DUP1 RETURNDATACOPY RETURNDATASIZE PUSH1 0x0 REVERT JUMPDEST POP POP POP POP PUSH1 0x40 MLOAD RETURNDATASIZE PUSH1 0x1F NOT PUSH1 0x1F DUP3 ADD AND DUP3 ADD DUP1 PUSH1 0x40 MSTORE POP DUP2 ADD SWAP1 PUSH2 0x33C6 SWAP2 SWAP1 PUSH2 0x427A JUMP JUMPDEST SWAP5 POP PUSH1 0xE DUP4 SWAP1 SHR PUSH1 0x1 AND PUSH1 0x0 SUB PUSH2 0x342E JUMPI POP POP PUSH1 0xE PUSH1 0x0 MSTORE PUSH1 0x3 PUSH1 0x20 MSTORE PUSH32 0xD6EBCC64C739277B117CE359E436534B234B76E914C80AD276ABF5B562078939 DUP4 SWAP1 SSTORE DUP3 PUSH32 0x2D9C6E7ECA6E7BA2B8335AE16998576602FE7910FB5EF41CE94D00B1332CF624 PUSH2 0x345E JUMP JUMPDEST POP POP PUSH1 0xE PUSH1 0x0 MSTORE PUSH1 0x3 PUSH1 0x20 MSTORE PUSH32 0xD6EBCC64C739277B117CE359E436534B234B76E914C80AD276ABF5B562078939 SLOAD DUP4 JUMPDEST PUSH1 0x0 SLOAD PUSH1 0x40 DUP1 MLOAD DUP1 DUP3 ADD DUP3 MSTORE DUP5 DUP2 MSTORE PUSH1 0x20 DUP2 ADD DUP5 SWAP1 MSTORE SWAP1 MLOAD PUSH32 0x29A5F2F600000000000000000000000000000000000000000000000000000000 DUP2 MSTORE PUSH20 0xFFFFFFFFFFFFFFFFFFFFFFFFFFFFFFFFFFFFFFFF SWAP1 SWAP3 AND SWAP2 PUSH4 0x29A5F2F6 SWAP2 PUSH2 0x34C4 SWAP2 PUSH1 0x4 ADD PUSH2 0x4249 JUMP JUMPDEST PUSH1 0x20 PUSH1 0x40 MLOAD DUP1 DUP4 SUB DUP2 DUP7 GAS STATICCALL ISZERO DUP1 ISZERO PUSH2 0x34E1 JUMPI RETURNDATASIZE PUSH1 0x0 DUP1 RETURNDATACOPY RETURNDATASIZE PUSH1 0x0 REVERT JUMPDEST POP POP POP POP PUSH1 0x40 MLOAD RETURNDATASIZE PUSH1 0x1F NOT PUSH1 0x1F DUP3 ADD AND DUP3 ADD DUP1 PUSH1 0x40 MSTORE POP DUP2 ADD SWAP1 PUSH2 0x3505 SWAP2 SWAP1 PUSH2 0x427A JUMP JUMPDEST SWAP5 POP PUSH1 0xF DUP4 SWAP1 SHR PUSH1 0x1 AND PUSH1 0x0 SUB PUSH2 0x356D JUMPI POP POP PUSH1 0xF PUSH1 0x0 MSTORE PUSH1 0x3 PUSH1 0x20 MSTORE PUSH32 0xF60B7F6A315EC68A6AC240E69DCA53652B38627F709A2CAA217D9E18AF4D7A60 DUP4 SWAP1 SSTORE DUP3 PUSH32 0x239F1418B2B0A70F468D0903CC46524D8F7EFBDB2DFA561494CA5BFFCC787700 PUSH2 0x359D JUMP JUMPDEST POP POP PUSH1 0xF PUSH1 0x0 MSTORE PUSH1 0x3 PUSH1 0x20 MSTORE PUSH32 0xF60B7F6A315EC68A6AC240E69DCA53652B38627F709A2CAA217D9E18AF4D7A60 SLOAD DUP4 JUMPDEST PUSH1 0x0 SLOAD PUSH1 0x40 DUP1 MLOAD DUP1 DUP3 ADD DUP3 MSTORE DUP5 DUP2 MSTORE PUSH1 0x20 DUP2 ADD DUP5 SWAP1 MSTORE SWAP1 MLOAD PUSH32 0x29A5F2F600000000000000000000000000000000000000000000000000000000 DUP2 MSTORE PUSH20 0xFFFFFFFFFFFFFFFFFFFFFFFFFFFFFFFFFFFFFFFF SWAP1 SWAP3 AND SWAP2 PUSH4 0x29A5F2F6 SWAP2 PUSH2 0x3603 SWAP2 PUSH1 0x4 ADD PUSH2 0x4249 JUMP JUMPDEST PUSH1 0x20 PUSH1 0x40 MLOAD DUP1 DUP4 SUB DUP2 DUP7 GAS STATICCALL ISZERO DUP1 ISZERO PUSH2 0x3620 JUMPI RETURNDATASIZE PUSH1 0x0 DUP1 RETURNDATACOPY RETURNDATASIZE PUSH1 0x0 REVERT JUMPDEST POP POP POP POP PUSH1 0x40 MLOAD RETURNDATASIZE PUSH1 0x1F NOT PUSH1 0x1F DUP3 ADD AND DUP3 ADD DUP1 PUSH1 0x40 MSTORE POP DUP2 ADD SWAP1 PUSH2 0x3644 SWAP2 SWAP1 PUSH2 0x427A JUMP JUMPDEST SWAP5 POP PUSH1 0x10 DUP4 SWAP1 SHR PUSH1 0x1 AND PUSH1 0x0 SUB PUSH2 0x36AC JUMPI POP POP PUSH1 0x10 PUSH1 0x0 MSTORE PUSH1 0x3 PUSH1 0x20 MSTORE PUSH32 0x47D4745E02B343689A5E7AC121D2A352B7A15C10328A8759FD7D4CF0999002BB DUP4 SWAP1 SSTORE DUP3 PUSH32 0xB15E263911EE4D77B6A394B70DC93AD3DF6DFDF6A3F7605F9CAFB6968D8F1F6 PUSH2 0x36DC JUMP JUMPDEST POP POP PUSH1 0x10 PUSH1 0x0 MSTORE PUSH1 0x3 PUSH1 0x20 MSTORE PUSH32 0x47D4745E02B343689A5E7AC121D2A352B7A15C10328A8759FD7D4CF0999002BB SLOAD DUP4 JUMPDEST PUSH1 0x0 SLOAD PUSH1 0x40 DUP1 MLOAD DUP1 DUP3 ADD DUP3 MSTORE DUP5 DUP2 MSTORE PUSH1 0x20 DUP2 ADD DUP5 SWAP1 MSTORE SWAP1 MLOAD PUSH32 0x29A5F2F600000000000000000000000000000000000000000000000000000000 DUP2 MSTORE PUSH20 0xFFFFFFFFFFFFFFFFFFFFFFFFFFFFFFFFFFFFFFFF SWAP1 SWAP3 AND SWAP2 PUSH4 0x29A5F2F6 SWAP2 PUSH2 0x3742 SWAP2 PUSH1 0x4 ADD PUSH2 0x4249 JUMP JUMPDEST PUSH1 0x20 PUSH1 0x40 MLOAD DUP1 DUP4 SUB DUP2 DUP7 GAS STATICCALL ISZERO DUP1 ISZERO PUSH2 0x375F JUMPI RETURNDATASIZE PUSH1 0x0 DUP1 RETURNDATACOPY RETURNDATASIZE PUSH1 0x0 REVERT JUMPDEST POP POP POP POP PUSH1 0x40 MLOAD RETURNDATASIZE PUSH1 0x1F NOT PUSH1 0x1F DUP3 ADD AND DUP3 ADD DUP1 PUSH1 0x40 MSTORE POP DUP2 ADD SWAP1 PUSH2 0x3783 SWAP2 SWAP1 PUSH2 0x427A JUMP JUMPDEST SWAP5 POP PUSH1 0x11 DUP4 SWAP1 SHR PUSH1 0x1 AND PUSH1 0x0 SUB PUSH2 0x37EB JUMPI POP POP PUSH1 0x11 PUSH1 0x0 MSTORE PUSH1 0x3 PUSH1 0x20 MSTORE PUSH32 0xFC111D09A6E2F0958402CBE16A5AEF32C9D8DDB9A4DF7271140DE57BFED6525A DUP4 SWAP1 SSTORE DUP3 PUSH32 0x2C069C957125A3E2CB4E16CA506D5F4F387D11D1AEA33B30A8DD4CA3074F4DE6 PUSH2 0x381B JUMP JUMPDEST POP POP PUSH1 0x11 PUSH1 0x0 MSTORE PUSH1 0x3 PUSH1 0x20 MSTORE PUSH32 0xFC111D09A6E2F0958402CBE16A5AEF32C9D8DDB9A4DF7271140DE57BFED6525A SLOAD DUP4 JUMPDEST PUSH1 0x0 SLOAD PUSH1 0x40 DUP1 MLOAD DUP1 DUP3 ADD DUP3 MSTORE DUP5 DUP2 MSTORE PUSH1 0x20 DUP2 ADD DUP5 SWAP1 MSTORE SWAP1 MLOAD PUSH32 0x29A5F2F600000000000000000000000000000000000000000000000000000000 DUP2 MSTORE PUSH20 0xFFFFFFFFFFFFFFFFFFFFFFFFFFFFFFFFFFFFFFFF SWAP1 SWAP3 AND SWAP2 PUSH4 0x29A5F2F6 SWAP2 PUSH2 0x3881 SWAP2 PUSH1 0x4 ADD PUSH2 0x4249 JUMP JUMPDEST PUSH1 0x20 PUSH1 0x40 MLOAD DUP1 DUP4 SUB DUP2 DUP7 GAS STATICCALL ISZERO DUP1 ISZERO PUSH2 0x389E JUMPI RETURNDATASIZE PUSH1 0x0 DUP1 RETURNDATACOPY RETURNDATASIZE PUSH1 0x0 REVERT JUMPDEST POP POP POP POP PUSH1 0x40 MLOAD RETURNDATASIZE PUSH1 0x1F NOT PUSH1 0x1F DUP3 ADD AND DUP3 ADD DUP1 PUSH1 0x40 MSTORE POP DUP2 ADD SWAP1 PUSH2 0x38C2 SWAP2 SWAP1 PUSH2 0x427A JUMP JUMPDEST SWAP5 POP PUSH1 0x12 DUP4 SWAP1 SHR PUSH1 0x1 AND PUSH1 0x0 SUB PUSH2 0x392A JUMPI POP POP PUSH1 0x12 PUSH1 0x0 MSTORE PUSH1 0x3 PUSH1 0x20 MSTORE PUSH32 0x6A2B6BFFACA788160F671FA62D34758B717F75A90AD5A468757C50D61F33C443 DUP4 SWAP1 SSTORE DUP3 PUSH32 0xBE6D282D26C02019FD66E32C8D85154B77253E7C6016B26A991352E0016D580 PUSH2 0x395A JUMP JUMPDEST POP POP PUSH1 0x12 PUSH1 0x0 MSTORE PUSH1 0x3 PUSH1 0x20 MSTORE PUSH32 0x6A2B6BFFACA788160F671FA62D34758B717F75A90AD5A468757C50D61F33C443 SLOAD DUP4 JUMPDEST PUSH1 0x0 SLOAD PUSH1 0x40 DUP1 MLOAD DUP1 DUP3 ADD DUP3 MSTORE DUP5 DUP2 MSTORE PUSH1 0x20 DUP2 ADD DUP5 SWAP1 MSTORE SWAP1 MLOAD PUSH32 0x29A5F2F600000000000000000000000000000000000000000000000000000000 DUP2 MSTORE PUSH20 0xFFFFFFFFFFFFFFFFFFFFFFFFFFFFFFFFFFFFFFFF SWAP1 SWAP3 AND SWAP2 PUSH4 0x29A5F2F6 SWAP2 PUSH2 0x39C0 SWAP2 PUSH1 0x4 ADD PUSH2 0x4249 JUMP JUMPDEST PUSH1 0x20 PUSH1 0x40 MLOAD DUP1 DUP4 SUB DUP2 DUP7 GAS STATICCALL ISZERO DUP1 ISZERO PUSH2 0x39DD JUMPI RETURNDATASIZE PUSH1 0x0 DUP1 RETURNDATACOPY RETURNDATASIZE PUSH1 0x0 REVERT JUMPDEST POP POP POP POP PUSH1 0x40 MLOAD RETURNDATASIZE PUSH1 0x1F NOT PUSH1 0x1F DUP3 ADD AND DUP3 ADD DUP1 PUSH1 0x40 MSTORE POP DUP2 ADD SWAP1 PUSH2 0x3A01 SWAP2 SWAP1 PUSH2 0x427A JUMP JUMPDEST SWAP5 POP PUSH1 0x13 DUP4 SWAP1 SHR PUSH1 0x1 AND PUSH1 0x0 SUB PUSH2 0x3A69 JUMPI POP POP PUSH1 0x13 PUSH1 0x0 MSTORE PUSH1 0x3 PUSH1 0x20 MSTORE PUSH32 0x8A8166BE5F30ABEB6C91EE2F07EEB0B2EB14B4D59534D10A1C143964BD617919 DUP4 SWAP1 SSTORE DUP3 PUSH32 0x1E29CFB0C1AD522F22A3B3E23C057CBD3C7AB921E742A8DFCBC66DBDE917D5B2 PUSH2 0x3A99 JUMP JUMPDEST POP POP PUSH1 0x13 PUSH1 0x0 MSTORE PUSH1 0x3 PUSH1 0x20 MSTORE PUSH32 0x8A8166BE5F30ABEB6C91EE2F07EEB0B2EB14B4D59534D10A1C143964BD617919 SLOAD DUP4 JUMPDEST PUSH1 0x0 SLOAD PUSH1 0x40 DUP1 MLOAD DUP1 DUP3 ADD DUP3 MSTORE DUP5 DUP2 MSTORE PUSH1 0x20 DUP2 ADD DUP5 SWAP1 MSTORE SWAP1 MLOAD PUSH32 0x29A5F2F600000000000000000000000000000000000000000000000000000000 DUP2 MSTORE PUSH20 0xFFFFFFFFFFFFFFFFFFFFFFFFFFFFFFFFFFFFFFFF SWAP1 SWAP3 AND SWAP2 PUSH4 0x29A5F2F6 SWAP2 PUSH2 0x3AFF SWAP2 PUSH1 0x4 ADD PUSH2 0x4249 JUMP JUMPDEST PUSH1 0x20 PUSH1 0x40 MLOAD DUP1 DUP4 SUB DUP2 DUP7 GAS STATICCALL ISZERO DUP1 ISZERO PUSH2 0x3B1C JUMPI RETURNDATASIZE PUSH1 0x0 DUP1 RETURNDATACOPY RETURNDATASIZE PUSH1 0x0 REVERT JUMPDEST POP POP POP POP PUSH1 0x40 MLOAD RETURNDATASIZE PUSH1 0x1F NOT PUSH1 0x1F DUP3 ADD AND DUP3 ADD DUP1 PUSH1 0x40 MSTORE POP DUP2 ADD SWAP1 PUSH2 0x3B40 SWAP2 SWAP1 PUSH2 0x427A JUMP JUMPDEST SWAP5 POP PUSH1 0x0 PUSH1 0x1E PUSH2 0x21D5 JUMP JUMPDEST PUSH1 0x0 DUP2 PUSH1 0x0 SUB PUSH2 0x3B5D JUMPI POP PUSH1 0x0 SWAP2 SWAP1 POP JUMP JUMPDEST PUSH1 0x1 SLOAD PUSH1 0x0 JUMPDEST PUSH1 0x1E DUP2 LT ISZERO PUSH2 0x3BC5 JUMPI PUSH1 0x0 DUP3 DUP2 MSTORE PUSH1 0x4 PUSH1 0x20 MSTORE PUSH1 0x40 SWAP1 KECCAK256 SLOAD DUP5 SUB PUSH2 0x3B8B JUMPI POP PUSH1 0x1 SWAP4 SWAP3 POP POP POP JUMP JUMPDEST DUP2 PUSH1 0x0 SUB PUSH2 0x3B98 JUMPI PUSH1 0x1E SWAP2 POP JUMPDEST PUSH32 0xFFFFFFFFFFFFFFFFFFFFFFFFFFFFFFFFFFFFFFFFFFFFFFFFFFFFFFFFFFFFFFFF SWAP1 SWAP2 ADD SWAP1 PUSH1 0x1 ADD PUSH2 0x3B63 JUMP JUMPDEST POP PUSH1 0x0 SWAP4 SWAP3 POP POP POP JUMP JUMPDEST PUSH1 0x2 SLOAD PUSH1 0x0 SWAP1 PUSH32 0xFFFFFFFFFFFFFFFFFFFFFFFFFFFFFFFFFFFFFFFFFFFFFFFFFFFFFFFFFFF00000 DUP2 ADD PUSH2 0x3C2E JUMPI PUSH1 0x40 MLOAD PUSH32 0x6DEFAA3500000000000000000000000000000000000000000000000000000000 DUP2 MSTORE PUSH1 0x4 ADD PUSH1 0x40 MLOAD DUP1 SWAP2 SUB SWAP1 REVERT JUMPDEST PUSH1 0x0 DUP1 PUSH1 0x0 JUMPDEST PUSH1 0x14 DUP2 LT ISZERO PUSH2 0x21CF JUMPI PUSH1 0x1 DUP5 DUP3 SHR AND PUSH1 0x0 SUB PUSH2 0x3C6E JUMPI DUP6 SWAP3 POP PUSH2 0x3C56 DUP2 PUSH2 0x3D57 JUMP JUMPDEST PUSH1 0x0 DUP3 DUP2 MSTORE PUSH1 0x3 PUSH1 0x20 MSTORE PUSH1 0x40 SWAP1 KECCAK256 DUP8 SWAP1 SSTORE SWAP2 POP PUSH2 0x3C83 JUMP JUMPDEST PUSH1 0x0 DUP2 DUP2 MSTORE PUSH1 0x3 PUSH1 0x20 MSTORE PUSH1 0x40 SWAP1 KECCAK256 SLOAD SWAP3 POP DUP6 SWAP2 POP JUMPDEST PUSH1 0x0 SLOAD PUSH1 0x40 DUP1 MLOAD DUP1 DUP3 ADD DUP3 MSTORE DUP6 DUP2 MSTORE PUSH1 0x20 DUP2 ADD DUP6 SWAP1 MSTORE SWAP1 MLOAD PUSH32 0x29A5F2F600000000000000000000000000000000000000000000000000000000 DUP2 MSTORE PUSH20 0xFFFFFFFFFFFFFFFFFFFFFFFFFFFFFFFFFFFFFFFF SWAP1 SWAP3 AND SWAP2 PUSH4 0x29A5F2F6 SWAP2 PUSH2 0x3CE9 SWAP2 PUSH1 0x4 ADD PUSH2 0x4249 JUMP JUMPDEST PUSH1 0x20 PUSH1 0x40 MLOAD DUP1 DUP4 SUB DUP2 DUP7 GAS STATICCALL ISZERO DUP1 ISZERO PUSH2 0x3D06 JUMPI RETURNDATASIZE PUSH1 0x0 DUP1 RETURNDATACOPY RETURNDATASIZE PUSH1 0x0 REVERT JUMPDEST POP POP POP POP PUSH1 0x40 MLOAD RETURNDATASIZE PUSH1 0x1F NOT PUSH1 0x1F DUP3 ADD AND DUP3 ADD DUP1 PUSH1 0x40 MSTORE POP DUP2 ADD SWAP1 PUSH2 0x3D2A SWAP2 SWAP1 PUSH2 0x427A JUMP JUMPDEST SWAP6 POP PUSH1 0x1 ADD PUSH2 0x3C34 JUMP JUMPDEST PUSH1 0x0 PUSH1 0x1 DUP1 DUP4 ADD SHL DUP4 DUP2 PUSH2 0x3D4A JUMPI PUSH2 0x3D4A PUSH2 0x4293 JUMP JUMPDEST DIV PUSH1 0x2 MUL SWAP1 POP JUMPDEST SWAP3 SWAP2 POP POP JUMP JUMPDEST PUSH1 0x0 DUP2 PUSH1 0x0 SUB PUSH2 0x3D88 JUMPI POP PUSH32 0x133A292295D50240EB5EDFCAA95731512CCDAF79758573A1F627DC47ADBDE7E SWAP2 SWAP1 POP JUMP JUMPDEST DUP2 PUSH1 0x1 SUB PUSH2 0x3DB7 JUMPI POP PUSH32 0xBA2D612822AD57FD2285564F4BAD51F685240488003085993BF5EE8E63C31CB SWAP2 SWAP1 POP JUMP JUMPDEST DUP2 PUSH1 0x2 SUB PUSH2 0x3DE6 JUMPI POP PUSH32 0x27B302C974BF7444CB94F3EEAE53D5CB897748679C94958C692567ED97E96C3C SWAP2 SWAP1 POP JUMP JUMPDEST DUP2 PUSH1 0x3 SUB PUSH2 0x3E15 JUMPI POP PUSH32 0x1C573635007D49A2E0E4E525A32CA29C3049377182BBB01EFEDDBCDFE513F82B SWAP2 SWAP1 POP JUMP JUMPDEST DUP2 PUSH1 0x4 SUB PUSH2 0x3E44 JUMPI POP PUSH32 0x2E1BF7A6E73442CDEAEC1EB387D34B4A27F6957A2AE407BBA844135FCA5D8DBC SWAP2 SWAP1 POP JUMP JUMPDEST DUP2 PUSH1 0x5 SUB PUSH2 0x3E72 JUMPI POP PUSH31 0x9199390BDB47D6917F64668754DBEB426B43513FA7B0807D85794BD60270D SWAP2 SWAP1 POP JUMP JUMPDEST DUP2 PUSH1 0x6 SUB PUSH2 0x3EA1 JUMPI POP PUSH32 0x2F7739FA804B1102B2E95582A4CFB3C25D26E1F70133A81E6FED8FEDBF7016EF SWAP2 SWAP1 POP JUMP JUMPDEST DUP2 PUSH1 0x7 SUB PUSH2 0x3ECF JUMPI POP PUSH31 0x371F555C474E2F7846B97C7A90DAB5FCC55AC0010C271796AD497F66689033 SWAP2 SWAP1 POP JUMP JUMPDEST DUP2 PUSH1 0x8 SUB PUSH2 0x3EFE JUMPI POP PUSH32 0x15B36B0DEBB62E1B11A9E331644A806960A4DF8919180DC0745D17C7A912E989 SWAP2 SWAP1 POP JUMP JUMPDEST DUP2 PUSH1 0x9 SUB PUSH2 0x3F2D JUMPI POP PUSH32 0xFAB3738A9EC3B9C6EAA98BF46972ED3CBBAE7982F0E69B3C7E9053ADF32290D SWAP2 SWAP1 POP JUMP JUMPDEST DUP2 PUSH1 0xA SUB PUSH2 0x3F5C JUMPI POP PUSH32 0x16824B083A3F105F6671A504C2379DE67CC5154C5B557294E35D27D1D3531225 SWAP2 SWAP1 POP JUMP JUMPDEST DUP2 PUSH1 0xB SUB PUSH2 0x3F8B JUMPI POP PUSH32 0x297ECAE656A0FE904FE84F8DB691C7156A51DD5E228873CF75CED697DD8E5C19 SWAP2 SWAP1 POP JUMP JUMPDEST DUP2 PUSH1 0xC SUB PUSH2 0x3FBA JUMPI POP PUSH32 0x67C35B9AC5CDC355C6F9EAEF4721E6D622A4FD32D74D7BE3F78B17E5D8597EA SWAP2 SWAP1 POP JUMP JUMPDEST DUP2 PUSH1 0xD SUB PUSH2 0x3FE9 JUMPI POP PUSH32 0x2C2633F1AE47AE42E0CE8EADEC89C64D44A1FA98F1EE85AD4BF536594AF4E27F SWAP2 SWAP1 POP JUMP JUMPDEST DUP2 PUSH1 0xE SUB PUSH2 0x4018 JUMPI POP PUSH32 0x2D9C6E7ECA6E7BA2B8335AE16998576602FE7910FB5EF41CE94D00B1332CF624 SWAP2 SWAP1 POP JUMP JUMPDEST DUP2 PUSH1 0xF SUB PUSH2 0x4047 JUMPI POP PUSH32 0x239F1418B2B0A70F468D0903CC46524D8F7EFBDB2DFA561494CA5BFFCC787700 SWAP2 SWAP1 POP JUMP JUMPDEST DUP2 PUSH1 0x10 SUB PUSH2 0x4076 JUMPI POP PUSH32 0xB15E263911EE4D77B6A394B70DC93AD3DF6DFDF6A3F7605F9CAFB6968D8F1F6 SWAP2 SWAP1 POP JUMP JUMPDEST DUP2 PUSH1 0x11 SUB PUSH2 0x40A5 JUMPI POP PUSH32 0x2C069C957125A3E2CB4E16CA506D5F4F387D11D1AEA33B30A8DD4CA3074F4DE6 SWAP2 SWAP1 POP JUMP JUMPDEST DUP2 PUSH1 0x12 SUB PUSH2 0x40D4 JUMPI POP PUSH32 0xBE6D282D26C02019FD66E32C8D85154B77253E7C6016B26A991352E0016D580 SWAP2 SWAP1 POP JUMP JUMPDEST DUP2 PUSH1 0x13 SUB PUSH2 0x4103 JUMPI POP PUSH32 0x1E29CFB0C1AD522F22A3B3E23C057CBD3C7AB921E742A8DFCBC66DBDE917D5B2 SWAP2 SWAP1 POP JUMP JUMPDEST DUP2 PUSH1 0x14 SUB PUSH2 0x4132 JUMPI POP PUSH32 0x2FB6E40B303CFF95DEC23C65CBFC0A74E935784E091B5A6CDDC02FAA6A7177E2 SWAP2 SWAP1 POP JUMP JUMPDEST SWAP2 SWAP1 POP JUMP JUMPDEST PUSH1 0x0 DUP1 PUSH1 0x0 DUP1 PUSH1 0x0 PUSH1 0x80 DUP7 DUP9 SUB SLT ISZERO PUSH2 0x414F JUMPI PUSH1 0x0 DUP1 REVERT JUMPDEST DUP6 CALLDATALOAD SWAP5 POP PUSH1 0x20 DUP7 ADD CALLDATALOAD SWAP4 POP PUSH1 0x40 DUP7 ADD CALLDATALOAD SWAP3 POP PUSH1 0x60 DUP7 ADD CALLDATALOAD PUSH8 0xFFFFFFFFFFFFFFFF DUP1 DUP3 GT ISZERO PUSH2 0x417C JUMPI PUSH1 0x0 DUP1 REVERT JUMPDEST DUP2 DUP9 ADD SWAP2 POP DUP9 PUSH1 0x1F DUP4 ADD SLT PUSH2 0x4190 JUMPI PUSH1 0x0 DUP1 REVERT JUMPDEST DUP2 CALLDATALOAD DUP2 DUP2 GT ISZERO PUSH2 0x419F JUMPI PUSH1 0x0 DUP1 REVERT JUMPDEST DUP10 PUSH1 0x20 DUP3 PUSH1 0x5 SHL DUP6 ADD ADD GT ISZERO PUSH2 0x41B4 JUMPI PUSH1 0x0 DUP1 REVERT JUMPDEST SWAP7 SWAP10 SWAP6 SWAP9 POP SWAP4 SWAP7 POP PUSH1 0x20 ADD SWAP5 SWAP4 SWAP3 POP POP POP JUMP JUMPDEST PUSH1 0x0 PUSH1 0x20 DUP3 DUP5 SUB SLT ISZERO PUSH2 0x41D9 JUMPI PUSH1 0x0 DUP1 REVERT JUMPDEST POP CALLDATALOAD SWAP2 SWAP1 POP JUMP JUMPDEST DUP2 DUP2 SUB DUP2 DUP2 GT ISZERO PUSH2 0x3D51 JUMPI PUSH32 0x4E487B7100000000000000000000000000000000000000000000000000000000 PUSH1 0x0 MSTORE PUSH1 0x11 PUSH1 0x4 MSTORE PUSH1 0x24 PUSH1 0x0 REVERT JUMPDEST PUSH32 0x4E487B7100000000000000000000000000000000000000000000000000000000 PUSH1 0x0 MSTORE PUSH1 0x32 PUSH1 0x4 MSTORE PUSH1 0x24 PUSH1 0x0 REVERT JUMPDEST PUSH1 0x40 DUP2 ADD DUP2 DUP4 PUSH1 0x0 JUMPDEST PUSH1 0x2 DUP2 LT ISZERO PUSH2 0x4271 JUMPI DUP2 MLOAD DUP4 MSTORE PUSH1 0x20 SWAP3 DUP4 ADD SWAP3 SWAP1 SWAP2 ADD SWAP1 PUSH1 0x1 ADD PUSH2 0x4252 JUMP JUMPDEST POP POP POP SWAP3 SWAP2 POP POP JUMP JUMPDEST PUSH1 0x0 PUSH1 0x20 DUP3 DUP5 SUB SLT ISZERO PUSH2 0x428C JUMPI PUSH1 0x0 DUP1 REVERT JUMPDEST POP MLOAD SWAP2 SWAP1 POP JUMP JUMPDEST PUSH32 0x4E487B7100000000000000000000000000000000000000000000000000000000 PUSH1 0x0 MSTORE PUSH1 0x12 PUSH1 0x4 MSTORE PUSH1 0x24 PUSH1 0x0 REVERT JUMPDEST PUSH1 0x0 DUP3 PUSH2 0x42F8 JUMPI PUSH32 0x4E487B7100000000000000000000000000000000000000000000000000000000 PUSH1 0x0 MSTORE PUSH1 0x12 PUSH1 0x4 MSTORE PUSH1 0x24 PUSH1 0x0 REVERT JUMPDEST POP MOD SWAP1 JUMP INVALID LOG2 PUSH5 0x6970667358 0x22 SLT KECCAK256 SWAP7 0xA8 OR 0xEC 0xAF REVERT 0x1F MLOAD DUP9 PUSH0 DUP15 SWAP11 ISZERO SWAP8 DUP14 SHL EXTCODESIZE SWAP2 CALLCODE 0x2D DELEGATECALL 0x2C PUSH18 0x8E09830AB13A44A61864736F6C6343000818 STOP CALLER "},"methodIdentifiers":{"LEVELS()":"e2adba8c","ROOTS_CAPACITY()":"6840fcea","currentLeafIndex()":"53e55371","currentRootIndex()":"90eeb02b","filledSubtrees(uint256)":"f178e47c","getLatestRoot()":"5445b007","hasher()":"ed33639f","isKnownRoot(uint256)":"a6232a93","roots(uint256)":"c2b40ae4","testInsert(uint256)":"79e2332b","testInsertLoop(uint256)":"fa58b9f5","testInsertMod(uint256)":"35fc21ed","testInsertStorage(uint256)":"752367f0","testUpdate(uint256,uint256,uint256,uint256[])":"323678d3","z(uint256)":"656ef8d9"}}}}}